:0320000002208E2D
:0F208E00787FE4F6D8FD75A00075814D0247A854
:1047A8001244F3124762123A87D2A6D2AFD2A67544
:1047B80028007527C07526FE7525FF7FF57E487D84
:1047C800037C00123BF590A0141239ADC2A620ACB0
:1047D800DC3098D9E59964A56004C29880CF12337B
:0447E8006580CA22FC
:104A280090E08D7402F090E0BFE0FFEF54F3FFEFE9
:0F4A38004404FFEFF0D2A8D288C28953F9F022CC
:10476200C2AF124A97124A7F75A93075B920C2A901
:10477200C2BDD2ACD2AF000000C290D29020AC1029
:1047820030980DE59964A56004C2988003123365E0
:10479200E59330E4E4800280E0000000D2A9D2BDBB
:0647A200000000D2AF226E
:0A4A97007593017594FF7595FF22D9
:0D4A650075B10575C90575D90575F10522F6
:0D4A720075B10F75C90F75D90F75F10F22C1
:103FD20090E08BE4F090E0ECE0FFEF4408FFEFF0BC
:103FE20090E0ECE0FFEF4403FFEFF090E05C740F31
:103FF200F090E07AE0FFEF4404FFEFF090E07AE027
:10400200FFEF4401FFEFF090E0A4E0FFEF54FCFF6C
:10401200EF4402FFEFF090E0A4E0FFEF54F3FFEF74
:104022004408FFEFF090E0A4E0FFEF54CFFFEF442D
:1040320020FFEFF090E09DE0FFEF54FDFFEFF090E6
:10404200E05DE0FFEF54F7FFEFF090E05AE0FFEFA2
:104052004420FFEFF090E05AE0FFEF4401FFEFF061
:0D40620090E064E4F0A3E4F0D2B8C2C02204
:1028F60090E0E1E0FFEF54CFFFEF4410FFEFF090E0
:10290600E0E1E0FFEF543FFFEF4440FFEFF090E0DF
:10291600E0E0FFEF54FCFFEF4401FFEFF090E0E052
:10292600E0FFEF54F3FFEF4404FFEFF090E0E0E048
:10293600FFEF54CFFFEF4410FFEFF090E0E0E0FF31
:10294600EF543FFFEF4440FFEFF075A20175A190F1
:1029560075C20175C19075D20175D19075E2017588
:10296600E19090E000E0FFEF4402FFEFF090E0001E
:10297600E0FFEF4404FFEFF090E000E0FFEF4408D3
:10298600FFEFF090E000E0FFEF4410FFEFF090E083
:1029960000E0FFEF54FEFFEFF090E003E0FFEF549E
:1029A600FCFFEF4402FFEFF090E019E0FFEF54FC6C
:1029B600FFEF4402FFEFF090E02FE0FFEF54FCFF43
:0A29C600EF4402FFEFF090E045E05F
:1029D000FFEF54FCFFEF4402FFEFF090E003E0FF55
:1029E000EF54F7FFEFF090E002E0FFEF543FFFEF0E
:1029F0004480FFEFF090E018E0FFEF543FFFEF441A
:102A000080FFEFF090E02EE0FFEF543FFFEF4480B7
:102A1000FFEFF090E044E0FFEF543FFFEF4480FF12
:102A2000EFF090E007E0FFEF54EFFFEFF090E007EA
:102A3000E0FFEF54DFFFEFF090E007E0FFEF54FC22
:102A4000FFEFF090E007E0FFEF54F3FFEFF090E0CE
:102A50001DE0FFEF54EFFFEFF090E01DE0FFEF54BB
:102A6000DFFFEFF090E01DE0FFEF54FCFFEFF09090
:102A7000E01DE0FFEF54F3FFEFF090E033E0FFEFF5
:102A800054EFFFEFF090E033E0FFEF54DFFFEFF0A3
:0E2A900090E033E0FFEF54FCFFEFF090E033F6
:102A9E00E0FFEF54F3FFEFF090E049E0FFEF54EF6B
:102AAE00FFEFF090E049E0FFEF54DFFFEFF090E032
:102ABE0049E0FFEF54FCFFEFF090E049E0FFEF54E8
:102ACE00F3FFEFF090E009E0FFEF543FFFEF4440DB
:102ADE00FFEFF090E009E0FFEF54CFFFEF4420FF4F
:102AEE00EFF090E008E0FFEF54F3FFEFF090E00816
:102AFE00E0FFEF54FCFFEFF090E009E0FFEF54F33E
:102B0E00FFEFF090E009E0FFEF54FCFFEFF090E0F4
:102B1E001FE0FFEF543FFFEF4440FFEFF090E01F48
:102B2E00E0FFEF54CFFFEF4420FFEFF090E01EE008
:102B3E00FFEF54F3FFEFF090E01EE0FFEF54FCFFC9
:102B4E00EFF090E01FE0FFEF54F3FFEFF090E01F87
:0D2B5E00E0FFEF54FCFFEFF090E035E0FFEA
:102B6B00EF543FFFEF4440FFEFF090E035E0FFEF15
:102B7B0054CFFFEF4420FFEFF090E034E0FFEF5431
:102B8B00F3FFEFF090E034E0FFEF54FCFFEFF09039
:102B9B00E035E0FFEF54F3FFEFF090E035E0FFEFAF
:102BAB0054FCFFEFF090E04BE0FFEF543FFFEF449E
:102BBB0040FFEFF090E04BE0FFEF54CFFFEF4420EE
:102BCB00FFEFF090E04AE0FFEF54F3FFEFF090E0FF
:102BDB004AE0FFEF54FCFFEFF090E04BE0FFEF54C7
:102BEB00F3FFEFF090E04BE0FFEF54FCFFEFF090C2
:102BFB00E00CE0FFEF4403FFEFF090E00CE0FFEFA1
:102C0B0054F3FFEF4408FFEFF090E00CE0FFEF54BC
:102C1B00CFFFEFF090E022E0FFEF4403FFEFF090E7
:0D2C2B00E022E0FFEF54F3FFEF4408FFEF5D
:102C3800F090E022E0FFEF54CFFFEFF090E038E0B3
:102C4800FFEF4403FFEFF090E038E0FFEF54F3FFAD
:102C5800EF4408FFEFF090E038E0FFEF54CFFFEFCC
:102C6800F090E04EE0FFEF4403FFEFF090E04EE01D
:102C7800FFEF54F3FFEF4408FFEFF090E04EE0FF62
:102C8800EF54CFFFEFF090E00DE4F0A37432F09032
:102C9800E023E4F0A37432F090E039E4F0A3743256
:102CA800F090E04FE4F0A37432F090E00FE4F0A36A
:102CB8007432F090E025E4F0A37432F090E03BE445
:102CC800F0A37432F090E051E4F0A37432F090E095
:102CD80011E0FFEF4401FFEFF090E011E0FFEF5447
:102CE800FDFFEFF090E027E0FFEF4401FFEFF090E9
:102CF800E027E0FFEF54FDFFEFF090E03DE0FFEF4D
:042D08004401FFEF94
:102D0C00F090E03DE0FFEF54FDFFEFF090E053E07A
:102D1C00FFEF4401FFEFF090E053E0FFEF54FDFFB5
:102D2C00EFF090E012E0FFEF54FCFFEFF090E012B8
:102D3C00E0FFEF54F3FFEFF090E028E0FFEF54FCDE
:102D4C00FFEFF090E028E0FFEF54F3FFEFF090E09E
:102D5C003EE0FFEF54FCFFEFF090E03EE0FFEF545D
:102D6C00F3FFEFF090E054E0FFEF54FCFFEFF09036
:102D7C00E054E0FFEF54F3FFEFF090E015E0FFEFCD
:102D8C004408FFEFF090E015E0FFEF54F8FFEF443C
:102D9C0001FFEFF090E014E0FFEF4408FFEFF0903C
:102DAC00E014E0FFEF54F8FFEF4401FFEFF090E088
:102DBC0014E0FFEF547FFFEFF090E014E0FFEF54CE
:0E2DCC008FFFEF4410FFEFF090E02BE0FFEFE1
:102DDA004408FFEFF090E02BE0FFEF54F8FFEF44D8
:102DEA0001FFEFF090E02AE0FFEF4408FFEFF090D8
:102DFA00E02AE0FFEF54F8FFEF4401FFEFF090E024
:102E0A002AE0FFEF547FFFEFF090E02AE0FFEF5453
:102E1A008FFFEF4410FFEFF090E041E0FFEF44082E
:102E2A00FFEFF090E041E0FFEF54F8FFEF4401FFBD
:102E3A00EFF090E040E0FFEF4408FFEFF090E04051
:102E4A00E0FFEF54F8FFEF4401FFEFF090E040E0BD
:102E5A00FFEF547FFFEFF090E040E0FFEF548FFF69
:102E6A00EF4410FFEFF090E057E0FFEF4408FFEF68
:102E7A00F090E057E0FFEF54F8FFEF4401FFEFF066
:102E8A0090E056E0FFEF4408FFEFF090E056E0FFD5
:0E2E9A00EF54F8FFEF4401FFEFF090E056E038
:102EA800FFEF547FFFEFF090E056E0FFEF548FFF05
:102EB800EF4410FFEFF090E017E0FFEF54FCFFEF56
:102EC8004401FFEFF090E017E0FFEF54F3FFEF4409
:102ED80004FFEFF090E016E0FFEF54FCFFEF440131
:102EE800FFEFF090E016E0FFEF54F3FFEF4404FF2C
:102EF800EFF090E016E0FFEF54CFFFEFF090E01610
:102F0800E0FFEF543FFFEFF090E02DE0FFEF54FCBF
:102F1800FFEF4401FFEFF090E02DE0FFEF54F3FFE7
:102F2800EF4404FFEFF090E02CE0FFEF54FCFFEFDC
:102F38004401FFEFF090E02CE0FFEF54F3FFEF4483
:102F480004FFEFF090E02CE0FFEF54CFFFEFF0909C
:102F5800E02CE0FFEF543FFFEFF090E043E0FFEF9D
:0D2F680054FCFFEF4401FFEFF090E043E068
:102F7500FFEF54F3FFEF4404FFEFF090E042E0FF72
:102F8500EF54FCFFEF4401FFEFF090E042E0FFEF6C
:102F950054F3FFEF4404FFEFF090E042E0FFEF54FD
:102FA500CFFFEFF090E042E0FFEF543FFFEFF090EE
:102FB500E059E0FFEF54FCFFEF4401FFEFF090E034
:102FC50059E0FFEF54F3FFEF4404FFEFF090E058B2
:102FD500E0FFEF54FCFFEF4401FFEFF090E058E015
:102FE500FFEF54F3FFEF4404FFEFF090E058E0FFEC
:102FF500EF54CFFFEFF090E058E0FFEF543FFFEFC5
:10300500F075A20775A1D075C20775C1D075D20735
:1030150075D1D075E20775E1D075A40175A3E87582
:10302500C40175C3E875D40175D3E875E40175E38A
:10303500E875A60175A59075C60175C59075D6018B
:1030450075D59075E60175E59090E000E0FFEF44D9
:1030550001FFEFF043B60143CE0143DE0143F60124
:05306500D2CDD2B9221A
:103E240090E0E1E0FFEF54F3FFEF4408FFEFF09080
:103E3400E0DAE0FFEF54FCFFEF4402FFEFF090E024
:103E4400DBE0FFEF543FFFEF4480FFEFF090E0DB57
:103E5400E0FFEF54CFFFEF4420FFEFF090E0A4E049
:103E6400FFEF54FCFFEF4401FFEFF090E0A4E0FF0C
:103E7400EF54F3FFEF4404FFEFF090E0A4E0FFEF12
:103E840054CFFFEF4410FFEFF090E0A4E0FFEF54B5
:103E9400BFFFEFF090E0C6E0FFEF54FEFFEFF090BD
:103EA400E0C6E0FFEF54FDFFEFF090E0C6E0FFEF67
:103EB40054FBFFEFF090E0C6E0FFEF54F7FFEFF0A4
:103EC40090E0EBE0FFEF4401FFEFF090E0EBE0FF68
:103ED400EF4402FFEFF090E0EBE0FFEF4404FFEF6C
:0C3EE400F090E0EBE0FFEF4408FFEFF08F
:103EF00090E0C7E0FFEF54FEFFEFF090E0C7E0FF77
:103F0000EF54FDFFEFF090E0C7E0FFEF54FBFFEF51
:103F1000F090E0C7E0FFEF54F7FFEFF090E0EBE048
:103F2000FFEF4410FFEFF0D2BBD2AAC28BC2C32274
:104A47007586FFD2AED2BE90E0DBE0FFEF54FCFFED
:0E4A5700EFF090E0DCE0FFEF54FEFFEFF02206
:103A870090E0D5E4F090E0D4E4F090E0D6E4F09054
:103A9700E0D874FFF090E0D7E4F090E0D9E4F0903C
:103AA700E0DBE4F090E0DAE4F090E0DCE4F090E0D2
:103AB700DE74FFF090E0DDE4F090E0DFE4F090E00A
:103AC700E1E4F090E0E0E4F090E0E2E4F090E0E49C
:103AD70074FFF090E0E3E4F090E0E5E4F090E0D5E7
:103AE700E0FFEF54FCFFEFF090E0D6E0FFEF44017A
:103AF700FFEFF090E0D8E0FFEF54FEFFEFF090E02B
:103B0700D7E0FFEF54FEFFEFF090E0E1E0FFEF5466
:103B1700FCFFEF4401FFEFF090E0E2E0FFEF54FE1F
:103B2700FFEFF090E0E4E0FFEF4401FFEFF090E0FB
:103B3700E5E0FFEF54FEFFEFF090E0E3E0FFEF5426
:103B4700FEFFEFF090E0DAE0FFEF54F3FFEF4408F9
:103B5700FFEFF090E0DCE0FFEF54DFFFEFF090E0E5
:013B6700DE7F
:103B6800E0FFEF4420FFEFF090E0DFE0FFEF54DFED
:103B7800FFEFF090E0DDE0FFEF54DFFFEFF090E0C3
:103B8800D4E0FFEF54FCFFEFF090E0D6E0FFEF4405
:103B980010FFEFF090E0D8E0FFEF4410FFEFF09057
:103BA800E0D9E0FFEF54EFFFEFF090E0D7E0FFEF50
:103BB80054EFFFEFF090E0E0E0FFEF54CFFFEFF0BD
:103BC80090E0E2E0FFEF4440FFEFF090E0E4E0FF38
:103BD800EF54BFFFEFF090E0E5E0FFEF54BFFFEFD9
:0D3BE800F090E0E3E0FFEF54BFFFEFF022AC
:1049E30090E0EF7405F090E0EEE4F0758910758ABD
:1049F30000758CFE758B00758D00D2A9D2ABD28C5D
:034A0300D28E222E
:1049620090E0C9E4F090E0CC74E0F0A374C0F09061
:10497200E0C8E0FFEF4420FFEFF090E0C8E0FFEF77
:0D4982004404FFEFF053F9E0D2AAC28B22EB
:10498F0090E0CFE4F090E0D274E0F0A374C0F09028
:10499F00E0CEE0FFEF4420FFEFF090E0CEE0FFEF3E
:0D49AF004404FFEFF053FEF0D2BDC2C5225C
:1048F60090E0F4E4F090E0F77410F0A374C0F09048
:10490600E0F3E0FFEF4420FFEFF090E0F3E0FFEF8D
:104916004404FFEFF090E0F3E0FFEF547FFFEFF089
:07492600D2CED2BAC2C222B8
:10492D0090E0FAE4F090E0FD7410F0A374C0F09004
:10493D00E0F9E0FFEF4420FFEFF090E0F9E0FFEF4A
:10494D004404FFEFF090E0F9E0FFEF547FFFEFF04C
:05495D00D2BCC2C4221F
:1044F30090E0B27460F090E0B17440F090E0B0747A
:104503004FF090E0AF743FF00000000000000000A7
:104513000000000000000000000000000000000098
:1045230000000000000000000090E0E77401F0903C
:10453300E0E6E4F0000000000000000000000000DE
:104543000000000000000000000000000000000068
:05455300000000002241
:0D4A7F0075985075D88075AA7E75BA03220F
:0A4AA100759B90759DE675BB03221E
:1048300090E07AE0FFEF54FBFFEFF090E07AE0FFCA
:10484000EF54FEFFEFF090E07AE0FFEF54F7FFEF58
:10485000F090E07AE0FFEF54FDFFEFF090E089E0A8
:10486000FFEF54FEFFEFF090E089E0FFEF54FDFF13
:03487000EFF02244
:0320030002406F29
:10406F00C0E0C0D075D000C007E5F930E0047F0193
:10407F0080027F00EFB4010353F9FEE5F930E1044C
:10408F007F0180027F00EFB40105B2A653F9FCE572
:10409F00F930E2047F0180027F00EFB4010353F98E
:1040AF00F8E5F930E3047F0180027F00EFB40103EC
:1040BF0053F9F0E5F930E0047F0180027F00EF70E3
:1040CF002CE5F930E1047F0180027F00EF701EE5DF
:1040DF00F930E2047F0180027F00EF7010E5F930C4
:1040EF00E3047F0180027F00EF7002C289D007D006
:0440FF00D0D0E0320B
:03200B000249BCCB
:1049BC00C0E0C083C082C0D075D000C007C28DB229
:1049CC008490E05AE0FFEF4420FFEFF0D007D0D006
:0749DC00D082D083D0E0324D
:03201B000220069A
:03200600C28F3254
:0320BB0002377A6F
:10377A00C0E0C0F0C083C082C0D075D000C000C015
:10378A0001C002C003C004C005C006C00790E0C85B
:10379A00E0FFEFC41313135401FFEF30E01190A0C0
:1037AA001EE004F090E0C8E0FFEF547FFFEFF090D6
:1037BA00E0C8E0FFEFC413135403FFEF20E0030255
:1037CA0038B990E0CCE0FEA3E0FFE4FCFD90A0084D
:1037DA001239AD90E08AE0FFEF30E02790E08AE00E
:1037EA00FFEF54FEFFEFF090A008E0FCA3E0FDA37A
:1037FA00E0FEA3E0FF90A0041239AD90A01EE4F011
:10380A000238AE90A01EE0FFEF703190A004E0F8FD
:10381A00A3E0F9A3E0FAA3E0FB90A008E0FCA3E090
:10382A00FDA3E0FEA3E0FFC3EF9BFFEE9AFEED9936
:10383A00FDEC98FC90A01A1239AD805D90A01EE0B4
:10384A00FFE4FCFDFE781012399A90A01A1239ADE5
:10385A0090A008E0FCA3E0FDA3E0FEA3E0FF90A097
:10386A001AE0F8A3E0F9A3E0FAA3E0FBEB2FFFEAE2
:10387A003EFEE93DFDE83CFC90A004E0F8A3E0F937
:10388A00A3E0FAA3E0FBC3EF9BFFEE9AFEED99FDDE
:10389A00EC98FC90A01A1239AD90E08AE0FFEF4450
:1038AA0001FFEFF090E0C8E0FFEF54BFFFEFF090A8
:1038BA00E0C8E0FFEFC41313135401FFEF20E02028
:1038CA0090E0C8E0FFEFC413135403FFEF20E010A9
:1038DA00E5F930E5047F0180027F00EF7002C28BB8
:1038EA00D007D006D005D004D003D002D001D00032
:0B38FA00D0D0D082D083D0F0D0E032DC
:03208B0002448389
:10448300C0E0C083C082C0D075D000C00790E0CE2A
:10449300E0FFEF547FFFEFF053FEF0B2A6E5FE30EE
:1044A300E0047F0180027F00EF703AE5FE30E10413
:1044B3007F0180027F00EF702CE5FE30E2047F0174
:1044C30080027F00EF701EE5FE30E3047F0180026F
:1044D3007F00EF7010E59330E7047F0180027F00D7
:1044E300EF7002C2C5D007D0D0D082D083D0E032E3
:0320AB0002439A53
:10439A00C0E0C083C082C0D075D000C006C00790FC
:1043AA00E0F3E0FFEF547FFFEFF090E0F3E0FFEF80
:1043BA0054BFFFEFF0B2A690E0F3E0FFEFC413138F
:1043CA005403FFEF30E0047F0180027F0090E0F3A6
:1043DA00E0FEEEC41313135401FEEE30E0047E0136
:1043EA0080027E00EE4FFFEF7010E5FA30E3047FA3
:1043FA000180027F00EF7002C2C2D007D006D0D07F
:07440A00D082D083D0E03224
:0320C300024103D4
:10410300C0E0C083C082C0D075D000C006C0079095
:10411300E0F9E0FFEF547FFFEFF090E0F9E0FFEF0D
:1041230054BFFFEFF0E5FD30E3047F0180027F0021
:10413300EF7051E5FD30E4047F0180027F00EF70F2
:1041430043E5FD30E5047F0180027F00EF70359089
:10415300E0F9E0FFEFC413135403FFEF30E0047FF3
:104163000180027F0090E0F9E0FEEEC413131354C4
:1041730001FEEE30E0047E0180027E00EE4FFFEF91
:104183007002C2C4B2A6D007D006D0D0D082D083EA
:03419300D0E03247
:03204B000244113B
:10441100C0E0C0D075D000C007E5B530E0047F0131
:1044210080027F00EFB4010343B601E5CD30E00423
:104431007F0180027F00EFB4010343CE01E5DD304F
:10444100E0047F0180027F00EFB4010343DE01E558
:10445100B530E0047F0180027F00EF701EE5CD30B2
:10446100E0047F0180027F00EF7010E5DD30E004A1
:104471007F0180027F00EF7002C2C1D007D0D0D08F
:02448100E03227
:0320A3000245589B
:10455800C0E0C083C082C0D075D000C006C0074389
:10456800F60190E0F3E0FFEFC413135403FFEF30BC
:10457800E0047F0180027F0090E0F3E0FEEEC413C8
:1045880013135401FEEE30E0047E0180027E00EE3B
:104598004FFFEF7010E5F530E0047F0180027F00E7
:1045A800EF7002C2C2D007D006D0D0D082D083D05C
:0245B800E032EF
:0320B3000248B52B
:1048B500C0E0C083C082C0D075D000C00790E0C7FB
:1048C500E0FFEF54FEFFEFF0E5F930E4047F0180EF
:1048D500027F00EF7010E5F930E5047F0180027F6B
:1048E50000EF7002C28BD007D0D0D082D083D0E049
:0148F5003290
:03205B00024196A9
:10419600C0E0C083C082C0D075D000C00790E0C721
:1041A600E0FFEFC313FFEF30E00B90E0C7E0FFEF57
:1041B60054FDFFEFF090E0C7E0FFEF1313543FFF0D
:1041C600EF30E00B90E0C7E0FFEF54FBFFEFF0901D
:1041D600E0C7E0FFEF131313541FFFEF30E00B901F
:1041E600E0C7E0FFEF54F7FFEFF090E0C7E0FFEF26
:1041F600C313FFEF20E02190E0C7E0FFEF13135455
:104206003FFFEF20E01290E0C7E0FFEF13131354D7
:104216001FFFEF20E002C2C3D007D0D0D082D083E8
:03422600D0E032B3
:0320CB00024229A5
:10422900C0E0C083C082C0D075D000C006C007E519
:10423900FD30E3047F0180027F00EF7051E5FD301E
:10424900E4047F0180027F00EF7043E5FD30E5045F
:104259007F0180027F00EF703590E0F9E0FFEFC445
:1042690013135403FFEF30E0047F0180027F0090B5
:10427900E0F9E0FEEEC41313135401FEEE30E0043E
:104289007E0180027E00EE4FFFEF7002C2C4D007AC
:0B429900D006D0D0D082D083D0E0321D
:0320D3000242A422
:1042A400C0E0C083C082C0D075D000C006C007E59E
:1042B400FD30E3047F0180027F00EF7051E5FD30A3
:1042C400E4047F0180027F00EF7043E5FD30E504E4
:1042D4007F0180027F00EF703590E0F9E0FFEFC4CA
:1042E40013135403FFEF30E0047F0180027F00903A
:1042F400E0F9E0FEEEC41313135401FEEE30E004C3
:104304007E0180027E00EE4FFFEF7002C2C4D00730
:0B431400D006D0D0D082D083D0E032A1
:0320DB0002431F9E
:10431F00C0E0C083C082C0D075D000C006C007E522
:10432F00FD30E3047F0180027F00EF7051E5FD3027
:10433F00E4047F0180027F00EF7043E5FD30E50468
:10434F007F0180027F00EF703590E0F9E0FFEFC44E
:10435F0013135403FFEF30E0047F0180027F0090BE
:10436F00E0F9E0FEEEC41313135401FEEE30E00447
:10437F007E0180027E00EE4FFFEF7002C2C4D007B5
:0B438F00D006D0D0D082D083D0E03226
:0320E3000245BAF9
:1045BA00C0E0C0D075D000C00753FEFEE5FE30E073
:1045CA00047F0180027F00EF703AE5FE30E1047F4C
:1045DA000180027F00EF702CE5FE30E2047F01804B
:1045EA00027F00EF701EE5FE30E3047F0180027F48
:1045FA0000EF7010E59330E7047F0180027F00EF3F
:0B460A007002C2C5D007D0D0D0E03253
:0320EB0002461595
:10461500C0E0C0D075D000C00753FEFCE5FE30E019
:10462500047F0180027F00EF703AE5FE30E1047FF0
:104635000180027F00EF702CE5FE30E2047F0180EF
:10464500027F00EF701EE5FE30E3047F0180027FEC
:1046550000EF7010E59330E7047F0180027F00EFE3
:0B4665007002C2C5D007D0D0D0E032F8
:0320F30002467032
:10467000C0E0C0D075D000C00753FEF8E5FE30E0C2
:10468000047F0180027F00EF703AE5FE30E1047F95
:104690000180027F00EF702CE5FE30E2047F018094
:1046A000027F00EF701EE5FE30E3047F0180027F91
:1046B00000EF7010E59330E7047F0180027F00EF88
:0B46C0007002C2C5D007D0D0D0E0329D
:0B4A8C00309802C298309902C29922B3
:0320830002202612
:10202600C0E0E59B30E003539BFEE59B30E10353A4
:052036009BFDD0E0322B
:03204300024873DD
:10487300C0E0C083C082C0D075D000C006C007901E
:10488300E05BE0FFEF30E00D90E05BE0FFEF54FE14
:10489300FFEFF0C2C090E072E0FEA3E0FF90A0182B
:1048A300EEF0A3EFF0D007D006D0D0D082D083D0E3
:0248B300E032F1
:1046CB008F1990E08EE0FFEFC413135403FFEF201C
:1046DB00E0F090E08F7453F090E091E519F090E0EA
:1046EB0092E4F0AF1DAE1CAD1BAC1A90E0931239E7
:1046FB00AD90E08E740BF090E08EE0FFEFC413549E
:0C470B0007FFEF30E0F190E08EE4F022B8
:104717008F1E90E08EE0FFEFC413135403FFEF20CA
:10472700E0F090E08F7455F090E091E51EF090E096
:1047370092E4F090E08E7407F090E08EE0FFEFC413
:10474700540FFFEF30E0F290E08EE4F090E093E05A
:0B475700FCA3E0FDA3E0FEA3E0FF22B6
:0320230002312265
:032013000230ACEC
:03205300023095C3
:0320630002306ADE
:03206B000230C37D
:10306A00C0D0C0E0E5FD20E30D20E41120E515D035
:10307A00E0D0D00220C3D0E0D0D00220CBD0E0D024
:10308A00D00220D3D0E0D0D00220DBC0D0C0E0E50F
:10309A00FA20E307D0E0D0D00220ABD0E0D0D002B3
:1030AA0020A3C0D0C0E0E5F920E407D0E0D0D002E8
:1030BA0020B3D0E0D0D00220BBC0D0C0E0E593203E
:1030CA00E727E5FE20E00D20E11120E215D0E0D04F
:1030DA00D002208BD0E0D0D00220E3D0E0D0D002C2
:1030EA0020EBD0E0D0D00220F375D000C000C001A0
:1030FA00740033747C3353937FC2C5D2998046C817
:10310A00C443968010E40353967FC8759380F59460
:08311A00316EF59588932163E5
:10312200C0D0C0E0309814E599C298F51FB4A55EEE
:10313200D29975D000C000C001801074FF75D00014
:10314200C000C00178FF8600B8FF2974F73099FDEE
:10315200C299F599D0017805D0E03198D8FAE931D1
:1031620098316EC0E0316EC0E0316EF83098FDE506
:1031720099C29822E58124FCF9800C0819E66708B7
:10318200097004E66760C4B8FEF1D001D000D0E057
:10319200D0D0439310323099FDC299F59922C0E004
:1031A200316EC0E0316EC0E0316EF9316EC0E0C008
:1031B2000078FFE67002C299218E8882F58321632E
:1031C2008881F5F02163F5802163F5B02163E58103
:1031D200C083C082C08EC0F0C0E0C0E0214FE5894C
:1031E200C088C087C086C085C084C080214FE5905A
:1031F200C08FC08EC08DC08CC08BC08A214FE59716
:10320200C096C095C094C093C092C091214FE59ED4
:10321200C09DC09CC09BC09AC099C098214FE5A593
:10322200C0A4C0A3C0A2C0A1C0A0C09F214FE5AC52
:10323200C0ABC0AAC0A9C0A8C0A7C0A6214FE5B311
:04324200C0B2C0B1A5
:10324600C0B0C0AFC0AEC0AD214FE5BAC0B9C0B8BE
:10325600C0B7C0B6C0B5C0B4214FE5C1C0C0C0BF7D
:10326600C0BEC0BDC0BCC0BB214FE5C8C0C7C0C63C
:10327600C0C5C0C4C0C3C0C2214FE5CFC0CEC0CDFB
:10328600C0CCC0CBC0CAC0C9214FE5D7C0D6C0D5B7
:10329600C0D4C0D3C0D2C0D1214FE5DEC0DDC0DC72
:1032A600C0DBC0DAC0D9C0D8214FE5E6C0E5C0E42E
:1032B600C0E3C0E2C0E1C0DF214FE5EDC0ECC0EBEA
:1032C600C0EAC0E9C0E8C0E7214FE5F5C0F4C0F3A5
:1032D600C0F2C0F1C0EFC0EE214FE5FCC0FBC0FA62
:1032E600C0F9C0F8C0F7C0F6214FE5FFC0FEC0FD2B
:1032F600C0E0C0E0C0E0C0E0214FBFA7005025EF0E
:10330600640AA2ACC2AC7009740DC299F5993099E1
:10331600FDEFC299F5993099FD500778FFE67002E6
:10332600C29992AC2230AC0CE51F64A560F774A577
:10333600C51FFF223098FDE599B4A50512336580B7
:10334600E4FFC2982230AC07E51FB4A510C322C320
:0F33560030980BE599B4A50512336580E8D322B2
:0B33650078FF76FF751FA5D2AC220098
:1020F600000000110023003500470059006B007DE9
:10210600008F00A100B300C600D800EB00FD01104F
:10211600012301350148015B016E0181019401A78C
:1021260001BB01CE01E101F50208021C02300243A7
:102136000257026B027F029302A702BB02CF02E3A1
:1021460002F8030C032003350349035E0373038778
:10215600039C03B103C603DB03F00405041A042F32
:102166000445045A046F0485049A04B004C504DBCC
:1021760004F10506051C05320548055E0574058A49
:1021860005A005B605CC05E205F9060F0625063CB1
:1021960006520669067F069606AC06C306DA06F000
:1021A6000707071E0735074C0763077A079107A835
:1021B60007BF07D607ED0804081B0832084908615F
:1021C6000878088F08A608BE08D508EC0904091B7C
:1021D6000932094A09610979099009A809BF09D78D
:1021E60009EE0A060A1D0A350A4C0A640A7B0A9396
:1021F6000AAA0AC20AD90AF10B080B200B370B4FA1
:102206000B660B7E0B950BAD0BC40BDC0BF30C0AAC
:102216000C220C390C510C680C7F0C970CAE0CC5BB
:102226000CDD0CF40D0B0D220D390D500D680D7FD4
:102236000D960DAD0DC40DDB0DF20E090E1F0E36FB
:102246000E4D0E640E7B0E910EA80EBF0ED50EEC33
:102256000F020F190F2F0F450F5C0F720F880F9E7D
:102266000FB40FCB0FE10FF7100D10221038104EE0
:102276001064107A108F10A510BA10D010E510FB5C
:1022860011101125113A114F11641179118E11A3F4
:1022960011B811CD11E211F6120B122012341248A8
:1022A600125D12711285129912AE12C212D612E97D
:1022B60012FD131113251338134C13601373138671
:1022C600139A13AD13C013D313E613F9140C141F8A
:1022D600143214441457146A147C148F14A114B3C2
:1022E60014C514D814EA14FC150E1520153115431F
:1022F6001555156615781589159B15AC15BD15CFA1
:1023060015E015F116021613162416341645165640
:10231600166616771687169816A816B816C816D80B
:1023260016E816F8170817181728173817471757F3
:10233600176617761785179417A417B317C217D100
:1023460017E017EF17FE180D181B182A183818472C
:102356001855186418721880188F189D18AB18B97C
:1023660018C718D518E318F018FE190C19191927EB
:1023760019341942194F195C196A19771984199178
:10238600199E19AB19B819C519D119DE19EB19F728
:102396001A041A101A1D1A291A361A421A4E1A5AED
:1023A6001A661A721A7E1A8A1A961AA21AAE1AB9D8
:1023B6001AC51AD11ADC1AE81AF31AFF1B0A1B15DA
:1023C6001B211B2C1B371B421B4D1B581B631B6EF3
:1023D6001B791B841B8E1B991BA41BAE1BB91BC32D
:1023E6001BCE1BD81BE31BED1BF71C021C0C1C167B
:1023F6001C201C2A1C341C3E1C481C521C5C1C65E0
:102406001C6F1C791C831C8C1C961C9F1CA91CB25F
:102416001CBC1CC51CCE1CD81CE11CEA1CF31CFCF5
:102426001D051D0F1D181D201D291D321D3B1D4498
:102436001D4D1D551D5E1D671D6F1D781D811D8956
:102446001D921D9A1DA21DAB1DB31DBB1DC41DCC27
:102456001DD41DDC1DE41DEC1DF41DFC1E041E0C0C
:102466001E141E1C1E241E2C1E341E3B1E431E4BF9
:102476001E521E5A1E621E691E711E781E801E87FF
:102486001E8E1E961E9D1EA41EAC1EB31EBA1EC117
:102496001EC81ED01ED71EDE1EE51EEC1EF31EFA3B
:1024A6001F011F071F0E1F151F1C1F231F291F306B
:1024B6001F371F3E1F441F4B1F511F581F5E1F65AE
:1024C6001F6B1F721F781F7F1F851F8B1F921F9800
:1024D6001F9E1FA51FAB1FB11FB71FBD1FC41FCA5D
:1024E6001FD01FD61FDC1FE21FE81FEE1FF41FFAC6
:1024F60040003FC03F813F423F043EC63E893E4CBE
:102506003E103DD43D993D5E3D243CEA3CB13C78CD
:102516003C403C083BD13B9A3B643B2E3AF93AC4DB
:102526003A903A5C3A2939F639C4399239613930E8
:10253600390038D038A138723844381637E937BCF4
:10254600379037643739370E36E436BA36913668FF
:102556003640361835F135CA35A4357E3559353409
:10256600351034EC34C934A6348434623441342012
:10257600340033E033C133A2338433663349332C1A
:10258600331032F432D932BE32A4328A3271325822
:1025960032403228321131FA31E431CE31B931A428
:1025A6003190317C3169315631443132312131102B
:1025B600310030F030E130D230C430B630A9309C32
:1025C600309030843079306E3064305A3051304833
:1025D600304030383031302A3024301E3019301433
:1025E6003010300C30093006300430023001300033
:1025F6003000300030013002300430063009300C33
:10260600301030143019301E3024302A3031303832
:10261600304030483051305A3064306E3079308432
:102626003090309C30A930B630C430D230E130F032
:102636003100311031213132314431563169317C2A
:10264600319031A431B931CE31E431FA3211322828
:10265600324032583271328A32A432BE32D932F422
:102666003310332C33493366338433A233C133E01A
:102676003400342034413462348434A634C934EC12
:10268600351035343559357E35A435CA35F1361809
:1026960036403668369136BA36E4370E37393764FF
:1026A600379037BC37E938163844387238A138D0F5
:1026B600390039303961399239C439F63A293A5CE8
:1026C6003A903AC43AF93B2E3B643B9A3BD13C08DC
:1026D6003C403C783CB13CEA3D243D5E3D993DD4CE
:1026E6003E103E4C3E893EC63F043F423F813FC0BE
:1026F60040004040408140C241044146418941CCAE
:1027060042104254429942DE4324436A43B143F89D
:102716004440448844D1451A456445AE45F946448B
:10272600469046DC4729477647C44812486148B078
:102736004900495049A149F24A444A964AE94B3C64
:102746004B904BE44C394C8E4CE44D3A4D914DE850
:102756004E404E984EF14F4A4FA44FFE505950B43A
:102766005110516C51C95226528452E2534153A022
:102776005400546054C15522558455E6564956AC0A
:102786005710577457D9583E58A4590A597159D8F1
:102796005A405AA85B115B7A5BE45C4E5CB95D24D7
:1027A6005D905DFC5E695ED65F445FB260216090BD
:1027B6006100617061E1625262C4633663A9641CA0
:1027C60064906504657965EE666466DA675167C884
:1027D600684068B8693169AA6A246A9E6B196B9465
:1027E6006C106C8C6D096D866E046E826F016F8045
:1027F6007000708071017182720472867309738C25
:10280600741074947519759E762476AA773177B804
:10281600784078C8795179DA7A647AEE7B797C04E3
:102826007C907D1C7DA97E367EC47F527FE18070C0
:1028360081008190822182B2834483D6846984FC9C
:102846008590862486B9874E87E4887A891189A877
:102856008A408AD88B718C0A8CA48D3E8DD98E7451
:102866008F108FAC904990E69184922292C193602A
:10287600940094A0954195E29684972697C9986C02
:10288600991099B49A599AFE9BA49C4A9CF19D98DA
:102896009E409EE89F91A03AA0E4A18EA239A2E4B0
:1028A600A390A43CA4E9A596A644A6F2A7A1A85085
:1028B600A900A9B0AA61AB12ABC4AC76AD29ADDC58
:1028C600AE90AF44AFF9B0AEB164B21AB2D1B3882C
:1028D600B440B4F8B5B1B66AB724B7DEB899B954FE
:1028E600BA10BACCBB89BC46BD04BDC2BE81BF40CE
:103BF5008F248E238D228C21AF24AE23AD22AC21C0
:103C0500753D2F12206E8F108E0F8D0E8C0DAF28E7
:103C1500AE27AD26AC25753D2F12206E8F148E1361
:103C25008D128C11AF14AE13AD12AC11AB10AA0FDF
:103C3500A90EA80D123927753DAF12206E8F188E6B
:103C4500178D168C15E52854FFFFE527547FFEE5F3
:103C5500265400FDE5255400FCAB10AA0FA90EA8BB
:103C65000D1239278F108E0F8D0E8C0DE52454FF04
:103C7500FFE523547FFEE5225400FDE5215400FCB9
:103C8500AB14AA13A912A8111239278F148E138DFC
:103C9500128C11E52454FFFBE523547FFAE52254E9
:103CA50000F9E5215400F8E52854FFFFE527547F86
:103CB500FEE5265400FDE5255400FC123927753D27
:103CC5002F12206EA804A905AA06AB07E518251032
:103CD500FFE517350FFEE516350EFDE515350DFC2F
:103CE500EF2514FFEE3513FEED3512FDEC3511FC15
:103CF500EB2FF518EA3EF517E93DF516E83CF51505
:093D0500AF18AE17AD16AC152283
:103D0E008F418E408D3F8C3EAF41AE40AD3FAC3EBD
:103D1E0012203B8F108E0F8D0E8C0D7F007E007D3E
:103D2E00B47C00AB10AA0FA90EA80DC312398440A3
:103D3E001BC3E5109400F510E50F9400F50FE50E8A
:103D4E0094B4F50EE50D9400F50D80CFAF10AE0FC7
:103D5E00AD0EAC0DC004C005C006C00775280B75AE
:103D6E0027B6752600752500D007D006D005D004DD
:103D7E00123BF58F108E0F8D0E8C0DAF10AE0FAD5A
:103D8E000EAC0D753D2F12206E8F108E0F8D0E8C7A
:103D9E000D7F027E007D007C00AB10AA0FA90EA83D
:103DAE000D1239278F828E83E0FEA3E0FFE4FCFD27
:103DBE008F188E178D168C15AF18AE17AD16AC1555
:103DCE00753D9012206E8F188E178D168C15AF18AC
:103DDE00AE17AD16AC15753D2F12206E8F188E17BF
:103DEE008D168C157F007E007D007C00AB41AA40B5
:103DFE00A93FA83EC31239845013AF18AE17AD16A3
:103E0E00AC151239768F188E178D168C15AF18AE1D
:063E1E0017AD16AC1522E1
:1035E8008F458E448D438C427F007E007D007C0099
:1035F800AB45AA44A943A842C312398450097F00A5
:103608007E007D007C0022AF45AE44AD43AC421243
:103618004A068F108E0F8D0E8C0DC3741095EFF522
:1036280008E50875F002123905AFF0EF7068E5108B
:1036380054FFF510E50F54FFF50FE50E54FFF50E96
:10364800E50D547FF50DAF10AE0FAD0EAC0D753D09
:103658003712206EEF2480F510EE3400F50FED34AC
:1036680000F50EEC3400F50D7F027E007D007C0035
:10367800AB10AA0FA90EA80D123927E42FF58274F2
:10368800083EF583E0FEA3E0FFE4FCFD8F188E17EB
:103698008D168C15805C0508AF10AE0FAD0EAC0D05
:1036A800753D3812206E8F108E0F8D0E8C0DE51023
:1036B800547FF510E50F5400F50FE50E5400F50E94
:1036C800E50D5400F50D7F027E007D007C00AB10F7
:1036D800AA0FA90EA80D123927E42FF58274083E07
:1036E800F583E0FEA3E0FFE4FCFD8F188E178D162E
:1036F8008C15AF18AE17AD16AC15753D9012206E2F
:103708008F188E178D168C15AF18AE17AD16AC1511
:10371800753D2F12206E8F188E178D168C15C3E5E8
:1037280008648094804020AF18AE17AD16AC15E53C
:1037380008A2E713FBEB24A0F53D12206E8F188E2C
:10374800178D168C158022AF18AE17AD16AC15E57F
:1037580008F404FBEBA2E713FBEB2420F53D122051
:103768006E8F188E178D168C15AF18AE17AD16AC58
:02377800152218
:1033AA008F2C8E2B8D2A8C29AF2CAE2BAD2AAC29D3
:1033BA0012203B8F148E138D128C11AF30AE2FADAD
:1033CA002EAC2D12203B8F108E0F8D0E8C0DAF144C
:1033DA00AE13AD12AC11AB10AA0FA90EA80DD312E1
:1033EA003984404CAF14AE13AD12AC11753DA51221
:1033FA00206E8F148E138D128C11AF10AE0FAD0E7E
:10340A00AC0D753D2412206E8F108E0F8D0E8C0D13
:10341A00AB10AA0FA90EA80DAF14AE13AD12AC11C2
:10342A001247EC8F108E0F8D0E8C0D750800804A96
:10343A00AF10AE0FAD0EAC0D753DA512206E8F10FC
:10344A008E0F8D0E8C0DAF14AE13AD12AC11753DEF
:10345A002412206E8F148E138D128C11AF10AE0FA2
:10346A00AD0EAC0DAB14AA13A912A8111247EC8F1A
:10347A00108E0F8D0E8C0D7508017F027E007D0067
:10348A007C00AB10AA0FA90EA80D123927E42FF55C
:10349A0082740C3EF583E0FEA3E0FFE4FCFD8F1886
:1034AA008E178D168C15AF18AE17AD16AC157B2D71
:1034BA007A00790078001239278F188E178D168CAA
:1034CA0015AF18AE17AD16AC15753D8C12206E8F60
:1034DA00188E178D168C15AF18AE17AD16AC15755C
:1034EA003D2912206E8F188E178D168C15E508B49B
:1034FA000116C3E49518F518E49517F517742D9578
:10350A0016F516E49515F5157F007E007D007C0002
:10351A00AB2CAA2BA92AA829C3123984502F7F00C1
:10352A007E007D007C00AB30AA2FA92EA82DD312D5
:10353A0039844019C3E49518F518E49517F51774FA
:10354A005A9516F516E49515F5150235DF7F007EB6
:10355A00007D007C00AB2CAA2BA92AA829C312390A
:10356A008450307F007E007D007C00AB30AA2FA9FA
:10357A002EA82DC3123984501AE5182400F518E52F
:10358A00173400F517E516345AF516E5153400F523
:10359A001580427F007E007D007C00AB2CAA2BA9FF
:1035AA002AA829D3123984402C7F007E007D007C12
:1035BA0000AB30AA2FA92EA82DC31239845016C3E6
:1035CA00E49518F518E49517F51774B49516F516D9
:0E35DA00E49515F515AF18AE17AD16AC152219
:103F30008F348E338D328C31AF38AE37AD36AC35F1
:103F4000C004C005C006C007AF38AE37AD36AC35CB
:103F50008F288E278D268C25D007D006D005D0043B
:103F6000123BF5C004C005C006C007AF34AE33AD88
:103F700032AC31C004C005C006C007AF34AE33ADAB
:103F800032AC318F288E278D268C25D007D006D0D5
:103F900005D004123BF5A804A905AA06AB07D00773
:103FA000D006D005D004EB2FF510EA3EF50FE93D21
:103FB000F50EE83CF50DAF10AE0FAD0EAC0D1235A1
:103FC000E88F188E178D168C15AF18AE17AD16AC7E
:023FD0001522B8
:10206E00853DAB8CAF8DAE8EAD8FACACBFADBEAE85
:04207E00BDAFBC2214
:104A06008FE98EEA8DEB8CEC75EF00E5EC30E70470
:104A16007F0180027F00EF60F2AFE9AEEAADEBAC5A
:024A2600EC2280
:08203B00EC30E70312397622B4
:10390500C2D530F707B2D563F0FF05F030E70CB24A
:10391500D5F4048463F0FF05F080018430D502F40A
:0239250004227A
:10392700E88FF0A4CC8BF0A42CFCE98EF0A42CFC3F
:103937008AF0EDA42CFCEA8EF0A4CDA8F08BF0A4BD
:103947002DCC3825F0FDE98FF0A42CCD35F0FCEB1C
:103957008EF0A4FEA9F0EB8FF0A4CFC5F02ECD39E1
:0F396700FEE43CFCEAA42DCE35F0FDE43CFC224E
:1047EC00C2D5E830E70FB2D5E4C39BFBE49AFAE4F8
:1047FC0099F9E498F8EC30E717B2D512482212393F
:10480C00F5E4C39BFBE49AFAE499F9E498F8800385
:10481C001239F530D50DE4C39FFFE49EFEE49DFDF7
:04482C00E49CFC22EA
:0E397600C3E49FFFE49EFEE49DFDE49CFC2262
:10398400EB9FF5F0EA9E42F0E99D42F0EC6480C8BA
:0639940064809845F0225A
:10399A00E8600FEFC333FFEE33FEED33FDEC33FC8B
:0339AA00D8F1222F
:0C39AD00ECF0A3EDF0A3EEF0A3EFF0228D
:10337000C582F9316EC583227170C0E0E0A3319837
:10338000D8FA8982D08321637170C0E0E493A331BD
:1033900098D8F980EDF9E7093198D8FA216371706E
:0A33A000C0E0E8F080DCF6216300D5
:1039B90075F008758200EF2FFFEE33FECD33CDCCC5
:1039C90033CCC58233C5829BED9AEC99E582984048
:1039D9000CF582EE9BFEED9AFDEC99FC0FD5F0D625
:1039E900E4CEFBE4CDFAE4CCF9A88222B800C1B94F
:1039F9000059BA002DEC8BF084CFCECDFCE5F0CB8D
:103A0900F97818EF2FFFEE33FEED33FDEC33FCEBC5
:103A190033FB10D703994004EB99FB0FD8E5E4F980
:103A2900FA227818EF2FFFEE33FEED33FDEC33FC6D
:103A3900C933C910D7059BE99A4007EC9BFCE99A61
:103A4900F90FD8E0E4C9FAE4CCFB2275F010EF2FA6
:103A5900FFEE33FEED33FDCC33CCC833C810D707A6
:103A69009BEC9AE899400AED9BFDEC9AFCE899F8E1
:0E3A79000FD5F0DAE4CDFBE4CCFAE4C8F92274
:00000001FF
