:0320000002208E2D
:0F208E00787FE4F6D8FD75A0007581450240B05B
:1040B000123C04123E7312402F123289D2A6D2AFA4
:1040C00020ACFD3098FAE59964A56004C29880F0B0
:0640D000122B6580EB22BB
:10411B0090E08D7402F090E0BFE0FFEF54F3FFEFFF
:0F412B004404FFEFF0D2A8D288C28953F9F022E2
:103E7300C2AF12418A12417275A93075B920C2A925
:103E8300C2BDD2ACD2AF000000C290D29020AC1021
:103E930030980DE59964A56004C2988003122B65E0
:103EA300E59330E4E4800280E0000000D2A9D2BDB3
:063EB300000000D2AF2266
:0A418A007593017594FF7595FF22EF
:0D41580075B10575C90575D90575F105220C
:0D41650075B10F75C90F75D90F75F10F22D7
:1036E30090E08BE4F090E0ECE0FFEF4408FFEFF0B4
:1036F30090E0ECE0FFEF4403FFEFF090E05C740F29
:10370300F090E07AE0FFEF4404FFEFF090E07AE01E
:10371300FFEF4401FFEFF090E0A4E0FFEF54FCFF64
:10372300EF4402FFEFF090E0A4E0FFEF54F3FFEF6C
:103733004408FFEFF090E0A4E0FFEF54CFFFEF4425
:1037430020FFEFF090E09DE0FFEF54FDFFEFF090DE
:10375300E05DE0FFEF54F7FFEFF090E05AE0FFEF9A
:103763004420FFEFF090E05AE0FFEF4401FFEFF059
:0D37730090E064E4F0A3E4F0D2B8C2C022FC
:1020F60090E0E1E0FFEF54CFFFEF4410FFEFF090E8
:10210600E0E1E0FFEF543FFFEF4440FFEFF090E0E7
:10211600E0E0FFEF54FCFFEF4401FFEFF090E0E05A
:10212600E0FFEF54F3FFEF4404FFEFF090E0E0E050
:10213600FFEF54CFFFEF4410FFEFF090E0E0E0FF39
:10214600EF543FFFEF4440FFEFF075A20175A190F9
:1021560075C20175C19075D20175D19075E2017590
:10216600E19090E000E0FFEF4402FFEFF090E00026
:10217600E0FFEF4404FFEFF090E000E0FFEF4408DB
:10218600FFEFF090E000E0FFEF4410FFEFF090E08B
:1021960000E0FFEF54FEFFEFF090E003E0FFEF54A6
:1021A600FCFFEF4402FFEFF090E019E0FFEF54FC74
:1021B600FFEF4402FFEFF090E02FE0FFEF54FCFF4B
:0A21C600EF4402FFEFF090E045E067
:1021D000FFEF54FCFFEF4402FFEFF090E003E0FF5D
:1021E000EF54F7FFEFF090E002E0FFEF543FFFEF16
:1021F0004480FFEFF090E018E0FFEF543FFFEF4422
:1022000080FFEFF090E02EE0FFEF543FFFEF4480BF
:10221000FFEFF090E044E0FFEF543FFFEF4480FF1A
:10222000EFF090E007E0FFEF54EFFFEFF090E007F2
:10223000E0FFEF54DFFFEFF090E007E0FFEF54FC2A
:10224000FFEFF090E007E0FFEF54F3FFEFF090E0D6
:102250001DE0FFEF54EFFFEFF090E01DE0FFEF54C3
:10226000DFFFEFF090E01DE0FFEF54FCFFEFF09098
:10227000E01DE0FFEF54F3FFEFF090E033E0FFEFFD
:1022800054EFFFEFF090E033E0FFEF54DFFFEFF0AB
:0E22900090E033E0FFEF54FCFFEFF090E033FE
:10229E00E0FFEF54F3FFEFF090E049E0FFEF54EF73
:1022AE00FFEFF090E049E0FFEF54DFFFEFF090E03A
:1022BE0049E0FFEF54FCFFEFF090E049E0FFEF54F0
:1022CE00F3FFEFF090E009E0FFEF543FFFEF4440E3
:1022DE00FFEFF090E009E0FFEF54CFFFEF4420FF57
:1022EE00EFF090E008E0FFEF54F3FFEFF090E0081E
:1022FE00E0FFEF54FCFFEFF090E009E0FFEF54F346
:10230E00FFEFF090E009E0FFEF54FCFFEFF090E0FC
:10231E001FE0FFEF543FFFEF4440FFEFF090E01F50
:10232E00E0FFEF54CFFFEF4420FFEFF090E01EE010
:10233E00FFEF54F3FFEFF090E01EE0FFEF54FCFFD1
:10234E00EFF090E01FE0FFEF54F3FFEFF090E01F8F
:0D235E00E0FFEF54FCFFEFF090E035E0FFF2
:10236B00EF543FFFEF4440FFEFF090E035E0FFEF1D
:10237B0054CFFFEF4420FFEFF090E034E0FFEF5439
:10238B00F3FFEFF090E034E0FFEF54FCFFEFF09041
:10239B00E035E0FFEF54F3FFEFF090E035E0FFEFB7
:1023AB0054FCFFEFF090E04BE0FFEF543FFFEF44A6
:1023BB0040FFEFF090E04BE0FFEF54CFFFEF4420F6
:1023CB00FFEFF090E04AE0FFEF54F3FFEFF090E007
:1023DB004AE0FFEF54FCFFEFF090E04BE0FFEF54CF
:1023EB00F3FFEFF090E04BE0FFEF54FCFFEFF090CA
:1023FB00E00CE0FFEF4403FFEFF090E00CE0FFEFA9
:10240B0054F3FFEF4408FFEFF090E00CE0FFEF54C4
:10241B00CFFFEFF090E022E0FFEF4403FFEFF090EF
:0D242B00E022E0FFEF54F3FFEF4408FFEF65
:10243800F090E022E0FFEF54CFFFEFF090E038E0BB
:10244800FFEF4403FFEFF090E038E0FFEF54F3FFB5
:10245800EF4408FFEFF090E038E0FFEF54CFFFEFD4
:10246800F090E04EE0FFEF4403FFEFF090E04EE025
:10247800FFEF54F3FFEF4408FFEFF090E04EE0FF6A
:10248800EF54CFFFEFF090E00DE4F0A37432F0903A
:10249800E023E4F0A37432F090E039E4F0A374325E
:1024A800F090E04FE4F0A37432F090E00FE4F0A372
:1024B8007432F090E025E4F0A37432F090E03BE44D
:1024C800F0A37432F090E051E4F0A37432F090E09D
:1024D80011E0FFEF4401FFEFF090E011E0FFEF544F
:1024E800FDFFEFF090E027E0FFEF4401FFEFF090F1
:1024F800E027E0FFEF54FDFFEFF090E03DE0FFEF55
:042508004401FFEF9C
:10250C00F090E03DE0FFEF54FDFFEFF090E053E082
:10251C00FFEF4401FFEFF090E053E0FFEF54FDFFBD
:10252C00EFF090E012E0FFEF54FCFFEFF090E012C0
:10253C00E0FFEF54F3FFEFF090E028E0FFEF54FCE6
:10254C00FFEFF090E028E0FFEF54F3FFEFF090E0A6
:10255C003EE0FFEF54FCFFEFF090E03EE0FFEF5465
:10256C00F3FFEFF090E054E0FFEF54FCFFEFF0903E
:10257C00E054E0FFEF54F3FFEFF090E015E0FFEFD5
:10258C004408FFEFF090E015E0FFEF54F8FFEF4444
:10259C0001FFEFF090E014E0FFEF4408FFEFF09044
:1025AC00E014E0FFEF54F8FFEF4401FFEFF090E090
:1025BC0014E0FFEF547FFFEFF090E014E0FFEF54D6
:0E25CC008FFFEF4410FFEFF090E02BE0FFEFE9
:1025DA004408FFEFF090E02BE0FFEF54F8FFEF44E0
:1025EA0001FFEFF090E02AE0FFEF4408FFEFF090E0
:1025FA00E02AE0FFEF54F8FFEF4401FFEFF090E02C
:10260A002AE0FFEF547FFFEFF090E02AE0FFEF545B
:10261A008FFFEF4410FFEFF090E041E0FFEF440836
:10262A00FFEFF090E041E0FFEF54F8FFEF4401FFC5
:10263A00EFF090E040E0FFEF4408FFEFF090E04059
:10264A00E0FFEF54F8FFEF4401FFEFF090E040E0C5
:10265A00FFEF547FFFEFF090E040E0FFEF548FFF71
:10266A00EF4410FFEFF090E057E0FFEF4408FFEF70
:10267A00F090E057E0FFEF54F8FFEF4401FFEFF06E
:10268A0090E056E0FFEF4408FFEFF090E056E0FFDD
:0E269A00EF54F8FFEF4401FFEFF090E056E040
:1026A800FFEF547FFFEFF090E056E0FFEF548FFF0D
:1026B800EF4410FFEFF090E017E0FFEF54FCFFEF5E
:1026C8004401FFEFF090E017E0FFEF54F3FFEF4411
:1026D80004FFEFF090E016E0FFEF54FCFFEF440139
:1026E800FFEFF090E016E0FFEF54F3FFEF4404FF34
:1026F800EFF090E016E0FFEF54CFFFEFF090E01618
:10270800E0FFEF543FFFEFF090E02DE0FFEF54FCC7
:10271800FFEF4401FFEFF090E02DE0FFEF54F3FFEF
:10272800EF4404FFEFF090E02CE0FFEF54FCFFEFE4
:102738004401FFEFF090E02CE0FFEF54F3FFEF448B
:1027480004FFEFF090E02CE0FFEF54CFFFEFF090A4
:10275800E02CE0FFEF543FFFEFF090E043E0FFEFA5
:0D27680054FCFFEF4401FFEFF090E043E070
:10277500FFEF54F3FFEF4404FFEFF090E042E0FF7A
:10278500EF54FCFFEF4401FFEFF090E042E0FFEF74
:1027950054F3FFEF4404FFEFF090E042E0FFEF5405
:1027A500CFFFEFF090E042E0FFEF543FFFEFF090F6
:1027B500E059E0FFEF54FCFFEF4401FFEFF090E03C
:1027C50059E0FFEF54F3FFEF4404FFEFF090E058BA
:1027D500E0FFEF54FCFFEF4401FFEFF090E058E01D
:1027E500FFEF54F3FFEF4404FFEFF090E058E0FFF4
:1027F500EF54CFFFEFF090E058E0FFEF543FFFEFCD
:10280500F075A20775A1D075C20775C1D075D2073D
:1028150075D1D075E20775E1D075A40175A3E8758A
:10282500C40175C3E875D40175D3E875E40175E392
:10283500E875A60175A59075C60175C59075D60193
:1028450075D59075E60175E59090E000E0FFEF44E1
:1028550001FFEFF043B60143CE0143DE0143F6012C
:05286500D2CDD2B92222
:10351D0090E0E1E0FFEF54F3FFEF4408FFEFF09090
:10352D00E0DAE0FFEF54FCFFEF4402FFEFF090E034
:10353D00DBE0FFEF543FFFEF4480FFEFF090E0DB67
:10354D00E0FFEF54CFFFEF4420FFEFF090E0A4E059
:10355D00FFEF54FCFFEF4401FFEFF090E0A4E0FF1C
:10356D00EF54F3FFEF4404FFEFF090E0A4E0FFEF22
:10357D0054CFFFEF4410FFEFF090E0A4E0FFEF54C5
:10358D00BFFFEFF090E0C6E0FFEF54FEFFEFF090CD
:10359D00E0C6E0FFEF54FDFFEFF090E0C6E0FFEF77
:1035AD0054FBFFEFF090E0C6E0FFEF54F7FFEFF0B4
:1035BD0090E0EBE0FFEF4401FFEFF090E0EBE0FF78
:1035CD00EF4402FFEFF090E0EBE0FFEF4404FFEF7C
:0C35DD00F090E0EBE0FFEF4408FFEFF09F
:1035E90090E0C7E0FFEF54FEFFEFF090E0C7E0FF87
:1035F900EF54FDFFEFF090E0C7E0FFEF54FBFFEF62
:10360900F090E0C7E0FFEF54F7FFEFF090E0EBE058
:10361900FFEF4410FFEFF0D2BBD2AAC28BC2C32284
:10413A007586FFD2AED2BE90E0DBE0FFEF54FCFF03
:0E414A00EFF090E0DCE0FFEF54FEFFEFF0221C
:1032890090E0D5E4F090E0D4E4F090E0D6E4F0905A
:10329900E0D874FFF090E0D7E4F090E0D9E4F09042
:1032A900E0DBE4F090E0DAE4F090E0DCE4F090E0D8
:1032B900DE74FFF090E0DDE4F090E0DFE4F090E010
:1032C900E1E4F090E0E0E4F090E0E2E4F090E0E4A2
:1032D90074FFF090E0E3E4F090E0E5E4F090E0D5ED
:1032E900E0FFEF54FCFFEFF090E0D6E0FFEF440180
:1032F900FFEFF090E0D8E0FFEF54FEFFEFF090E031
:10330900D7E0FFEF54FEFFEFF090E0E1E0FFEF546C
:10331900FCFFEF4401FFEFF090E0E2E0FFEF54FE25
:10332900FFEFF090E0E4E0FFEF4401FFEFF090E001
:10333900E5E0FFEF54FEFFEFF090E0E3E0FFEF542C
:10334900FEFFEFF090E0DAE0FFEF54F3FFEF4408FF
:10335900FFEFF090E0DCE0FFEF54DFFFEFF090E0EB
:01336900DE85
:10336A00E0FFEF4420FFEFF090E0DFE0FFEF54DFF3
:10337A00FFEFF090E0DDE0FFEF54DFFFEFF090E0C9
:10338A00D4E0FFEF54FCFFEFF090E0D6E0FFEF440B
:10339A0010FFEFF090E0D8E0FFEF4410FFEFF0905D
:1033AA00E0D9E0FFEF54EFFFEFF090E0D7E0FFEF56
:1033BA0054EFFFEFF090E0E0E0FFEF54CFFFEFF0C3
:1033CA0090E0E2E0FFEF4440FFEFF090E0E4E0FF3E
:1033DA00EF54BFFFEFF090E0E5E0FFEF54BFFFEFDF
:0D33EA00F090E0E3E0FFEF54BFFFEFF022B2
:1040D60090E0EF7405F090E0EEE4F0758910758AD3
:1040E60000758CFE758B00758D00D2A9D2ABD28C73
:0340F600D28E2245
:10402F0090E0C9E4F090E0CC74E0F0A374C0F0909D
:10403F00E0C8E0FFEF4420FFEFF090E0C8E0FFEFB3
:0D404F004404FFEFF053F9E0D2AAC28B2227
:10405C0090E0CFE4F090E0D274E0F0A374C0F09064
:10406C00E0CEE0FFEF4420FFEFF090E0CEE0FFEF7A
:0D407C004404FFEFF053FEF0D2BDC2C52298
:103FC30090E0F4E4F090E0F77410F0A374C0F09084
:103FD300E0F3E0FFEF4420FFEFF090E0F3E0FFEFCA
:103FE3004404FFEFF090E0F3E0FFEF547FFFEFF0C6
:073FF300D2CED2BAC2C222F5
:103FFA0090E0FAE4F090E0FD7410F0A374C0F09041
:10400A00E0F9E0FFEF4420FFEFF090E0F9E0FFEF86
:10401A004404FFEFF090E0F9E0FFEF547FFFEFF088
:05402A00D2BCC2C4225B
:103C040090E0B27460F090E0B17440F090E0B07471
:103C14004FF090E0AF743FF000000000000000009F
:103C24000000000000000000000000000000000090
:103C340000000000000000000090E0E77401F09034
:103C4400E0E6E4F0000000000000000000000000D6
:103C54000000000000000000000000000000000060
:053C6400000000002239
:0D41720075985075D88075AA7E75BA032225
:0A419400759B90759DE675BB032234
:103EFD0090E07AE0FFEF54FBFFEFF090E07AE0FF07
:103F0D00EF54FEFFEFF090E07AE0FFEF54F7FFEF94
:103F1D00F090E07AE0FFEF54FDFFEFF090E089E0E4
:103F2D00FFEF54FEFFEFF090E089E0FFEF54FDFF4F
:033F3D00EFF02280
:0320030002378021
:10378000C0E0C0D075D000C007E5F930E0047F018B
:1037900080027F00EFB4010353F9FEE5F930E10444
:1037A0007F0180027F00EFB40105B2A653F9FCE56A
:1037B000F930E2047F0180027F00EFB4010353F986
:1037C000F8E5F930E3047F0180027F00EFB40103E4
:1037D00053F9F0E5F930E0047F0180027F00EF70DB
:1037E0002CE5F930E1047F0180027F00EF701EE5D7
:1037F000F930E2047F0180027F00EF7010E5F930BC
:10380000E3047F0180027F00EF7002C289D007D0FD
:04381000D0D0E03202
:03200B0002408907
:10408900C0E0C083C082C0D075D000C007C28DB265
:104099008490E05AE0FFEF4420FFEFF0D007D0D042
:0740A900D082D083D0E03289
:03201B000220069A
:03200600C28F3254
:0320BB00022F7A77
:102F7A00C0E0C0F0C083C082C0D075D000C000C01D
:102F8A0001C002C003C004C005C006C00790E0C863
:102F9A00E0FFEFC41313135401FFEF30E01390A0C6
:102FAA001EE004F0B2A690E0C8E0FFEF547FFFEF06
:102FBA00F090E0C8E0FFEFC413135403FFEF20E0E2
:102FCA00030230BB90E0CCE0FEA3E0FFE4FCFD90FE
:102FDA00A0081231AF90E08AE0FFEF30E02790E0DE
:102FEA008AE0FFEF54FEFFEFF090A008E0FCA3E0B8
:102FFA00FDA3E0FEA3E0FF90A0041231AF90A01E53
:10300A00E4F00230B090A01EE0FFEF703190A0040F
:10301A00E0F8A3E0F9A3E0FAA3E0FB90A008E0FC43
:10302A00A3E0FDA3E0FEA3E0FFC3EF9BFFEE9AFE41
:10303A00ED99FDEC98FC90A01A1231AF805D90A03A
:10304A001EE0FFE4FCFDFE781012319C90A01A12DB
:10305A0031AF90A008E0FCA3E0FDA3E0FEA3E0FFEF
:10306A0090A01AE0F8A3E0F9A3E0FAA3E0FBEB2FA3
:10307A00FFEA3EFEE93DFDE83CFC90A004E0F8A32F
:10308A00E0F9A3E0FAA3E0FBC3EF9BFFEE9AFEEDA3
:10309A0099FDEC98FC90A01A1231AF90E08AE0FFFB
:1030AA00EF4401FFEFF090E0C8E0FFEF54BFFFEFFD
:1030BA00F090E0C8E0FFEFC41313135401FFEF20B0
:1030CA00E02090E0C8E0FFEFC413135403FFEF20A1
:1030DA00E010E5F930E5047F0180027F00EF70021D
:1030EA00C28BD007D006D005D004D003D002D001BD
:0D30FA00D000D0D0D082D083D0F0D0E03212
:03208B00023B9481
:103B9400C0E0C083C082C0D075D000C00790E0CE22
:103BA400E0FFEF547FFFEFF053FEF0B2A6E5FE30E6
:103BB400E0047F0180027F00EF703AE5FE30E1040B
:103BC4007F0180027F00EF702CE5FE30E2047F016C
:103BD40080027F00EF701EE5FE30E3047F01800267
:103BE4007F00EF7010E59330E7047F0180027F00CF
:103BF400EF7002C2C5D007D0D0D082D083D0E032DB
:0320AB00023AAB4B
:103AAB00C0E0C083C082C0D075D000C006C00790F4
:103ABB00E0F3E0FFEF547FFFEFF090E0F3E0FFEF78
:103ACB0054BFFFEFF0B2A690E0F3E0FFEFC4131387
:103ADB005403FFEF30E0047F0180027F0090E0F39E
:103AEB00E0FEEEC41313135401FEEE30E0047E012E
:103AFB0080027E00EE4FFFEF7010E5FA30E3047F9B
:103B0B000180027F00EF7002C2C2D007D006D0D076
:073B1B00D082D083D0E0321C
:0320C300023814CC
:10381400C0E0C083C082C0D075D000C006C007908D
:10382400E0F9E0FFEF547FFFEFF090E0F9E0FFEF05
:1038340054BFFFEFF0E5FD30E3047F0180027F0019
:10384400EF7051E5FD30E4047F0180027F00EF70EA
:1038540043E5FD30E5047F0180027F00EF70359081
:10386400E0F9E0FFEFC413135403FFEF30E0047FEB
:103874000180027F0090E0F9E0FEEEC413131354BC
:1038840001FEEE30E0047E0180027E00EE4FFFEF89
:103894007002C2C4B2A6D007D006D0D0D082D083E2
:0338A400D0E0323F
:03204B00023B2233
:103B2200C0E0C0D075D000C007E5B530E0047F0129
:103B320080027F00EFB4010343B601E5CD30E0041B
:103B42007F0180027F00EFB4010343CE01E5DD3047
:103B5200E0047F0180027F00EFB4010343DE01E550
:103B6200B530E0047F0180027F00EF701EE5CD30AA
:103B7200E0047F0180027F00EF7010E5DD30E00499
:103B82007F0180027F00EF7002C2C1D007D0D0D087
:023B9200E0321F
:0320A300023C6993
:103C6900C0E0C083C082C0D075D000C006C0074381
:103C7900F60190E0F3E0FFEFC413135403FFEF30B4
:103C8900E0047F0180027F0090E0F3E0FEEEC413C0
:103C990013135401FEEE30E0047E0180027E00EE33
:103CA9004FFFEF7010E5F530E0047F0180027F00DF
:103CB900EF7002C2C2D007D006D0D0D082D083D054
:023CC900E032E7
:0320B300023F8267
:103F8200C0E0C083C082C0D075D000C00790E0C737
:103F9200E0FFEF54FEFFEFF0E5F930E4047F01802B
:103FA200027F00EF7010E5F930E5047F0180027FA7
:103FB20000EF7002C28BD007D0D0D082D083D0E085
:013FC20032CC
:03205B000238A7A1
:1038A700C0E0C083C082C0D075D000C00790E0C719
:1038B700E0FFEFC313FFEF30E00B90E0C7E0FFEF4F
:1038C70054FDFFEFF090E0C7E0FFEF1313543FFF05
:1038D700EF30E00B90E0C7E0FFEF54FBFFEFF09015
:1038E700E0C7E0FFEF131313541FFFEF30E00B9017
:1038F700E0C7E0FFEF54F7FFEFF090E0C7E0FFEF1E
:10390700C313FFEF20E02190E0C7E0FFEF1313544C
:103917003FFFEF20E01290E0C7E0FFEF13131354CF
:103927001FFFEF20E002C2C3D007D0D0D082D083E0
:03393700D0E032AB
:0320CB0002393A9D
:10393A00C0E0C083C082C0D075D000C006C007E511
:10394A00FD30E3047F0180027F00EF7051E5FD3016
:10395A00E4047F0180027F00EF7043E5FD30E50457
:10396A007F0180027F00EF703590E0F9E0FFEFC43D
:10397A0013135403FFEF30E0047F0180027F0090AD
:10398A00E0F9E0FEEEC41313135401FEEE30E00436
:10399A007E0180027E00EE4FFFEF7002C2C4D007A4
:0B39AA00D006D0D0D082D083D0E03215
:0320D3000239B51A
:1039B500C0E0C083C082C0D075D000C006C007E596
:1039C500FD30E3047F0180027F00EF7051E5FD309B
:1039D500E4047F0180027F00EF7043E5FD30E504DC
:1039E5007F0180027F00EF703590E0F9E0FFEFC4C2
:1039F50013135403FFEF30E0047F0180027F009032
:103A0500E0F9E0FEEEC41313135401FEEE30E004BA
:103A15007E0180027E00EE4FFFEF7002C2C4D00728
:0B3A2500D006D0D0D082D083D0E03299
:0320DB00023A3096
:103A3000C0E0C083C082C0D075D000C006C007E51A
:103A4000FD30E3047F0180027F00EF7051E5FD301F
:103A5000E4047F0180027F00EF7043E5FD30E50460
:103A60007F0180027F00EF703590E0F9E0FFEFC446
:103A700013135403FFEF30E0047F0180027F0090B6
:103A8000E0F9E0FEEEC41313135401FEEE30E0043F
:103A90007E0180027E00EE4FFFEF7002C2C4D007AD
:0B3AA000D006D0D0D082D083D0E0321E
:0320E300023CCBF1
:103CCB00C0E0C0D075D000C00753FEFEE5FE30E06B
:103CDB00047F0180027F00EF703AE5FE30E1047F44
:103CEB000180027F00EF702CE5FE30E2047F018043
:103CFB00027F00EF701EE5FE30E3047F0180027F40
:103D0B0000EF7010E59330E7047F0180027F00EF36
:0B3D1B007002C2C5D007D0D0D0E0324B
:0320EB00023D268D
:103D2600C0E0C0D075D000C00753FEFCE5FE30E011
:103D3600047F0180027F00EF703AE5FE30E1047FE8
:103D46000180027F00EF702CE5FE30E2047F0180E7
:103D5600027F00EF701EE5FE30E3047F0180027FE4
:103D660000EF7010E59330E7047F0180027F00EFDB
:0B3D76007002C2C5D007D0D0D0E032F0
:0320F300023D812A
:103D8100C0E0C0D075D000C00753FEF8E5FE30E0BA
:103D9100047F0180027F00EF703AE5FE30E1047F8D
:103DA1000180027F00EF702CE5FE30E2047F01808C
:103DB100027F00EF701EE5FE30E3047F0180027F89
:103DC10000EF7010E59330E7047F0180027F00EF80
:0B3DD1007002C2C5D007D0D0D0E03295
:0B417F00309802C298309902C29922C9
:0320830002202612
:10202600C0E0E59B30E003539BFEE59B30E10353A4
:052036009BFDD0E0322B
:03204300023F4019
:103F4000C0E0C083C082C0D075D000C006C007905A
:103F5000E05BE0FFEF30E00D90E05BE0FFEF54FE50
:103F6000FFEFF0C2C090E072E0FEA3E0FF90A01867
:103F7000EEF0A3EFF0D007D006D0D0D082D083D01F
:023F8000E0322D
:103DDC008F1990E08EE0FFEFC413135403FFEF2014
:103DEC00E0F090E08F7453F090E091E519F090E0E2
:103DFC0092E4F0AF1DAE1CAD1BAC1A90E0931231E7
:103E0C00AF90E08E740BF090E08EE0FFEFC4135493
:0C3E1C0007FFEF30E0F190E08EE4F022B0
:103E28008F1E90E08EE0FFEFC413135403FFEF20C2
:103E3800E0F090E08F7455F090E091E51EF090E08E
:103E480092E4F090E08E7407F090E08EE0FFEFC40B
:103E5800540FFFEF30E0F290E08EE4F090E093E052
:0B3E6800FCA3E0FDA3E0FEA3E0FF22AE
:032023000229226D
:032013000228ACF4
:03205300022895CB
:0320630002286AE6
:03206B000228C385
:10286A00C0D0C0E0E5FD20E30D20E41120E515D03D
:10287A00E0D0D00220C3D0E0D0D00220CBD0E0D02C
:10288A00D00220D3D0E0D0D00220DBC0D0C0E0E517
:10289A00FA20E307D0E0D0D00220ABD0E0D0D002BB
:1028AA0020A3C0D0C0E0E5F920E407D0E0D0D002F0
:1028BA0020B3D0E0D0D00220BBC0D0C0E0E5932046
:1028CA00E727E5FE20E00D20E11120E215D0E0D057
:1028DA00D002208BD0E0D0D00220E3D0E0D0D002CA
:1028EA0020EBD0E0D0D00220F375D000C000C001A8
:1028FA00740033747C3353937FC2C5D2998046C81F
:10290A00C443968010E40353967FC8759380F59468
:08291A00316EF59588932163ED
:10292200C0D0C0E0309814E599C298F51FB4A55EF6
:10293200D29975D000C000C001801074FF75D0001C
:10294200C000C00178FF8600B8FF2974F73099FDF6
:10295200C299F599D0017805D0E03198D8FAE931D9
:1029620098316EC0E0316EC0E0316EF83098FDE50E
:1029720099C29822E58124FCF9800C0819E66708BF
:10298200097004E66760C4B8FEF1D001D000D0E05F
:10299200D0D0439310323099FDC299F59922C0E00C
:1029A200316EC0E0316EC0E0316EF9316EC0E0C010
:1029B2000078FFE67002C299218E8882F583216336
:1029C2008881F5F02163F5802163F5B02163E5810B
:1029D200C083C082C08EC0F0C0E0C0E0214FE58954
:1029E200C088C087C086C085C084C080214FE59062
:1029F200C08FC08EC08DC08CC08BC08A214FE5971E
:102A0200C096C095C094C093C092C091214FE59EDC
:102A1200C09DC09CC09BC09AC099C098214FE5A59B
:102A2200C0A4C0A3C0A2C0A1C0A0C09F214FE5AC5A
:102A3200C0ABC0AAC0A9C0A8C0A7C0A6214FE5B319
:042A4200C0B2C0B1AD
:102A4600C0B0C0AFC0AEC0AD214FE5BAC0B9C0B8C6
:102A5600C0B7C0B6C0B5C0B4214FE5C1C0C0C0BF85
:102A6600C0BEC0BDC0BCC0BB214FE5C8C0C7C0C644
:102A7600C0C5C0C4C0C3C0C2214FE5CFC0CEC0CD03
:102A8600C0CCC0CBC0CAC0C9214FE5D7C0D6C0D5BF
:102A9600C0D4C0D3C0D2C0D1214FE5DEC0DDC0DC7A
:102AA600C0DBC0DAC0D9C0D8214FE5E6C0E5C0E436
:102AB600C0E3C0E2C0E1C0DF214FE5EDC0ECC0EBF2
:102AC600C0EAC0E9C0E8C0E7214FE5F5C0F4C0F3AD
:102AD600C0F2C0F1C0EFC0EE214FE5FCC0FBC0FA6A
:102AE600C0F9C0F8C0F7C0F6214FE5FFC0FEC0FD33
:102AF600C0E0C0E0C0E0C0E0214FBFA7005025EF16
:102B0600640AA2ACC2AC7009740DC299F5993099E9
:102B1600FDEFC299F5993099FD500778FFE67002EE
:102B2600C29992AC2230AC0CE51F64A560F774A57F
:102B3600C51FFF223098FDE599B4A505122B6580C7
:102B4600E4FFC2982230AC07E51FB4A510C322C328
:0F2B560030980BE599B4A505122B6580E8D322C2
:0B2B650078FF76FF751FA5D2AC2200A0
:1033F7008F398E388D378C36AF39AE38AD37AC361E
:1034070012203B8F108E0F8D0E8C0D7F007E007D5E
:10341700B47C00AB10AA0FA90EA80DC312318640C9
:103427001BC3E5109400F510E50F9400F50FE50EAA
:1034370094B4F50EE50D9400F50D80CF7535287F12
:103447000B7EB67D007C0012206EC004C005C0064E
:10345700C007AF10AE0FAD0EAC0D75352712206E3D
:10346700A804A905AA06AB07D007D006D005D00443
:103477001231298F108E0F8D0E8C0DAF10AE0FAD40
:103487000EAC0D75352F12206E8F108E0F8D0E8C92
:103497000D7F027E007D007C00AB10AA0FA90EA84D
:1034A7000D1231298F828E83E0FEA3E0FFE4FCFD3D
:1034B7008F188E178D168C15AF18AE17AD16AC1565
:1034C70075359012206E8F188E178D168C15AF18C4
:1034D700AE17AD16AC1575352F12206E8F188E17D7
:1034E7008D168C157F007E007D007C00AB39AA38D5
:1034F700A937A836C31231865013AF18AE17AD16C9
:10350700AC151231788F188E178D168C15AF18AE33
:0635170017AD16AC1522F1
:102DE8008F3D8E3C8D3B8C3A7F007E007D007C00C1
:102DF800AB3DAA3CA93BA83AC312318650097F00D3
:102E08007E007D007C0022AF3DAE3CAD3BAC3A126B
:102E180040F98F108E0F8D0E8C0DC3741095EFF541
:102E280008E50875F002123107AFF0EF7068E51099
:102E380054FFF510E50F54FFF50FE50E54FFF50E9E
:102E4800E50D547FF50DAF10AE0FAD0EAC0D753519
:102E58003712206EEF2480F510EE3400F50FED34B4
:102E680000F50EEC3400F50D7F027E007D007C003D
:102E7800AB10AA0FA90EA80D123129E42FF5827400
:102E8800083EF583E0FEA3E0FFE4FCFD8F188E17F3
:102E98008D168C15805C0508AF10AE0FAD0EAC0D0D
:102EA80075353812206E8F108E0F8D0E8C0DE51033
:102EB800547FF510E50F5400F50FE50E5400F50E9C
:102EC800E50D5400F50D7F027E007D007C00AB10FF
:102ED800AA0FA90EA80D123129E42FF58274083E15
:102EE800F583E0FEA3E0FFE4FCFD8F188E178D1636
:102EF8008C15AF18AE17AD16AC1575359012206E3F
:102F08008F188E178D168C15AF18AE17AD16AC1519
:102F180075352F12206E8F188E178D168C15C3E5F8
:102F280008648094804020AF18AE17AD16AC15E544
:102F380008A2E713FBEB24A0F53512206E8F188E3C
:102F4800178D168C158022AF18AE17AD16AC15E587
:102F580008F404FBEBA2E713FBEB2420F535122061
:102F68006E8F188E178D168C15AF18AE17AD16AC60
:022F7800152220
:102BAA008F248E238D228C21AF24AE23AD22AC211B
:102BBA0012203B8F148E138D128C11AF28AE27ADC5
:102BCA0026AC2512203B8F108E0F8D0E8C0DAF1464
:102BDA00AE13AD12AC11AB10AA0FA90EA80DD312E9
:102BEA003186404CAF14AE13AD12AC117535A51237
:102BFA00206E8F148E138D128C11AF10AE0FAD0E86
:102C0A00AC0D75352412206E8F108E0F8D0E8C0D23
:102C1A00AB10AA0FA90EA80DAF14AE13AD12AC11CA
:102C2A00123EB98F108E0F8D0E8C0D750800804ADA
:102C3A00AF10AE0FAD0EAC0D7535A512206E8F100C
:102C4A008E0F8D0E8C0DAF14AE13AD12AC117535FF
:102C5A002412206E8F148E138D128C11AF10AE0FAA
:102C6A00AD0EAC0DAB14AA13A912A811123EB98F5E
:102C7A00108E0F8D0E8C0D7508017F027E007D006F
:102C8A007C00AB10AA0FA90EA80D123129E42FF56A
:102C9A0082740C3EF583E0FEA3E0FFE4FCFD8F188E
:102CAA008E178D168C15AF18AE17AD16AC157B2D79
:102CBA007A00790078001231298F188E178D168CB8
:102CCA0015AF18AE17AD16AC1575358C12206E8F70
:102CDA00188E178D168C15AF18AE17AD16AC157564
:102CEA00352912206E8F188E178D168C15E508B4AB
:102CFA000116C3E49518F518E49517F517742D9580
:102D0A0016F516E49515F5157F007E007D007C000A
:102D1A00AB24AA23A922A821C3123186502F7F00EF
:102D2A007E007D007C00AB28AA27A926A825D312FD
:102D3A0031864019C3E49518F518E49517F5177408
:102D4A005A9516F516E49515F515022DDF7F007EC6
:102D5A00007D007C00AB24AA23A922A821C312313A
:102D6A008650307F007E007D007C00AB28AA27A910
:102D7A0026A825C3123186501AE5182400F518E54D
:102D8A00173400F517E516345AF516E5153400F52B
:102D9A001580427F007E007D007C00AB24AA23A917
:102DAA0022A821D3123186402C7F007E007D007C30
:102DBA0000AB28AA27A926A825C31231865016C314
:102DCA00E49518F518E49517F51774B49516F516E1
:0E2DDA00E49515F515AF18AE17AD16AC152221
:103629008F2C8E2B8D2A8C29AF30AE2FAD2EAC2D41
:1036390075352812206EC004C005C006C007AF301A
:10364900AE2FAD2EAC2D75352712206EA804A90515
:10365900AA06AB07D007D006D005D004123129C07D
:1036690004C005C006C007AF2CAE2BAD2AAC297526
:10367900352812206EC004C005C006C007AF2CAEA5
:103689002BAD2AAC2975352712206EA804A905AAE5
:1036990006AB07D007D006D005D004123129A804FB
:1036A900A905AA06AB07D007D006D005D004EB2F91
:1036B900F510EA3EF50FE93DF50EE83CF50DAF10C2
:1036C900AE0FAD0EAC0D122DE88F188E178D168C1E
:0A36D90015AF18AE17AD16AC1522A0
:10206E008535AB8CAF8DAE8EAD8FACACBFADBEAE8D
:04207E00BDAFBC2214
:1040F9008FE98EEA8DEB8CEC75EF00E5EC30E70487
:104109007F0180027F00EF60F2AFE9AEEAADEBAC70
:02411900EC2296
:08203B00EC30E70312317822BA
:10310700C2D530F707B2D563F0FF05F030E70CB250
:10311700D5F4048463F0FF05F080018430D502F410
:02312700042280
:10312900E88FF0A4CC8BF0A42CFCE98EF0A42CFC45
:103139008AF0EDA42CFCEA8EF0A4CDA8F08BF0A4C3
:103149002DCC3825F0FDE98FF0A42CCD35F0FCEB22
:103159008EF0A4FEA9F0EB8FF0A4CFC5F02ECD39E7
:0F316900FEE43CFCEAA42DCE35F0FDE43CFC2254
:103EB900C2D5E830E70FB2D5E4C39BFBE49AFAE434
:103EC90099F9E498F8EC30E717B2D5123EEF1231C0
:103ED900F7E4C39BFBE49AFAE499F9E498F88003C0
:103EE9001231F730D50DE4C39FFFE49EFEE49DFD3A
:043EF900E49CFC2227
:0E317800C3E49FFFE49EFEE49DFDE49CFC2268
:10318600EB9FF5F0EA9E42F0E99D42F0EC6480C8C0
:0631960064809845F02260
:10319C00E8600FEFC333FFEE33FEED33FDEC33FC91
:0331AC00D8F12235
:0C31AF00ECF0A3EDF0A3EEF0A3EFF02293
:102B7000C582F9316EC583227170C0E0E0A331983F
:102B8000D8FA8982D08321637170C0E0E493A331C5
:102B900098D8F980EDF9E7093198D8FA2163717076
:0A2BA000C0E0E8F080DCF6216300DD
:1031BB0075F008758200EF2FFFEE33FECD33CDCCCB
:1031CB0033CCC58233C5829BED9AEC99E58298404E
:1031DB000CF582EE9BFEED9AFDEC99FC0FD5F0D62B
:1031EB00E4CEFBE4CDFAE4CCF9A88222B800C1B955
:1031FB000059BA002DEC8BF084CFCECDFCE5F0CB93
:10320B00F97818EF2FFFEE33FEED33FDEC33FCEBCB
:10321B0033FB10D703994004EB99FB0FD8E5E4F986
:10322B00FA227818EF2FFFEE33FEED33FDEC33FC73
:10323B00C933C910D7059BE99A4007EC9BFCE99A67
:10324B00F90FD8E0E4C9FAE4CCFB2275F010EF2FAC
:10325B00FFEE33FEED33FDCC33CCC833C810D707AC
:10326B009BEC9AE899400AED9BFDEC9AFCE899F8E7
:0E327B000FD5F0DAE4CDFBE4CCFAE4C8F9227A
:00000001FF
