:0320000002208E2D
:0F208E00787FE4F6D8FD75A000758145023E7C91
:103E7C00123F621232B8D2A6D2AF90A00C122E9C76
:103E8C00006456C890A010122E9CFFB78000C2A6EA
:103E9C0090A00CE0FCA3E0FDA3E0FEA3E0FF120069
:103EAC000090A014122E90D2A620ACCE3098CBE568
:0F3EBC009964A56004C29880C1122B6580BC2256
:1041B70090E08D7402F090E0BFE0FFEF54F3FFEF63
:0F41C7004404FFEFF0D2A8D288C28953F9F02246
:103F6200C2AF12422612420E75A93075B920C2A9FB
:103F7200C2BDD2ACD2AF000000C290D29020AC1031
:103F820030980DE59964A56004C2988003122B65F0
:103F9200E59330E4E4800280E0000000D2A9D2BDC3
:063FA200000000D2AF2276
:0A4226007593017594FF7595FF2252
:0D41F40075B10575C90575D90575F1052270
:0D42010075B10F75C90F75D90F75F10F223A
:1037120090E08BE4F090E0ECE0FFEF4408FFEFF084
:1037220090E0ECE0FFEF4403FFEFF090E05C740FF9
:10373200F090E07AE0FFEF4404FFEFF090E07AE0EF
:10374200FFEF4401FFEFF090E0A4E0FFEF54FCFF35
:10375200EF4402FFEFF090E0A4E0FFEF54F3FFEF3D
:103762004408FFEFF090E0A4E0FFEF54CFFFEF44F6
:1037720020FFEFF090E09DE0FFEF54FDFFEFF090AF
:10378200E05DE0FFEF54F7FFEFF090E05AE0FFEF6B
:103792004420FFEFF090E05AE0FFEF4401FFEFF02A
:0D37A20090E064E4F0A3E4F0D2B8C2C022CD
:1020F60090E0E1E0FFEF54CFFFEF4410FFEFF090E8
:10210600E0E1E0FFEF543FFFEF4440FFEFF090E0E7
:10211600E0E0FFEF54FCFFEF4401FFEFF090E0E05A
:10212600E0FFEF54F3FFEF4404FFEFF090E0E0E050
:10213600FFEF54CFFFEF4410FFEFF090E0E0E0FF39
:10214600EF543FFFEF4440FFEFF075A20175A190F9
:1021560075C20175C19075D20175D19075E2017590
:10216600E19090E000E0FFEF4402FFEFF090E00026
:10217600E0FFEF4404FFEFF090E000E0FFEF4408DB
:10218600FFEFF090E000E0FFEF4410FFEFF090E08B
:1021960000E0FFEF54FEFFEFF090E003E0FFEF54A6
:1021A600FCFFEF4402FFEFF090E019E0FFEF54FC74
:1021B600FFEF4402FFEFF090E02FE0FFEF54FCFF4B
:0A21C600EF4402FFEFF090E045E067
:1021D000FFEF54FCFFEF4402FFEFF090E003E0FF5D
:1021E000EF54F7FFEFF090E002E0FFEF543FFFEF16
:1021F0004480FFEFF090E018E0FFEF543FFFEF4422
:1022000080FFEFF090E02EE0FFEF543FFFEF4480BF
:10221000FFEFF090E044E0FFEF543FFFEF4480FF1A
:10222000EFF090E007E0FFEF54EFFFEFF090E007F2
:10223000E0FFEF54DFFFEFF090E007E0FFEF54FC2A
:10224000FFEFF090E007E0FFEF54F3FFEFF090E0D6
:102250001DE0FFEF54EFFFEFF090E01DE0FFEF54C3
:10226000DFFFEFF090E01DE0FFEF54FCFFEFF09098
:10227000E01DE0FFEF54F3FFEFF090E033E0FFEFFD
:1022800054EFFFEFF090E033E0FFEF54DFFFEFF0AB
:0E22900090E033E0FFEF54FCFFEFF090E033FE
:10229E00E0FFEF54F3FFEFF090E049E0FFEF54EF73
:1022AE00FFEFF090E049E0FFEF54DFFFEFF090E03A
:1022BE0049E0FFEF54FCFFEFF090E049E0FFEF54F0
:1022CE00F3FFEFF090E009E0FFEF543FFFEF4440E3
:1022DE00FFEFF090E009E0FFEF54CFFFEF4420FF57
:1022EE00EFF090E008E0FFEF54F3FFEFF090E0081E
:1022FE00E0FFEF54FCFFEFF090E009E0FFEF54F346
:10230E00FFEFF090E009E0FFEF54FCFFEFF090E0FC
:10231E001FE0FFEF543FFFEF4440FFEFF090E01F50
:10232E00E0FFEF54CFFFEF4420FFEFF090E01EE010
:10233E00FFEF54F3FFEFF090E01EE0FFEF54FCFFD1
:10234E00EFF090E01FE0FFEF54F3FFEFF090E01F8F
:0D235E00E0FFEF54FCFFEFF090E035E0FFF2
:10236B00EF543FFFEF4440FFEFF090E035E0FFEF1D
:10237B0054CFFFEF4420FFEFF090E034E0FFEF5439
:10238B00F3FFEFF090E034E0FFEF54FCFFEFF09041
:10239B00E035E0FFEF54F3FFEFF090E035E0FFEFB7
:1023AB0054FCFFEFF090E04BE0FFEF543FFFEF44A6
:1023BB0040FFEFF090E04BE0FFEF54CFFFEF4420F6
:1023CB00FFEFF090E04AE0FFEF54F3FFEFF090E007
:1023DB004AE0FFEF54FCFFEFF090E04BE0FFEF54CF
:1023EB00F3FFEFF090E04BE0FFEF54FCFFEFF090CA
:1023FB00E00CE0FFEF4403FFEFF090E00CE0FFEFA9
:10240B0054F3FFEF4408FFEFF090E00CE0FFEF54C4
:10241B00CFFFEFF090E022E0FFEF4403FFEFF090EF
:0D242B00E022E0FFEF54F3FFEF4408FFEF65
:10243800F090E022E0FFEF54CFFFEFF090E038E0BB
:10244800FFEF4403FFEFF090E038E0FFEF54F3FFB5
:10245800EF4408FFEFF090E038E0FFEF54CFFFEFD4
:10246800F090E04EE0FFEF4403FFEFF090E04EE025
:10247800FFEF54F3FFEF4408FFEFF090E04EE0FF6A
:10248800EF54CFFFEFF090E00DE4F0A37432F0903A
:10249800E023E4F0A37432F090E039E4F0A374325E
:1024A800F090E04FE4F0A37432F090E00FE4F0A372
:1024B8007432F090E025E4F0A37432F090E03BE44D
:1024C800F0A37432F090E051E4F0A37432F090E09D
:1024D80011E0FFEF4401FFEFF090E011E0FFEF544F
:1024E800FDFFEFF090E027E0FFEF4401FFEFF090F1
:1024F800E027E0FFEF54FDFFEFF090E03DE0FFEF55
:042508004401FFEF9C
:10250C00F090E03DE0FFEF54FDFFEFF090E053E082
:10251C00FFEF4401FFEFF090E053E0FFEF54FDFFBD
:10252C00EFF090E012E0FFEF54FCFFEFF090E012C0
:10253C00E0FFEF54F3FFEFF090E028E0FFEF54FCE6
:10254C00FFEFF090E028E0FFEF54F3FFEFF090E0A6
:10255C003EE0FFEF54FCFFEFF090E03EE0FFEF5465
:10256C00F3FFEFF090E054E0FFEF54FCFFEFF0903E
:10257C00E054E0FFEF54F3FFEFF090E015E0FFEFD5
:10258C004408FFEFF090E015E0FFEF54F8FFEF4444
:10259C0001FFEFF090E014E0FFEF4408FFEFF09044
:1025AC00E014E0FFEF54F8FFEF4401FFEFF090E090
:1025BC0014E0FFEF547FFFEFF090E014E0FFEF54D6
:0E25CC008FFFEF4410FFEFF090E02BE0FFEFE9
:1025DA004408FFEFF090E02BE0FFEF54F8FFEF44E0
:1025EA0001FFEFF090E02AE0FFEF4408FFEFF090E0
:1025FA00E02AE0FFEF54F8FFEF4401FFEFF090E02C
:10260A002AE0FFEF547FFFEFF090E02AE0FFEF545B
:10261A008FFFEF4410FFEFF090E041E0FFEF440836
:10262A00FFEFF090E041E0FFEF54F8FFEF4401FFC5
:10263A00EFF090E040E0FFEF4408FFEFF090E04059
:10264A00E0FFEF54F8FFEF4401FFEFF090E040E0C5
:10265A00FFEF547FFFEFF090E040E0FFEF548FFF71
:10266A00EF4410FFEFF090E057E0FFEF4408FFEF70
:10267A00F090E057E0FFEF54F8FFEF4401FFEFF06E
:10268A0090E056E0FFEF4408FFEFF090E056E0FFDD
:0E269A00EF54F8FFEF4401FFEFF090E056E040
:1026A800FFEF547FFFEFF090E056E0FFEF548FFF0D
:1026B800EF4410FFEFF090E017E0FFEF54FCFFEF5E
:1026C8004401FFEFF090E017E0FFEF54F3FFEF4411
:1026D80004FFEFF090E016E0FFEF54FCFFEF440139
:1026E800FFEFF090E016E0FFEF54F3FFEF4404FF34
:1026F800EFF090E016E0FFEF54CFFFEFF090E01618
:10270800E0FFEF543FFFEFF090E02DE0FFEF54FCC7
:10271800FFEF4401FFEFF090E02DE0FFEF54F3FFEF
:10272800EF4404FFEFF090E02CE0FFEF54FCFFEFE4
:102738004401FFEFF090E02CE0FFEF54F3FFEF448B
:1027480004FFEFF090E02CE0FFEF54CFFFEFF090A4
:10275800E02CE0FFEF543FFFEFF090E043E0FFEFA5
:0D27680054FCFFEF4401FFEFF090E043E070
:10277500FFEF54F3FFEF4404FFEFF090E042E0FF7A
:10278500EF54FCFFEF4401FFEFF090E042E0FFEF74
:1027950054F3FFEF4404FFEFF090E042E0FFEF5405
:1027A500CFFFEFF090E042E0FFEF543FFFEFF090F6
:1027B500E059E0FFEF54FCFFEF4401FFEFF090E03C
:1027C50059E0FFEF54F3FFEF4404FFEFF090E058BA
:1027D500E0FFEF54FCFFEF4401FFEFF090E058E01D
:1027E500FFEF54F3FFEF4404FFEFF090E058E0FFF4
:1027F500EF54CFFFEFF090E058E0FFEF543FFFEFCD
:10280500F075A20775A1D075C20775C1D075D2073D
:1028150075D1D075E20775E1D075A40175A3E8758A
:10282500C40175C3E875D40175D3E875E40175E392
:10283500E875A60175A59075C60175C59075D60193
:1028450075D59075E60175E59090E000E0FFEF44E1
:1028550001FFEFF043B60143CE0143DE0143F6012C
:05286500D2CDD2B92222
:10354C0090E0E1E0FFEF54F3FFEF4408FFEFF09061
:10355C00E0DAE0FFEF54FCFFEF4402FFEFF090E005
:10356C00DBE0FFEF543FFFEF4480FFEFF090E0DB38
:10357C00E0FFEF54CFFFEF4420FFEFF090E0A4E02A
:10358C00FFEF54FCFFEF4401FFEFF090E0A4E0FFED
:10359C00EF54F3FFEF4404FFEFF090E0A4E0FFEFF3
:1035AC0054CFFFEF4410FFEFF090E0A4E0FFEF5496
:1035BC00BFFFEFF090E0C6E0FFEF54FEFFEFF0909E
:1035CC00E0C6E0FFEF54FDFFEFF090E0C6E0FFEF48
:1035DC0054FBFFEFF090E0C6E0FFEF54F7FFEFF085
:1035EC0090E0EBE0FFEF4401FFEFF090E0EBE0FF49
:1035FC00EF4402FFEFF090E0EBE0FFEF4404FFEF4D
:0C360C00F090E0EBE0FFEF4408FFEFF06F
:1036180090E0C7E0FFEF54FEFFEFF090E0C7E0FF57
:10362800EF54FDFFEFF090E0C7E0FFEF54FBFFEF32
:10363800F090E0C7E0FFEF54F7FFEFF090E0EBE029
:10364800FFEF4410FFEFF0D2BBD2AAC28BC2C32255
:1041D6007586FFD2AED2BE90E0DBE0FFEF54FCFF67
:0E41E600EFF090E0DCE0FFEF54FEFFEFF02280
:1032B80090E0D5E4F090E0D4E4F090E0D6E4F0902B
:1032C800E0D874FFF090E0D7E4F090E0D9E4F09013
:1032D800E0DBE4F090E0DAE4F090E0DCE4F090E0A9
:1032E800DE74FFF090E0DDE4F090E0DFE4F090E0E1
:1032F800E1E4F090E0E0E4F090E0E2E4F090E0E473
:1033080074FFF090E0E3E4F090E0E5E4F090E0D5BD
:10331800E0FFEF54FCFFEFF090E0D6E0FFEF440150
:10332800FFEFF090E0D8E0FFEF54FEFFEFF090E001
:10333800D7E0FFEF54FEFFEFF090E0E1E0FFEF543D
:10334800FCFFEF4401FFEFF090E0E2E0FFEF54FEF6
:10335800FFEFF090E0E4E0FFEF4401FFEFF090E0D2
:10336800E5E0FFEF54FEFFEFF090E0E3E0FFEF54FD
:10337800FEFFEFF090E0DAE0FFEF54F3FFEF4408D0
:10338800FFEFF090E0DCE0FFEF54DFFFEFF090E0BC
:01339800DE56
:10339900E0FFEF4420FFEFF090E0DFE0FFEF54DFC4
:1033A900FFEFF090E0DDE0FFEF54DFFFEFF090E09A
:1033B900D4E0FFEF54FCFFEFF090E0D6E0FFEF44DC
:1033C90010FFEFF090E0D8E0FFEF4410FFEFF0902E
:1033D900E0D9E0FFEF54EFFFEFF090E0D7E0FFEF27
:1033E90054EFFFEFF090E0E0E0FFEF54CFFFEFF094
:1033F90090E0E2E0FFEF4440FFEFF090E0E4E0FF0F
:10340900EF54BFFFEFF090E0E5E0FFEF54BFFFEFAF
:0D341900F090E0E3E0FFEF54BFFFEFF02282
:1041720090E0EF7405F090E0EEE4F0758910758A36
:1041820000758CFE758B00758D00D2A9D2ABD28CD6
:03419200D28E22A8
:103B510090E0C9E4F090E0CCE4F0A3E4F090E0CA96
:103B6100E4F0A3E4F090E0C8E0FFEF54FDFFEFF0D4
:103B710090E0C8E0FFEF4401FFEFF090E0C8E0FF04
:103B8100EF4408FFEFF090E08AE0FFEF54FEFFEF13
:103B9100F090E0C8E0FFEF4420FFEFF090E0C8E0D4
:103BA100FFEF4404FFEFF090E0C8E0FFEF547FFF28
:103BB100EFF090E0C8E0FFEF54BFFFEFF0C28BD20F
:023BC100AA2236
:10411E0090E0CFE4F090E0D274E0F0A374C0F090A1
:10412E00E0CEE0FFEF4420FFEFF090E0CEE0FFEFB7
:0D413E004404FFEFF053FEF0D2BDC2C522D5
:1040B20090E0F4E4F090E0F77410F0A374C0F09094
:1040C200E0F3E0FFEF4420FFEFF090E0F3E0FFEFDA
:1040D2004404FFEFF090E0F3E0FFEF547FFFEFF0D6
:0740E200D2CED2BAC2C22205
:1040E90090E0FAE4F090E0FD7410F0A374C0F09051
:1040F900E0F9E0FFEF4420FFEFF090E0F9E0FFEF97
:104109004404FFEFF090E0F9E0FFEF547FFFEFF098
:05411900D2BCC2C4226B
:103CA50090E0B27460F090E0B17440F090E0B074D0
:103CB5004FF090E0AF743FF00000000000000000FE
:103CC50000000000000000000000000000000000EF
:103CD50000000000000000000090E0E7E4F090E044
:103CE500E6E4F00000000000000000000000000015
:103CF50000000000000000000000000000000000BF
:043D05000000002298
:0D420E0075985075D88075AAF375BA032213
:0A423000759B90759DE675BB032297
:103FEC0090E07AE0FFEF54FBFFEFF090E07AE0FF17
:103FFC00EF54FEFFEFF090E07AE0FFEF54F7FFEFA5
:10400C00F090E07AE0FFEF54FDFFEFF090E089E0F4
:10401C00FFEF54FEFFEFF090E089E0FFEF54FDFF5F
:03402C00EFF02290
:032003000237AFF2
:1037AF00C0E0C0D075D000C007E5F930E0047F015C
:1037BF0080027F00EFB4010353F9FEE5F930E10415
:1037CF007F0180027F00EFB40105B2A653F9FCE53B
:1037DF00F930E2047F0180027F00EFB4010353F957
:1037EF00F8E5F930E3047F0180027F00EFB40103B5
:1037FF0053F9F0E5F930E0047F0180027F00EF70AC
:10380F002CE5F930E1047F0180027F00EF701EE5A7
:10381F00F930E2047F0180027F00EF7010E5F9308C
:10382F00E3047F0180027F00EF7002C289D007D0CE
:04383F00D0D0E032D3
:03200B0002414B44
:10414B00C0E0C083C082C0D075D000C007C28DB2A2
:10415B008490E05AE0FFEF4420FFEFF0D007D0D07F
:07416B00D082D083D0E032C6
:03201B000220069A
:03200600C28F3254
:0320BB0002312DC2
:10312D00C0E0C0F0C083C082C0D075D000C000C068
:10313D0001C002C003C004C005C006C00790E0C8AE
:10314D00E0FFEFC41313135401FFEF30E01190A013
:10315D001EE004F090E0C8E0FFEF547FFFEFF09029
:10316D00E0C8E0FFEFC413135403FFEF20E00302A8
:10317D00326C90E0CCE0FEA3E0FFE4FCFD90A008F3
:10318D00122E9090E08AE0FFEF30E02790E08AE089
:10319D00FFEF54FEFFEFF090A008E0FCA3E0FDA3CD
:1031AD00E0FEA3E0FF90A004122E9090A01EE4F08C
:1031BD0002326190A01EE0FFEF703190A004E0F8A4
:1031CD00A3E0F9A3E0FAA3E0FB90A008E0FCA3E0E4
:1031DD00FDA3E0FEA3E0FFC3EF9BFFEE9AFEED998A
:1031ED00FDEC98FC90A01A122E90805D90A01EE030
:1031FD00FFE4FCFDFE7810122E7D90A01A122E9089
:10320D0090A008E0FCA3E0FDA3E0FEA3E0FF90A0EA
:10321D001AE0F8A3E0F9A3E0FAA3E0FBEB2FFFEA35
:10322D003EFEE93DFDE83CFC90A004E0F8A3E0F98A
:10323D00A3E0FAA3E0FBC3EF9BFFEE9AFEED99FD31
:10324D00EC98FC90A01A122E9090E08AE0FFEF44CB
:10325D0001FFEFF090E0C8E0FFEF54BFFFEFF090FB
:10326D00E0C8E0FFEFC41313135401FFEF20E0207B
:10327D0090E0C8E0FFEFC413135403FFEF20E010FC
:10328D00E5F930E5047F0180027F00EF7002C28B0B
:10329D00D007D006D005D004D003D002D001D00085
:0B32AD00D0D0D082D083D0F0D0E0322F
:03208B00023C35DF
:103C3500C0E0C083C082C0D075D000C00790E0CE80
:103C4500E0FFEF547FFFEFF053FEF0B2A6E5FE3044
:103C5500E0047F0180027F00EF703AE5FE30E10469
:103C65007F0180027F00EF702CE5FE30E2047F01CA
:103C750080027F00EF701EE5FE30E3047F018002C5
:103C85007F00EF7010E59330E7047F0180027F002D
:103C9500EF7002C2C5D007D0D0D082D083D0E03239
:0320AB00023ADA1C
:103ADA00C0E0C083C082C0D075D000C006C00790C5
:103AEA00E0F3E0FFEF547FFFEFF090E0F3E0FFEF49
:103AFA0054BFFFEFF0B2A690E0F3E0FFEFC4131358
:103B0A005403FFEF30E0047F0180027F0090E0F36E
:103B1A00E0FEEEC41313135401FEEE30E0047E01FE
:103B2A0080027E00EE4FFFEF7010E5FA30E3047F6B
:103B3A000180027F00EF7002C2C2D007D006D0D047
:073B4A00D082D083D0E032ED
:0320C3000238439D
:10384300C0E0C083C082C0D075D000C006C007905E
:10385300E0F9E0FFEF547FFFEFF090E0F9E0FFEFD6
:1038630054BFFFEFF0E5FD30E3047F0180027F00EA
:10387300EF7051E5FD30E4047F0180027F00EF70BB
:1038830043E5FD30E5047F0180027F00EF70359052
:10389300E0F9E0FFEFC413135403FFEF30E0047FBC
:1038A3000180027F0090E0F9E0FEEEC4131313548D
:1038B30001FEEE30E0047E0180027E00EE4FFFEF5A
:1038C3007002C2C4B2A6D007D006D0D0D082D083B3
:0338D300D0E03210
:03204B00023BC392
:103BC300C0E0C0D075D000C007E5B530E0047F0188
:103BD30080027F00EFB4010343B601E5CD30E0047A
:103BE3007F0180027F00EFB4010343CE01E5DD30A6
:103BF300E0047F0180027F00EFB4010343DE01E5AF
:103C0300B530E0047F0180027F00EF701EE5CD3008
:103C1300E0047F0180027F00EF7010E5DD30E004F7
:103C23007F0180027F00EF7002C2C1D007D0D0D0E5
:023C3300E0327D
:0320A300023D09F2
:103D0900C0E0C083C082C0D075D000C006C00743E0
:103D1900F60190E0F3E0FFEFC413135403FFEF3013
:103D2900E0047F0180027F0090E0F3E0FEEEC4131F
:103D390013135401FEEE30E0047E0180027E00EE92
:103D49004FFFEF7010E5F530E0047F0180027F003E
:103D5900EF7002C2C2D007D006D0D0D082D083D0B3
:023D6900E03246
:0320B30002407177
:10407100C0E0C083C082C0D075D000C00790E0C747
:10408100E0FFEF54FEFFEFF0E5F930E4047F01803B
:10409100027F00EF7010E5F930E5047F0180027FB7
:1040A10000EF7002C28BD007D0D0D082D083D0E095
:0140B10032DC
:03205B000238D672
:1038D600C0E0C083C082C0D075D000C00790E0C7EA
:1038E600E0FFEFC313FFEF30E00B90E0C7E0FFEF20
:1038F60054FDFFEFF090E0C7E0FFEF1313543FFFD6
:10390600EF30E00B90E0C7E0FFEF54FBFFEFF090E5
:10391600E0C7E0FFEF131313541FFFEF30E00B90E7
:10392600E0C7E0FFEF54F7FFEFF090E0C7E0FFEFEE
:10393600C313FFEF20E02190E0C7E0FFEF1313541D
:103946003FFFEF20E01290E0C7E0FFEF13131354A0
:103956001FFFEF20E002C2C3D007D0D0D082D083B1
:03396600D0E0327C
:0320CB000239696E
:10396900C0E0C083C082C0D075D000C006C007E5E2
:10397900FD30E3047F0180027F00EF7051E5FD30E7
:10398900E4047F0180027F00EF7043E5FD30E50428
:103999007F0180027F00EF703590E0F9E0FFEFC40E
:1039A90013135403FFEF30E0047F0180027F00907E
:1039B900E0F9E0FEEEC41313135401FEEE30E00407
:1039C9007E0180027E00EE4FFFEF7002C2C4D00775
:0B39D900D006D0D0D082D083D0E032E6
:0320D3000239E4EB
:1039E400C0E0C083C082C0D075D000C006C007E567
:1039F400FD30E3047F0180027F00EF7051E5FD306C
:103A0400E4047F0180027F00EF7043E5FD30E504AC
:103A14007F0180027F00EF703590E0F9E0FFEFC492
:103A240013135403FFEF30E0047F0180027F009002
:103A3400E0F9E0FEEEC41313135401FEEE30E0048B
:103A44007E0180027E00EE4FFFEF7002C2C4D007F9
:0B3A5400D006D0D0D082D083D0E0326A
:0320DB00023A5F67
:103A5F00C0E0C083C082C0D075D000C006C007E5EB
:103A6F00FD30E3047F0180027F00EF7051E5FD30F0
:103A7F00E4047F0180027F00EF7043E5FD30E50431
:103A8F007F0180027F00EF703590E0F9E0FFEFC417
:103A9F0013135403FFEF30E0047F0180027F009087
:103AAF00E0F9E0FEEEC41313135401FEEE30E00410
:103ABF007E0180027E00EE4FFFEF7002C2C4D0077E
:0B3ACF00D006D0D0D082D083D0E032EF
:0320E300023D6B50
:103D6B00C0E0C0D075D000C00753FEFEE5FE30E0CA
:103D7B00047F0180027F00EF703AE5FE30E1047FA3
:103D8B000180027F00EF702CE5FE30E2047F0180A2
:103D9B00027F00EF701EE5FE30E3047F0180027F9F
:103DAB0000EF7010E59330E7047F0180027F00EF96
:0B3DBB007002C2C5D007D0D0D0E032AB
:0320EB00023DC6ED
:103DC600C0E0C0D075D000C00753FEFCE5FE30E071
:103DD600047F0180027F00EF703AE5FE30E1047F48
:103DE6000180027F00EF702CE5FE30E2047F018047
:103DF600027F00EF701EE5FE30E3047F0180027F44
:103E060000EF7010E59330E7047F0180027F00EF3A
:0B3E16007002C2C5D007D0D0D0E0324F
:0320F300023E2189
:103E2100C0E0C0D075D000C00753FEF8E5FE30E019
:103E3100047F0180027F00EF703AE5FE30E1047FEC
:103E41000180027F00EF702CE5FE30E2047F0180EB
:103E5100027F00EF701EE5FE30E3047F0180027FE8
:103E610000EF7010E59330E7047F0180027F00EFDF
:0B3E71007002C2C5D007D0D0D0E032F4
:0B421B00309802C298309902C299222C
:0320830002202612
:10202600C0E0E59B30E003539BFEE59B30E10353A4
:052036009BFDD0E0322B
:0320430002402F29
:10402F00C0E0C083C082C0D075D000C006C007906A
:10403F00E05BE0FFEF30E00D90E05BE0FFEF54FE60
:10404F00FFEFF0C2C090E072E0FEA3E0FF90A01877
:10405F00EEF0A3EFF0D007D006D0D0D082D083D02F
:02406F00E0323D
:103ECB008F1990E08EE0FFEFC413135403FFEF2024
:103EDB00E0F090E08F7453F090E091E519F090E0F2
:103EEB0092E4F0AF1DAE1CAD1BAC1A90E093122EFA
:103EFB009090E08E740BF090E08EE0FFEFC41354C3
:0C3F0B0007FFEF30E0F190E08EE4F022C0
:103F17008F1E90E08EE0FFEFC413135403FFEF20D2
:103F2700E0F090E08F7455F090E091E51EF090E09E
:103F370092E4F090E08E7407F090E08EE0FFEFC41B
:103F4700540FFFEF30E0F290E08EE4F090E093E062
:0B3F5700FCA3E0FDA3E0FEA3E0FF22BE
:032023000229226D
:032013000228ACF4
:03205300022895CB
:0320630002286AE6
:03206B000228C385
:10286A00C0D0C0E0E5FD20E30D20E41120E515D03D
:10287A00E0D0D00220C3D0E0D0D00220CBD0E0D02C
:10288A00D00220D3D0E0D0D00220DBC0D0C0E0E517
:10289A00FA20E307D0E0D0D00220ABD0E0D0D002BB
:1028AA0020A3C0D0C0E0E5F920E407D0E0D0D002F0
:1028BA0020B3D0E0D0D00220BBC0D0C0E0E5932046
:1028CA00E727E5FE20E00D20E11120E215D0E0D057
:1028DA00D002208BD0E0D0D00220E3D0E0D0D002CA
:1028EA0020EBD0E0D0D00220F375D000C000C001A8
:1028FA00740033747C3353937FC2C5D2998046C81F
:10290A00C443968010E40353967FC8759380F59468
:08291A00316EF59588932163ED
:10292200C0D0C0E0309814E599C298F51FB4A55EF6
:10293200D29975D000C000C001801074FF75D0001C
:10294200C000C00178FF8600B8FF2974F73099FDF6
:10295200C299F599D0017805D0E03198D8FAE931D9
:1029620098316EC0E0316EC0E0316EF83098FDE50E
:1029720099C29822E58124FCF9800C0819E66708BF
:10298200097004E66760C4B8FEF1D001D000D0E05F
:10299200D0D0439310323099FDC299F59922C0E00C
:1029A200316EC0E0316EC0E0316EF9316EC0E0C010
:1029B2000078FFE67002C299218E8882F583216336
:1029C2008881F5F02163F5802163F5B02163E5810B
:1029D200C083C082C08EC0F0C0E0C0E0214FE58954
:1029E200C088C087C086C085C084C080214FE59062
:1029F200C08FC08EC08DC08CC08BC08A214FE5971E
:102A0200C096C095C094C093C092C091214FE59EDC
:102A1200C09DC09CC09BC09AC099C098214FE5A59B
:102A2200C0A4C0A3C0A2C0A1C0A0C09F214FE5AC5A
:102A3200C0ABC0AAC0A9C0A8C0A7C0A6214FE5B319
:042A4200C0B2C0B1AD
:102A4600C0B0C0AFC0AEC0AD214FE5BAC0B9C0B8C6
:102A5600C0B7C0B6C0B5C0B4214FE5C1C0C0C0BF85
:102A6600C0BEC0BDC0BCC0BB214FE5C8C0C7C0C644
:102A7600C0C5C0C4C0C3C0C2214FE5CFC0CEC0CD03
:102A8600C0CCC0CBC0CAC0C9214FE5D7C0D6C0D5BF
:102A9600C0D4C0D3C0D2C0D1214FE5DEC0DDC0DC7A
:102AA600C0DBC0DAC0D9C0D8214FE5E6C0E5C0E436
:102AB600C0E3C0E2C0E1C0DF214FE5EDC0ECC0EBF2
:102AC600C0EAC0E9C0E8C0E7214FE5F5C0F4C0F3AD
:102AD600C0F2C0F1C0EFC0EE214FE5FCC0FBC0FA6A
:102AE600C0F9C0F8C0F7C0F6214FE5FFC0FEC0FD33
:102AF600C0E0C0E0C0E0C0E0214FBFA7005025EF16
:102B0600640AA2ACC2AC7009740DC299F5993099E9
:102B1600FDEFC299F5993099FD500778FFE67002EE
:102B2600C29992AC2230AC0CE51F64A560F774A57F
:102B3600C51FFF223098FDE599B4A505122B6580C7
:102B4600E4FFC2982230AC07E51FB4A510C322C328
:0F2B560030980BE599B4A505122B6580E8D322C2
:0B2B650078FF76FF751FA5D2AC2200A0
:103426008F398E388D378C36AF39AE38AD37AC36EE
:1034360012203B8F108E0F8D0E8C0D7F007E007D2F
:10344600B47C00AB10AA0FA90EA80DC3122E6740BC
:103456001BC3E5109400F510E50F9400F50FE50E7B
:1034660094B4F50EE50D9400F50D80CF7535287FE3
:103476000B7EB67D007C0012206EC004C005C0061F
:10348600C007AF10AE0FAD0EAC0D75352712206E0E
:10349600A804A905AA06AB07D007D006D005D00414
:1034A600122E0A8F108E0F8D0E8C0DAF10AE0FAD33
:1034B6000EAC0D75352F12206E8F108E0F8D0E8C63
:1034C6000D7F027E007D007C00AB10AA0FA90EA81E
:1034D6000D122E0A8F828E83E0FEA3E0FFE4FCFD30
:1034E6008F188E178D168C15AF18AE17AD16AC1536
:1034F60075359012206E8F188E178D168C15AF1895
:10350600AE17AD16AC1575352F12206E8F188E17A7
:103516008D168C157F007E007D007C00AB39AA38A5
:10352600A937A836C3122E675013AF18AE17AD16BB
:10353600AC15122E598F188E178D168C15AF18AE26
:0635460017AD16AC1522C2
:102F9B008F3D8E3C8D3B8C3A7F007E007D007C000C
:102FAB00AB3DAA3CA93BA83AC3122E6750097F0040
:102FBB007E007D007C0022AF3DAE3CAD3BAC3A12B7
:102FCB0041958F108E0F8D0E8C0DC3741095EFF5F0
:102FDB0008E50875F002122DE8AFF0EF7068E51008
:102FEB0054FFF510E50F54FFF50FE50E54FFF50EEA
:102FFB00E50D547FF50DAF10AE0FAD0EAC0D753565
:10300B003712206EEF2480F510EE3400F50FED34FF
:10301B0000F50EEC3400F50D7F027E007D007C0088
:10302B00AB10AA0FA90EA80D122E0AE42FF582746D
:10303B00083EF583E0FEA3E0FFE4FCFD8F188E173E
:10304B008D168C15805C0508AF10AE0FAD0EAC0D58
:10305B0075353812206E8F108E0F8D0E8C0DE5107E
:10306B00547FF510E50F5400F50FE50E5400F50EE7
:10307B00E50D5400F50D7F027E007D007C00AB104A
:10308B00AA0FA90EA80D122E0AE42FF58274083E82
:10309B00F583E0FEA3E0FFE4FCFD8F188E178D1681
:1030AB008C15AF18AE17AD16AC1575359012206E8A
:1030BB008F188E178D168C15AF18AE17AD16AC1565
:1030CB0075352F12206E8F188E178D168C15C3E544
:1030DB0008648094804020AF18AE17AD16AC15E590
:1030EB0008A2E713FBEB24A0F53512206E8F188E88
:1030FB00178D168C158022AF18AE17AD16AC15E5D3
:10310B0008F404FBEBA2E713FBEB2420F5351220AC
:10311B006E8F188E178D168C15AF18AE17AD16ACAB
:02312B0015226B
:102BAA008F248E238D228C21AF24AE23AD22AC211B
:102BBA0012203B8F148E138D128C11AF28AE27ADC5
:102BCA0026AC2512203B8F108E0F8D0E8C0DAF1464
:102BDA00AE13AD12AC11AB10AA0FA90EA80DD312E9
:102BEA002E67404CAF14AE13AD12AC117535A51259
:102BFA00206E8F148E138D128C11AF10AE0FAD0E86
:102C0A00AC0D75352412206E8F108E0F8D0E8C0D23
:102C1A00AB10AA0FA90EA80DAF14AE13AD12AC11CA
:102C2A00123FA88F108E0F8D0E8C0D750800804AEA
:102C3A00AF10AE0FAD0EAC0D7535A512206E8F100C
:102C4A008E0F8D0E8C0DAF14AE13AD12AC117535FF
:102C5A002412206E8F148E138D128C11AF10AE0FAA
:102C6A00AD0EAC0DAB14AA13A912A811123FA88F6E
:102C7A00108E0F8D0E8C0D7508017F027E007D006F
:102C8A007C00AB10AA0FA90EA80D122E0AE42FF58C
:102C9A0082740C3EF583E0FEA3E0FFE4FCFD8F188E
:102CAA008E178D168C15AF18AE17AD16AC157B2D79
:102CBA007A0079007800122E0A8F188E178D168CDA
:102CCA0015AF18AE17AD16AC1575358C12206E8F70
:102CDA00188E178D168C15AF18AE17AD16AC157564
:102CEA00352912206E8F188E178D168C15E508B4AB
:102CFA000116C3E49518F518E49517F517742D9580
:102D0A0016F516E49515F5157F007E007D007C000A
:102D1A00AB24AA23A922A821C3122E67502F7F0011
:102D2A007E007D007C00AB28AA27A926A825D312FD
:102D3A002E674019C3E49518F518E49517F517742A
:102D4A005A9516F516E49515F515022DDF7F007EC6
:102D5A00007D007C00AB24AA23A922A821C3122E3D
:102D6A006750307F007E007D007C00AB28AA27A92F
:102D7A0026A825C3122E67501AE5182400F518E56F
:102D8A00173400F517E516345AF516E5153400F52B
:102D9A001580427F007E007D007C00AB24AA23A917
:102DAA0022A821D3122E67402C7F007E007D007C52
:102DBA0000AB28AA27A926A825C3122E675016C336
:102DCA00E49518F518E49517F51774B49516F516E1
:0E2DDA00E49515F515AF18AE17AD16AC152221
:103658008F2C8E2B8D2A8C29AF30AE2FAD2EAC2D12
:1036680075352812206EC004C005C006C007AF30EB
:10367800AE2FAD2EAC2D75352712206EA804A905E6
:10368800AA06AB07D007D006D005D004122E0AC070
:1036980004C005C006C007AF2CAE2BAD2AAC2975F7
:1036A800352812206EC004C005C006C007AF2CAE76
:1036B8002BAD2AAC2975352712206EA804A905AAB6
:1036C80006AB07D007D006D005D004122E0AA804EE
:1036D800A905AA06AB07D007D006D005D004EB2F62
:1036E800F510EA3EF50FE93DF50EE83CF50DAF1093
:1036F800AE0FAD0EAC0D122F9B8F188E178D168C3A
:0A37080015AF18AE17AD16AC152270
:10206E008535AB8CAF8DAE8EAD8FACACBFADBEAE8D
:04207E00BDAFBC2214
:104195008FE98EEA8DEB8CEC75EF00E5EC30E704EA
:1041A5007F0180027F00EF60F2AFE9AEEAADEBACD4
:0241B500EC22FA
:08203B00EC30E703122E5922DC
:102DE800C2D530F707B2D563F0FF05F030E70CB273
:102DF800D5F4048463F0FF05F080018430D502F433
:022E08000422A2
:102E0A00E88FF0A4CC8BF0A42CFCE98EF0A42CFC67
:102E1A008AF0EDA42CFCEA8EF0A4CDA8F08BF0A4E5
:102E2A002DCC3825F0FDE98FF0A42CCD35F0FCEB44
:102E3A008EF0A4FEA9F0EB8FF0A4CFC5F02ECD3909
:0F2E4A00FEE43CFCEAA42DCE35F0FDE43CFC2276
:103FA800C2D5E830E70FB2D5E4C39BFBE49AFAE444
:103FB80099F9E498F8EC30E717B2D5123FDE122FE2
:103FC80009E4C39BFBE49AFAE499F9E498F88003BE
:103FD800122F0930D50DE4C39FFFE49EFEE49DFD3A
:043FE800E49CFC2237
:0E2E5900C3E49FFFE49EFEE49DFDE49CFC228A
:102E6700EB9FF5F0EA9E42F0E99D42F0EC6480C8E2
:062E770064809845F02282
:102E7D00E8600FEFC333FFEE33FEED33FDEC33FCB3
:032E8D00D8F12257
:0C2E9000ECF0A3EDF0A3EEF0A3EFF022B5
:102E9C00A8828583F0D083D082122EB3122EB31267
:102EAC002EB3122EB3E473E493A3C583C5F0C5838C
:102EBC00C8C582C8F0A3C583C5F0C583C8C582C880
:012ECC0022E3
:102B7000C582F9316EC583227170C0E0E0A331983F
:102B8000D8FA8982D08321637170C0E0E493A331C5
:102B900098D8F980EDF9E7093198D8FA2163717076
:0A2BA000C0E0E8F080DCF6216300DD
:102ECD0075F008758200EF2FFFEE33FECD33CDCCBC
:102EDD0033CCC58233C5829BED9AEC99E58298403F
:102EED000CF582EE9BFEED9AFDEC99FC0FD5F0D61C
:102EFD00E4CEFBE4CDFAE4CCF9A88222B800C1B946
:102F0D000059BA002DEC8BF084CFCECDFCE5F0CB83
:102F1D00F97818EF2FFFEE33FEED33FDEC33FCEBBC
:102F2D0033FB10D703994004EB99FB0FD8E5E4F977
:102F3D00FA227818EF2FFFEE33FEED33FDEC33FC64
:102F4D00C933C910D7059BE99A4007EC9BFCE99A58
:102F5D00F90FD8E0E4C9FAE4CCFB2275F010EF2F9D
:102F6D00FFEE33FEED33FDCC33CCC833C810D7079D
:102F7D009BEC9AE899400AED9BFDEC9AFCE899F8D8
:0E2F8D000FD5F0DAE4CDFBE4CCFAE4C8F9226B
:00000001FF
