:03200000022B416F
:0F2B4100787FE4F6D8FD75A00075813F022B8BDD
:103243001231BC12307D1233A2122611D2AF90E09C
:103253005AE0FFEFC413135403FFEF20E0F0851689
:103263001485171520ACE73098E4E59964A560044C
:0A327300C29880DA1223F180D52200
:1033C50090E08D7402F090E0BFE0FFEF54F3FFEF63
:0F33D5004404FFEFF0D2A8D288C28953F9F02246
:1031BC00C2AF12345A12341C75A93075B920C2A989
:1031CC00C2BDD2ACD2AF000000C290D29020AC10E5
:1031DC0030980DE59964A56004C29880031223F120
:1031EC00E59330E4E4800280E0000000D2A9D2BD77
:0631FC00000000D2AF222A
:0A345A007593017594FF7595FF222C
:0D34020075B10575C90575D90575F105226F
:0D340F0075B10F75C90F75D90F75F10F223A
:102E2A0090E08BE4F090E0ECE0FFEF4408FFEFF075
:102E3A0090E0ECE0FFEF4403FFEFF090E05C7408F1
:102E4A00F090E07AE0FFEF4404FFEFF090E07AE0E0
:102E5A00FFEF4401FFEFF090E09DE0FFEF54FDFF2C
:102E6A00EFF090E05DE0FFEF54F7FFEFF090E05AEB
:102E7A00E0FFEF4420FFEFF090E05AE0FFEF44015B
:102E8A00FFEFF090E064E4F0A3E4F0D2B8C2C0220D
:1024360090E0E07455F090E0E1E0FFEF540FFFEF1D
:102446004450FF90E0E1EFF090E000741EF090E061
:10245600037402F090E0027480F090E0197402F0C8
:1024660090E0187480F090E02F7402F090E02E74E3
:1024760080F090E0457402F090E0447480F090E0C3
:1024860007E4F090E01DE4F090E033E4F090E049DA
:10249600E4F090E0097460F090E008E4F090E01F4A
:1024A6007460F090E01EE4F090E0357460F090E027
:1024B60034E4F090E04B7460F090E04AE4F090E091
:1024C6000BE4F090E00AE4F090E021E4F090E020E4
:1024D600E4F090E037E4F090E036E4F090E04DE48C
:1024E600F090E04CE4F090E00C740BF090E0227475
:1024F6000BF090E038740BF090E04E740BF090E027
:102506000E7432F090E00DE4F090E0247432F09016
:10251600E023E4F090E03A7432F090E039E4F09091
:10252600E0507432F090E04FE4F090E0107432F036
:0F25360090E00FE4F090E0267432F090E025E49E
:10254500F090E03C7432F090E03BE4F090E052749F
:1025550032F090E051E4F090E011E4F090E027E4EF
:10256500F090E03DE4F090E053E4F090E012E4F008
:1025750090E028E4F090E03EE4F090E054E4F09040
:10258500E0157409F090E014740CF090E02BE4F081
:1025950090E02AE4F090E041E4F090E040E4F0902F
:1025A500E057E4F090E056E4F090E0177405F09001
:1025B500E0167405F090E02DE4F090E02CE4F09046
:1025C500E043E4F090E059E4F075A1D075A20775F9
:1025D500C1D075C20775D1D075D20775E1D075E246
:1025E5000775A3E875A40375C3E875C40375D3E837
:1025F50075D40375E3E875E40390E000E0FFEF446C
:0C26050001FFEFF075B601D2CDD2B92272
:10277F0090E0E1E0FFEF54F3FFEF4408FFEFF0903C
:10278F00E0DAE0FFEF54FCFFEF4402FFEFF090E0E0
:10279F00DBE0FFEF543FFFEF4480FFEFF090E0DB13
:1027AF00E0FFEF54CFFFEF4420FFEFF090E0A4E005
:1027BF00FFEF54FCFFEF4401FFEFF090E0A4E0FFC8
:1027CF00EF54F3FFEF4404FFEFF090E0A4E0FFEFCE
:1027DF0054CFFFEF4410FFEFF090E0A4E0FFEF5471
:1027EF00BFFFEFF090E0C6E0FFEF54FEFFEFF09079
:1027FF00E0C6E0FFEF54FDFFEFF090E0C6E0FFEF23
:10280F0054FBFFEFF090E0C6E0FFEF54F7FFEFF05F
:10281F0090E0EBE0FFEF4401FFEFF090E0EBE0FF23
:10282F00EF4402FFEFF090E0EBE0FFEF4404FFEF27
:0C283F00F090E0EBE0FFEF4408FFEFF04A
:10284B0090E0C7E0FFEF54FEFFEFF090E0C7E0FF32
:10285B00EF54FDFFEFF090E0C7E0FFEF54FBFFEF0D
:10286B00F090E0C7E0FFEF54F7FFEFF090E0EBE004
:10287B00FFEF4410FFEFF0D2BBD2AAC28BC2C32230
:1033E4007586FFD2AED2BE90E0DBE0FFEF54FCFF67
:0E33F400EFF090E0DCE0FFEF54FEFFEFF02280
:1026110090E0D5E4F090E0D4E4F090E0D6E4F090DE
:10262100E0D874FFF090E0D7E4F090E0D9E4F090C6
:10263100E0DBE4F090E0DAE4F090E0DCE4F090E05C
:10264100DE74FFF090E0DDE4F090E0DFE4F090E094
:10265100E1E4F090E0E0E4F090E0E2E4F090E0E426
:1026610074FFF090E0E3E4F090E0E5E4F090E0D571
:10267100E0FFEF54FCFFEFF090E0D6E0FFEF440104
:10268100FFEFF090E0D8E0FFEF54FEFFEFF090E0B5
:10269100D7E0FFEF54FEFFEFF090E0E1E0FFEF54F1
:1026A100FCFFEF4401FFEFF090E0E2E0FFEF54FEAA
:1026B100FFEFF090E0E4E0FFEF4401FFEFF090E086
:1026C100E5E0FFEF54FEFFEFF090E0E3E0FFEF54B1
:1026D100FEFFEFF090E0DAE0FFEF54F3FFEF440884
:1026E100FFEFF090E0DCE0FFEF54DFFFEFF090E070
:0126F100DE0A
:1026F200E0FFEF4420FFEFF090E0DFE0FFEF54DF78
:10270200FFEFF090E0DDE0FFEF54DFFFEFF090E04D
:10271200D4E0FFEF54FCFFEFF090E0D6E0FFEF448F
:1027220010FFEFF090E0D8E0FFEF4410FFEFF090E1
:10273200E0D9E0FFEF54EFFFEFF090E0D7E0FFEFDA
:1027420054EFFFEFF090E0E0E0FFEF54CFFFEFF047
:1027520090E0E2E0FFEF4440FFEFF090E0E4E0FFC2
:10276200EF54BFFFEFF090E0E5E0FFEF54BFFFEF63
:0D277200F090E0E3E0FFEF54BFFFEFF02236
:1033A20090E0EF7401F090E0EEE4F0758910758A18
:1033B20000758CFE758B00758D00D2A9D2ABD28CB4
:0333C200D28E2286
:10307D0090E0C9E4F090E0CCE4F0A374C0F090E0EF
:10308D00C8E0FFEF54FDFFEFF090E0C8E0FFEF4424
:10309D0008FFEFF090E0C8E0FFEF4420FFEFF09065
:1030AD00E0C8E0FFEF4404FFEFF090E0C8E0FFEF71
:1030BD00547FFFEFF090E0C8E0FFEF54BFFFEFF05B
:0530CD00C28BD2AA2213
:1033210090E0CFE4F090E0D274E0F0A374C0F090AC
:10333100E0CEE0FFEF4420FFEFF090E0CEE0FFEFC2
:0D3341004404FFEFF053FEF0D2BDC2C522E0
:1032B50090E0F4E4F090E0F77410F0A374C0F0909F
:1032C500E0F3E0FFEF4420FFEFF090E0F3E0FFEFE5
:1032D5004404FFEFF090E0F3E0FFEF547FFFEFF0E1
:0732E500D2CED2BAC2C22210
:1032EC0090E0FAE4F090E0FD7410F0A374C0F0905C
:1032FC00E0F9E0FFEF4420FFEFF090E0F9E0FFEFA2
:10330C004404FFEFF090E0F9E0FFEF547FFFEFF0A3
:05331C00D2BCC2C42276
:1030D20090E0B2742EF0000000000000000000003A
:1030E20000000000000000000000000000000000DE
:1030F2000000000000000090E0E77402F090E0E6BB
:10310200E4F00000000000000000000000000000E9
:1031120000000000000000000000000000000000AD
:0331220000002288
:0D341C0075985075D88075AAF375BA032213
:0A346400759B90759DE675BB032271
:0320030002298728
:10298700C0E0C0D075D000C007E5F930E0047F0192
:1029970080027F00EFB4010353F9FEE5F930E1044B
:1029A7007F0180027F00EFB40105B2A653F9FCE571
:1029B700F930E2047F0180027F00EFB4010353F98D
:1029C700F8E5F930E3047F0180027F00EFB40103EB
:1029D70053F9F0E5F930E0047F0180027F00EF70E2
:1029E7002CE5F930E1047F0180027F00EF701EE5DE
:1029F700F930E2047F0180027F00EF7010E5F930C3
:102A0700E3047F0180027F00EF7002C289D007D004
:042A1700D0D0E03209
:03200B0002337B22
:10337B00C0E0C083C082C0D075D000C007C28DB280
:10338B00A690E05AE0FFEF4420FFEFF0D007D0D03B
:07339B00D082D083D0E032A4
:03201B000220069A
:03200600C28F3254
:0320BB0002288B6D
:10288B00C0E0C083C082C0D075D000C000C001C002
:10289B0002C003C004C005C006C00790E0C8E0FF3B
:1028AB00EFC41313135401FFEF30E00D051C90E040
:1028BB00C8E0FFEF547FFFEFF090E0C8E0FFEFC4FC
:1028CB0013135403FFEF30E06990E0C8E0FFEF54BF
:1028DB00BFFFEFF020951690E0CCE0FFE4FCFDFE8F
:1028EB008F0F8E0E8D0D8C0C751C008045AF1C7ED2
:1028FB0000EF7810C333CE33CED8F9FFAB07AA065F
:10290B00EA3395E0F9F890E0CCE0FEA3E0FFE4FCBD
:10291B00FDEB2FFFEA3EFEE93DFDE83CFCC3EF95E6
:10292B000FF51BEE950EF51AED950DF519EC950CB3
:10293B00F51890E0C8E0FFEFC41313135401FFEF39
:10294B0020E02090E0C8E0FFEFC413135403FFEF27
:10295B0020E010E5F930E5047F0180027F00EF7085
:10296B0002C28BD007D006D005D004D003D002D042
:0C297B0001D000D0D0D082D083D0E03258
:03208B00022E9A88
:102E9A00C0E0C083C082C0D075D000C00790E0CE29
:102EAA00E0FFEF547FFFEFF053FEF0B2A6E5FE30ED
:102EBA00E0047F0180027F00EF703AE5FE30E10412
:102ECA007F0180027F00EF702CE5FE30E2047F0173
:102EDA0080027F00EF701EE5FE30E3047F0180026E
:102EEA007F00EF7010E59330E7047F0180027F00D6
:102EFA00EF7002C2C5D007D0D0D082D083D0E032E2
:0320AB00022D41C2
:102D4100C0E0C083C082C0D075D000C006C007906B
:102D5100E0F3E0FFEF547FFFEFF090E0F3E0FFEFEF
:102D610054BFFFEFF0B2A690E0F3E0FFEFC41313FE
:102D71005403FFEF30E0047F0180027F0090E0F315
:102D8100E0FEEEC41313135401FEEE30E0047E01A5
:102D910080027E00EE4FFFEF7010E5FA30E3047F12
:102DA1000180027F00EF7002C2C2D007D006D0D0EE
:072DB100D082D083D0E03294
:0320C300022A1BD3
:102A1B00C0E0C083C082C0D075D000C006C0079094
:102A2B00E0F9E0FFEF547FFFEFF090E0F9E0FFEF0C
:102A3B0054BFFFEFF0E5FD30E3047F0180027F0020
:102A4B00EF7051E5FD30E4047F0180027F00EF70F1
:102A5B0043E5FD30E5047F0180027F00EF70359088
:102A6B00E0F9E0FFEFC413135403FFEF30E0047FF2
:102A7B000180027F0090E0F9E0FEEEC413131354C3
:102A8B0001FEEE30E0047E0180027E00EE4FFFEF90
:102A9B007002C2C4B2A6D007D006D0D0D082D083E9
:032AAB00D0E03246
:03204B00022DB8AB
:102DB800C0E0C0D075D000C007E5FA30E0047F015C
:102DC80080027F00EFB4010353FAFEE5FA30E10414
:102DD8007F0180027F00EFB4010353FAFCE5FA306B
:102DE800E2047F0180027F00EFB4010353FAF8E5A3
:102DF800FA30E0047F0180027F00EF701EE5FA30B0
:102E0800E1047F0180027F00EF7010E5FA30E204F0
:102E18007F0180027F00EF7002C2C1D007D0D0D0FE
:022E2800E03296
:0320A300022F0AFF
:102F0A00C0E0C083C082C0D075D000C006C00753DD
:102F1A00FAF090E0F3E0FFEFC413135403FFEF302D
:102F2A00E0047F0180027F0090E0F3E0FEEEC4132C
:102F3A0013135401FEEE30E0047E0180027E00EE9F
:102F4A004FFFEF7010E5FA30E3047F0180027F0043
:102F5A00EF7002C2C2D007D006D0D0D082D083D0C0
:022F6A00E03253
:0320B300023202F4
:10320200C0E0C083C082C0D075D000C00790E0C7C4
:10321200E0FFEF54FEFFEFF0E5F930E4047F0180B8
:10322200027F00EF7010E5F930E5047F0180027F34
:1032320000EF7002C28BD007D0D0D082D083D0E012
:013242003259
:03205B00022AAEA8
:102AAE00C0E0C083C082C0D075D000C00790E0C720
:102ABE00E0FFEFC313FFEF30E00B90E0C7E0FFEF56
:102ACE0054FDFFEFF090E0C7E0FFEF1313543FFF0C
:102ADE00EF30E00B90E0C7E0FFEF54FBFFEFF0901C
:102AEE00E0C7E0FFEF131313541FFFEF30E00B901E
:102AFE00E0C7E0FFEF54F7FFEFF090E0C7E0FFEF25
:102B0E00C313FFEF20E02190E0C7E0FFEF13135453
:102B1E003FFFEF20E01290E0C7E0FFEF13131354D6
:102B2E001FFFEF20E002C2C3D007D0D0D082D083E7
:032B3E00D0E032B2
:0320CB00022BD015
:102BD000C0E0C083C082C0D075D000C006C007E589
:102BE000FD30E3047F0180027F00EF7051E5FD308E
:102BF000E4047F0180027F00EF7043E5FD30E504CF
:102C00007F0180027F00EF703590E0F9E0FFEFC4B4
:102C100013135403FFEF30E0047F0180027F009024
:102C2000E0F9E0FEEEC41313135401FEEE30E004AD
:102C30007E0180027E00EE4FFFEF7002C2C4D0071B
:0B2C4000D006D0D0D082D083D0E0328C
:0320D300022C4B91
:102C4B00C0E0C083C082C0D075D000C006C007E50D
:102C5B00FD30E3047F0180027F00EF7051E5FD3012
:102C6B00E4047F0180027F00EF7043E5FD30E50453
:102C7B007F0180027F00EF703590E0F9E0FFEFC439
:102C8B0013135403FFEF30E0047F0180027F0090A9
:102C9B00E0F9E0FEEEC41313135401FEEE30E00432
:102CAB007E0180027E00EE4FFFEF7002C2C4D007A0
:0B2CBB00D006D0D0D082D083D0E03211
:0320DB00022CC60E
:102CC600C0E0C083C082C0D075D000C006C007E592
:102CD600FD30E3047F0180027F00EF7051E5FD3097
:102CE600E4047F0180027F00EF7043E5FD30E504D8
:102CF6007F0180027F00EF703590E0F9E0FFEFC4BE
:102D060013135403FFEF30E0047F0180027F00902D
:102D1600E0F9E0FEEEC41313135401FEEE30E004B6
:102D26007E0180027E00EE4FFFEF7002C2C4D00724
:0B2D3600D006D0D0D082D083D0E03295
:0320E300022F6C5D
:102F6C00C0E0C0D075D000C00753FEFEE5FE30E0D7
:102F7C00047F0180027F00EF703AE5FE30E1047FB0
:102F8C000180027F00EF702CE5FE30E2047F0180AF
:102F9C00027F00EF701EE5FE30E3047F0180027FAC
:102FAC0000EF7010E59330E7047F0180027F00EFA3
:0B2FBC007002C2C5D007D0D0D0E032B8
:0320EB00022FC7FA
:102FC700C0E0C0D075D000C00753FEFCE5FE30E07E
:102FD700047F0180027F00EF703AE5FE30E1047F55
:102FE7000180027F00EF702CE5FE30E2047F018054
:102FF700027F00EF701EE5FE30E3047F0180027F51
:1030070000EF7010E59330E7047F0180027F00EF47
:0B3017007002C2C5D007D0D0D0E0325C
:0320F30002302296
:10302200C0E0C0D075D000C00753FEF8E5FE30E026
:10303200047F0180027F00EF703AE5FE30E1047FF9
:103042000180027F00EF702CE5FE30E2047F0180F8
:10305200027F00EF701EE5FE30E3047F0180027FF5
:1030620000EF7010E59330E7047F0180027F00EFEC
:0B3072007002C2C5D007D0D0D0E03201
:0B344F00309802C298309902C2992206
:0320830002206ECA
:10206E00C0E0E59B30E003539BFEE59B30E103535C
:05207E009BFDD0E032E3
:0320430002327DE9
:10327D00C0E0C083C082C0D075D000C00790E05BB5
:10328D00E0FFEF30E00D90E05BE0FFEF54FEFFEF6D
:10329D00F0C2C090E072E0F516A3E0F517D007D0AC
:0832AD00D0D082D083D0E032C2
:0C3436000A210102030405060708090A28
:103125008F3390E08EE0FFEFC413135403FFEF20BD
:10313500E0F090E08F7453F090E091E533F090E08B
:1031450092E4F0AF37AE36AD35AC3490E09312343F
:103155004390E08E740BF090E08EE0FFEFC41354C3
:0C31650007FFEF30E0F190E08EE4F02274
:103171008F1D90E08EE0FFEFC413135403FFEF2087
:10318100E0F090E08F7455F090E091E51DF090E053
:1031910092E4F090E08E7407F090E08EE0FFEFC4CF
:1031A100540FFFEF30E0F290E08EE4F090E093E016
:0B31B100FCA3E0FDA3E0FEA3E0FF2272
:102026008E388F39E53925E0FFE53833FE8F828E0D
:0D20360083E0F53AA3E0F53BAE3AAF3B2264
:10334E008F2E8E2D8D2C8C2BAF2EAE2DAD2CAC2B1F
:10335E008F328E318D308C2F8532E98531EA853072
:0D336E00EB852FEC75EF00E58730E6FB22C4
:0D34290085E93F85EA3E85EB3D85EC3C22C0
:0F208E007F017E007D007C0012334E1234292228
:032023000221AEE9
:032013000221386F
:0320530002212146
:032063000220F662
:03206B0002214F00
:1020F600C0D0C0E0E5FD20E30D20E41120E515D0B9
:10210600E0D0D00220C3D0E0D0D00220CBD0E0D0A7
:10211600D00220D3D0E0D0D00220DBC0D0C0E0E592
:10212600FA20E307D0E0D0D00220ABD0E0D0D00236
:1021360020A3C0D0C0E0E5F920E407D0E0D0D0026B
:1021460020B3D0E0D0D00220BBC0D0C0E0E59320C1
:10215600E727E5FE20E00D20E11120E215D0E0D0D2
:10216600D002208BD0E0D0D00220E3D0E0D0D00245
:1021760020EBD0E0D0D00220F375D000C000C00123
:10218600740033747C3353937FC2C5D2998046C89A
:10219600C443968010E40353967FC8759380F594E4
:0821A60031FAF595889321EF51
:1021AE00C0D0C0E0309814E599C298F51EB4A55E73
:1021BE00D29975D000C000C001801074FF75D00098
:1021CE00C000C00178FF8600B8FF2974F73099FD72
:1021DE00C299F599D0017805D0E05124D8FAE95189
:1021EE002431FAC0E031FAC0E031FAF83098FDE55A
:1021FE0099C29822E58124FCF9800C0819E667083B
:10220E00097004E66760C4B8FEF1D001D000D0E0DA
:10221E00D0D0439310323099FDC299F59922C0E087
:10222E0031FAC0E031FAC0E031FAF931FAC0E0C05B
:10223E000078FFE67002C299411A8882F58321EF79
:10224E008881F5F021EFF58021EFF5B021EFE581E2
:10225E00C083C082C08EC0F0C0E0C0E021DBE58943
:10226E00C088C087C086C085C084C08021DBE59051
:10227E00C08FC08EC08DC08CC08BC08A21DBE5970D
:10228E00C096C095C094C093C092C09121DBE59ECC
:10229E00C09DC09CC09BC09AC099C09821DBE5A58B
:1022AE00C0A4C0A3C0A2C0A1C0A0C09F21DBE5AC4A
:1022BE00C0ABC0AAC0A9C0A8C0A7C0A621DBE5B309
:0422CE00C0B2C0B129
:1022D200C0B0C0AFC0AEC0AD21DBE5BAC0B9C0B8B6
:1022E200C0B7C0B6C0B5C0B421DBE5C1C0C0C0BF75
:1022F200C0BEC0BDC0BCC0BB21DBE5C8C0C7C0C634
:10230200C0C5C0C4C0C3C0C221DBE5CFC0CEC0CDF2
:10231200C0CCC0CBC0CAC0C921DBE5D7C0D6C0D5AE
:10232200C0D4C0D3C0D2C0D121DBE5DEC0DDC0DC69
:10233200C0DBC0DAC0D9C0D821DBE5E6C0E5C0E425
:10234200C0E3C0E2C0E1C0DF21DBE5EDC0ECC0EBE1
:10235200C0EAC0E9C0E8C0E721DBE5F5C0F4C0F39C
:10236200C0F2C0F1C0EFC0EE21DBE5FCC0FBC0FA59
:10237200C0F9C0F8C0F7C0F621DBE5FFC0FEC0FD22
:10238200C0E0C0E0C0E0C0E021DBBFA7005025EF05
:10239200640AA2ACC2AC7009740DC299F599309965
:1023A200FDEFC299F5993099FD500778FFE670026A
:1023B200C29992AC2230AC0CE51E64A560F774A5FC
:1023C200C51EFF223098FDE599B4A5051223F180C0
:1023D200E4FFC2982230AC07E51EB4A510C322C3A5
:0F23E20030980BE599B4A5051223F180E8D322BA
:0B23F10078FF76FF751EA5D2AC22001D
:102B5000023243E493A3F8E493A34003F68001F226
:102B600008DFF48029E493A3F85407240CC8C33386
:102B7000C4540F4420C8834004F456800146F6DF55
:102B8000E4800B0102040810204080903436E47E7B
:102B9000019360BCA3FF543F30E509541FFEE4934A
:102BA000A360010ECF54C025E060A840B8E493A311
:102BB000FAE493A3F8E493A3C8C582C8CAC583CA3C
:102BC000F0A3C8C582C8CAC583CADFE9DEE780BEF4
:013442000089
:0C344300ECF0A3EDF0A3EEF0A3EFF022FC
:1023FC00C582F931FAC5832271FCC0E0E0A35124F7
:10240C00D8FA8982D08321EF71FCC0E0E493A35108
:10241C0024D8F980EDF9E7095124D8FA21EF71FCA1
:0A242C00C0E0E8F080DCF621EF00CC
:00000001FF
