:0320000002206E4D
:0F206E00787FE4F6D8FD75A000758161023F957B
:103F9500123E8912306BD2AF7555667554E675536E
:103FA50000755200AF55AE54AD53AC52122BAA8FCB
:103FB500598E588D578C5620ACDE3098DBE59964C8
:0D3FC500A56004C29880D1122B6580CC222B
:1040B50090E08D7402F090E0BFE0FFEF54F3FFEF66
:0F40C5004404FFEFF0D2A8D288C28953F9F02249
:103E8900C2AF1241171240FF75A93075B920C2A9F6
:103E9900C2BDD2ACD2AF000000C290D29020AC100B
:103EA90030980DE59964A56004C2988003122B65CA
:103EB900E59330E4E4800280E0000000D2A9D2BD9D
:063EC900000000D2AF2250
:0A4117007593017594FF7595FF2262
:0D208E0075B10575C90575D90575F10522F7
:0D40F20075B10F75C90F75D90F75F10F224B
:10364F0090E08BE4F090E0ECE0FFEF4408FFEFF048
:10365F0090E0ECE0FFEF4403FFEFF090E05C740FBD
:10366F00F090E07AE0FFEF4404FFEFF090E07AE0B3
:10367F00FFEF4401FFEFF090E0A4E0FFEF54FCFFF9
:10368F00EF4402FFEFF090E0A4E0FFEF54F3FFEF01
:10369F004408FFEFF090E0A4E0FFEF54CFFFEF44BA
:1036AF0020FFEFF090E09DE0FFEF54FDFFEFF09073
:1036BF00E05DE0FFEF54F7FFEFF090E05AE0FFEF2F
:1036CF004420FFEFF090E05AE0FFEF4401FFEFF0EE
:0D36DF0090E064E4F0A3E4F0D2B8C2C02291
:1020F60090E0E1E0FFEF54CFFFEF4410FFEFF090E8
:10210600E0E1E0FFEF543FFFEF4440FFEFF090E0E7
:10211600E0E0FFEF54FCFFEF4401FFEFF090E0E05A
:10212600E0FFEF54F3FFEF4404FFEFF090E0E0E050
:10213600FFEF54CFFFEF4410FFEFF090E0E0E0FF39
:10214600EF543FFFEF4440FFEFF075A20175A190F9
:1021560075C20175C19075D20175D19075E2017590
:10216600E19090E000E0FFEF4402FFEFF090E00026
:10217600E0FFEF4404FFEFF090E000E0FFEF4408DB
:10218600FFEFF090E000E0FFEF4410FFEFF090E08B
:1021960000E0FFEF54FEFFEFF090E003E0FFEF54A6
:1021A600FCFFEF4402FFEFF090E019E0FFEF54FC74
:1021B600FFEF4402FFEFF090E02FE0FFEF54FCFF4B
:0A21C600EF4402FFEFF090E045E067
:1021D000FFEF54FCFFEF4402FFEFF090E003E0FF5D
:1021E000EF54F7FFEFF090E002E0FFEF543FFFEF16
:1021F0004480FFEFF090E018E0FFEF543FFFEF4422
:1022000080FFEFF090E02EE0FFEF543FFFEF4480BF
:10221000FFEFF090E044E0FFEF543FFFEF4480FF1A
:10222000EFF090E007E0FFEF54EFFFEFF090E007F2
:10223000E0FFEF54DFFFEFF090E007E0FFEF54FC2A
:10224000FFEFF090E007E0FFEF54F3FFEFF090E0D6
:102250001DE0FFEF54EFFFEFF090E01DE0FFEF54C3
:10226000DFFFEFF090E01DE0FFEF54FCFFEFF09098
:10227000E01DE0FFEF54F3FFEFF090E033E0FFEFFD
:1022800054EFFFEFF090E033E0FFEF54DFFFEFF0AB
:0E22900090E033E0FFEF54FCFFEFF090E033FE
:10229E00E0FFEF54F3FFEFF090E049E0FFEF54EF73
:1022AE00FFEFF090E049E0FFEF54DFFFEFF090E03A
:1022BE0049E0FFEF54FCFFEFF090E049E0FFEF54F0
:1022CE00F3FFEFF090E009E0FFEF543FFFEF4440E3
:1022DE00FFEFF090E009E0FFEF54CFFFEF4420FF57
:1022EE00EFF090E008E0FFEF54F3FFEFF090E0081E
:1022FE00E0FFEF54FCFFEFF090E009E0FFEF54F346
:10230E00FFEFF090E009E0FFEF54FCFFEFF090E0FC
:10231E001FE0FFEF543FFFEF4440FFEFF090E01F50
:10232E00E0FFEF54CFFFEF4420FFEFF090E01EE010
:10233E00FFEF54F3FFEFF090E01EE0FFEF54FCFFD1
:10234E00EFF090E01FE0FFEF54F3FFEFF090E01F8F
:0D235E00E0FFEF54FCFFEFF090E035E0FFF2
:10236B00EF543FFFEF4440FFEFF090E035E0FFEF1D
:10237B0054CFFFEF4420FFEFF090E034E0FFEF5439
:10238B00F3FFEFF090E034E0FFEF54FCFFEFF09041
:10239B00E035E0FFEF54F3FFEFF090E035E0FFEFB7
:1023AB0054FCFFEFF090E04BE0FFEF543FFFEF44A6
:1023BB0040FFEFF090E04BE0FFEF54CFFFEF4420F6
:1023CB00FFEFF090E04AE0FFEF54F3FFEFF090E007
:1023DB004AE0FFEF54FCFFEFF090E04BE0FFEF54CF
:1023EB00F3FFEFF090E04BE0FFEF54FCFFEFF090CA
:1023FB00E00CE0FFEF4403FFEFF090E00CE0FFEFA9
:10240B0054F3FFEF4408FFEFF090E00CE0FFEF54C4
:10241B00CFFFEFF090E022E0FFEF4403FFEFF090EF
:0D242B00E022E0FFEF54F3FFEF4408FFEF65
:10243800F090E022E0FFEF54CFFFEFF090E038E0BB
:10244800FFEF4403FFEFF090E038E0FFEF54F3FFB5
:10245800EF4408FFEFF090E038E0FFEF54CFFFEFD4
:10246800F090E04EE0FFEF4403FFEFF090E04EE025
:10247800FFEF54F3FFEF4408FFEFF090E04EE0FF6A
:10248800EF54CFFFEFF090E00DE4F0A37432F0903A
:10249800E023E4F0A37432F090E039E4F0A374325E
:1024A800F090E04FE4F0A37432F090E00FE4F0A372
:1024B8007432F090E025E4F0A37432F090E03BE44D
:1024C800F0A37432F090E051E4F0A37432F090E09D
:1024D80011E0FFEF4401FFEFF090E011E0FFEF544F
:1024E800FDFFEFF090E027E0FFEF4401FFEFF090F1
:1024F800E027E0FFEF54FDFFEFF090E03DE0FFEF55
:042508004401FFEF9C
:10250C00F090E03DE0FFEF54FDFFEFF090E053E082
:10251C00FFEF4401FFEFF090E053E0FFEF54FDFFBD
:10252C00EFF090E012E0FFEF54FCFFEFF090E012C0
:10253C00E0FFEF54F3FFEFF090E028E0FFEF54FCE6
:10254C00FFEFF090E028E0FFEF54F3FFEFF090E0A6
:10255C003EE0FFEF54FCFFEFF090E03EE0FFEF5465
:10256C00F3FFEFF090E054E0FFEF54FCFFEFF0903E
:10257C00E054E0FFEF54F3FFEFF090E015E0FFEFD5
:10258C004408FFEFF090E015E0FFEF54F8FFEF4444
:10259C0001FFEFF090E014E0FFEF4408FFEFF09044
:1025AC00E014E0FFEF54F8FFEF4401FFEFF090E090
:1025BC0014E0FFEF547FFFEFF090E014E0FFEF54D6
:0E25CC008FFFEF4410FFEFF090E02BE0FFEFE9
:1025DA004408FFEFF090E02BE0FFEF54F8FFEF44E0
:1025EA0001FFEFF090E02AE0FFEF4408FFEFF090E0
:1025FA00E02AE0FFEF54F8FFEF4401FFEFF090E02C
:10260A002AE0FFEF547FFFEFF090E02AE0FFEF545B
:10261A008FFFEF4410FFEFF090E041E0FFEF440836
:10262A00FFEFF090E041E0FFEF54F8FFEF4401FFC5
:10263A00EFF090E040E0FFEF4408FFEFF090E04059
:10264A00E0FFEF54F8FFEF4401FFEFF090E040E0C5
:10265A00FFEF547FFFEFF090E040E0FFEF548FFF71
:10266A00EF4410FFEFF090E057E0FFEF4408FFEF70
:10267A00F090E057E0FFEF54F8FFEF4401FFEFF06E
:10268A0090E056E0FFEF4408FFEFF090E056E0FFDD
:0E269A00EF54F8FFEF4401FFEFF090E056E040
:1026A800FFEF547FFFEFF090E056E0FFEF548FFF0D
:1026B800EF4410FFEFF090E017E0FFEF54FCFFEF5E
:1026C8004401FFEFF090E017E0FFEF54F3FFEF4411
:1026D80004FFEFF090E016E0FFEF54FCFFEF440139
:1026E800FFEFF090E016E0FFEF54F3FFEF4404FF34
:1026F800EFF090E016E0FFEF54CFFFEFF090E01618
:10270800E0FFEF543FFFEFF090E02DE0FFEF54FCC7
:10271800FFEF4401FFEFF090E02DE0FFEF54F3FFEF
:10272800EF4404FFEFF090E02CE0FFEF54FCFFEFE4
:102738004401FFEFF090E02CE0FFEF54F3FFEF448B
:1027480004FFEFF090E02CE0FFEF54CFFFEFF090A4
:10275800E02CE0FFEF543FFFEFF090E043E0FFEFA5
:0D27680054FCFFEF4401FFEFF090E043E070
:10277500FFEF54F3FFEF4404FFEFF090E042E0FF7A
:10278500EF54FCFFEF4401FFEFF090E042E0FFEF74
:1027950054F3FFEF4404FFEFF090E042E0FFEF5405
:1027A500CFFFEFF090E042E0FFEF543FFFEFF090F6
:1027B500E059E0FFEF54FCFFEF4401FFEFF090E03C
:1027C50059E0FFEF54F3FFEF4404FFEFF090E058BA
:1027D500E0FFEF54FCFFEF4401FFEFF090E058E01D
:1027E500FFEF54F3FFEF4404FFEFF090E058E0FFF4
:1027F500EF54CFFFEFF090E058E0FFEF543FFFEFCD
:10280500F075A20775A1D075C20775C1D075D2073D
:1028150075D1D075E20775E1D075A40175A3E8758A
:10282500C40175C3E875D40175D3E875E40175E392
:10283500E875A60175A59075C60175C59075D60193
:1028450075D59075E60175E59090E000E0FFEF44E1
:1028550001FFEFF043B60143CE0143DE0143F6012C
:05286500D2CDD2B92222
:1034430090E0E1E0FFEF54F3FFEF4408FFEFF0906B
:10345300E0DAE0FFEF54FCFFEF4402FFEFF090E00F
:10346300DBE0FFEF543FFFEF4480FFEFF090E0DB42
:10347300E0FFEF54CFFFEF4420FFEFF090E0A4E034
:10348300FFEF54FCFFEF4401FFEFF090E0A4E0FFF7
:10349300EF54F3FFEF4404FFEFF090E0A4E0FFEFFD
:1034A30054CFFFEF4410FFEFF090E0A4E0FFEF54A0
:1034B300BFFFEFF090E0C6E0FFEF54FEFFEFF090A8
:1034C300E0C6E0FFEF54FDFFEFF090E0C6E0FFEF52
:1034D30054FBFFEFF090E0C6E0FFEF54F7FFEFF08F
:1034E30090E0EBE0FFEF4401FFEFF090E0EBE0FF53
:1034F300EF4402FFEFF090E0EBE0FFEF4404FFEF57
:0C350300F090E0EBE0FFEF4408FFEFF079
:10350F0090E0C7E0FFEF54FEFFEFF090E0C7E0FF61
:10351F00EF54FDFFEFF090E0C7E0FFEF54FBFFEF3C
:10352F00F090E0C7E0FFEF54F7FFEFF090E0EBE033
:10353F00FFEF4410FFEFF0D2BBD2AAC28BC2C3225F
:1040D4007586FFD2AED2BE90E0DBE0FFEF54FCFF6A
:0E40E400EFF090E0DCE0FFEF54FEFFEFF02283
:10306B0090E0D5E4F090E0D4E4F090E0D6E4F0907A
:10307B00E0D874FFF090E0D7E4F090E0D9E4F09062
:10308B00E0DBE4F090E0DAE4F090E0DCE4F090E0F8
:10309B00DE74FFF090E0DDE4F090E0DFE4F090E030
:1030AB00E1E4F090E0E0E4F090E0E2E4F090E0E4C2
:1030BB0074FFF090E0E3E4F090E0E5E4F090E0D50D
:1030CB00E0FFEF54FCFFEFF090E0D6E0FFEF4401A0
:1030DB00FFEFF090E0D8E0FFEF54FEFFEFF090E051
:1030EB00D7E0FFEF54FEFFEFF090E0E1E0FFEF548D
:1030FB00FCFFEF4401FFEFF090E0E2E0FFEF54FE46
:10310B00FFEFF090E0E4E0FFEF4401FFEFF090E021
:10311B00E5E0FFEF54FEFFEFF090E0E3E0FFEF544C
:10312B00FEFFEFF090E0DAE0FFEF54F3FFEF44081F
:10313B00FFEFF090E0DCE0FFEF54DFFFEFF090E00B
:01314B00DEA5
:10314C00E0FFEF4420FFEFF090E0DFE0FFEF54DF13
:10315C00FFEFF090E0DDE0FFEF54DFFFEFF090E0E9
:10316C00D4E0FFEF54FCFFEFF090E0D6E0FFEF442B
:10317C0010FFEFF090E0D8E0FFEF4410FFEFF0907D
:10318C00E0D9E0FFEF54EFFFEFF090E0D7E0FFEF76
:10319C0054EFFFEFF090E0E0E0FFEF54CFFFEFF0E3
:1031AC0090E0E2E0FFEF4440FFEFF090E0E4E0FF5E
:1031BC00EF54BFFFEFF090E0E5E0FFEF54BFFFEFFF
:0D31CC00F090E0E3E0FFEF54BFFFEFF022D2
:1040920090E0EF7405F090E0EEE4F0758910758A17
:1040A20000758CFE758B00758D00D2A9D2ABD28CB7
:0340B200D28E2289
:103A8E0090E0C9E4F090E0CCE4F0A3E4F090E0CA5A
:103A9E00E4F0A3E4F090E0C8E0FFEF54FDFFEFF098
:103AAE0090E0C8E0FFEF4401FFEFF090E0C8E0FFC8
:103ABE00EF4408FFEFF090E08AE0FFEF54FEFFEFD7
:103ACE00F090E0C8E0FFEF4420FFEFF090E0C8E098
:103ADE00FFEF4404FFEFF090E0C8E0FFEF547FFFEC
:103AEE00EFF090E0C8E0FFEF54BFFFEFF0C28BD2D3
:023AFE00AA22FA
:10403E0090E0CFE4F090E0D274E0F0A374C0F09082
:10404E00E0CEE0FFEF4420FFEFF090E0CEE0FFEF98
:0D405E004404FFEFF053FEF0D2BDC2C522B6
:103FD20090E0F4E4F090E0F77410F0A374C0F09075
:103FE200E0F3E0FFEF4420FFEFF090E0F3E0FFEFBB
:103FF2004404FFEFF090E0F3E0FFEF547FFFEFF0B7
:07400200D2CED2BAC2C222E5
:1040090090E0FAE4F090E0FD7410F0A374C0F09031
:10401900E0F9E0FFEF4420FFEFF090E0F9E0FFEF77
:104029004404FFEFF090E0F9E0FFEF547FFFEFF079
:05403900D2BCC2C4224C
:103D550090E0B2742EF000000000000000000000AA
:103D6500000000000000000000000000000000004E
:103D75000000000000000090E0E77402F090E0E62B
:103D8500E4F000000000000000000000000000005A
:103D9500000000000000000000000000000000001E
:033DA500000022F9
:0D40FF0075985075D88075AAF375BA032224
:0A412100759B90759DE675BB0322A7
:103ECF0090E07AE0FFEF54FBFFEFF090E07AE0FF35
:103EDF00EF54FEFFEFF090E07AE0FFEF54F7FFEFC3
:103EEF00F090E07AE0FFEF54FDFFEFF090E089E013
:103EFF00FFEF54FEFFEFF090E089E0FFEF54FDFF7E
:033F0F00EFF022AE
:032003000236ECB6
:1036EC00C0E0C0D075D000C007E5F930E0047F0120
:1036FC0080027F00EFB4010353F9FEE5F930E104D9
:10370C007F0180027F00EFB40105B2A653F9FCE5FE
:10371C00F930E2047F0180027F00EFB4010353F91A
:10372C00F8E5F930E3047F0180027F00EFB4010378
:10373C0053F9F0E5F930E0047F0180027F00EF706F
:10374C002CE5F930E1047F0180027F00EF701EE56B
:10375C00F930E2047F0180027F00EF7010E5F93050
:10376C00E3047F0180027F00EF7002C289D007D092
:04377C00D0D0E03297
:03200B0002406B25
:10406B00C0E0C083C082C0D075D000C007C28DB283
:10407B008490E05AE0FFEF4420FFEFF0D007D0D060
:07408B00D082D083D0E032A7
:03201B000220069A
:03200600C28F3254
:0320BB00022EE012
:102EE000C0E0C0F0C083C082C0D075D000C000C0B8
:102EF00001C002C003C004C005C006C00790E0C8FE
:102F0000E0FFEFC41313135401FFEF30E01190A062
:102F100012E004F090E0C8E0FFEF547FFFEFF09084
:102F2000E0C8E0FFEFC413135403FFEF20E00302F7
:102F3000301F90E0CCE0FEA3E0FFE4FCFD90A00891
:102F4000122ED490E08AE0FFEF30E02790E08AE094
:102F5000FFEF54FEFFEFF090A008E0FCA3E0FDA31C
:102F6000E0FEA3E0FF90A004122ED490A012E4F0A3
:102F700002301490A012E0FFEF703190A004E0F84E
:102F8000A3E0F9A3E0FAA3E0FB90A008E0FCA3E033
:102F9000FDA3E0FEA3E0FFC3EF9BFFEE9AFEED99D9
:102FA000FDEC98FC90A00E122ED4805D90A012E053
:102FB000FFE4FCFDFE7810122EC190A00E122ED45C
:102FC00090A008E0FCA3E0FDA3E0FEA3E0FF90A03A
:102FD0000EE0F8A3E0F9A3E0FAA3E0FBEB2FFFEA91
:102FE0003EFEE93DFDE83CFC90A004E0F8A3E0F9DA
:102FF000A3E0FAA3E0FBC3EF9BFFEE9AFEED99FD81
:10300000EC98FC90A00E122ED490E08AE0FFEF44E2
:1030100001FFEFF090E0C8E0FFEF54BFFFEFF0904A
:10302000E0C8E0FFEFC41313135401FFEF20E020CA
:1030300090E0C8E0FFEFC413135403FFEF20E0104B
:10304000E5F930E5047F0180027F00EF7002C28B5A
:10305000D007D006D005D004D003D002D001D000D4
:0B306000D0D0D082D083D0F0D0E0327E
:03208B00023B72A3
:103B7200C0E0C083C082C0D075D000C00790E0CE44
:103B8200E0FFEF547FFFEFF053FEF0B2A6E5FE3008
:103B9200E0047F0180027F00EF703AE5FE30E1042D
:103BA2007F0180027F00EF702CE5FE30E2047F018E
:103BB20080027F00EF701EE5FE30E3047F01800289
:103BC2007F00EF7010E59330E7047F0180027F00F1
:103BD200EF7002C2C5D007D0D0D082D083D0E032FD
:0320AB00023A17DF
:103A1700C0E0C083C082C0D075D000C006C0079088
:103A2700E0F3E0FFEF547FFFEFF090E0F3E0FFEF0C
:103A370054BFFFEFF0B2A690E0F3E0FFEFC413131B
:103A47005403FFEF30E0047F0180027F0090E0F332
:103A5700E0FEEEC41313135401FEEE30E0047E01C2
:103A670080027E00EE4FFFEF7010E5FA30E3047F2F
:103A77000180027F00EF7002C2C2D007D006D0D00B
:073A8700D082D083D0E032B1
:0320C30002378061
:10378000C0E0C083C082C0D075D000C006C0079022
:10379000E0F9E0FFEF547FFFEFF090E0F9E0FFEF9A
:1037A00054BFFFEFF0E5FD30E3047F0180027F00AE
:1037B000EF7051E5FD30E4047F0180027F00EF707F
:1037C00043E5FD30E5047F0180027F00EF70359016
:1037D000E0F9E0FFEFC413135403FFEF30E0047F80
:1037E0000180027F0090E0F9E0FEEEC41313135451
:1037F00001FEEE30E0047E0180027E00EE4FFFEF1E
:103800007002C2C4B2A6D007D006D0D0D082D08376
:03381000D0E032D3
:03204B00023B0055
:103B0000C0E0C0D075D000C007E5B530E0047F014B
:103B100080027F00EFB4010343B601E5CD30E0043D
:103B20007F0180027F00EFB4010343CE01E5DD3069
:103B3000E0047F0180027F00EFB4010343DE01E572
:103B4000B530E0047F0180027F00EF701EE5CD30CC
:103B5000E0047F0180027F00EF7010E5DD30E004BB
:103B60007F0180027F00EF7002C2C1D007D0D0D0A9
:023B7000E03241
:0320A300023BE21B
:103BE200C0E0C083C082C0D075D000C006C0074309
:103BF200F60190E0F3E0FFEFC413135403FFEF303C
:103C0200E0047F0180027F0090E0F3E0FEEEC41347
:103C120013135401FEEE30E0047E0180027E00EEBA
:103C22004FFFEF7010E5F530E0047F0180027F0066
:103C3200EF7002C2C2D007D006D0D0D082D083D0DB
:023C4200E0326E
:0320B300023F5495
:103F5400C0E0C083C082C0D075D000C00790E0C765
:103F6400E0FFEF54FEFFEFF0E5F930E4047F018059
:103F7400027F00EF7010E5F930E5047F0180027FD5
:103F840000EF7002C28BD007D0D0D082D083D0E0B3
:013F940032FA
:03205B0002381335
:10381300C0E0C083C082C0D075D000C00790E0C7AD
:10382300E0FFEFC313FFEF30E00B90E0C7E0FFEFE3
:1038330054FDFFEFF090E0C7E0FFEF1313543FFF99
:10384300EF30E00B90E0C7E0FFEF54FBFFEFF090A9
:10385300E0C7E0FFEF131313541FFFEF30E00B90AB
:10386300E0C7E0FFEF54F7FFEFF090E0C7E0FFEFB2
:10387300C313FFEF20E02190E0C7E0FFEF131354E1
:103883003FFFEF20E01290E0C7E0FFEF1313135464
:103893001FFFEF20E002C2C3D007D0D0D082D08375
:0338A300D0E03240
:0320CB000238A632
:1038A600C0E0C083C082C0D075D000C006C007E5A6
:1038B600FD30E3047F0180027F00EF7051E5FD30AB
:1038C600E4047F0180027F00EF7043E5FD30E504EC
:1038D6007F0180027F00EF703590E0F9E0FFEFC4D2
:1038E60013135403FFEF30E0047F0180027F009042
:1038F600E0F9E0FEEEC41313135401FEEE30E004CB
:103906007E0180027E00EE4FFFEF7002C2C4D00738
:0B391600D006D0D0D082D083D0E032A9
:0320D300023921AE
:10392100C0E0C083C082C0D075D000C006C007E52A
:10393100FD30E3047F0180027F00EF7051E5FD302F
:10394100E4047F0180027F00EF7043E5FD30E50470
:103951007F0180027F00EF703590E0F9E0FFEFC456
:1039610013135403FFEF30E0047F0180027F0090C6
:10397100E0F9E0FEEEC41313135401FEEE30E0044F
:103981007E0180027E00EE4FFFEF7002C2C4D007BD
:0B399100D006D0D0D082D083D0E0322E
:0320DB0002399C2B
:10399C00C0E0C083C082C0D075D000C006C007E5AF
:1039AC00FD30E3047F0180027F00EF7051E5FD30B4
:1039BC00E4047F0180027F00EF7043E5FD30E504F5
:1039CC007F0180027F00EF703590E0F9E0FFEFC4DB
:1039DC0013135403FFEF30E0047F0180027F00904B
:1039EC00E0F9E0FEEEC41313135401FEEE30E004D4
:1039FC007E0180027E00EE4FFFEF7002C2C4D00742
:0B3A0C00D006D0D0D082D083D0E032B2
:0320E300023C4478
:103C4400C0E0C0D075D000C00753FEFEE5FE30E0F2
:103C5400047F0180027F00EF703AE5FE30E1047FCB
:103C64000180027F00EF702CE5FE30E2047F0180CA
:103C7400027F00EF701EE5FE30E3047F0180027FC7
:103C840000EF7010E59330E7047F0180027F00EFBE
:0B3C94007002C2C5D007D0D0D0E032D3
:0320EB00023C9F15
:103C9F00C0E0C0D075D000C00753FEFCE5FE30E099
:103CAF00047F0180027F00EF703AE5FE30E1047F70
:103CBF000180027F00EF702CE5FE30E2047F01806F
:103CCF00027F00EF701EE5FE30E3047F0180027F6C
:103CDF0000EF7010E59330E7047F0180027F00EF63
:0B3CEF007002C2C5D007D0D0D0E03278
:0320F300023CFAB2
:103CFA00C0E0C0D075D000C00753FEF8E5FE30E042
:103D0A00047F0180027F00EF703AE5FE30E1047F14
:103D1A000180027F00EF702CE5FE30E2047F018013
:103D2A00027F00EF701EE5FE30E3047F0180027F10
:103D3A0000EF7010E59330E7047F0180027F00EF07
:0B3D4A007002C2C5D007D0D0D0E0321C
:0B410C00309802C298309902C299223C
:0320830002202612
:10202600C0E0E59B30E003539BFEE59B30E10353A4
:052036009BFDD0E0322B
:03204300023F1247
:103F1200C0E0C083C082C0D075D000C006C0079088
:103F2200E05BE0FFEF30E00D90E05BE0FFEF54FE7E
:103F3200FFEFF0C2C090E072E0FEA3E0FF90A00CA1
:103F4200EEF0A3EFF0D007D006D0D0D082D083D04D
:023F5200E0325B
:08331F008F358E348D338C32A2
:103327007F007E007D007C00AB35AA34A933A8322C
:10333700C3122E97500DAF35AE34AD33AC32122ECB
:10334700898008AF35AE34AD33AC328F398E388DC6
:10335700378C367F007E007D687C01AB39AA38A99F
:1033670037A836C3122E97401BC3E5399400F539A9
:10337700E5389400F538E5379468F537E536940174
:10338700F53680CFAF39AE38AD37AC367806122E6A
:10339700C17810122EAD8F418E408D3F8C3EAF41CC
:1033A700AE40AD3FAC3E7B2D7A0079007800122D00
:1033B700F78F418E408D3F8C3E7F027E007D007CE3
:1033C70000AB41AA40A93FA83E122D6C8F828E8385
:1033D700E0FEA3E0FFE4FCFD8F3D8E3C8D3B8C3A85
:1033E700AF3DAE3CAD3BAC3A7810122EC18F3D8E4F
:1033F7003C8D3B8C3AAF3DAE3CAD3BAC3A780F12BF
:103407002EAD8F3D8E3C8D3B8C3A7F007E007D003C
:103417007C00AB35AA34A933A832C3122E975013B8
:10342700AF3DAE3CAD3BAC3A122E898F3D8E3C8D05
:0B3437003B8C3AAF3DAE3CAD3BAC3AE5
:013442002267
:08354F008F458E448D438C4230
:103557007F007E007D007C00AB45AA44A943A842BA
:10356700C3122E97500DAF45AE44AD43AC42122E59
:10357700898008AF45AE44AD43AC428F498E488D34
:10358700478C467F007E007D687C01AB49AA48A92D
:1035970047A846C3122E97401BC3E5499400F54937
:1035A700E5489400F548E5479468F547E5469401F2
:1035B700F54680CFAF49AE48AD47AC467806122EE8
:1035C700C17810122EAD8F518E508D4F8C4EAF514A
:1035D700AE50AD4FAC4E7B2D7A0079007800122D9E
:1035E700F78F518E508D4F8C4E7F027E007D007C71
:1035F70000AB51AA50A94FA84E122D6CE42FF582AB
:1036070074013EF583E0FEA3E0FFE4FCFD8F4D8EE1
:103617004C8D4B8C4AAF4DAE4CAD4BAC4A7810122B
:103627002EC18F4D8E4C8D4B8C4AAF4DAE4CAD4B52
:10363700AC4A780F122EAD8F4D8E4C8D4B8C4AAF06
:073647004DAE4CAD4BAC4A47
:01364E002259
:083E3F008F5D8E5C8D5B8C5AD7
:103E4700AF5DAE5CAD5BAC5A8F618E608D5F8C5E93
:103E57008561E98560EA855FEB855EEC75EF00E5D6
:103E6700EC30E7047F0180027F00EF60F285E961B3
:103E770085EA6085EB5F85EC5EAF61AE60AD5FACF8
:013E87005EDC
:013E88002217
:0831D9008F0B8E0A8D098C0892
:1031E1007F007E007D007C00AB0BAA0AA909A8081C
:1031F100C3122E97500DAF0BAE0AAD09AC08122EBB
:10320100898008AF0BAE0AAD09AC088F0F8E0E8D09
:103211000D8C0CAF0FAE0EAD0DAC0C123E3F8F0FEF
:103221008E0E8D0D8C0CC3740E95EFF518E50F54B1
:10323100FFF50FE50E54FFF50EE50D54FFF50DE515
:103241000C547FF50CAF0FAE0EAD0DAC0C78161211
:103251002EAD8F178E168D158C147F027E007D008A
:103261007C00AB17AA16A915A814122D6CE42FF532
:103271008274043EF583E0FEA3E0FFE4FCFD8F13BE
:103281008E128D118C10AF13AE12AD11AC107810DF
:10329100122EC18F138E128D118C10AF13AE12AD81
:1032A10011AC10780F122EAD8F138E128D118C1060
:1032B100C3E518648094804019AF13AE12AD11AC10
:1032C10010A918A801122EAD8F138E128D118C101A
:1032D100801AAF13AE12AD11AC10E518F404F9A8C1
:1032E10001122EC18F138E128D118C107F007E0062
:1032F1007D007C00AB0BAA0AA909A808C3122E976E
:103301005013AF13AE12AD11AC10122E898F138E64
:0D331100128D118C10AF13AE12AD11AC1067
:01331E00228C
:082BAA008F248E238D228C2163
:102BB2007F007E007D007C00AB24AA23A922A821ED
:102BC200C3122E97500DAF24AE23AD22AC21122E8C
:102BD200898008AF24AE23AD22AC218F288E278DA9
:102BE200268C25AF28AE27AD26AC25123E3F8F2876
:102BF2008E278D268C25C3740F95EFF531E531753F
:102C0200F002122D4AAFF0EF706BE52854FFF52861
:102C1200E52754FFF527E52654FFF526E525547FE1
:102C2200F525AF28AE27AD26AC257817122EADEFCD
:102C32002480FFEE3400FEED3400FDEC3400FC8F06
:102C4200308E2F8D2E8C2D7F027E007D007C00AB7E
:102C520030AA2FA92EA82D122D6CE42FF58274080C
:102C62003EF583E0FEA3E0FFE4FCFD8F2C8E2B8D6E
:102C72002A8C29805B0531AF28AE27AD26AC25789A
:102C820018122EAD8F308E2F8D2E8C2DE530547F65
:102C9200F530E52F5400F52FE52E5400F52EE52DE5
:102CA2005400F52D7F027E007D007C00AB30AA2F00
:102CB200A92EA82D122D6CE42FF58274083EF583FF
:102CC200E0FEA3E0FFE4FCFD8F2C8E2B8D2A8C29E5
:102CD200AF2CAE2BAD2AAC297810122EC18F2C8EC0
:102CE2002B8D2A8C29AF2CAE2BAD2AAC29780E1253
:102CF2002EAD8F2C8E2B8D2A8C29C3E531648094C6
:102D020080401DAF2CAE2BAD2AAC29E531A2E713D2
:102D1200F9A801122EC18F2C8E2B8D2A8C29801F8F
:102D2200AF2CAE2BAD2AAC29E531F404FBEBA2E7C4
:102D320013F9A801122EAD8F2C8E2B8D2A8C29AF60
:072D42002CAE2BAD2AAC29D9
:012D49002267
:103DA8008F1990E08EE0FFEFC413135403FFEF2048
:103DB800E0F090E08F7453F090E091E519F090E016
:103DC80092E4F0AF1DAE1CAD1BAC1A90E093122E1E
:103DD800D490E08E740BF090E08EE0FFEFC41354A3
:0C3DE80007FFEF30E0F190E08EE4F022E5
:103DF4008F1E90E08EE0FFEFC413135403FFEF20F7
:103E0400E0F090E08F7455F090E091E51EF090E0C2
:103E140092E4F090E08E7407F090E08EE0FFEFC43F
:103E2400540FFFEF30E0F290E08EE4F090E093E086
:0B3E3400FCA3E0FDA3E0FEA3E0FF22E2
:032023000229226D
:032013000228ACF4
:03205300022895CB
:0320630002286AE6
:03206B000228C385
:10286A00C0D0C0E0E5FD20E30D20E41120E515D03D
:10287A00E0D0D00220C3D0E0D0D00220CBD0E0D02C
:10288A00D00220D3D0E0D0D00220DBC0D0C0E0E517
:10289A00FA20E307D0E0D0D00220ABD0E0D0D002BB
:1028AA0020A3C0D0C0E0E5F920E407D0E0D0D002F0
:1028BA0020B3D0E0D0D00220BBC0D0C0E0E5932046
:1028CA00E727E5FE20E00D20E11120E215D0E0D057
:1028DA00D002208BD0E0D0D00220E3D0E0D0D002CA
:1028EA0020EBD0E0D0D00220F375D000C000C001A8
:1028FA00740033747C3353937FC2C5D2998046C81F
:10290A00C443968010E40353967FC8759380F59468
:08291A00316EF59588932163ED
:10292200C0D0C0E0309814E599C298F51FB4A55EF6
:10293200D29975D000C000C001801074FF75D0001C
:10294200C000C00178FF8600B8FF2974F73099FDF6
:10295200C299F599D0017805D0E03198D8FAE931D9
:1029620098316EC0E0316EC0E0316EF83098FDE50E
:1029720099C29822E58124FCF9800C0819E66708BF
:10298200097004E66760C4B8FEF1D001D000D0E05F
:10299200D0D0439310323099FDC299F59922C0E00C
:1029A200316EC0E0316EC0E0316EF9316EC0E0C010
:1029B2000078FFE67002C299218E8882F583216336
:1029C2008881F5F02163F5802163F5B02163E5810B
:1029D200C083C082C08EC0F0C0E0C0E0214FE58954
:1029E200C088C087C086C085C084C080214FE59062
:1029F200C08FC08EC08DC08CC08BC08A214FE5971E
:102A0200C096C095C094C093C092C091214FE59EDC
:102A1200C09DC09CC09BC09AC099C098214FE5A59B
:102A2200C0A4C0A3C0A2C0A1C0A0C09F214FE5AC5A
:102A3200C0ABC0AAC0A9C0A8C0A7C0A6214FE5B319
:042A4200C0B2C0B1AD
:102A4600C0B0C0AFC0AEC0AD214FE5BAC0B9C0B8C6
:102A5600C0B7C0B6C0B5C0B4214FE5C1C0C0C0BF85
:102A6600C0BEC0BDC0BCC0BB214FE5C8C0C7C0C644
:102A7600C0C5C0C4C0C3C0C2214FE5CFC0CEC0CD03
:102A8600C0CCC0CBC0CAC0C9214FE5D7C0D6C0D5BF
:102A9600C0D4C0D3C0D2C0D1214FE5DEC0DDC0DC7A
:102AA600C0DBC0DAC0D9C0D8214FE5E6C0E5C0E436
:102AB600C0E3C0E2C0E1C0DF214FE5EDC0ECC0EBF2
:102AC600C0EAC0E9C0E8C0E7214FE5F5C0F4C0F3AD
:102AD600C0F2C0F1C0EFC0EE214FE5FCC0FBC0FA6A
:102AE600C0F9C0F8C0F7C0F6214FE5FFC0FEC0FD33
:102AF600C0E0C0E0C0E0C0E0214FBFA7005025EF16
:102B0600640AA2ACC2AC7009740DC299F5993099E9
:102B1600FDEFC299F5993099FD500778FFE67002EE
:102B2600C29992AC2230AC0CE51F64A560F774A57F
:102B3600C51FFF223098FDE599B4A505122B6580C7
:102B4600E4FFC2982230AC07E51FB4A510C322C328
:0F2B560030980BE599B4A505122B6580E8D322C2
:0B2B650078FF76FF751FA5D2AC2200A0
:102D4A00C2D530F707B2D563F0FF05F030E70CB211
:102D5A00D5F4048463F0FF05F080018430D502F4D1
:022D6A00042241
:102D6C00E88FF0A4CC8BF0A42CFCE98EF0A42CFC06
:102D7C008AF0EDA42CFCEA8EF0A4CDA8F08BF0A484
:102D8C002DCC3825F0FDE98FF0A42CCD35F0FCEBE3
:102D9C008EF0A4FEA9F0EB8FF0A4CFC5F02ECD39A8
:0F2DAC00FEE43CFCEAA42DCE35F0FDE43CFC2215
:102DBB0075F008758200EF2FFFEE33FECD33CDCCCF
:102DCB0033CCC58233C5829BED9AEC99E582984052
:102DDB000CF582EE9BFEED9AFDEC99FC0FD5F0D62F
:102DEB00E4CEFBE4CDFAE4CCF9A88222B800C1B959
:102DFB000059BA002DEC8BF084CFCECDFCE5F0CB97
:102E0B00F97818EF2FFFEE33FEED33FDEC33FCEBCF
:102E1B0033FB10D703994004EB99FB0FD8E5E4F98A
:102E2B00FA227818EF2FFFEE33FEED33FDEC33FC77
:102E3B00C933C910D7059BE99A4007EC9BFCE99A6B
:102E4B00F90FD8E0E4C9FAE4CCFB2275F010EF2FB0
:102E5B00FFEE33FEED33FDCC33CCC833C810D707B0
:102E6B009BEC9AE899400AED9BFDEC9AFCE899F8EB
:0E2E7B000FD5F0DAE4CDFBE4CCFAE4C8F9227E
:0E2E8900C3E49FFFE49EFEE49DFDE49CFC225A
:102E9700EB9FF5F0EA9E42F0E99D42F0EC6480C8B2
:062EA70064809845F02252
:102EAD00E86010ECA2E713FCED13FDEE13FEEF133B
:042EBD00FFD8F02228
:102EC100E8600FEFC333FFEE33FEED33FDEC33FC6F
:032ED100D8F12213
:0C2ED400ECF0A3EDF0A3EEF0A3EFF02271
:102B7000C582F9316EC583227170C0E0E0A331983F
:102B8000D8FA8982D08321637170C0E0E493A331C5
:102B900098D8F980EDF9E7093198D8FA2163717076
:0A2BA000C0E0E8F080DCF6216300DD
:00000001FF
