:032000000229A111
:0F29A100787FE4F6D8FD75A0007581320229EB2E
:10307600122F811226111226FED2AF90E05AE0FFDF
:10308600EFC413135403FFEF20E0F08518168519DB
:103096001720ACE73098E4E59964A56004C29880EF
:0730A600DA1223F180D522AC
:1032180090E08D7402F090E0BFE0FFEF54F3FFEF11
:0F3228004404FFEFF0D2A8D288C28953F9F022F4
:102F8100C2AF1232AD12326F75A93075B920C2A924
:102F9100C2BDD2ACD2AF000000C290D29020AC1022
:102FA10030980DE59964A56004C29880031223F15D
:102FB100E59330E4E4800280E0000000D2A9D2BDB4
:062FC100000000D2AF2267
:0A32AD007593017594FF7595FF22DB
:0D32550075B10575C90575D90575F105221E
:0D32620075B10F75C90F75D90F75F10F22E9
:102C8A0090E08BE4F090E0ECE0FFEF4408FFEFF017
:102C9A0090E0ECE0FFEF4403FFEFF090E05C740893
:102CAA00F090E07AE0FFEF4404FFEFF090E07AE082
:102CBA00FFEF4401FFEFF090E09DE0FFEF54FDFFCE
:102CCA00EFF090E05DE0FFEF54F7FFEFF090E05A8D
:102CDA00E0FFEF4420FFEFF090E05AE0FFEF4401FD
:102CEA00FFEFF090E064E4F0A3E4F0D2B8C2C022AF
:1024360090E0E07455F090E0E1E0FFEF540FFFEF1D
:102446004450FF90E0E1EFF090E000741EF090E061
:10245600037402F090E0027480F090E0197402F0C8
:1024660090E0187480F090E02F7402F090E02E74E3
:1024760080F090E0457402F090E0447480F090E0C3
:1024860007E4F090E01DE4F090E033E4F090E049DA
:10249600E4F090E0097460F090E008E4F090E01F4A
:1024A6007460F090E01EE4F090E0357460F090E027
:1024B60034E4F090E04B7460F090E04AE4F090E091
:1024C6000BE4F090E00AE4F090E021E4F090E020E4
:1024D600E4F090E037E4F090E036E4F090E04DE48C
:1024E600F090E04CE4F090E00C740BF090E0227475
:1024F6000BF090E038740BF090E04E740BF090E027
:102506000E7432F090E00DE4F090E0247432F09016
:10251600E023E4F090E03A7432F090E039E4F09091
:10252600E0507432F090E04FE4F090E0107432F036
:0F25360090E00FE4F090E0267432F090E025E49E
:10254500F090E03C7432F090E03BE4F090E052749F
:1025550032F090E051E4F090E011E4F090E027E4EF
:10256500F090E03DE4F090E053E4F090E012E4F008
:1025750090E028E4F090E03EE4F090E054E4F09040
:10258500E0157409F090E014740CF090E02BE4F081
:1025950090E02AE4F090E041E4F090E040E4F0902F
:1025A500E057E4F090E056E4F090E0177405F09001
:1025B500E0167405F090E02DE4F090E02CE4F09046
:1025C500E043E4F090E059E4F075A1D075A20775F9
:1025D500C1D075C20775D1D075D20775E1D075E246
:1025E5000775A3E875A40375C3E875C40375D3E837
:1025F50075D40375E3E875E40390E000E0FFEF446C
:0C26050001FFEFF075B601D2CDD2B92272
:1026FE0090E0E1E0FFEF54F3FFEF4408FFEFF090BE
:10270E00E0DAE0FFEF54FCFFEF4402FFEFF090E061
:10271E00DBE0FFEF543FFFEF4480FFEFF090E0DB94
:10272E00E0FFEF54CFFFEF4420FFEFF090E0A4E086
:10273E00FFEF54FCFFEF4401FFEFF090E0A4E0FF49
:10274E00EF54F3FFEF4404FFEFF090E0A4E0FFEF4F
:10275E0054CFFFEF4410FFEFF090E0A4E0FFEF54F2
:10276E00BFFFEFF090E0C6E0FFEF54FEFFEFF090FA
:10277E00E0C6E0FFEF54FDFFEFF090E0C6E0FFEFA4
:10278E0054FBFFEFF090E0C6E0FFEF54F7FFEFF0E1
:10279E0090E0EBE0FFEF4401FFEFF090E0EBE0FFA5
:1027AE00EF4402FFEFF090E0C7E0FFEF54FEFFEFC3
:0C27BE00F090E0C7E0FFEF54FDFFEFF0EB
:1027CA0090E0C7E0FFEF54FBFFEFF090E0C7E0FFB7
:0B27DA00EF54F7FFEFF0D2BBD2BB22A0
:103237007586FFD2AED2BE90E0DBE0FFEF54FCFF15
:0E324700EFF090E0DCE0FFEF54FEFFEFF0222E
:1026110090E0D5E4F090E0D4E4F090E0D6E4F090DE
:10262100E0D874FFF090E0D7E4F090E0D9E4F090C6
:10263100E0DBE4F090E0DAE4F090E0DCE4F090E05C
:10264100DE74FFF090E0DDE4F090E0DFE4F090E094
:10265100E1E4F090E0E0E4F090E0E2E4F090E0E426
:1026610074FFF090E0E3E4F090E0E5E4F090E0D571
:10267100E0FFEF54FCFFEFF090E0D6E0FFEF440104
:10268100FFEFF090E0D8E0FFEF54FEFFEFF090E0B5
:10269100D7E0FFEF54FEFFEFF090E0E0E0FFEF54F2
:1026A100CFFFEFF090E0E2E0FFEF4440FFEFF0906A
:1026B100E0E4E0FFEF54BFFFEFF090E0E3E0FFEF75
:1026C10054BFFFEFF090E0E1E0FFEF54FCFFEF4477
:1026D10001FFEFF090E0E2E0FFEF54FEFFEFF0903A
:1026E100E0E4E0FFEF4401FFEFF090E0E5E0FFEF11
:0D26F10054FEFFEFF090E0E1E0FF8F1A22B1
:1031F50090E0EE7402F0A37440F0E58954F0FFEF1F
:103205004403F589758A00758C00D2A9D2ABD28C9E
:03321500D28E2234
:1031A40090E0C9E4F090E0CCE4F0A374C0F090E0C7
:1031B400C8E0FFEF4420FFEFF090E0C8E0FFEF44E9
:0C31C40004FFEFF053F9E0C28BD2AA2206
:10314A0090E0CFE4F090E0D274E0F0A374C0F09085
:10315A00E0CEE0FFEF4420FFEFF090E0CEE0FFEF9B
:0D316A004404FFEFF053FEF0D2BDC2C522B9
:1030AD0090E0F4E4F090E0F77410F0A374C0F090A9
:1030BD00E0F3E0FFEF4420FFEFF090E0F3E0FFEFEF
:1030CD004404FFEFF090E0F3E0FFEF547FFFEFF0EB
:0730DD00D2CED2BAC2C2221A
:1030E40090E0FAE4F090E0FD7410F0A374C0F09066
:1030F400E0F9E0FFEF4420FFEFF090E0F9E0FFEFAC
:103104004404FFEFF090E0F9E0FFEF547FFFEFF0AD
:05311400D2BCC2C42280
:102EDD0090E0B2742EF00000000000000000000031
:102EED0000000000000000000000000000000000D5
:102EFD000000000000000090E0E77402F090E0E6B2
:102F0D00E4F00000000000000000000000000000E0
:102F1D0000000000000000000000000000000000A4
:032F2D000000227F
:0D326F0075985075D88075AAF375BA0322C2
:0A32B700759B90759DE675BB032220
:0320030002287A36
:10287A00C0E0C0D075D000C007E5F930E0047F01A0
:10288A0080027F00EFB4010353F9FEE5F930E10459
:10289A007F0180027F00EFB40105B2A653F9FCE57F
:1028AA00F930E2047F0180027F00EFB4010353F99B
:1028BA00F8E5F930E3047F0180027F00EFB40103F9
:1028CA0053F9F0E5F930E0047F0180027F00EF70F0
:1028DA002CE5F930E1047F0180027F00EF701EE5EC
:1028EA00F930E2047F0180027F00EF7010E5F930D1
:1028FA00E3047F0180027F00EF7002C289D007D013
:04290A00D0D0E03217
:03200B000231D0CF
:1031D000C0E0C083C082C0D075D000C007C28D904F
:1031E000E05AE0FFEF4420FFEFF0D007D0D0D082CC
:0531F000D083D0E032A5
:03201B000220069A
:03200600C28F3254
:0320BB00022F30C1
:102F3000C0E0C083C082C0D075D000C00753F9E0A4
:102F400090E0C8E0FFEF547FFFEFF090E0C8E0FFB3
:102F5000EF54BFFFEFF0B2A6E5F930E4047F018043
:102F6000027F00EF7010E5F930E5047F0180027FF9
:102F700000EF7002C28BD007D0D0D082D083D0E0D7
:012F8000321E
:03208B00022CFA2A
:102CFA00C0E0C083C082C0D075D000C00790E0CECB
:102D0A00E0FFEF547FFFEFF053FEF0B2A6E5FE308E
:102D1A00E0047F0180027F00EF703AE5FE30E104B3
:102D2A007F0180027F00EF702CE5FE30E2047F0114
:102D3A0080027F00EF701EE5FE30E3047F0180020F
:102D4A007F00EF7010E59330E7047F0180027F0077
:102D5A00EF7002C2C5D007D0D0D082D083D0E03283
:0320AB00022BA164
:102BA100C0E0C083C082C0D075D000C006C007900D
:102BB100E0F3E0FFEF547FFFEFF090E0F3E0FFEF91
:102BC10054BFFFEFF0B2A690E0F3E0FFEFC41313A0
:102BD1005403FFEF30E0047F0180027F0090E0F3B7
:102BE100E0FEEEC41313135401FEEE30E0047E0147
:102BF10080027E00EE4FFFEF7010E5FA30E3047FB4
:102C01000180027F00EF7002C2C2D007D006D0D08F
:072C1100D082D083D0E03235
:0320C30002290EE1
:10290E00C0E0C083C082C0D075D000C006C00790A2
:10291E00E0F9E0FFEF547FFFEFF090E0F9E0FFEF1A
:10292E0054BFFFEFF0E5FD30E3047F0180027F002E
:10293E00EF7051E5FD30E4047F0180027F00EF70FF
:10294E0043E5FD30E5047F0180027F00EF70359096
:10295E00E0F9E0FFEFC413135403FFEF30E0047F00
:10296E000180027F0090E0F9E0FEEEC413131354D1
:10297E0001FEEE30E0047E0180027E00EE4FFFEF9E
:10298E007002C2C4B2A6D007D006D0D0D082D083F7
:03299E00D0E03254
:03204B00022C184C
:102C1800C0E0C0D075D000C007E5FA30E0047F01FD
:102C280080027F00EFB4010353FAFEE5FA30E104B5
:102C38007F0180027F00EFB4010353FAFCE5FA300C
:102C4800E2047F0180027F00EFB4010353FAF8E544
:102C5800FA30E0047F0180027F00EF701EE5FA3051
:102C6800E1047F0180027F00EF7010E5FA30E20492
:102C78007F0180027F00EF7002C2C1D007D0D0D0A0
:022C8800E03238
:0320A300022D6AA1
:102D6A00C0E0C083C082C0D075D000C006C007537F
:102D7A00FAF090E0F3E0FFEFC413135403FFEF30CF
:102D8A00E0047F0180027F0090E0F3E0FEEEC413CE
:102D9A0013135401FEEE30E0047E0180027E00EE41
:102DAA004FFFEF7010E5FA30E3047F0180027F00E5
:102DBA00EF7002C2C2D007D006D0D0D082D083D062
:022DCA00E032F5
:0320B300023119DE
:10311900C0E0C0D075D000C00753F9C0E5F930E46C
:10312900047F0180027F00EF7010E5F930E5047F2C
:103139000180027F00EF7002C28BD007D0D0D0E0AF
:013149003253
:03205B000227E574
:1027E500C0E0C083C082C0D075D000C00790E0C7EC
:1027F500E0FFEFC313FFEF30E00D90E0C7E0FFEF20
:1028050054FDFFEFF0B2A690E0C7E0FFEF131354BD
:102815003FFFEF30E00B90E0C7E0FFEF54FBFFEF29
:10282500F090E0C7E0FFEF131313541FFFEF30E004
:102835000B90E0C7E0FFEF54F7FFEFF090E0C7E043
:10284500FFEFC313FFEF20E02190E0C7E0FFEF1398
:1028550013543FFFEF20E01290E0C7E0FFEF1313A2
:1028650013541FFFEF20E002C2C3D007D0D0D0829F
:05287500D083D0E03229
:0320CB00022A30B6
:102A3000C0E0C083C082C0D075D000C006C007E52A
:102A4000FD30E3047F0180027F00EF7051E5FD302F
:102A5000E4047F0180027F00EF7043E5FD30E50470
:102A60007F0180027F00EF703590E0F9E0FFEFC456
:102A700013135403FFEF30E0047F0180027F0090C6
:102A8000E0F9E0FEEEC41313135401FEEE30E0044F
:102A90007E0180027E00EE4FFFEF7002C2C4D007BD
:0B2AA000D006D0D0D082D083D0E0322E
:0320D300022AAB33
:102AAB00C0E0C083C082C0D075D000C006C007E5AF
:102ABB00FD30E3047F0180027F00EF7051E5FD30B4
:102ACB00E4047F0180027F00EF7043E5FD30E504F5
:102ADB007F0180027F00EF703590E0F9E0FFEFC4DB
:102AEB0013135403FFEF30E0047F0180027F00904B
:102AFB00E0F9E0FEEEC41313135401FEEE30E004D4
:102B0B007E0180027E00EE4FFFEF7002C2C4D00741
:0B2B1B00D006D0D0D082D083D0E032B2
:0320DB00022B26AF
:102B2600C0E0C083C082C0D075D000C006C007E533
:102B3600FD30E3047F0180027F00EF7051E5FD3038
:102B4600E4047F0180027F00EF7043E5FD30E50479
:102B56007F0180027F00EF703590E0F9E0FFEFC45F
:102B660013135403FFEF30E0047F0180027F0090CF
:102B7600E0F9E0FEEEC41313135401FEEE30E00458
:102B86007E0180027E00EE4FFFEF7002C2C4D007C6
:0B2B9600D006D0D0D082D083D0E03237
:0320E300022DCCFF
:102DCC00C0E0C0D075D000C00753FEFEE5FE30E079
:102DDC00047F0180027F00EF703AE5FE30E1047F52
:102DEC000180027F00EF702CE5FE30E2047F018051
:102DFC00027F00EF701EE5FE30E3047F0180027F4E
:102E0C0000EF7010E59330E7047F0180027F00EF44
:0B2E1C007002C2C5D007D0D0D0E03259
:0320EB00022E279B
:102E2700C0E0C0D075D000C00753FEFCE5FE30E01F
:102E3700047F0180027F00EF703AE5FE30E1047FF6
:102E47000180027F00EF702CE5FE30E2047F0180F5
:102E5700027F00EF701EE5FE30E3047F0180027FF2
:102E670000EF7010E59330E7047F0180027F00EFE9
:0B2E77007002C2C5D007D0D0D0E032FE
:0320F300022E8238
:102E8200C0E0C0D075D000C00753FEF8E5FE30E0C8
:102E9200047F0180027F00EF703AE5FE30E1047F9B
:102EA2000180027F00EF702CE5FE30E2047F01809A
:102EB200027F00EF701EE5FE30E3047F0180027F97
:102EC20000EF7010E59330E7047F0180027F00EF8E
:0B2ED2007002C2C5D007D0D0D0E032A3
:0B32A200309802C298309902C29922B5
:0320830002206ECA
:10206E00C0E0E59B30E003539BFEE59B30E103535C
:05207E009BFDD0E032E3
:0320430002303E2A
:10303E00C0E0C083C082C0D075D000C00790E05BF6
:10304E00E0FFEF30E00D90E05BE0FFEF54FEFFEFAE
:10305E00F0C2C090E072E0F518A3E0F519D007D0E9
:08306E00D0D082D083D0E03203
:0C3289000A080102030405060708090AF0
:102FC7008F1B90E08F7453F090E091E51BF090E039
:102FD70092E4F0AF1FAE1EAD1DAC1C90E093123211
:102FE7009690E08E740BF090E08EE0FFEFC41354E0
:0C2FF70007FFEF30E0F190E08EE4F022E4
:103003008F3190E08F7455F090E091E531F090E0CE
:1030130092E4F090E08E7407F090E08EE0FFEFC44E
:10302300540FFFEF30E0F290E08EE4F090E093E095
:0B303300FCA3E0FDA3E0FEA3E0FF22F1
:102026008E298F2AE52A25E0FFE52933FE8F828E49
:0D20360083E0F52BA3E0F52CAE2BAF2C22A0
:103177008F248E238D228C21AF24AE23AD22AC2148
:103187008F288E278D268C258528E98527EA852691
:0D319700EB8525EC75EF00E58730E6FB22A7
:0D327C0085E93085EA2F85EB2E85EC2D22AB
:0F208E007F017E007D007C0012317712327C22B0
:032023000221AEE9
:032013000221386F
:0320530002212146
:032063000220F662
:03206B0002214F00
:1020F600C0D0C0E0E5FD20E30D20E41120E515D0B9
:10210600E0D0D00220C3D0E0D0D00220CBD0E0D0A7
:10211600D00220D3D0E0D0D00220DBC0D0C0E0E592
:10212600FA20E307D0E0D0D00220ABD0E0D0D00236
:1021360020A3C0D0C0E0E5F920E407D0E0D0D0026B
:1021460020B3D0E0D0D00220BBC0D0C0E0E59320C1
:10215600E727E5FE20E00D20E11120E215D0E0D0D2
:10216600D002208BD0E0D0D00220E3D0E0D0D00245
:1021760020EBD0E0D0D00220F375D000C000C00123
:10218600740033747C3353937FC2C5D2998046C89A
:10219600C443968010E40353967FC8759380F594E4
:0821A60031FAF595889321EF51
:1021AE00C0D0C0E0309814E599C298F532B4A55E5F
:1021BE00D29975D000C000C001801074FF75D00098
:1021CE00C000C00178FF8600B8FF2974F73099FD72
:1021DE00C299F599D0017805D0E05124D8FAE95189
:1021EE002431FAC0E031FAC0E031FAF83098FDE55A
:1021FE0099C29822E58124FCF9800C0819E667083B
:10220E00097004E66760C4B8FEF1D001D000D0E0DA
:10221E00D0D0439310323099FDC299F59922C0E087
:10222E0031FAC0E031FAC0E031FAF931FAC0E0C05B
:10223E000078FFE67002C299411A8882F58321EF79
:10224E008881F5F021EFF58021EFF5B021EFE581E2
:10225E00C083C082C08EC0F0C0E0C0E021DBE58943
:10226E00C088C087C086C085C084C08021DBE59051
:10227E00C08FC08EC08DC08CC08BC08A21DBE5970D
:10228E00C096C095C094C093C092C09121DBE59ECC
:10229E00C09DC09CC09BC09AC099C09821DBE5A58B
:1022AE00C0A4C0A3C0A2C0A1C0A0C09F21DBE5AC4A
:1022BE00C0ABC0AAC0A9C0A8C0A7C0A621DBE5B309
:0422CE00C0B2C0B129
:1022D200C0B0C0AFC0AEC0AD21DBE5BAC0B9C0B8B6
:1022E200C0B7C0B6C0B5C0B421DBE5C1C0C0C0BF75
:1022F200C0BEC0BDC0BCC0BB21DBE5C8C0C7C0C634
:10230200C0C5C0C4C0C3C0C221DBE5CFC0CEC0CDF2
:10231200C0CCC0CBC0CAC0C921DBE5D7C0D6C0D5AE
:10232200C0D4C0D3C0D2C0D121DBE5DEC0DDC0DC69
:10233200C0DBC0DAC0D9C0D821DBE5E6C0E5C0E425
:10234200C0E3C0E2C0E1C0DF21DBE5EDC0ECC0EBE1
:10235200C0EAC0E9C0E8C0E721DBE5F5C0F4C0F39C
:10236200C0F2C0F1C0EFC0EE21DBE5FCC0FBC0FA59
:10237200C0F9C0F8C0F7C0F621DBE5FFC0FEC0FD22
:10238200C0E0C0E0C0E0C0E021DBBFA7005025EF05
:10239200640AA2ACC2AC7009740DC299F599309965
:1023A200FDEFC299F5993099FD500778FFE670026A
:1023B200C29992AC2230AC0CE53264A560F774A5E8
:1023C200C532FF223098FDE599B4A5051223F180AC
:1023D200E4FFC2982230AC07E532B4A510C322C391
:0F23E20030980BE599B4A5051223F180E8D322BA
:0B23F10078FF76FF7532A5D2AC220009
:1029B000023076E493A3F8E493A34003F68001F297
:1029C00008DFF48029E493A3F85407240CC8C33328
:1029D000C4540F4420C8834004F456800146F6DFF7
:1029E000E4800B0102040810204080903289E47ECC
:1029F000019360BCA3FF543F30E509541FFEE493EC
:102A0000A360010ECF54C025E060A840B8E493A3B2
:102A1000FAE493A3F8E493A3C8C582C8CAC583CADD
:102A2000F0A3C8C582C8CAC583CADFE9DEE780BE95
:013295000038
:0C329600ECF0A3EDF0A3EEF0A3EFF022AB
:1023FC00C582F931FAC5832271FCC0E0E0A35124F7
:10240C00D8FA8982D08321EF71FCC0E0E493A35108
:10241C0024D8F980EDF9E7095124D8FA21EF71FCA1
:0A242C00C0E0E8F080DCF621EF00CC
:00000001FF
