:03200000022C1996
:0F2C1900787FE4F6D8FD75A00075813F022C632B
:1031AA001232D8122E901234C7122611D2AFAF1C87
:1031BA00AE1BAD1AAC19780B1232AF8F1890E07BA8
:1031CA00E518F090E05AE0FFEFC413135403FFEF41
:1031DA0020E0F085161485171520ACD23098CFE57B
:0F31EA009964A56004C29880C51223F180C022A9
:1034EA0090E08D7402F090E0BFE0FFEF54F3FFEF3D
:0F34FA004404FFEFF0D2A8D288C28953F9F02220
:1032D800C2AF12357312354175A93075B920C2A92C
:1032E800C2BDD2ACD2AF000000C290D29020AC10C8
:1032F80030980DE59964A56004C29880031223F103
:10330800E59330E4E4800280E0000000D2A9D2BD59
:06331800000000D2AF220C
:0A3573007593017594FF7595FF2212
:0D35270075B10575C90575D90575F1052249
:0D35340075B10F75C90F75D90F75F10F2214
:1029C20090E08BE4F090E0ECE0FFEF4408FFEFF0E2
:1029D20090E0ECE0FFEF4403FFEFF090E05C740F57
:1029E200F090E07AE0FFEF4404FFEFF090E07AE04D
:1029F200FFEF4401FFEFF090E0A4E0FFEF54FCFF93
:102A0200EF4402FFEFF090E0A4E0FFEF54F3FFEF9A
:102A12004408FFEFF090E0A4E0FFEF54CFFFEF4453
:102A220020FFEFF090E09DE0FFEF54FDFFEFF0900C
:102A3200E05DE0FFEF54F7FFEFF090E05AE0FFEFC8
:102A42004420FFEFF090E05AE0FFEF4401FFEFF087
:0D2A520090E064E4F0A3E4F0D2B8C2C0222A
:1024360090E0E07455F090E0E1E0FFEF540FFFEF1D
:102446004450FF90E0E1EFF090E000741EF090E061
:10245600037402F090E0027480F090E0197402F0C8
:1024660090E0187480F090E02F7402F090E02E74E3
:1024760080F090E0457402F090E0447480F090E0C3
:1024860007E4F090E01DE4F090E033E4F090E049DA
:10249600E4F090E0097460F090E008E4F090E01F4A
:1024A6007460F090E01EE4F090E0357460F090E027
:1024B60034E4F090E04B7460F090E04AE4F090E091
:1024C6000BE4F090E00AE4F090E021E4F090E020E4
:1024D600E4F090E037E4F090E036E4F090E04DE48C
:1024E600F090E04CE4F090E00C740BF090E0227475
:1024F6000BF090E038740BF090E04E740BF090E027
:102506000E7432F090E00DE4F090E0247432F09016
:10251600E023E4F090E03A7432F090E039E4F09091
:10252600E0507432F090E04FE4F090E0107432F036
:0F25360090E00FE4F090E0267432F090E025E49E
:10254500F090E03C7432F090E03BE4F090E052749F
:1025550032F090E051E4F090E011E4F090E027E4EF
:10256500F090E03DE4F090E053E4F090E012E4F008
:1025750090E028E4F090E03EE4F090E054E4F09040
:10258500E0157409F090E014740CF090E02BE4F081
:1025950090E02AE4F090E041E4F090E040E4F0902F
:1025A500E057E4F090E056E4F090E0177405F09001
:1025B500E0167405F090E02DE4F090E02CE4F09046
:1025C500E043E4F090E059E4F075A1D075A20775F9
:1025D500C1D075C20775D1D075D20775E1D075E246
:1025E5000775A3E875A40375C3E875C40375D3E837
:1025F50075D40375E3E875E40390E000E0FFEF446C
:0C26050001FFEFF075B601D2CDD2B92272
:1028B60090E0E1E0FFEF54F3FFEF4408FFEFF09004
:1028C600E0DAE0FFEF54FCFFEF4402FFEFF090E0A8
:1028D600DBE0FFEF543FFFEF4480FFEFF090E0DBDB
:1028E600E0FFEF54CFFFEF4420FFEFF090E0A4E0CD
:1028F600FFEF54FCFFEF4401FFEFF090E0A4E0FF90
:10290600EF54F3FFEF4404FFEFF090E0A4E0FFEF95
:1029160054CFFFEF4410FFEFF090E0A4E0FFEF5438
:10292600BFFFEFF090E0C6E0FFEF54FEFFEFF09040
:10293600E0C6E0FFEF54FDFFEFF090E0C6E0FFEFEA
:1029460054FBFFEFF090E0C6E0FFEF54F7FFEFF027
:1029560090E0EBE0FFEF4401FFEFF090E0EBE0FFEB
:10296600EF4402FFEFF090E0EBE0FFEF4404FFEFEF
:0C297600F090E0EBE0FFEF4408FFEFF012
:1029820090E0C7E0FFEF54FEFFEFF090E0C7E0FFFA
:10299200EF54FDFFEFF090E0C7E0FFEF54FBFFEFD5
:1029A200F090E0C7E0FFEF54F7FFEFF090E0EBE0CC
:1029B200FFEF4410FFEFF0D2BBD2AAC28BC2C322F8
:103509007586FFD2AED2BE90E0DBE0FFEF54FCFF40
:0E351900EFF090E0DCE0FFEF54FEFFEFF02259
:1026110090E0D5E4F090E0D4E4F090E0D6E4F090DE
:10262100E0D874FFF090E0D7E4F090E0D9E4F090C6
:10263100E0DBE4F090E0DAE4F090E0DCE4F090E05C
:10264100DE74FFF090E0DDE4F090E0DFE4F090E094
:10265100E1E4F090E0E0E4F090E0E2E4F090E0E426
:1026610074FFF090E0E3E4F090E0E5E4F090E0D571
:10267100E0FFEF54FCFFEFF090E0D6E0FFEF440104
:10268100FFEFF090E0D8E0FFEF54FEFFEFF090E0B5
:10269100D7E0FFEF54FEFFEFF090E0E1E0FFEF54F1
:1026A100FCFFEF4401FFEFF090E0E2E0FFEF54FEAA
:1026B100FFEFF090E0E4E0FFEF4401FFEFF090E086
:1026C100E5E0FFEF54FEFFEFF090E0E3E0FFEF54B1
:1026D100FEFFEFF090E0DAE0FFEF54F3FFEF440884
:1026E100FFEFF090E0DCE0FFEF54DFFFEFF090E070
:0126F100DE0A
:1026F200E0FFEF4420FFEFF090E0DFE0FFEF54DF78
:10270200FFEFF090E0DDE0FFEF54DFFFEFF090E04D
:10271200D4E0FFEF54FCFFEFF090E0D6E0FFEF448F
:1027220010FFEFF090E0D8E0FFEF4410FFEFF090E1
:10273200E0D9E0FFEF54EFFFEFF090E0D7E0FFEFDA
:1027420054EFFFEFF090E0E0E0FFEF54CFFFEFF047
:1027520090E0E2E0FFEF4440FFEFF090E0E4E0FFC2
:10276200EF54BFFFEFF090E0E5E0FFEF54BFFFEF63
:0D277200F090E0E3E0FFEF54BFFFEFF02236
:1034C70090E0EF7405F090E0EEE4F0758910758AEE
:1034D70000758CFE758B00758D00D2A9D2ABD28C8E
:0334E700D28E2260
:102E900090E0C9E4F090E0CCE4F0A3E4F090E0CA64
:102EA000E4F0A3E4F090E0C8E0FFEF54FDFFEFF0A2
:102EB00090E0C8E0FFEF4401FFEFF090E0C8E0FFD2
:102EC000EF4408FFEFF090E08AE0FFEF54FEFFEFE1
:102ED000F090E0C8E0FFEF4420FFEFF090E0C8E0A2
:102EE000FFEF4404FFEFF090E0C8E0FFEF547FFFF6
:102EF000EFF090E0C8E0FFEF54BFFFEFF0C28BD2DD
:022F0000AA2203
:1034460090E0CFE4F090E0D274E0F0A374C0F09086
:10345600E0CEE0FFEF4420FFEFF090E0CEE0FFEF9C
:0D3466004404FFEFF053FEF0D2BDC2C522BA
:1033DA0090E0F4E4F090E0F77410F0A374C0F09079
:1033EA00E0F3E0FFEF4420FFEFF090E0F3E0FFEFBF
:1033FA004404FFEFF090E0F3E0FFEF547FFFEFF0BB
:07340A00D2CED2BAC2C222E9
:1034110090E0FAE4F090E0FD7410F0A374C0F09035
:10342100E0F9E0FFEF4420FFEFF090E0F9E0FFEF7B
:103431004404FFEFF090E0F9E0FFEF547FFFEFF07D
:05344100D2BCC2C42250
:1031570090E0B2742EF000000000000000000000B4
:103167000000000000000000000000000000000058
:103177000000000000000090E0E77402F090E0E635
:10318700E4F0000000000000000000000000000064
:103197000000000000000000000000000000000028
:0331A70000002203
:0D35410075985075D88075AAF375BA0322ED
:0A357D00759B90759DE675BB032257
:10331E0090E07AE0FFEF54FBFFEFF090E07AE0FFF1
:10332E00EF54FEFFEFF090E07AE0FFEF4408FFEF7E
:10333E00F090E07AE0FFEF4402FFEFF090E089E0DA
:10334E00FFEF54FEFFEFF090E089E0FFEF54FDFF3A
:03335E00EFF0226B
:03200300022A5F4F
:102A5F00C0E0C0D075D000C007E5F930E0047F01B9
:102A6F0080027F00EFB4010353F9FEE5F930E10472
:102A7F007F0180027F00EFB40105B2A653F9FCE598
:102A8F00F930E2047F0180027F00EFB4010353F9B4
:102A9F00F8E5F930E3047F0180027F00EFB4010312
:102AAF0053F9F0E5F930E0047F0180027F00EF7009
:102ABF002CE5F930E1047F0180027F00EF701EE505
:102ACF00F930E2047F0180027F00EF7010E5F930EA
:102ADF00E3047F0180027F00EF7002C289D007D02C
:042AEF00D0D0E03231
:03200B000234A0FC
:1034A000C0E0C083C082C0D075D000C007C28DB25A
:1034B0008490E05AE0FFEF4420FFEFF0D007D0D037
:0734C000D082D083D0E0327E
:03201B000220069A
:03200600C28F3254
:0320BB0002277F7A
:10277F00C0E0C083C082C0D075D000C000C004C00C
:10278F0005C006C00790E0C8E0FFEFC41313135451
:10279F0001FFEF30E00D051D90E0C8E0FFEF547F23
:1027AF00FFEFF090E0C8E0FFEFC413135403FFEF07
:1027BF0020E00302287290E0CCE0FEA3E0FFE4FCEF
:1027CF00FD8F138E128D118C1090E08AE0FFEF3089
:1027DF00E02090E08AE0FFEF54FEFFEFF0AF13AE82
:1027EF0012AD11AC108F0F8E0E8D0D8C0C751D0050
:1027FF008066E51D701BC3E513950FF51CE512955B
:10280F000EF51BE511950DF51AE510950CF51980D0
:10281F003CAF1DE4FCFDFE78101232908F1C8E1B16
:10282F008D1A8C19E51C2513FFE51B3512FEE51AD1
:10283F003511FDE5193510FCC3EF950FF51CEE951D
:10284F000EF51BED950DF51AEC950CF51990E08A28
:10285F00E0FFEF4401FFEFF090E0C8E0FFEF54BF5F
:10286F00FFEFF090E0C8E0FFEFC41313135401FF24
:10287F00EF20E02090E0C8E0FFEFC413135403FFF4
:10288F00EF20E010E5F930E5047F0180027F00EFD3
:10289F007002C28BD007D006D005D004D000D0D0A4
:0728AF00D082D083D0E0329B
:03208B00022F74AD
:102F7400C0E0C083C082C0D075D000C00790E0CE4E
:102F8400E0FFEF547FFFEFF053FEF0B2A6E5FE3012
:102F9400E0047F0180027F00EF703AE5FE30E10437
:102FA4007F0180027F00EF702CE5FE30E2047F0198
:102FB40080027F00EF701EE5FE30E3047F01800293
:102FC4007F00EF7010E59330E7047F0180027F00FB
:102FD400EF7002C2C5D007D0D0D082D083D0E03207
:0320AB00022E19E9
:102E1900C0E0C083C082C0D075D000C006C0079092
:102E2900E0F3E0FFEF547FFFEFF090E0F3E0FFEF16
:102E390054BFFFEFF0B2A690E0F3E0FFEFC4131325
:102E49005403FFEF30E0047F0180027F0090E0F33C
:102E5900E0FEEEC41313135401FEEE30E0047E01CC
:102E690080027E00EE4FFFEF7010E5FA30E3047F39
:102E79000180027F00EF7002C2C2D007D006D0D015
:072E8900D082D083D0E032BB
:0320C300022AF3FB
:102AF300C0E0C083C082C0D075D000C006C00790BC
:102B0300E0F9E0FFEF547FFFEFF090E0F9E0FFEF33
:102B130054BFFFEFF0E5FD30E3047F0180027F0047
:102B2300EF7051E5FD30E4047F0180027F00EF7018
:102B330043E5FD30E5047F0180027F00EF703590AF
:102B4300E0F9E0FFEFC413135403FFEF30E0047F19
:102B53000180027F0090E0F9E0FEEEC413131354EA
:102B630001FEEE30E0047E0180027E00EE4FFFEFB7
:102B73007002C2C4B2A6D007D006D0D0D082D08310
:032B8300D0E0326D
:03204B00022F025F
:102F0200C0E0C0D075D000C007E5FA30E0047F0110
:102F120080027F00EFB4010353FAFEE5FA30E104C8
:102F22007F0180027F00EFB4010353FAFCE5FA301F
:102F3200E2047F0180027F00EFB4010353FAF8E557
:102F4200FA30E0047F0180027F00EF701EE5FA3064
:102F5200E1047F0180027F00EF7010E5FA30E204A5
:102F62007F0180027F00EF7002C2C1D007D0D0D0B3
:022F7200E0324B
:0320A300022FE425
:102FE400C0E0C083C082C0D075D000C006C0075303
:102FF400FAF090E0F3E0FFEFC413135403FFEF3053
:10300400E0047F0180027F0090E0F3E0FEEEC41351
:1030140013135401FEEE30E0047E0180027E00EEC4
:103024004FFFEF7010E5FA30E3047F0180027F0068
:10303400EF7002C2C2D007D006D0D0D082D083D0E5
:02304400E03278
:0320B30002336194
:10336100C0E0C083C082C0D075D000C00790E0C764
:10337100E0FFEF54FEFFEFF0E5F930E4047F018058
:10338100027F00EF7010E5F930E5047F0180027FD4
:1033910000EF7002C28BD007D0D0D082D083D0E0B2
:0133A10032F9
:03205B00022B86CF
:102B8600C0E0C083C082C0D075D000C00790E0C747
:102B9600E0FFEFC313FFEF30E00B90E0C7E0FFEF7D
:102BA60054FDFFEFF090E0C7E0FFEF1313543FFF33
:102BB600EF30E00B90E0C7E0FFEF54FBFFEFF09043
:102BC600E0C7E0FFEF131313541FFFEF30E00B9045
:102BD600E0C7E0FFEF54F7FFEFF090E0C7E0FFEF4C
:102BE600C313FFEF20E02190E0C7E0FFEF1313547B
:102BF6003FFFEF20E01290E0C7E0FFEF13131354FE
:102C06001FFFEF20E002C2C3D007D0D0D082D0830E
:032C1600D0E032D9
:0320CB00022CA83C
:102CA800C0E0C083C082C0D075D000C006C007E5B0
:102CB800FD30E3047F0180027F00EF7051E5FD30B5
:102CC800E4047F0180027F00EF7043E5FD30E504F6
:102CD8007F0180027F00EF703590E0F9E0FFEFC4DC
:102CE80013135403FFEF30E0047F0180027F00904C
:102CF800E0F9E0FEEEC41313135401FEEE30E004D5
:102D08007E0180027E00EE4FFFEF7002C2C4D00742
:0B2D1800D006D0D0D082D083D0E032B3
:0320D300022D23B8
:102D2300C0E0C083C082C0D075D000C006C007E534
:102D3300FD30E3047F0180027F00EF7051E5FD3039
:102D4300E4047F0180027F00EF7043E5FD30E5047A
:102D53007F0180027F00EF703590E0F9E0FFEFC460
:102D630013135403FFEF30E0047F0180027F0090D0
:102D7300E0F9E0FEEEC41313135401FEEE30E00459
:102D83007E0180027E00EE4FFFEF7002C2C4D007C7
:0B2D9300D006D0D0D082D083D0E03238
:0320DB00022D9E35
:102D9E00C0E0C083C082C0D075D000C006C007E5B9
:102DAE00FD30E3047F0180027F00EF7051E5FD30BE
:102DBE00E4047F0180027F00EF7043E5FD30E504FF
:102DCE007F0180027F00EF703590E0F9E0FFEFC4E5
:102DDE0013135403FFEF30E0047F0180027F009055
:102DEE00E0F9E0FEEEC41313135401FEEE30E004DE
:102DFE007E0180027E00EE4FFFEF7002C2C4D0074C
:0B2E0E00D006D0D0D082D083D0E032BC
:0320E30002304682
:10304600C0E0C0D075D000C00753FEFEE5FE30E0FC
:10305600047F0180027F00EF703AE5FE30E1047FD5
:103066000180027F00EF702CE5FE30E2047F0180D4
:10307600027F00EF701EE5FE30E3047F0180027FD1
:1030860000EF7010E59330E7047F0180027F00EFC8
:0B3096007002C2C5D007D0D0D0E032DD
:0320EB000230A11F
:1030A100C0E0C0D075D000C00753FEFCE5FE30E0A3
:1030B100047F0180027F00EF703AE5FE30E1047F7A
:1030C1000180027F00EF702CE5FE30E2047F018079
:1030D100027F00EF701EE5FE30E3047F0180027F76
:1030E10000EF7010E59330E7047F0180027F00EF6D
:0B30F1007002C2C5D007D0D0D0E03282
:0320F3000230FCBC
:1030FC00C0E0C0D075D000C00753FEF8E5FE30E04C
:10310C00047F0180027F00EF703AE5FE30E1047F1E
:10311C000180027F00EF702CE5FE30E2047F01801D
:10312C00027F00EF701EE5FE30E3047F0180027F1A
:10313C0000EF7010E59330E7047F0180027F00EF11
:0B314C007002C2C5D007D0D0D0E03226
:0B356800309802C298309902C29922EC
:0320830002206ECA
:10206E00C0E0E59B30E003539BFEE59B30E103535C
:05207E009BFDD0E032E3
:032043000233A2C3
:1033A200C0E0C083C082C0D075D000C00790E05B8F
:1033B200E0FFEF30E00D90E05BE0FFEF54FEFFEF47
:1033C200F0C2C090E072E0F516A3E0F517D007D086
:0833D200D0D082D083D0E0329C
:0C355B000A210102030405060708090A02
:1031F9008F3390E08EE0FFEFC413135403FFEF20E9
:10320900E0F090E08F7453F090E091E533F090E0B6
:1032190092E4F0AF37AE36AD35AC3490E09312326C
:10322900A390E08E740BF090E08EE0FFEFC413548E
:0C32390007FFEF30E0F190E08EE4F0229F
:103245008F1E90E08EE0FFEFC413135403FFEF20B1
:10325500E0F090E08F7455F090E091E51EF090E07D
:1032650092E4F090E08E7407F090E08EE0FFEFC4FA
:10327500540FFFEF30E0F290E08EE4F090E093E041
:0B328500FCA3E0FDA3E0FEA3E0FF229D
:102026008E388F39E53925E0FFE53833FE8F828E0D
:0D20360083E0F53AA3E0F53BAE3AAF3B2264
:103473008F2E8E2D8D2C8C2BAF2EAE2DAD2CAC2BF9
:103483008F328E318D308C2F8532E98531EA85304C
:0D349300EB852FEC75EF00E58730E6FB229E
:0D354E0085E93F85EA3E85EB3D85EC3C229A
:0F208E007F017E007D007C0012347312354E22DC
:032023000221AEE9
:032013000221386F
:0320530002212146
:032063000220F662
:03206B0002214F00
:1020F600C0D0C0E0E5FD20E30D20E41120E515D0B9
:10210600E0D0D00220C3D0E0D0D00220CBD0E0D0A7
:10211600D00220D3D0E0D0D00220DBC0D0C0E0E592
:10212600FA20E307D0E0D0D00220ABD0E0D0D00236
:1021360020A3C0D0C0E0E5F920E407D0E0D0D0026B
:1021460020B3D0E0D0D00220BBC0D0C0E0E59320C1
:10215600E727E5FE20E00D20E11120E215D0E0D0D2
:10216600D002208BD0E0D0D00220E3D0E0D0D00245
:1021760020EBD0E0D0D00220F375D000C000C00123
:10218600740033747C3353937FC2C5D2998046C89A
:10219600C443968010E40353967FC8759380F594E4
:0821A60031FAF595889321EF51
:1021AE00C0D0C0E0309814E599C298F51FB4A55E72
:1021BE00D29975D000C000C001801074FF75D00098
:1021CE00C000C00178FF8600B8FF2974F73099FD72
:1021DE00C299F599D0017805D0E05124D8FAE95189
:1021EE002431FAC0E031FAC0E031FAF83098FDE55A
:1021FE0099C29822E58124FCF9800C0819E667083B
:10220E00097004E66760C4B8FEF1D001D000D0E0DA
:10221E00D0D0439310323099FDC299F59922C0E087
:10222E0031FAC0E031FAC0E031FAF931FAC0E0C05B
:10223E000078FFE67002C299411A8882F58321EF79
:10224E008881F5F021EFF58021EFF5B021EFE581E2
:10225E00C083C082C08EC0F0C0E0C0E021DBE58943
:10226E00C088C087C086C085C084C08021DBE59051
:10227E00C08FC08EC08DC08CC08BC08A21DBE5970D
:10228E00C096C095C094C093C092C09121DBE59ECC
:10229E00C09DC09CC09BC09AC099C09821DBE5A58B
:1022AE00C0A4C0A3C0A2C0A1C0A0C09F21DBE5AC4A
:1022BE00C0ABC0AAC0A9C0A8C0A7C0A621DBE5B309
:0422CE00C0B2C0B129
:1022D200C0B0C0AFC0AEC0AD21DBE5BAC0B9C0B8B6
:1022E200C0B7C0B6C0B5C0B421DBE5C1C0C0C0BF75
:1022F200C0BEC0BDC0BCC0BB21DBE5C8C0C7C0C634
:10230200C0C5C0C4C0C3C0C221DBE5CFC0CEC0CDF2
:10231200C0CCC0CBC0CAC0C921DBE5D7C0D6C0D5AE
:10232200C0D4C0D3C0D2C0D121DBE5DEC0DDC0DC69
:10233200C0DBC0DAC0D9C0D821DBE5E6C0E5C0E425
:10234200C0E3C0E2C0E1C0DF21DBE5EDC0ECC0EBE1
:10235200C0EAC0E9C0E8C0E721DBE5F5C0F4C0F39C
:10236200C0F2C0F1C0EFC0EE21DBE5FCC0FBC0FA59
:10237200C0F9C0F8C0F7C0F621DBE5FFC0FEC0FD22
:10238200C0E0C0E0C0E0C0E021DBBFA7005025EF05
:10239200640AA2ACC2AC7009740DC299F599309965
:1023A200FDEFC299F5993099FD500778FFE670026A
:1023B200C29992AC2230AC0CE51F64A560F774A5FB
:1023C200C51FFF223098FDE599B4A5051223F180BF
:1023D200E4FFC2982230AC07E51FB4A510C322C3A4
:0F23E20030980BE599B4A5051223F180E8D322BA
:0B23F10078FF76FF751FA5D2AC22001C
:102C28000231AAE493A3F8E493A34003F68001F2E7
:102C380008DFF48029E493A3F85407240CC8C333AD
:102C4800C4540F4420C8834004F456800146F6DF7C
:102C5800E4800B010204081020408090355BE47E7C
:102C6800019360BCA3FF543F30E509541FFEE49371
:102C7800A360010ECF54C025E060A840B8E493A338
:102C8800FAE493A3F8E493A3C8C582C8CAC583CA63
:102C9800F0A3C8C582C8CAC583CADFE9DEE780BE1B
:013567000063
:10329000E8600FEFC333FFEE33FEED33FDEC33FC9C
:0332A000D8F12240
:0C32A300ECF0A3EDF0A3EEF0A3EFF0229E
:1032AF00E86019541F44208FE98EEA8DEB8CECF502
:0D32BF00EF1232CCAFE9AEEAADEBACEC2281
:1023FC00C582F931FAC5832271FCC0E0E0A35124F7
:10240C00D8FA8982D08321EF71FCC0E0E493A35108
:10241C0024D8F980EDF9E7095124D8FA21EF71FCA1
:0A242C00C0E0E8F080DCF621EF00CC
:0C32CC00000000000000000000000022D4
:00000001FF
