:03200000022B347C
:0F2B3400787FE4F6D8FD75A00075813F022B7EF7
:103236001231AF12307012339812261112277FD234
:10324600AF90E05AE0FFEFC413135403FFEF20E002
:10325600F085161485171520ACE73098E4E59964D7
:0D326600A56004C29880DA1223F180D52201
:1033BB0090E08D7402F090E0BFE0FFEF54F3FFEF6D
:0F33CB004404FFEFF0D2A8D288C28953F9F02250
:1031AF00C2AF12345012341275A93075B920C2A9AA
:1031BF00C2BDD2ACD2AF000000C290D29020AC10F2
:1031CF0030980DE59964A56004C29880031223F12D
:1031DF00E59330E4E4800280E0000000D2A9D2BD84
:0631EF00000000D2AF2237
:0A3450007593017594FF7595FF2236
:0D33F80075B10575C90575D90575F105227A
:0D34050075B10F75C90F75D90F75F10F2244
:102E1D0090E08BE4F090E0ECE0FFEF4408FFEFF082
:102E2D0090E0ECE0FFEF4403FFEFF090E05C7408FE
:102E3D00F090E07AE0FFEF4404FFEFF090E07AE0ED
:102E4D00FFEF4401FFEFF090E09DE0FFEF54FDFF39
:102E5D00EFF090E05DE0FFEF54F7FFEFF090E05AF8
:102E6D00E0FFEF4420FFEFF090E05AE0FFEF440168
:102E7D00FFEFF090E064E4F0A3E4F0D2B8C2C0221A
:1024360090E0E07455F090E0E1E0FFEF540FFFEF1D
:102446004450FF90E0E1EFF090E000741EF090E061
:10245600037402F090E0027480F090E0197402F0C8
:1024660090E0187480F090E02F7402F090E02E74E3
:1024760080F090E0457402F090E0447480F090E0C3
:1024860007E4F090E01DE4F090E033E4F090E049DA
:10249600E4F090E0097460F090E008E4F090E01F4A
:1024A6007460F090E01EE4F090E0357460F090E027
:1024B60034E4F090E04B7460F090E04AE4F090E091
:1024C6000BE4F090E00AE4F090E021E4F090E020E4
:1024D600E4F090E037E4F090E036E4F090E04DE48C
:1024E600F090E04CE4F090E00C740BF090E0227475
:1024F6000BF090E038740BF090E04E740BF090E027
:102506000E7432F090E00DE4F090E0247432F09016
:10251600E023E4F090E03A7432F090E039E4F09091
:10252600E0507432F090E04FE4F090E0107432F036
:0F25360090E00FE4F090E0267432F090E025E49E
:10254500F090E03C7432F090E03BE4F090E052749F
:1025550032F090E051E4F090E011E4F090E027E4EF
:10256500F090E03DE4F090E053E4F090E012E4F008
:1025750090E028E4F090E03EE4F090E054E4F09040
:10258500E0157409F090E014740CF090E02BE4F081
:1025950090E02AE4F090E041E4F090E040E4F0902F
:1025A500E057E4F090E056E4F090E0177405F09001
:1025B500E0167405F090E02DE4F090E02CE4F09046
:1025C500E043E4F090E059E4F075A1D075A20775F9
:1025D500C1D075C20775D1D075D20775E1D075E246
:1025E5000775A3E875A40375C3E875C40375D3E837
:1025F50075D40375E3E875E40390E000E0FFEF446C
:0C26050001FFEFF075B601D2CDD2B92272
:10277F0090E0E1E0FFEF54F3FFEF4408FFEFF0903C
:10278F00E0DAE0FFEF54FCFFEF4402FFEFF090E0E0
:10279F00DBE0FFEF543FFFEF4480FFEFF090E0DB13
:1027AF00E0FFEF54CFFFEF4420FFEFF090E0A4E005
:1027BF00FFEF54FCFFEF4401FFEFF090E0A4E0FFC8
:1027CF00EF54F3FFEF4404FFEFF090E0A4E0FFEFCE
:1027DF0054CFFFEF4410FFEFF090E0A4E0FFEF5471
:1027EF00BFFFEFF090E0C6E0FFEF54FEFFEFF09079
:1027FF00E0C6E0FFEF54FDFFEFF090E0C6E0FFEF23
:10280F0054FBFFEFF090E0C6E0FFEF54F7FFEFF05F
:10281F0090E0EBE0FFEF4401FFEFF090E0EBE0FF23
:10282F00EF4402FFEFF090E0EBE0FFEF4404FFEF27
:0C283F00F090E0EBE0FFEF4408FFEFF04A
:10284B0090E0C7E0FFEF54FEFFEFF090E0C7E0FF32
:10285B00EF54FDFFEFF090E0C7E0FFEF54FBFFEF0D
:10286B00F090E0C7E0FFEF54F7FFEFF090E0EBE004
:10287B00FFEF4410FFEFF0D2BBD2AAC28BC2C32230
:1033DA007586FFD2AED2BE90E0DBE0FFEF54FCFF71
:0E33EA00EFF090E0DCE0FFEF54FEFFEFF0228A
:1026110090E0D5E4F090E0D4E4F090E0D6E4F090DE
:10262100E0D874FFF090E0D7E4F090E0D9E4F090C6
:10263100E0DBE4F090E0DAE4F090E0DCE4F090E05C
:10264100DE74FFF090E0DDE4F090E0DFE4F090E094
:10265100E1E4F090E0E0E4F090E0E2E4F090E0E426
:1026610074FFF090E0E3E4F090E0E5E4F090E0D571
:10267100E0FFEF54FCFFEFF090E0D6E0FFEF440104
:10268100FFEFF090E0D8E0FFEF54FEFFEFF090E0B5
:10269100D7E0FFEF54FEFFEFF090E0E1E0FFEF54F1
:1026A100FCFFEF4401FFEFF090E0E2E0FFEF54FEAA
:1026B100FFEFF090E0E4E0FFEF4401FFEFF090E086
:1026C100E5E0FFEF54FEFFEFF090E0E3E0FFEF54B1
:1026D100FEFFEFF090E0DAE0FFEF54F3FFEF440884
:1026E100FFEFF090E0DCE0FFEF54DFFFEFF090E070
:0126F100DE0A
:1026F200E0FFEF4420FFEFF090E0DFE0FFEF54DF78
:10270200FFEFF090E0DDE0FFEF54DFFFEFF090E04D
:10271200D4E0FFEF54FCFFEFF090E0D6E0FFEF448F
:1027220010FFEFF090E0D8E0FFEF4410FFEFF090E1
:10273200E0D9E0FFEF54EFFFEFF090E0D7E0FFEFDA
:1027420054EFFFEFF090E0E0E0FFEF54CFFFEFF047
:1027520090E0E2E0FFEF4440FFEFF090E0E4E0FFC2
:10276200EF54BFFFEFF090E0E5E0FFEF54BFFFEF63
:0D277200F090E0E3E0FFEF54BFFFEFF02236
:1033980090E0EF7403F090E0EEE4F0758910758A20
:1033A80000758CFC758B00758D00D2A9D2ABD28CC0
:0333B800D28E2290
:1030700090E0C9E4F090E0CCE4F0A374C0F090E0FC
:10308000C8E0FFEF54FDFFEFF090E0C8E0FFEF4431
:1030900008FFEFF090E0C8E0FFEF4420FFEFF09072
:1030A000E0C8E0FFEF4404FFEFF090E0C8E0FFEF7E
:1030B000547FFFEFF090E0C8E0FFEF54BFFFEFF068
:0530C000C28BD2AA2220
:1033170090E0CFE4F090E0D274E0F0A374C0F090B6
:10332700E0CEE0FFEF4420FFEFF090E0CEE0FFEFCC
:0D3337004404FFEFF053FEF0D2BDC2C522EA
:1032AB0090E0F4E4F090E0F77410F0A374C0F090A9
:1032BB00E0F3E0FFEF4420FFEFF090E0F3E0FFEFEF
:1032CB004404FFEFF090E0F3E0FFEF547FFFEFF0EB
:0732DB00D2CED2BAC2C2221A
:1032E20090E0FAE4F090E0FD7410F0A374C0F09066
:1032F200E0F9E0FFEF4420FFEFF090E0F9E0FFEFAC
:103302004404FFEFF090E0F9E0FFEF547FFFEFF0AD
:05331200D2BCC2C42280
:1030C50090E0B2742EF00000000000000000000047
:1030D50000000000000000000000000000000000EB
:1030E5000000000000000090E0E77402F090E0E6C8
:1030F500E4F00000000000000000000000000000F7
:1031050000000000000000000000000000000000BA
:0331150000002295
:0D34120075985075D88075AAF375BA03221D
:0A345A00759B90759DE675BB03227B
:0320030002297A35
:10297A00C0E0C0D075D000C007E5F930E0047F019F
:10298A0080027F00EFB4010353F9FEE5F930E10458
:10299A007F0180027F00EFB40105B2A653F9FCE57E
:1029AA00F930E2047F0180027F00EFB4010353F99A
:1029BA00F8E5F930E3047F0180027F00EFB40103F8
:1029CA0053F9F0E5F930E0047F0180027F00EF70EF
:1029DA002CE5F930E1047F0180027F00EF701EE5EB
:1029EA00F930E2047F0180027F00EF7010E5F930D0
:1029FA00E3047F0180027F00EF7002C289D007D012
:042A0A00D0D0E03216
:03200B000233712C
:10337100C0E0C083C082C0D075D000C007C28DB28A
:103381008490E05AE0FFEF4420FFEFF0D007D0D067
:07339100D082D083D0E032AE
:03201B000220069A
:03200600C28F3254
:0320BB0002288B6D
:10288B00C0E0C083C082C0D075D000C000C001C002
:10289B0002C003C004C005C006C00790E0C8E0FF3B
:1028AB00EFC41313135401FFEF30E00D051C90E040
:1028BB00C8E0FFEF547FFFEFF090E0C8E0FFEFC4FC
:1028CB0013135403FFEF30E06F90E0C8E0FFEF54B9
:1028DB00BFFFEFF020951A90E0CCE0FEA3E0FFE401
:1028EB00FCFD8F0F8E0E8D0D8C0C751C00C2A680FF
:1028FB0047D2A6AF1C7E00EF7810C333CE33CED8B1
:10290B00F9FFAB07AA06EA3395E0F9F890E0CCE0C3
:10291B00FEA3E0FFE4FCFDEB2FFFEA3EFEE93DFDED
:10292B00E83CFCC3EF950FF51BEE950EF51AED95F4
:10293B000DF519EC950CF518E5F930E4047F0180E1
:10294B00027F00EF7010E5F930E5047F0180027F14
:10295B0000EF7002C28BD007D006D005D004D00395
:0F296B00D002D001D000D0D0D082D083D0E032C3
:03208B00022E8D95
:102E8D00C0E0C083C082C0D075D000C00790E0CE36
:102E9D00E0FFEF547FFFEFF053FEF0B2A6E5FE30FA
:102EAD00E0047F0180027F00EF703AE5FE30E1041F
:102EBD007F0180027F00EF702CE5FE30E2047F0180
:102ECD0080027F00EF701EE5FE30E3047F0180027B
:102EDD007F00EF7010E59330E7047F0180027F00E3
:102EED00EF7002C2C5D007D0D0D082D083D0E032EF
:0320AB00022D34CF
:102D3400C0E0C083C082C0D075D000C006C0079078
:102D4400E0F3E0FFEF547FFFEFF090E0F3E0FFEFFC
:102D540054BFFFEFF0B2A690E0F3E0FFEFC413130B
:102D64005403FFEF30E0047F0180027F0090E0F322
:102D7400E0FEEEC41313135401FEEE30E0047E01B2
:102D840080027E00EE4FFFEF7010E5FA30E3047F1F
:102D94000180027F00EF7002C2C2D007D006D0D0FB
:072DA400D082D083D0E032A1
:0320C300022A0EE0
:102A0E00C0E0C083C082C0D075D000C006C00790A1
:102A1E00E0F9E0FFEF547FFFEFF090E0F9E0FFEF19
:102A2E0054BFFFEFF0E5FD30E3047F0180027F002D
:102A3E00EF7051E5FD30E4047F0180027F00EF70FE
:102A4E0043E5FD30E5047F0180027F00EF70359095
:102A5E00E0F9E0FFEFC413135403FFEF30E0047FFF
:102A6E000180027F0090E0F9E0FEEEC413131354D0
:102A7E0001FEEE30E0047E0180027E00EE4FFFEF9D
:102A8E007002C2C4B2A6D007D006D0D0D082D083F6
:032A9E00D0E03253
:03204B00022DABB8
:102DAB00C0E0C0D075D000C007E5FA30E0047F0169
:102DBB0080027F00EFB4010353FAFEE5FA30E10421
:102DCB007F0180027F00EFB4010353FAFCE5FA3078
:102DDB00E2047F0180027F00EFB4010353FAF8E5B0
:102DEB00FA30E0047F0180027F00EF701EE5FA30BD
:102DFB00E1047F0180027F00EF7010E5FA30E204FE
:102E0B007F0180027F00EF7002C2C1D007D0D0D00B
:022E1B00E032A3
:0320A300022EFD0D
:102EFD00C0E0C083C082C0D075D000C006C00753EB
:102F0D00FAF090E0F3E0FFEFC413135403FFEF303A
:102F1D00E0047F0180027F0090E0F3E0FEEEC41339
:102F2D0013135401FEEE30E0047E0180027E00EEAC
:102F3D004FFFEF7010E5FA30E3047F0180027F0050
:102F4D00EF7002C2C2D007D006D0D0D082D083D0CD
:022F5D00E03260
:0320B3000231F502
:1031F500C0E0C083C082C0D075D000C00790E0C7D2
:10320500E0FFEF54FEFFEFF0E5F930E4047F0180C5
:10321500027F00EF7010E5F930E5047F0180027F41
:1032250000EF7002C28BD007D0D0D082D083D0E01F
:013235003266
:03205B00022AA1B5
:102AA100C0E0C083C082C0D075D000C00790E0C72D
:102AB100E0FFEFC313FFEF30E00B90E0C7E0FFEF63
:102AC10054FDFFEFF090E0C7E0FFEF1313543FFF19
:102AD100EF30E00B90E0C7E0FFEF54FBFFEFF09029
:102AE100E0C7E0FFEF131313541FFFEF30E00B902B
:102AF100E0C7E0FFEF54F7FFEFF090E0C7E0FFEF32
:102B0100C313FFEF20E02190E0C7E0FFEF13135460
:102B11003FFFEF20E01290E0C7E0FFEF13131354E3
:102B21001FFFEF20E002C2C3D007D0D0D082D083F4
:032B3100D0E032BF
:0320CB00022BC322
:102BC300C0E0C083C082C0D075D000C006C007E596
:102BD300FD30E3047F0180027F00EF7051E5FD309B
:102BE300E4047F0180027F00EF7043E5FD30E504DC
:102BF3007F0180027F00EF703590E0F9E0FFEFC4C2
:102C030013135403FFEF30E0047F0180027F009031
:102C1300E0F9E0FEEEC41313135401FEEE30E004BA
:102C23007E0180027E00EE4FFFEF7002C2C4D00728
:0B2C3300D006D0D0D082D083D0E03299
:0320D300022C3E9E
:102C3E00C0E0C083C082C0D075D000C006C007E51A
:102C4E00FD30E3047F0180027F00EF7051E5FD301F
:102C5E00E4047F0180027F00EF7043E5FD30E50460
:102C6E007F0180027F00EF703590E0F9E0FFEFC446
:102C7E0013135403FFEF30E0047F0180027F0090B6
:102C8E00E0F9E0FEEEC41313135401FEEE30E0043F
:102C9E007E0180027E00EE4FFFEF7002C2C4D007AD
:0B2CAE00D006D0D0D082D083D0E0321E
:0320DB00022CB91B
:102CB900C0E0C083C082C0D075D000C006C007E59F
:102CC900FD30E3047F0180027F00EF7051E5FD30A4
:102CD900E4047F0180027F00EF7043E5FD30E504E5
:102CE9007F0180027F00EF703590E0F9E0FFEFC4CB
:102CF90013135403FFEF30E0047F0180027F00903B
:102D0900E0F9E0FEEEC41313135401FEEE30E004C3
:102D19007E0180027E00EE4FFFEF7002C2C4D00731
:0B2D2900D006D0D0D082D083D0E032A2
:0320E300022F5F6A
:102F5F00C0E0C0D075D000C00753FEFEE5FE30E0E4
:102F6F00047F0180027F00EF703AE5FE30E1047FBD
:102F7F000180027F00EF702CE5FE30E2047F0180BC
:102F8F00027F00EF701EE5FE30E3047F0180027FB9
:102F9F0000EF7010E59330E7047F0180027F00EFB0
:0B2FAF007002C2C5D007D0D0D0E032C5
:0320EB00022FBA07
:102FBA00C0E0C0D075D000C00753FEFCE5FE30E08B
:102FCA00047F0180027F00EF703AE5FE30E1047F62
:102FDA000180027F00EF702CE5FE30E2047F018061
:102FEA00027F00EF701EE5FE30E3047F0180027F5E
:102FFA0000EF7010E59330E7047F0180027F00EF55
:0B300A007002C2C5D007D0D0D0E03269
:0320F300023015A3
:10301500C0E0C0D075D000C00753FEF8E5FE30E033
:10302500047F0180027F00EF703AE5FE30E1047F06
:103035000180027F00EF702CE5FE30E2047F018005
:10304500027F00EF701EE5FE30E3047F0180027F02
:1030550000EF7010E59330E7047F0180027F00EFF9
:0B3065007002C2C5D007D0D0D0E0320E
:0B344500309802C298309902C2992210
:0320830002206ECA
:10206E00C0E0E59B30E003539BFEE59B30E103535C
:05207E009BFDD0E032E3
:03204300023273F3
:10327300C0E0C083C082C0D075D000C00790E05BBF
:10328300E0FFEF30E00D90E05BE0FFEF54FEFFEF77
:10329300F0C2C090E072E0F516A3E0F517D007D0B6
:0832A300D0D082D083D0E032CC
:0C342C000A210102030405060708090A32
:103118008F3390E08EE0FFEFC413135403FFEF20CA
:10312800E0F090E08F7453F090E091E533F090E098
:1031380092E4F0AF37AE36AD35AC3490E09312344C
:103148003990E08E740BF090E08EE0FFEFC41354DA
:0C31580007FFEF30E0F190E08EE4F02281
:103164008F1D90E08EE0FFEFC413135403FFEF2094
:10317400E0F090E08F7455F090E091E51DF090E060
:1031840092E4F090E08E7407F090E08EE0FFEFC4DC
:10319400540FFFEF30E0F290E08EE4F090E093E023
:0B31A400FCA3E0FDA3E0FEA3E0FF227F
:102026008E388F39E53925E0FFE53833FE8F828E0D
:0D20360083E0F53AA3E0F53BAE3AAF3B2264
:103344008F2E8E2D8D2C8C2BAF2EAE2DAD2CAC2B29
:103354008F328E318D308C2F8532E98531EA85307C
:0D336400EB852FEC75EF00E58730E6FB22CE
:0D341F0085E93F85EA3E85EB3D85EC3C22CA
:0F208E007F017E007D007C0012334412341F223C
:032023000221AEE9
:032013000221386F
:0320530002212146
:032063000220F662
:03206B0002214F00
:1020F600C0D0C0E0E5FD20E30D20E41120E515D0B9
:10210600E0D0D00220C3D0E0D0D00220CBD0E0D0A7
:10211600D00220D3D0E0D0D00220DBC0D0C0E0E592
:10212600FA20E307D0E0D0D00220ABD0E0D0D00236
:1021360020A3C0D0C0E0E5F920E407D0E0D0D0026B
:1021460020B3D0E0D0D00220BBC0D0C0E0E59320C1
:10215600E727E5FE20E00D20E11120E215D0E0D0D2
:10216600D002208BD0E0D0D00220E3D0E0D0D00245
:1021760020EBD0E0D0D00220F375D000C000C00123
:10218600740033747C3353937FC2C5D2998046C89A
:10219600C443968010E40353967FC8759380F594E4
:0821A60031FAF595889321EF51
:1021AE00C0D0C0E0309814E599C298F51EB4A55E73
:1021BE00D29975D000C000C001801074FF75D00098
:1021CE00C000C00178FF8600B8FF2974F73099FD72
:1021DE00C299F599D0017805D0E05124D8FAE95189
:1021EE002431FAC0E031FAC0E031FAF83098FDE55A
:1021FE0099C29822E58124FCF9800C0819E667083B
:10220E00097004E66760C4B8FEF1D001D000D0E0DA
:10221E00D0D0439310323099FDC299F59922C0E087
:10222E0031FAC0E031FAC0E031FAF931FAC0E0C05B
:10223E000078FFE67002C299411A8882F58321EF79
:10224E008881F5F021EFF58021EFF5B021EFE581E2
:10225E00C083C082C08EC0F0C0E0C0E021DBE58943
:10226E00C088C087C086C085C084C08021DBE59051
:10227E00C08FC08EC08DC08CC08BC08A21DBE5970D
:10228E00C096C095C094C093C092C09121DBE59ECC
:10229E00C09DC09CC09BC09AC099C09821DBE5A58B
:1022AE00C0A4C0A3C0A2C0A1C0A0C09F21DBE5AC4A
:1022BE00C0ABC0AAC0A9C0A8C0A7C0A621DBE5B309
:0422CE00C0B2C0B129
:1022D200C0B0C0AFC0AEC0AD21DBE5BAC0B9C0B8B6
:1022E200C0B7C0B6C0B5C0B421DBE5C1C0C0C0BF75
:1022F200C0BEC0BDC0BCC0BB21DBE5C8C0C7C0C634
:10230200C0C5C0C4C0C3C0C221DBE5CFC0CEC0CDF2
:10231200C0CCC0CBC0CAC0C921DBE5D7C0D6C0D5AE
:10232200C0D4C0D3C0D2C0D121DBE5DEC0DDC0DC69
:10233200C0DBC0DAC0D9C0D821DBE5E6C0E5C0E425
:10234200C0E3C0E2C0E1C0DF21DBE5EDC0ECC0EBE1
:10235200C0EAC0E9C0E8C0E721DBE5F5C0F4C0F39C
:10236200C0F2C0F1C0EFC0EE21DBE5FCC0FBC0FA59
:10237200C0F9C0F8C0F7C0F621DBE5FFC0FEC0FD22
:10238200C0E0C0E0C0E0C0E021DBBFA7005025EF05
:10239200640AA2ACC2AC7009740DC299F599309965
:1023A200FDEFC299F5993099FD500778FFE670026A
:1023B200C29992AC2230AC0CE51E64A560F774A5FC
:1023C200C51EFF223098FDE599B4A5051223F180C0
:1023D200E4FFC2982230AC07E51EB4A510C322C3A5
:0F23E20030980BE599B4A5051223F180E8D322BA
:0B23F10078FF76FF751EA5D2AC22001D
:102B4300023236E493A3F8E493A34003F68001F240
:102B530008DFF48029E493A3F85407240CC8C33393
:102B6300C4540F4420C8834004F456800146F6DF62
:102B7300E4800B010204081020408090342CE47E92
:102B8300019360BCA3FF543F30E509541FFEE49357
:102B9300A360010ECF54C025E060A840B8E493A31E
:102BA300FAE493A3F8E493A3C8C582C8CAC583CA49
:102BB300F0A3C8C582C8CAC583CADFE9DEE780BE01
:013438000093
:0C343900ECF0A3EDF0A3EEF0A3EFF02206
:1023FC00C582F931FAC5832271FCC0E0E0A35124F7
:10240C00D8FA8982D08321EF71FCC0E0E493A35108
:10241C0024D8F980EDF9E7095124D8FA21EF71FCA1
:0A242C00C0E0E8F080DCF621EF00CC
:00000001FF
