:032000000231B2F8
:0F31B200787FE4F6D8FD75A0007581470231FCE7
:10357D001238A3123429123A921238E9122BAA12D8
:10358D0020F6D2AF753D24753C03753B00753A00AE
:10359D00AF3DAE3CAD3BAC3A78051236028F3D8E59
:1035AD003C8D3B8C3AAF39AE38AD37AC36780B121B
:1035BD00361D8F3590E07B7488F090E07C74FFF0C1
:1035CD0020ACC13098BEE59964A56004C29880B462
:0635DD00122B6580AF22F5
:103AB50090E08D7402F090E0BFE0FFEF54F3FFEF6C
:0F3AC5004404FFEFF0D2A8D288C28953F9F0224F
:1038A300C2AF123B3E123B0C75A93075B920C2A9B9
:1038B300C2BDD2ACD2AF000000C290D29020AC10F7
:1038C30030980DE59964A56004C2988003122B65B6
:1038D300E59330E4E4800280E0000000D2A9D2BD89
:0638E300000000D2AF223C
:0A3B3E007593017594FF7595FF2241
:0D3AF20075B10575C90575D90575F1052279
:0D3AFF0075B10F75C90F75D90F75F10F2244
:102F5B0090E08BE4F090E0ECE0FFEF4408FFEFF043
:102F6B0090E0ECE0FFEF4403FFEFF090E05C740FB8
:102F7B00F090E07AE0FFEF4404FFEFF090E07AE0AE
:102F8B00FFEF4401FFEFF090E0A4E0FFEF54FCFFF4
:102F9B00EF4402FFEFF090E0A4E0FFEF54F3FFEFFC
:102FAB004408FFEFF090E0A4E0FFEF54CFFFEF44B5
:102FBB0020FFEFF090E09DE0FFEF54FDFFEFF0906E
:102FCB00E05DE0FFEF54F7FFEFF090E05AE0FFEF2A
:102FDB004420FFEFF090E05AE0FFEF4401FFEFF0E9
:0D2FEB0090E064E4F0A3E4F0D2B8C2C0228C
:1020F60090E0E1E0FFEF54CFFFEF4410FFEFF090E8
:10210600E0E1E0FFEF543FFFEF4440FFEFF090E0E7
:10211600E0E0FFEF54FCFFEF4401FFEFF090E0E05A
:10212600E0FFEF54F3FFEF4404FFEFF090E0E0E050
:10213600FFEF54CFFFEF4410FFEFF090E0E0E0FF39
:10214600EF543FFFEF4440FFEFF075A20175A190F9
:1021560075C20175C19075D20175D19075E2017590
:10216600E19090E000E0FFEF4402FFEFF090E00026
:10217600E0FFEF4404FFEFF090E000E0FFEF4408DB
:10218600FFEFF090E000E0FFEF4410FFEFF090E08B
:1021960000E0FFEF54FEFFEFF090E003E0FFEF54A6
:1021A600FCFFEF4402FFEFF090E019E0FFEF54FC74
:1021B600FFEF4402FFEFF090E02FE0FFEF54FCFF4B
:0A21C600EF4402FFEFF090E045E067
:1021D000FFEF54FCFFEF4402FFEFF090E003E0FF5D
:1021E000EF54F7FFEFF090E002E0FFEF543FFFEF16
:1021F0004480FFEFF090E018E0FFEF543FFFEF4422
:1022000080FFEFF090E02EE0FFEF543FFFEF4480BF
:10221000FFEFF090E044E0FFEF543FFFEF4480FF1A
:10222000EFF090E007E0FFEF54EFFFEFF090E007F2
:10223000E0FFEF54DFFFEFF090E007E0FFEF54FC2A
:10224000FFEFF090E007E0FFEF54F3FFEFF090E0D6
:102250001DE0FFEF54EFFFEFF090E01DE0FFEF54C3
:10226000DFFFEFF090E01DE0FFEF54FCFFEFF09098
:10227000E01DE0FFEF54F3FFEFF090E033E0FFEFFD
:1022800054EFFFEFF090E033E0FFEF54DFFFEFF0AB
:0E22900090E033E0FFEF54FCFFEFF090E033FE
:10229E00E0FFEF54F3FFEFF090E049E0FFEF54EF73
:1022AE00FFEFF090E049E0FFEF54DFFFEFF090E03A
:1022BE0049E0FFEF54FCFFEFF090E049E0FFEF54F0
:1022CE00F3FFEFF090E009E0FFEF543FFFEF4440E3
:1022DE00FFEFF090E009E0FFEF54CFFFEF4420FF57
:1022EE00EFF090E008E0FFEF54F3FFEFF090E0081E
:1022FE00E0FFEF54FCFFEFF090E009E0FFEF54F346
:10230E00FFEFF090E009E0FFEF54FCFFEFF090E0FC
:10231E001FE0FFEF543FFFEF4440FFEFF090E01F50
:10232E00E0FFEF54CFFFEF4420FFEFF090E01EE010
:10233E00FFEF54F3FFEFF090E01EE0FFEF54FCFFD1
:10234E00EFF090E01FE0FFEF54F3FFEFF090E01F8F
:0D235E00E0FFEF54FCFFEFF090E035E0FFF2
:10236B00EF543FFFEF4440FFEFF090E035E0FFEF1D
:10237B0054CFFFEF4420FFEFF090E034E0FFEF5439
:10238B00F3FFEFF090E034E0FFEF54FCFFEFF09041
:10239B00E035E0FFEF54F3FFEFF090E035E0FFEFB7
:1023AB0054FCFFEFF090E04BE0FFEF543FFFEF44A6
:1023BB0040FFEFF090E04BE0FFEF54CFFFEF4420F6
:1023CB00FFEFF090E04AE0FFEF54F3FFEFF090E007
:1023DB004AE0FFEF54FCFFEFF090E04BE0FFEF54CF
:1023EB00F3FFEFF090E04BE0FFEF54FCFFEFF090CA
:1023FB00E00CE0FFEF4403FFEFF090E00CE0FFEFA9
:10240B0054F3FFEF4408FFEFF090E00CE0FFEF54C4
:10241B00CFFFEFF090E022E0FFEF4403FFEFF090EF
:0D242B00E022E0FFEF54F3FFEF4408FFEF65
:10243800F090E022E0FFEF54CFFFEFF090E038E0BB
:10244800FFEF4403FFEFF090E038E0FFEF54F3FFB5
:10245800EF4408FFEFF090E038E0FFEF54CFFFEFD4
:10246800F090E04EE0FFEF4403FFEFF090E04EE025
:10247800FFEF54F3FFEF4408FFEFF090E04EE0FF6A
:10248800EF54CFFFEFF090E00DE4F0A37432F0903A
:10249800E023E4F0A37432F090E039E4F0A374325E
:1024A800F090E04FE4F0A37432F090E00FE4F0A372
:1024B8007432F090E025E4F0A37432F090E03BE44D
:1024C800F0A37432F090E051E4F0A37432F090E09D
:1024D80011E0FFEF4401FFEFF090E011E0FFEF544F
:1024E800FDFFEFF090E027E0FFEF4401FFEFF090F1
:1024F800E027E0FFEF54FDFFEFF090E03DE0FFEF55
:042508004401FFEF9C
:10250C00F090E03DE0FFEF54FDFFEFF090E053E082
:10251C00FFEF4401FFEFF090E053E0FFEF54FDFFBD
:10252C00EFF090E012E0FFEF54FCFFEFF090E012C0
:10253C00E0FFEF54F3FFEFF090E028E0FFEF54FCE6
:10254C00FFEFF090E028E0FFEF54F3FFEFF090E0A6
:10255C003EE0FFEF54FCFFEFF090E03EE0FFEF5465
:10256C00F3FFEFF090E054E0FFEF54FCFFEFF0903E
:10257C00E054E0FFEF54F3FFEFF090E015E0FFEFD5
:10258C004408FFEFF090E015E0FFEF54F8FFEF4444
:10259C0001FFEFF090E014E0FFEF4408FFEFF09044
:1025AC00E014E0FFEF54F8FFEF4401FFEFF090E090
:1025BC0014E0FFEF547FFFEFF090E014E0FFEF54D6
:0E25CC008FFFEF4410FFEFF090E02BE0FFEFE9
:1025DA004408FFEFF090E02BE0FFEF54F8FFEF44E0
:1025EA0001FFEFF090E02AE0FFEF4408FFEFF090E0
:1025FA00E02AE0FFEF54F8FFEF4401FFEFF090E02C
:10260A002AE0FFEF547FFFEFF090E02AE0FFEF545B
:10261A008FFFEF4410FFEFF090E041E0FFEF440836
:10262A00FFEFF090E041E0FFEF54F8FFEF4401FFC5
:10263A00EFF090E040E0FFEF4408FFEFF090E04059
:10264A00E0FFEF54F8FFEF4401FFEFF090E040E0C5
:10265A00FFEF547FFFEFF090E040E0FFEF548FFF71
:10266A00EF4410FFEFF090E057E0FFEF4408FFEF70
:10267A00F090E057E0FFEF54F8FFEF4401FFEFF06E
:10268A0090E056E0FFEF4408FFEFF090E056E0FFDD
:0E269A00EF54F8FFEF4401FFEFF090E056E040
:1026A800FFEF547FFFEFF090E056E0FFEF548FFF0D
:1026B800EF4410FFEFF090E017E0FFEF54FCFFEF5E
:1026C8004401FFEFF090E017E0FFEF54F3FFEF4411
:1026D80004FFEFF090E016E0FFEF54FCFFEF440139
:1026E800FFEFF090E016E0FFEF54F3FFEF4404FF34
:1026F800EFF090E016E0FFEF54CFFFEFF090E01618
:10270800E0FFEF543FFFEFF090E02DE0FFEF54FCC7
:10271800FFEF4401FFEFF090E02DE0FFEF54F3FFEF
:10272800EF4404FFEFF090E02CE0FFEF54FCFFEFE4
:102738004401FFEFF090E02CE0FFEF54F3FFEF448B
:1027480004FFEFF090E02CE0FFEF54CFFFEFF090A4
:10275800E02CE0FFEF543FFFEFF090E043E0FFEFA5
:0D27680054FCFFEF4401FFEFF090E043E070
:10277500FFEF54F3FFEF4404FFEFF090E042E0FF7A
:10278500EF54FCFFEF4401FFEFF090E042E0FFEF74
:1027950054F3FFEF4404FFEFF090E042E0FFEF5405
:1027A500CFFFEFF090E042E0FFEF543FFFEFF090F6
:1027B500E059E0FFEF54FCFFEF4401FFEFF090E03C
:1027C50059E0FFEF54F3FFEF4404FFEFF090E058BA
:1027D500E0FFEF54FCFFEF4401FFEFF090E058E01D
:1027E500FFEF54F3FFEF4404FFEFF090E058E0FFF4
:1027F500EF54CFFFEFF090E058E0FFEF543FFFEFCD
:10280500F075A20775A1D075C20775C1D075D2073D
:1028150075D1D075E20775E1D075A40175A3E8758A
:10282500C40175C3E875D40175D3E875E40175E392
:10283500E875A60175A59075C60175C59075D60193
:1028450075D59075E60175E59090E000E0FFEF44E1
:1028550001FFEFF043B60143CE0143DE0143F6012C
:05286500D2CDD2B92222
:102E4F0090E0E1E0FFEF54F3FFEF4408FFEFF09065
:102E5F00E0DAE0FFEF54FCFFEF4402FFEFF090E009
:102E6F00DBE0FFEF543FFFEF4480FFEFF090E0DB3C
:102E7F00E0FFEF54CFFFEF4420FFEFF090E0A4E02E
:102E8F00FFEF54FCFFEF4401FFEFF090E0A4E0FFF1
:102E9F00EF54F3FFEF4404FFEFF090E0A4E0FFEFF7
:102EAF0054CFFFEF4410FFEFF090E0A4E0FFEF549A
:102EBF00BFFFEFF090E0C6E0FFEF54FEFFEFF090A2
:102ECF00E0C6E0FFEF54FDFFEFF090E0C6E0FFEF4C
:102EDF0054FBFFEFF090E0C6E0FFEF54F7FFEFF089
:102EEF0090E0EBE0FFEF4401FFEFF090E0EBE0FF4D
:102EFF00EF4402FFEFF090E0EBE0FFEF4404FFEF51
:0C2F0F00F090E0EBE0FFEF4408FFEFF073
:102F1B0090E0C7E0FFEF54FEFFEFF090E0C7E0FF5B
:102F2B00EF54FDFFEFF090E0C7E0FFEF54FBFFEF36
:102F3B00F090E0C7E0FFEF54F7FFEFF090E0EBE02D
:102F4B00FFEF4410FFEFF0D2BBD2AAC28BC2C32259
:103AD4007586FFD2AED2BE90E0DBE0FFEF54FCFF70
:0E3AE400EFF090E0DCE0FFEF54FEFFEFF02289
:102BAA0090E0D5E4F090E0D4E4F090E0D6E4F09040
:102BBA00E0D874FFF090E0D7E4F090E0D9E4F09028
:102BCA00E0DBE4F090E0DAE4F090E0DCE4F090E0BE
:102BDA00DE74FFF090E0DDE4F090E0DFE4F090E0F6
:102BEA00E1E4F090E0E0E4F090E0E2E4F090E0E488
:102BFA0074FFF090E0E3E4F090E0E5E4F090E0D5D3
:102C0A00E0FFEF54FCFFEFF090E0D6E0FFEF440165
:102C1A00FFEFF090E0D8E0FFEF54FEFFEFF090E016
:102C2A00D7E0FFEF54FEFFEFF090E0E1E0FFEF5452
:102C3A00FCFFEF4401FFEFF090E0E2E0FFEF54FE0B
:102C4A00FFEFF090E0E4E0FFEF4401FFEFF090E0E7
:102C5A00E5E0FFEF54FEFFEFF090E0E3E0FFEF5412
:102C6A00FEFFEFF090E0DAE0FFEF54F3FFEF4408E5
:102C7A00FFEFF090E0DCE0FFEF54DFFFEFF090E0D1
:012C8A00DE6B
:102C8B00E0FFEF4420FFEFF090E0DFE0FFEF54DFD9
:102C9B00FFEFF090E0DDE0FFEF54DFFFEFF090E0AF
:102CAB00D4E0FFEF54FCFFEFF090E0D6E0FFEF44F1
:102CBB0010FFEFF090E0D8E0FFEF4410FFEFF09043
:102CCB00E0D9E0FFEF54EFFFEFF090E0D7E0FFEF3C
:102CDB0054EFFFEFF090E0E0E0FFEF54CFFFEFF0A9
:102CEB0090E0E2E0FFEF4440FFEFF090E0E4E0FF24
:102CFB00EF54BFFFEFF090E0E5E0FFEF54BFFFEFC5
:0D2D0B00F090E0E3E0FFEF54BFFFEFF02297
:103A920090E0EF7405F090E0EEE4F0758910758A1D
:103AA20000758CFE758B00758D00D2A9D2ABD28CBD
:033AB200D28E228F
:1034290090E0C9E4F090E0CCE4F0A3E4F090E0CAC5
:10343900E4F0A3E4F090E0C8E0FFEF54FDFFEFF003
:1034490090E0C8E0FFEF4401FFEFF090E0C8E0FF33
:10345900EF4408FFEFF090E08AE0FFEF54FEFFEF42
:10346900F090E0C8E0FFEF4420FFEFF090E0C8E003
:10347900FFEF4404FFEFF090E0C8E0FFEF547FFF57
:10348900EFF090E0C8E0FFEF54BFFFEFF0C28BD23E
:02349900AA2265
:103A110090E0CFE4F090E0D274E0F0A374C0F090B5
:103A2100E0CEE0FFEF4420FFEFF090E0CEE0FFEFCB
:0D3A31004404FFEFF053FEF0D2BDC2C522E9
:1039A50090E0F4E4F090E0F77410F0A374C0F090A8
:1039B500E0F3E0FFEF4420FFEFF090E0F3E0FFEFEE
:1039C5004404FFEFF090E0F3E0FFEF547FFFEFF0EA
:0739D500D2CED2BAC2C22219
:1039DC0090E0FAE4F090E0FD7410F0A374C0F09065
:1039EC00E0F9E0FFEF4420FFEFF090E0F9E0FFEFAB
:1039FC004404FFEFF090E0F9E0FFEF547FFFEFF0AD
:053A0C00D2BCC2C4227F
:1037B90090E0B2742EF0000000000000000000004C
:1037C90000000000000000000000000000000000F0
:1037D9000000000000000090E0E77402F090E0E6CD
:1037E900E4F00000000000000000000000000000FC
:1037F90000000000000000000000000000000000C0
:033809000000229A
:0D3B0C0075985075D88075AAF375BA03221C
:0A3B4800759B90759DE675BB032286
:1038E90090E07AE0FFEF54FBFFEFF090E07AE0FF21
:1038F900EF54FEFFEFF090E07AE0FFEF54F7FFEFAF
:10390900F090E07AE0FFEF54FDFFEFF090E089E0FE
:10391900FFEF54FEFFEFF090E089E0FFEF54FDFF69
:03392900EFF0229A
:03200300022FF8B1
:102FF800C0E0C0D075D000C007E5F930E0047F011B
:1030080080027F00EFB4010353F9FEE5F930E104D3
:103018007F0180027F00EFB40105B2A653F9FCE5F9
:10302800F930E2047F0180027F00EFB4010353F915
:10303800F8E5F930E3047F0180027F00EFB4010373
:1030480053F9F0E5F930E0047F0180027F00EF706A
:103058002CE5F930E1047F0180027F00EF701EE566
:10306800F930E2047F0180027F00EF7010E5F9304B
:10307800E3047F0180027F00EF7002C289D007D08D
:04308800D0D0E03292
:03200B00023A6B2B
:103A6B00C0E0C083C082C0D075D000C007C28DB289
:103A7B008490E05AE0FFEF4420FFEFF0D007D0D066
:073A8B00D082D083D0E032AD
:03201B000220069A
:03200600C28F3254
:0320BB00022D18DB
:102D1800C0E0C083C082C0D075D000C000C004C06D
:102D280005C006C00790E0C8E0FFEFC413131354B2
:102D380001FFEF30E00D053E90E0C8E0FFEF547F63
:102D4800FFEFF090E0C8E0FFEFC413135403FFEF68
:102D580020E003022E0B90E0CCE0FEA3E0FFE4FCB1
:102D6800FD8F308E2F8D2E8C2D90E08AE0FFEF3076
:102D7800E02090E08AE0FFEF54FEFFEFF0AF30AEC6
:102D88002FAD2EAC2D8F2C8E2B8D2A8C29753E00C5
:102D98008066E53E701BC3E530952CF539E52F9527
:102DA8002BF538E52E952AF537E52D9529F536804A
:102DB8003CAF3EE4FCFDFE78101235E38F398E38C7
:102DC8008D378C36E5392530FFE538352FFEE53768
:102DD800352EFDE536352DFCC3EF952CF539EE95EE
:102DE8002BF538ED952AF537EC9529F53690E08ADC
:102DF800E0FFEF4401FFEFF090E0C8E0FFEF54BFC1
:102E0800FFEFF090E0C8E0FFEFC41313135401FF85
:102E1800EF20E02090E0C8E0FFEFC413135403FF55
:102E2800EF20E010E5F930E5047F0180027F00EF34
:102E38007002C28BD007D006D005D004D000D0D005
:072E4800D082D083D0E032FC
:03208B0002350D0E
:10350D00C0E0C083C082C0D075D000C00790E0CEAF
:10351D00E0FFEF547FFFEFF053FEF0B2A6E5FE3073
:10352D00E0047F0180027F00EF703AE5FE30E10498
:10353D007F0180027F00EF702CE5FE30E2047F01F9
:10354D0080027F00EF701EE5FE30E3047F018002F4
:10355D007F00EF7010E59330E7047F0180027F005C
:10356D00EF7002C2C5D007D0D0D082D083D0E03268
:0320AB000233B24B
:1033B200C0E0C083C082C0D075D000C006C00790F4
:1033C200E0F3E0FFEF547FFFEFF090E0F3E0FFEF78
:1033D20054BFFFEFF0B2A690E0F3E0FFEFC4131387
:1033E2005403FFEF30E0047F0180027F0090E0F39E
:1033F200E0FEEEC41313135401FEEE30E0047E012E
:1034020080027E00EE4FFFEF7010E5FA30E3047F9A
:103412000180027F00EF7002C2C2D007D006D0D076
:07342200D082D083D0E0321C
:0320C30002308C5C
:10308C00C0E0C083C082C0D075D000C006C007901D
:10309C00E0F9E0FFEF547FFFEFF090E0F9E0FFEF95
:1030AC0054BFFFEFF0E5FD30E3047F0180027F00A9
:1030BC00EF7051E5FD30E4047F0180027F00EF707A
:1030CC0043E5FD30E5047F0180027F00EF70359011
:1030DC00E0F9E0FFEFC413135403FFEF30E0047F7B
:1030EC000180027F0090E0F9E0FEEEC4131313544C
:1030FC0001FEEE30E0047E0180027E00EE4FFFEF19
:10310C007002C2C4B2A6D007D006D0D0D082D08371
:03311C00D0E032CE
:03204B0002349BC1
:10349B00C0E0C0D075D000C007E5B530E0047F01B7
:1034AB0080027F00EFB4010343B601E5CD30E004A9
:1034BB007F0180027F00EFB4010343CE01E5DD30D5
:1034CB00E0047F0180027F00EFB4010343DE01E5DE
:1034DB00B530E0047F0180027F00EF701EE5CD3038
:1034EB00E0047F0180027F00EF7010E5DD30E00427
:1034FB007F0180027F00EF7002C2C1D007D0D0D015
:02350B00E032AC
:0320A300023646BC
:10364600C0E0C083C082C0D075D000C006C00743AA
:10365600F60190E0F3E0FFEFC413135403FFEF30DD
:10366600E0047F0180027F0090E0F3E0FEEEC413E9
:1036760013135401FEEE30E0047E0180027E00EE5C
:103686004FFFEF7010E5F530E0047F0180027F0008
:10369600EF7002C2C2D007D006D0D0D082D083D07D
:0236A600E03210
:0320B30002392CC3
:10392C00C0E0C083C082C0D075D000C00790E0C793
:10393C00E0FFEF54FEFFEFF0E5F930E4047F018087
:10394C00027F00EF7010E5F930E5047F0180027F03
:10395C0000EF7002C28BD007D0D0D082D083D0E0E1
:01396C003228
:03205B0002311F30
:10311F00C0E0C083C082C0D075D000C00790E0C7A8
:10312F00E0FFEFC313FFEF30E00B90E0C7E0FFEFDE
:10313F0054FDFFEFF090E0C7E0FFEF1313543FFF94
:10314F00EF30E00B90E0C7E0FFEF54FBFFEFF090A4
:10315F00E0C7E0FFEF131313541FFFEF30E00B90A6
:10316F00E0C7E0FFEF54F7FFEFF090E0C7E0FFEFAD
:10317F00C313FFEF20E02190E0C7E0FFEF131354DC
:10318F003FFFEF20E01290E0C7E0FFEF131313545F
:10319F001FFFEF20E002C2C3D007D0D0D082D08370
:0331AF00D0E0323B
:0320CB000232419D
:10324100C0E0C083C082C0D075D000C006C007E511
:10325100FD30E3047F0180027F00EF7051E5FD3016
:10326100E4047F0180027F00EF7043E5FD30E50457
:103271007F0180027F00EF703590E0F9E0FFEFC43D
:1032810013135403FFEF30E0047F0180027F0090AD
:10329100E0F9E0FEEEC41313135401FEEE30E00436
:1032A1007E0180027E00EE4FFFEF7002C2C4D007A4
:0B32B100D006D0D0D082D083D0E03215
:0320D3000232BC1A
:1032BC00C0E0C083C082C0D075D000C006C007E596
:1032CC00FD30E3047F0180027F00EF7051E5FD309B
:1032DC00E4047F0180027F00EF7043E5FD30E504DC
:1032EC007F0180027F00EF703590E0F9E0FFEFC4C2
:1032FC0013135403FFEF30E0047F0180027F009032
:10330C00E0F9E0FEEEC41313135401FEEE30E004BA
:10331C007E0180027E00EE4FFFEF7002C2C4D00728
:0B332C00D006D0D0D082D083D0E03299
:0320DB0002333796
:10333700C0E0C083C082C0D075D000C006C007E51A
:10334700FD30E3047F0180027F00EF7051E5FD301F
:10335700E4047F0180027F00EF7043E5FD30E50460
:103367007F0180027F00EF703590E0F9E0FFEFC446
:1033770013135403FFEF30E0047F0180027F0090B6
:10338700E0F9E0FEEEC41313135401FEEE30E0043F
:103397007E0180027E00EE4FFFEF7002C2C4D007AD
:0B33A700D006D0D0D082D083D0E0321E
:0320E3000236A81A
:1036A800C0E0C0D075D000C00753FEFEE5FE30E094
:1036B800047F0180027F00EF703AE5FE30E1047F6D
:1036C8000180027F00EF702CE5FE30E2047F01806C
:1036D800027F00EF701EE5FE30E3047F0180027F69
:1036E80000EF7010E59330E7047F0180027F00EF60
:0B36F8007002C2C5D007D0D0D0E03275
:0320EB00023703B6
:10370300C0E0C0D075D000C00753FEFCE5FE30E03A
:10371300047F0180027F00EF703AE5FE30E1047F11
:103723000180027F00EF702CE5FE30E2047F018010
:10373300027F00EF701EE5FE30E3047F0180027F0D
:1037430000EF7010E59330E7047F0180027F00EF04
:0B3753007002C2C5D007D0D0D0E03219
:0320F30002375E53
:10375E00C0E0C0D075D000C00753FEF8E5FE30E0E3
:10376E00047F0180027F00EF703AE5FE30E1047FB6
:10377E000180027F00EF702CE5FE30E2047F0180B5
:10378E00027F00EF701EE5FE30E3047F0180027FB2
:10379E0000EF7010E59330E7047F0180027F00EFA9
:0B37AE007002C2C5D007D0D0D0E032BE
:0B3B3300309802C298309902C299221B
:0320830002206ECA
:10206E00C0E0E59B30E003539BFEE59B30E103535C
:05207E009BFDD0E032E3
:0320430002396DF2
:10396D00C0E0C083C082C0D075D000C00790E05BBE
:10397D00E0FFEF30E00D90E05BE0FFEF54FEFFEF76
:10398D00F0C2C090E072E0F533A3E0F534D007D07B
:08399D00D0D082D083D0E032CB
:0C3B26000A080102030405060708090A4A
:10380C008F1A90E08EE0FFEFC413135403FFEF20E8
:10381C00E0F090E08F7453F090E091E51AF090E0B6
:10382C0092E4F0AF1EAE1DAD1CAC1B90E0931235B4
:10383C00F690E08E740BF090E08EE0FFEFC4135422
:0C384C0007FFEF30E0F190E08EE4F02286
:103858008F1F90E08EE0FFEFC413135403FFEF2097
:10386800E0F090E08F7455F090E091E51FF090E063
:1038780092E4F090E08E7407F090E08EE0FFEFC4E1
:10388800540FFFEF30E0F290E08EE4F090E093E028
:0B389800FCA3E0FDA3E0FEA3E0FF2284
:102026008E3F8F40E54025E0FFE53F33FE8F828EF1
:0D20360083E0F541A3E0F542AE41AF422248
:103A3E008F158E148D138C12AF15AE14AD13AC12F0
:103A4E008F198E188D178C168519E98518EA85172A
:0D3A5E00EB8516EC75EF00E58730E6FB22E6
:0D3B190085E94685EA4585EB4485EC4322AD
:0F208E007F017E007D007C00123A3E123B19223A
:032023000229226D
:032013000228ACF4
:03205300022895CB
:0320630002286AE6
:03206B000228C385
:10286A00C0D0C0E0E5FD20E30D20E41120E515D03D
:10287A00E0D0D00220C3D0E0D0D00220CBD0E0D02C
:10288A00D00220D3D0E0D0D00220DBC0D0C0E0E517
:10289A00FA20E307D0E0D0D00220ABD0E0D0D002BB
:1028AA0020A3C0D0C0E0E5F920E407D0E0D0D002F0
:1028BA0020B3D0E0D0D00220BBC0D0C0E0E5932046
:1028CA00E727E5FE20E00D20E11120E215D0E0D057
:1028DA00D002208BD0E0D0D00220E3D0E0D0D002CA
:1028EA0020EBD0E0D0D00220F375D000C000C001A8
:1028FA00740033747C3353937FC2C5D2998046C81F
:10290A00C443968010E40353967FC8759380F59468
:08291A00316EF59588932163ED
:10292200C0D0C0E0309814E599C298F547B4A55ECE
:10293200D29975D000C000C001801074FF75D0001C
:10294200C000C00178FF8600B8FF2974F73099FDF6
:10295200C299F599D0017805D0E03198D8FAE931D9
:1029620098316EC0E0316EC0E0316EF83098FDE50E
:1029720099C29822E58124FCF9800C0819E66708BF
:10298200097004E66760C4B8FEF1D001D000D0E05F
:10299200D0D0439310323099FDC299F59922C0E00C
:1029A200316EC0E0316EC0E0316EF9316EC0E0C010
:1029B2000078FFE67002C299218E8882F583216336
:1029C2008881F5F02163F5802163F5B02163E5810B
:1029D200C083C082C08EC0F0C0E0C0E0214FE58954
:1029E200C088C087C086C085C084C080214FE59062
:1029F200C08FC08EC08DC08CC08BC08A214FE5971E
:102A0200C096C095C094C093C092C091214FE59EDC
:102A1200C09DC09CC09BC09AC099C098214FE5A59B
:102A2200C0A4C0A3C0A2C0A1C0A0C09F214FE5AC5A
:102A3200C0ABC0AAC0A9C0A8C0A7C0A6214FE5B319
:042A4200C0B2C0B1AD
:102A4600C0B0C0AFC0AEC0AD214FE5BAC0B9C0B8C6
:102A5600C0B7C0B6C0B5C0B4214FE5C1C0C0C0BF85
:102A6600C0BEC0BDC0BCC0BB214FE5C8C0C7C0C644
:102A7600C0C5C0C4C0C3C0C2214FE5CFC0CEC0CD03
:102A8600C0CCC0CBC0CAC0C9214FE5D7C0D6C0D5BF
:102A9600C0D4C0D3C0D2C0D1214FE5DEC0DDC0DC7A
:102AA600C0DBC0DAC0D9C0D8214FE5E6C0E5C0E436
:102AB600C0E3C0E2C0E1C0DF214FE5EDC0ECC0EBF2
:102AC600C0EAC0E9C0E8C0E7214FE5F5C0F4C0F3AD
:102AD600C0F2C0F1C0EFC0EE214FE5FCC0FBC0FA6A
:102AE600C0F9C0F8C0F7C0F6214FE5FFC0FEC0FD33
:102AF600C0E0C0E0C0E0C0E0214FBFA7005025EF16
:102B0600640AA2ACC2AC7009740DC299F5993099E9
:102B1600FDEFC299F5993099FD500778FFE67002EE
:102B2600C29992AC2230AC0CE54764A560F774A557
:102B3600C547FF223098FDE599B4A505122B65809F
:102B4600E4FFC2982230AC07E547B4A510C322C300
:0F2B560030980BE599B4A505122B6580E8D322C2
:0B2B650078FF76FF7547A5D2AC220078
:1031C10002357DE493A3F8E493A34003F68001F272
:1031D10008DFF48029E493A3F85407240CC8C3330F
:1031E100C4540F4420C8834004F456800146F6DFDE
:1031F100E4800B0102040810204080903B26E47E0D
:10320100019360BCA3FF543F30E509541FFEE493D2
:10321100A360010ECF54C025E060A840B8E493A399
:10322100FAE493A3F8E493A3C8C582C8CAC583CAC4
:10323100F0A3C8C582C8CAC583CADFE9DEE780BE7C
:013B32000092
:1035E300E8600FEFC333FFEE33FEED33FDEC33FC46
:0335F300D8F122EA
:0C35F600ECF0A3EDF0A3EEF0A3EFF02248
:10360200E860178FE98EEA8DEB8CEC541FF5EF1210
:0B361200363AAFE9AEEAADEBACEC22BB
:10361D00E86019541F44208FE98EEA8DEB8CECF590
:0D362D00EF12363AAFE9AEEAADEBACEC229D
:102B7000C582F9316EC583227170C0E0E0A331983F
:102B8000D8FA8982D08321637170C0E0E493A331C5
:102B900098D8F980EDF9E7093198D8FA2163717076
:0A2BA000C0E0E8F080DCF6216300DD
:0C363A0000000000000000000000002262
:00000001FF
