:0320000002272193
:0F272100787FE4F6D8FD75A00075812702276B3D
:102AC70012297B1229FA122634D2AF90E05AE0FF7E
:102AD700EFC413135403FFEF20E0F020ACED309860
:102AE700EAE59964A56004C29880E012241480DBAB
:012AF70022BC
:102BCB0090E08D7402F090E0BFE0FFEF54F3FFEF65
:0F2BDB004404FFEFF0D2A8D288C28953F9F02248
:10297B00C2AF122C54122C2275A93075B920C2A9E2
:10298B00C2BDD2ACD2AF000000C290D29020AC102E
:10299B0030980DE59964A56004C298800312241445
:1029AB00E59330E4E4800280E0000000D2A9D2BDC0
:0629BB00000000D2AF2273
:0A2C54007593017594FF7595FF223A
:0D2C080075B10575C90575D90575F1052271
:0D2C150075B10F75C90F75D90F75F10F223C
:1027B00090E08BE4F090E0ECE0FFEF4408FFEFF0F6
:1027C00090E0ECE0FFEF4403FFEFF090E05CE4F01A
:1027D000A37408F090E07AE0FFEF4404FFEFF0907C
:1027E000E07AE0FFEF4401FFEFF090E09DE0FFEFC3
:1027F00054FDFFEFF090E05DE0FFEF4408FFEFF0E5
:1028000090E05DE0FFEF4410FFEFF090E05DE0FF4F
:10281000EF4420FFEFF090E05AE0FFEF4401FFEFBC
:10282000F090E05AE0FFEF4420FFEFF090E0647496
:0C283000FCF090E065E4F0D2B8C2C022D9
:1024590090E0E07455F090E0E1E0FFEF540FFFEFFA
:102469004450FF90E0E1EFF090E000741EF090E03E
:10247900037402F090E0027480F090E0197402F0A5
:1024890090E0187480F090E02F7402F090E02E74C0
:1024990080F090E0457402F090E0447480F090E0A0
:1024A90007E4F090E01DE4F090E033E4F090E049B7
:1024B900E4F090E0097460F090E008E4F090E01F27
:1024C9007460F090E01EE4F090E0357460F090E004
:1024D90034E4F090E04B7460F090E04AE4F090E06E
:1024E9000BE4F090E00AE4F090E021E4F090E020C1
:1024F900E4F090E037E4F090E036E4F090E04DE469
:10250900F090E04CE4F090E00C740BF090E0227451
:102519000BF090E038740BF090E04E740BF090E003
:102529000E7432F090E00DE4F090E0247432F090F3
:10253900E023E4F090E03A7432F090E039E4F0906E
:10254900E0507432F090E04FE4F090E0107432F013
:0F25590090E00FE4F090E0267432F090E025E47B
:10256800F090E03C7432F090E03BE4F090E052747C
:1025780032F090E051E4F090E011E4F090E027E4CC
:10258800F090E03DE4F090E053E4F090E012E4F0E5
:1025980090E028E4F090E03EE4F090E054E4F0901D
:1025A800E0157409F090E014740CF090E02BE4F05E
:1025B80090E02AE4F090E041E4F090E040E4F0900C
:1025C800E057E4F090E056E4F090E0177405F090DE
:1025D800E0167405F090E02DE4F090E02CE4F09023
:1025E800E043E4F090E059E4F075A1D075A20775D6
:1025F800C1D075C20775D1D075D20775E1D075E223
:102608000775A3E875A40375C3E875C40375D3E813
:1026180075D40375E3E875E40390E000E0FFEF4448
:0C26280001FFEFF075B601D2CDD2B9224F
:1029C10090E0DBE0FFEF540FFFEF44A0FF90E0DB6E
:1029D100EFF090E0DAE0FFEF54F0FFEF440AFF90F0
:1029E100E0DAEFF090E0A574F0F090E0C674AAF0A0
:0929F10090E0EB743EF0D2BB2231
:102BEA007586FFD2AED2BE90E0DBE0FFEF54FCFF69
:0E2BFA00EFF090E0DCE0FFEF54FEFFEFF02282
:1026340090E0D5E4F090E0D4E4F090E0D6E4F090BB
:10264400E0D874FFF090E0D7E4F090E0D9E4F090A3
:10265400E0DBE4F090E0DAE4F090E0DCE4F090E039
:10266400DE74FFF090E0DDE4F090E0DFE4F090E071
:10267400E1E4F090E0E0E4F090E0E2E4F090E0E403
:1026840074FFF090E0E3E4F090E0E5E4F090E0D54E
:10269400E0FFEF54FCFFEFF090E0D6E0FFEF4401E1
:1026A400FFEFF090E0D8E0FFEF54FEFFEFF090E092
:1026B400D7E0FFEF54FEFFEFF090E0E0E0FFEF54CF
:1026C400CFFFEFF090E0E2E0FFEF4440FFEFF09047
:1026D400E0E4E0FFEF54BFFFEFF090E0E3E0FFEF52
:1026E40054BFFFEFF090E0E1E0FFEF54FCFFEF4454
:1026F40001FFEFF090E0E2E0FFEF54FEFFEFF09017
:10270400E0E4E0FFEF4401FFEFF090E0E5E0FFEFED
:0D27140054FEFFEFF090E0E1E0FF8F272280
:102BA80090E0EE7402F0A37440F0E58954F0FFEF72
:102BB8004403F589758A00758C00D2A9D2ABD28CF2
:032BC800D28E2288
:102B550090E0C9E4F090E0CCE4F0A374C0F090E01C
:102B6500C8E0FFEF4420FFEFF090E0C8E0FFEF443E
:0A2B750004FFEFF053F9E0D2AA22AA
:102B7F0090E0CFE4F090E0D274E0F0A374C0F09056
:102B8F00E0CEE0FFEF4420FFEFF090E0CEE0FFEF6C
:092B9F004404FFEFF053FEF022A4
:1029FA0090E0F4E4F090E0F77410F0A374C0F09063
:102A0A00E0F3E0FFEF4420FFEFF090E0F3E0FFEFA8
:102A1A004404FFEFF090E0F3E0FFEF547FFFEFF0A4
:052A2A00D2BAC2C22275
:1028980090E0B2742EF0000000000000000000007C
:1028A8000000000000000000000000000000000020
:1028B8000000000000000090E0E77402F090E0E6FD
:1028C800E4F000000000000000000000000000002C
:1028D80000000000000000000000000000000000F0
:0328E800000022CB
:0D2C220075985075D88075AAF375BA032215
:0A2C5E00759B90759DE675BB03227F
:0320030002283C74
:10283C00C0E0C0D075D000C007E5F930E0047F01DE
:10284C0080027F00EFB4010353F9FEE5F930E10497
:10285C007F0180027F00EFB40105B2A653F9FCE5BD
:10286C00F930E2047F0180027F00EFB4010353F9D9
:10287C00F8E5F930E3047F0180027F00EFB4010337
:0C288C0053F9F0C289D007D0D0D0E03260
:03200B00022006AA
:05200600C28DB2A632FC
:03201B0002200E92
:03200E00C28F324C
:0320BB00022A2FC7
:102A2F00C0E0C083C082C0D075D000C00753F9E0AA
:102A3F0090E0C8E0FFEF547FFFEFF090E0C8E0FFB9
:102A4F00EF54BFFFEFF0C28BD007D0D0D082D0832E
:032A5F00D0E03292
:03208B00022A62C4
:102A6200C0E0C083C082C0D075D000C00790E0CE65
:102A7200E0FFEF547FFFEFF090E0CEE0FFEF54BFB6
:102A8200FFEFF053FEF0C2C5D007D0D0D082D08382
:032A9200D0E0325F
:0320AB00022A9571
:102A9500C0E0C083C082C0D075D000C00790E0F30D
:102AA500E0FFEF547FFFEFF090E0F3E0FFEF54BF5E
:102AB500FFEFF0C2C2B2A6D007D0D0D082D083D06B
:022AC500E032FD
:0320C300022AF8F6
:102AF800C0E0C083C082C0D075D000C00790E0F9A4
:102B0800E0FFEF547FFFEFF090E0F9E0FFEF54BFF4
:102B1800FFEFF0C2C4D007D0D0D082D083D0E0324B
:03204B000228EB7D
:1028EB00C0E0C0D075D000C007E5FA30E0047F012E
:1028FB0080027F00EFB4010353FAFEE5FA30E104E6
:10290B007F0180027F00EFB4010353FAFCE5FA303C
:10291B00E2047F0180027F00EFB4010353FAF8C297
:08292B00C1D007D0D0D0E0328A
:0320A30002209D7B
:06209D0053FAF0C2C2324A
:0320B300022C6894
:062C680053F9C0C28B32DB
:03205B0002293324
:10293300C0E0C0D075D000C007E5FD30E0047F01E2
:1029430080027F00EFB4010353FDFEE5FD30E10497
:102953007F0180027F00EFB4010353FDFCE5FD30EE
:10296300E2047F0180027F00EFB4010353FDF8C24C
:08297300C3D007D0D0D0E03240
:0320CB00022C6E76
:062C6E0053FDF0C2C43268
:0320D300022C7468
:062C740053FDE0C2C43272
:0320DB00022C7A5A
:062C7A0053FDC0C2C4328C
:0320E300022C804C
:062C800053FEFEC2C53246
:0320EB00022C863E
:062C860053FEFCC2C53242
:0320F300022C8C30
:062C8C0053FEF8C2C53240
:0B2C4900309802C298309902C2992214
:0320830002206ECA
:10206E00C0E0E59B30E003539BFEE59B30E103535C
:05207E009BFDD0E032E3
:0320430002201662
:03201600C2C03213
:0C2C3C000A080102030405060708090A43
:102026008E1A8F1BE51B25E0FFE51A33FE8F828E85
:0D20360083E0F51CA3E0F51DAE1CAF1D22DC
:102B28008F158E148D138C12AF15AE14AD13AC1215
:102B38008F198E188D178C168519E98518EA85174F
:0D2B4800EB8516EC75EF00E58730E6FB220B
:0D2C2F0085E92485EA2385EB2285EC21222E
:0F208E007F017E007D007C00122B28122C2F2258
:032023000221D1C6
:0320130002215B4C
:0320530002212146
:032063000220F662
:03206B00022172DD
:1020F600C0D0C0E0E5FD20E30D20E41120E515D0B9
:10210600E0D0D00220C3D0E0D0D00220CBD0E0D0A7
:10211600D00220D3D0E0D0D00220DBC0E0C083C004
:1021260082C0D075D000C006C00790E0F3E0FEA3E1
:10213600E020E71220E60FD007D006D0D0D082D01C
:1021460083D0E00220A3D007D006D0D0D082D0839F
:10215600D0E00220ABC0D0C0E0E5F920E407D0E033
:10216600D0D00220B3D0E0D0D00220BBC0D0C0E097
:10217600E59320E727E5FE20E00D20E11120E2159A
:10218600D0E0D0D002208BD0E0D0D00220E3D0E047
:10219600D0D00220EBD0E0D0D00220F375D000C022
:1021A60000C001740033747C3353937FC2C5D29947
:1021B6008046C8C443968010E40353967FC875933F
:0B21C60080F594511DF595889341129F
:1021D100C0D0C0E0309814E599C298F51EB4A55E50
:1021E100D29975D000C000C001801074FF75D00075
:1021F100C000C00178FF8600B8FF2974F73099FD4F
:10220100C299F599D0017805D0E05147D8FAE95142
:1022110047511DC0E0511DC0E0511DF83098FDE54A
:1022210099C29822E58124FCF9800C0819E6670817
:10223100097004E66760C4B8FEF1D001D000D0E0B7
:10224100D0D0439310323099FDC299F59922C0E064
:10225100511DC0E0511DC0E0511DF9511DC0E0C02C
:102261000078FFE67002C299413D8882F5834112F0
:102271008881F5F04112F5804112F5B04112E581F6
:10228100C083C082C08EC0F0C0E0C0E021FEE589FD
:10229100C088C087C086C085C084C08021FEE5900B
:1022A100C08FC08EC08DC08CC08BC08A21FEE597C7
:1022B100C096C095C094C093C092C09121FEE59E86
:1022C100C09DC09CC09BC09AC099C09821FEE5A545
:1022D100C0A4C0A3C0A2C0A1C0A0C09F21FEE5AC04
:1022E100C0ABC0AAC0A9C0A8C0A7C0A621FEE5B3C3
:0422F100C0B2C0B106
:1022F500C0B0C0AFC0AEC0AD21FEE5BAC0B9C0B870
:10230500C0B7C0B6C0B5C0B421FEE5C1C0C0C0BF2E
:10231500C0BEC0BDC0BCC0BB21FEE5C8C0C7C0C6ED
:10232500C0C5C0C4C0C3C0C221FEE5CFC0CEC0CDAC
:10233500C0CCC0CBC0CAC0C921FEE5D7C0D6C0D568
:10234500C0D4C0D3C0D2C0D121FEE5DEC0DDC0DC23
:10235500C0DBC0DAC0D9C0D821FEE5E6C0E5C0E4DF
:10236500C0E3C0E2C0E1C0DF21FEE5EDC0ECC0EB9B
:10237500C0EAC0E9C0E8C0E721FEE5F5C0F4C0F356
:10238500C0F2C0F1C0EFC0EE21FEE5FCC0FBC0FA13
:10239500C0F9C0F8C0F7C0F621FEE5FFC0FEC0FDDC
:1023A500C0E0C0E0C0E0C0E021FEBFA7005025EFBF
:1023B500640AA2ACC2AC7009740DC299F599309942
:1023C500FDEFC299F5993099FD500778FFE6700247
:1023D500C29992AC2230AC0CE51E64A560F774A5D9
:1023E500C51EFF223098FDE599B4A5051224148079
:1023F500E4FFC2982230AC07E51EB4A510C322C382
:0F24050030980BE599B4A50512241480E8D32272
:0B24140078FF76FF751EA5D2AC2200F9
:10273000022AC7E493A3F8E493A34003F68001F2CE
:1027400008DFF48029E493A3F85407240CC8C333AA
:10275000C4540F4420C8834004F456800146F6DF79
:10276000E4800B0102040810204080902C3CE47EA1
:10277000019360BCA3FF543F30E509541FFEE4936E
:10278000A360010ECF54C025E060A840B8E493A335
:10279000FAE493A3F8E493A3C8C582C8CAC583CA60
:1027A000F0A3C8C582C8CAC583CADFE9DEE780BE18
:012C4800008B
:10241F00C582F9511DC58322911FC0E0E0A351472A
:10242F00D8FA8982D0834112911FC0E0E493A3515F
:10243F0047D8F980EDF9E7095147D8FA4112911FB2
:0A244F00C0E0E8F080DCF641120066
:00000001FF
