:032000000235099D
:0F350900787FE4F6D8FD75A00075816C0235530C
:103C4500123B7B122D1ED2AF753099752F39752E0B
:103C550049752D00AF30AE2FAD2EAC2D1231C98F69
:103C65004B8E4A8D498C4820ACDE3098DBE5996453
:0D3C7500A56004C29880D1122B6580CC227E
:103D9D0090E08D7402F090E0BFE0FFEF54F3FFEF81
:0F3DAD004404FFEFF0D2A8D288C28953F9F02264
:103B7B00C2AF123DFF123DDA75A93075B920C2A94B
:103B8B00C2BDD2ACD2AF000000C290D29020AC101C
:103B9B0030980DE59964A56004C2988003122B65DB
:103BAB00E59330E4E4800280E0000000D2A9D2BDAE
:063BBB00000000D2AF2261
:0A3DFF007593017594FF7595FF227E
:0D206E0075B10575C90575D90575F1052217
:0D208E0075B10F75C90F75D90F75F10F22CF
:1032B20090E08BE4F090E0ECE0FFEF4408FFEFF0E9
:1032C20090E0ECE0FFEF4403FFEFF090E05C740F5E
:1032D200F090E07AE0FFEF4404FFEFF090E07AE054
:1032E200FFEF4401FFEFF090E0A4E0FFEF54FCFF9A
:1032F200EF4402FFEFF090E0A4E0FFEF54F3FFEFA2
:103302004408FFEFF090E0A4E0FFEF54CFFFEF445A
:1033120020FFEFF090E09DE0FFEF54FDFFEFF09013
:10332200E05DE0FFEF54F7FFEFF090E05AE0FFEFCF
:103332004420FFEFF090E05AE0FFEF4401FFEFF08E
:0D33420090E064E4F0A3E4F0D2B8C2C02231
:1020F60090E0E1E0FFEF54CFFFEF4410FFEFF090E8
:10210600E0E1E0FFEF543FFFEF4440FFEFF090E0E7
:10211600E0E0FFEF54FCFFEF4401FFEFF090E0E05A
:10212600E0FFEF54F3FFEF4404FFEFF090E0E0E050
:10213600FFEF54CFFFEF4410FFEFF090E0E0E0FF39
:10214600EF543FFFEF4440FFEFF075A20175A190F9
:1021560075C20175C19075D20175D19075E2017590
:10216600E19090E000E0FFEF4402FFEFF090E00026
:10217600E0FFEF4404FFEFF090E000E0FFEF4408DB
:10218600FFEFF090E000E0FFEF4410FFEFF090E08B
:1021960000E0FFEF54FEFFEFF090E003E0FFEF54A6
:1021A600FCFFEF4402FFEFF090E019E0FFEF54FC74
:1021B600FFEF4402FFEFF090E02FE0FFEF54FCFF4B
:0A21C600EF4402FFEFF090E045E067
:1021D000FFEF54FCFFEF4402FFEFF090E003E0FF5D
:1021E000EF54F7FFEFF090E002E0FFEF543FFFEF16
:1021F0004480FFEFF090E018E0FFEF543FFFEF4422
:1022000080FFEFF090E02EE0FFEF543FFFEF4480BF
:10221000FFEFF090E044E0FFEF543FFFEF4480FF1A
:10222000EFF090E007E0FFEF54EFFFEFF090E007F2
:10223000E0FFEF54DFFFEFF090E007E0FFEF54FC2A
:10224000FFEFF090E007E0FFEF54F3FFEFF090E0D6
:102250001DE0FFEF54EFFFEFF090E01DE0FFEF54C3
:10226000DFFFEFF090E01DE0FFEF54FCFFEFF09098
:10227000E01DE0FFEF54F3FFEFF090E033E0FFEFFD
:1022800054EFFFEFF090E033E0FFEF54DFFFEFF0AB
:0E22900090E033E0FFEF54FCFFEFF090E033FE
:10229E00E0FFEF54F3FFEFF090E049E0FFEF54EF73
:1022AE00FFEFF090E049E0FFEF54DFFFEFF090E03A
:1022BE0049E0FFEF54FCFFEFF090E049E0FFEF54F0
:1022CE00F3FFEFF090E009E0FFEF543FFFEF4440E3
:1022DE00FFEFF090E009E0FFEF54CFFFEF4420FF57
:1022EE00EFF090E008E0FFEF54F3FFEFF090E0081E
:1022FE00E0FFEF54FCFFEFF090E009E0FFEF54F346
:10230E00FFEFF090E009E0FFEF54FCFFEFF090E0FC
:10231E001FE0FFEF543FFFEF4440FFEFF090E01F50
:10232E00E0FFEF54CFFFEF4420FFEFF090E01EE010
:10233E00FFEF54F3FFEFF090E01EE0FFEF54FCFFD1
:10234E00EFF090E01FE0FFEF54F3FFEFF090E01F8F
:0D235E00E0FFEF54FCFFEFF090E035E0FFF2
:10236B00EF543FFFEF4440FFEFF090E035E0FFEF1D
:10237B0054CFFFEF4420FFEFF090E034E0FFEF5439
:10238B00F3FFEFF090E034E0FFEF54FCFFEFF09041
:10239B00E035E0FFEF54F3FFEFF090E035E0FFEFB7
:1023AB0054FCFFEFF090E04BE0FFEF543FFFEF44A6
:1023BB0040FFEFF090E04BE0FFEF54CFFFEF4420F6
:1023CB00FFEFF090E04AE0FFEF54F3FFEFF090E007
:1023DB004AE0FFEF54FCFFEFF090E04BE0FFEF54CF
:1023EB00F3FFEFF090E04BE0FFEF54FCFFEFF090CA
:1023FB00E00CE0FFEF4403FFEFF090E00CE0FFEFA9
:10240B0054F3FFEF4408FFEFF090E00CE0FFEF54C4
:10241B00CFFFEFF090E022E0FFEF4403FFEFF090EF
:0D242B00E022E0FFEF54F3FFEF4408FFEF65
:10243800F090E022E0FFEF54CFFFEFF090E038E0BB
:10244800FFEF4403FFEFF090E038E0FFEF54F3FFB5
:10245800EF4408FFEFF090E038E0FFEF54CFFFEFD4
:10246800F090E04EE0FFEF4403FFEFF090E04EE025
:10247800FFEF54F3FFEF4408FFEFF090E04EE0FF6A
:10248800EF54CFFFEFF090E00DE4F0A37432F0903A
:10249800E023E4F0A37432F090E039E4F0A374325E
:1024A800F090E04FE4F0A37432F090E00FE4F0A372
:1024B8007432F090E025E4F0A37432F090E03BE44D
:1024C800F0A37432F090E051E4F0A37432F090E09D
:1024D80011E0FFEF4401FFEFF090E011E0FFEF544F
:1024E800FDFFEFF090E027E0FFEF4401FFEFF090F1
:1024F800E027E0FFEF54FDFFEFF090E03DE0FFEF55
:042508004401FFEF9C
:10250C00F090E03DE0FFEF54FDFFEFF090E053E082
:10251C00FFEF4401FFEFF090E053E0FFEF54FDFFBD
:10252C00EFF090E012E0FFEF54FCFFEFF090E012C0
:10253C00E0FFEF54F3FFEFF090E028E0FFEF54FCE6
:10254C00FFEFF090E028E0FFEF54F3FFEFF090E0A6
:10255C003EE0FFEF54FCFFEFF090E03EE0FFEF5465
:10256C00F3FFEFF090E054E0FFEF54FCFFEFF0903E
:10257C00E054E0FFEF54F3FFEFF090E015E0FFEFD5
:10258C004408FFEFF090E015E0FFEF54F8FFEF4444
:10259C0001FFEFF090E014E0FFEF4408FFEFF09044
:1025AC00E014E0FFEF54F8FFEF4401FFEFF090E090
:1025BC0014E0FFEF547FFFEFF090E014E0FFEF54D6
:0E25CC008FFFEF4410FFEFF090E02BE0FFEFE9
:1025DA004408FFEFF090E02BE0FFEF54F8FFEF44E0
:1025EA0001FFEFF090E02AE0FFEF4408FFEFF090E0
:1025FA00E02AE0FFEF54F8FFEF4401FFEFF090E02C
:10260A002AE0FFEF547FFFEFF090E02AE0FFEF545B
:10261A008FFFEF4410FFEFF090E041E0FFEF440836
:10262A00FFEFF090E041E0FFEF54F8FFEF4401FFC5
:10263A00EFF090E040E0FFEF4408FFEFF090E04059
:10264A00E0FFEF54F8FFEF4401FFEFF090E040E0C5
:10265A00FFEF547FFFEFF090E040E0FFEF548FFF71
:10266A00EF4410FFEFF090E057E0FFEF4408FFEF70
:10267A00F090E057E0FFEF54F8FFEF4401FFEFF06E
:10268A0090E056E0FFEF4408FFEFF090E056E0FFDD
:0E269A00EF54F8FFEF4401FFEFF090E056E040
:1026A800FFEF547FFFEFF090E056E0FFEF548FFF0D
:1026B800EF4410FFEFF090E017E0FFEF54FCFFEF5E
:1026C8004401FFEFF090E017E0FFEF54F3FFEF4411
:1026D80004FFEFF090E016E0FFEF54FCFFEF440139
:1026E800FFEFF090E016E0FFEF54F3FFEF4404FF34
:1026F800EFF090E016E0FFEF54CFFFEFF090E01618
:10270800E0FFEF543FFFEFF090E02DE0FFEF54FCC7
:10271800FFEF4401FFEFF090E02DE0FFEF54F3FFEF
:10272800EF4404FFEFF090E02CE0FFEF54FCFFEFE4
:102738004401FFEFF090E02CE0FFEF54F3FFEF448B
:1027480004FFEFF090E02CE0FFEF54CFFFEFF090A4
:10275800E02CE0FFEF543FFFEFF090E043E0FFEFA5
:0D27680054FCFFEF4401FFEFF090E043E070
:10277500FFEF54F3FFEF4404FFEFF090E042E0FF7A
:10278500EF54FCFFEF4401FFEFF090E042E0FFEF74
:1027950054F3FFEF4404FFEFF090E042E0FFEF5405
:1027A500CFFFEFF090E042E0FFEF543FFFEFF090F6
:1027B500E059E0FFEF54FCFFEF4401FFEFF090E03C
:1027C50059E0FFEF54F3FFEF4404FFEFF090E058BA
:1027D500E0FFEF54FCFFEF4401FFEFF090E058E01D
:1027E500FFEF54F3FFEF4404FFEFF090E058E0FFF4
:1027F500EF54CFFFEFF090E058E0FFEF543FFFEFCD
:10280500F075A20775A1D075C20775C1D075D2073D
:1028150075D1D075E20775E1D075A40175A3E8758A
:10282500C40175C3E875D40175D3E875E40175E392
:10283500E875A60175A59075C60175C59075D60193
:1028450075D59075E60175E59090E000E0FFEF44E1
:1028550001FFEFF043B60143CE0143DE0143F6012C
:05286500D2CDD2B92222
:102FC30090E0E1E0FFEF54F3FFEF4408FFEFF090F0
:102FD300E0DAE0FFEF54FCFFEF4402FFEFF090E094
:102FE300DBE0FFEF543FFFEF4480FFEFF090E0DBC7
:102FF300E0FFEF54CFFFEF4420FFEFF090E0A4E0B9
:10300300FFEF54FCFFEF4401FFEFF090E0A4E0FF7B
:10301300EF54F3FFEF4404FFEFF090E0A4E0FFEF81
:1030230054CFFFEF4410FFEFF090E0A4E0FFEF5424
:10303300BFFFEFF090E0C6E0FFEF54FEFFEFF0902C
:10304300E0C6E0FFEF54FDFFEFF090E0C6E0FFEFD6
:1030530054FBFFEFF090E0C6E0FFEF54F7FFEFF013
:1030630090E0EBE0FFEF4401FFEFF090E0EBE0FFD7
:10307300EF4402FFEFF090E0EBE0FFEF4404FFEFDB
:0C308300F090E0EBE0FFEF4408FFEFF0FE
:10308F0090E0C7E0FFEF54FEFFEFF090E0C7E0FFE6
:10309F00EF54FDFFEFF090E0C7E0FFEF54FBFFEFC1
:1030AF00F090E0C7E0FFEF54F7FFEFF090E0EBE0B8
:1030BF00FFEF4410FFEFF0D2BBD2AAC28BC2C322E4
:103DBC007586FFD2AED2BE90E0DBE0FFEF54FCFF85
:0E3DCC00EFF090E0DCE0FFEF54FEFFEFF0229E
:102D1E0090E0D5E4F090E0D4E4F090E0D6E4F090CA
:102D2E00E0D874FFF090E0D7E4F090E0D9E4F090B2
:102D3E00E0DBE4F090E0DAE4F090E0DCE4F090E048
:102D4E00DE74FFF090E0DDE4F090E0DFE4F090E080
:102D5E00E1E4F090E0E0E4F090E0E2E4F090E0E412
:102D6E0074FFF090E0E3E4F090E0E5E4F090E0D55D
:102D7E00E0FFEF54FCFFEFF090E0D6E0FFEF4401F0
:102D8E00FFEFF090E0D8E0FFEF54FEFFEFF090E0A1
:102D9E00D7E0FFEF54FEFFEFF090E0E1E0FFEF54DD
:102DAE00FCFFEF4401FFEFF090E0E2E0FFEF54FE96
:102DBE00FFEFF090E0E4E0FFEF4401FFEFF090E072
:102DCE00E5E0FFEF54FEFFEFF090E0E3E0FFEF549D
:102DDE00FEFFEFF090E0DAE0FFEF54F3FFEF440870
:102DEE00FFEFF090E0DCE0FFEF54DFFFEFF090E05C
:012DFE00DEF6
:102DFF00E0FFEF4420FFEFF090E0DFE0FFEF54DF64
:102E0F00FFEFF090E0DDE0FFEF54DFFFEFF090E039
:102E1F00D4E0FFEF54FCFFEFF090E0D6E0FFEF447B
:102E2F0010FFEFF090E0D8E0FFEF4410FFEFF090CD
:102E3F00E0D9E0FFEF54EFFFEFF090E0D7E0FFEFC6
:102E4F0054EFFFEFF090E0E0E0FFEF54CFFFEFF033
:102E5F0090E0E2E0FFEF4440FFEFF090E0E4E0FFAE
:102E6F00EF54BFFFEFF090E0E5E0FFEF54BFFFEF4F
:0D2E7F00F090E0E3E0FFEF54BFFFEFF02222
:103D7A0090E0EF7405F090E0EEE4F0758910758A32
:103D8A0000758CFE758B00758D00D2A9D2ABD28CD2
:033D9A00D28E22A4
:1037800090E0C9E4F090E0CCE4F0A3E4F090E0CA6B
:10379000E4F0A3E4F090E0C8E0FFEF54FDFFEFF0A9
:1037A00090E0C8E0FFEF4401FFEFF090E0C8E0FFD9
:1037B000EF4408FFEFF090E08AE0FFEF54FEFFEFE8
:1037C000F090E0C8E0FFEF4420FFEFF090E0C8E0A9
:1037D000FFEF4404FFEFF090E0C8E0FFEF547FFFFD
:1037E000EFF090E0C8E0FFEF54BFFFEFF0C28BD2E4
:0237F000AA220B
:103D260090E0CFE4F090E0D274E0F0A374C0F0909D
:103D3600E0CEE0FFEF4420FFEFF090E0CEE0FFEFB3
:0D3D46004404FFEFF053FEF0D2BDC2C522D1
:103CBA0090E0F4E4F090E0F77410F0A374C0F09090
:103CCA00E0F3E0FFEF4420FFEFF090E0F3E0FFEFD6
:103CDA004404FFEFF090E0F3E0FFEF547FFFEFF0D2
:073CEA00D2CED2BAC2C22201
:103CF10090E0FAE4F090E0FD7410F0A374C0F0904D
:103D0100E0F9E0FFEF4420FFEFF090E0F9E0FFEF92
:103D11004404FFEFF090E0F9E0FFEF547FFFEFF094
:053D2100D2BCC2C42267
:103A470090E0B2742EF000000000000000000000BB
:103A5700000000000000000000000000000000005F
:103A67000000000000000090E0E77402F090E0E63C
:103A7700E4F000000000000000000000000000006B
:103A8700000000000000000000000000000000002F
:033A97000000220A
:0D3DDA0075985075D88075AAF375BA03224C
:0A3E0900759B90759DE675BB0322C2
:103BC10090E07AE0FFEF54FBFFEFF090E07AE0FF46
:103BD100EF54FEFFEFF090E07AE0FFEF54F7FFEFD4
:103BE100F090E07AE0FFEF54FDFFEFF090E089E024
:103BF100FFEF54FEFFEFF090E089E0FFEF54FDFF8F
:033C0100EFF022BF
:0320030002334F56
:10334F00C0E0C0D075D000C007E5F930E0047F01C0
:10335F0080027F00EFB4010353F9FEE5F930E10479
:10336F007F0180027F00EFB40105B2A653F9FCE59F
:10337F00F930E2047F0180027F00EFB4010353F9BB
:10338F00F8E5F930E3047F0180027F00EFB4010319
:10339F0053F9F0E5F930E0047F0180027F00EF7010
:1033AF002CE5F930E1047F0180027F00EF701EE50C
:1033BF00F930E2047F0180027F00EF7010E5F930F1
:1033CF00E3047F0180027F00EF7002C289D007D033
:0433DF00D0D0E03238
:03200B00023D5340
:103D5300C0E0C083C082C0D075D000C007C28DB29E
:103D63008490E05AE0FFEF4420FFEFF0D007D0D07B
:073D7300D082D083D0E032C2
:03201B000220069A
:03200600C28F3254
:0320BB00022E8C66
:102E8C00C0E0C083C082C0D075D000C000C004C0F8
:102E9C0005C006C00790E0C8E0FFEFC4131313543D
:102EAC0001FFEF30E00D054790E0C8E0FFEF547FE5
:102EBC00FFEFF090E0C8E0FFEFC413135403FFEFF3
:102ECC0020E003022F7F90E0CCE0FEA3E0FFE4FCC7
:102EDC00FD8F2C8E2B8D2A8C2990E08AE0FFEF3011
:102EEC00E02090E08AE0FFEF54FEFFEFF0AF2CAE55
:102EFC002BAD2AAC298F288E278D268C2575470063
:102F0C008066E547701BC3E52C9528F542E52B95AB
:102F1C0027F541E52A9526F540E5299525F53F80CD
:102F2C003CAF47E4FCFDFE7810122CFF8F428E4123
:102F3C008D408C3FE542252CFFE541352BFEE540CD
:102F4C00352AFDE53F3529FCC3EF9528F542EE9572
:102F5C0027F541ED9526F540EC9525F53F90E08A57
:102F6C00E0FFEF4401FFEFF090E0C8E0FFEF54BF4B
:102F7C00FFEFF090E0C8E0FFEFC41313135401FF10
:102F8C00EF20E02090E0C8E0FFEFC413135403FFE0
:102F9C00EF20E010E5F930E5047F0180027F00EFBF
:102FAC007002C28BD007D006D005D004D000D0D090
:072FBC00D082D083D0E03287
:03208B00023864B4
:10386400C0E0C083C082C0D075D000C00790E0CE55
:10387400E0FFEF547FFFEFF053FEF0B2A6E5FE3019
:10388400E0047F0180027F00EF703AE5FE30E1043E
:103894007F0180027F00EF702CE5FE30E2047F019F
:1038A40080027F00EF701EE5FE30E3047F0180029A
:1038B4007F00EF7010E59330E7047F0180027F0002
:1038C400EF7002C2C5D007D0D0D082D083D0E0320E
:0320AB00023709F0
:10370900C0E0C083C082C0D075D000C006C0079099
:10371900E0F3E0FFEF547FFFEFF090E0F3E0FFEF1D
:1037290054BFFFEFF0B2A690E0F3E0FFEFC413132C
:103739005403FFEF30E0047F0180027F0090E0F343
:10374900E0FEEEC41313135401FEEE30E0047E01D3
:1037590080027E00EE4FFFEF7010E5FA30E3047F40
:103769000180027F00EF7002C2C2D007D006D0D01C
:07377900D082D083D0E032C2
:0320C3000233E302
:1033E300C0E0C083C082C0D075D000C006C00790C3
:1033F300E0F9E0FFEF547FFFEFF090E0F9E0FFEF3B
:1034030054BFFFEFF0E5FD30E3047F0180027F004E
:10341300EF7051E5FD30E4047F0180027F00EF701F
:1034230043E5FD30E5047F0180027F00EF703590B6
:10343300E0F9E0FFEFC413135403FFEF30E0047F20
:103443000180027F0090E0F9E0FEEEC413131354F1
:1034530001FEEE30E0047E0180027E00EE4FFFEFBE
:103463007002C2C4B2A6D007D006D0D0D082D08317
:03347300D0E03274
:03204B000237F267
:1037F200C0E0C0D075D000C007E5B530E0047F015D
:1038020080027F00EFB4010343B601E5CD30E0044E
:103812007F0180027F00EFB4010343CE01E5DD307A
:10382200E0047F0180027F00EFB4010343DE01E583
:10383200B530E0047F0180027F00EF701EE5CD30DD
:10384200E0047F0180027F00EF7010E5DD30E004CC
:103852007F0180027F00EF7002C2C1D007D0D0D0BA
:02386200E03252
:0320A3000238D42C
:1038D400C0E0C083C082C0D075D000C006C007431A
:1038E400F60190E0F3E0FFEFC413135403FFEF304D
:1038F400E0047F0180027F0090E0F3E0FEEEC41359
:1039040013135401FEEE30E0047E0180027E00EECB
:103914004FFFEF7010E5F530E0047F0180027F0077
:10392400EF7002C2C2D007D006D0D0D082D083D0EC
:02393400E0327F
:0320B300023C04E8
:103C0400C0E0C083C082C0D075D000C00790E0C7B8
:103C1400E0FFEF54FEFFEFF0E5F930E4047F0180AC
:103C2400027F00EF7010E5F930E5047F0180027F28
:103C340000EF7002C28BD007D0D0D082D083D0E006
:013C4400324D
:03205B00023476D6
:10347600C0E0C083C082C0D075D000C00790E0C74E
:10348600E0FFEFC313FFEF30E00B90E0C7E0FFEF84
:1034960054FDFFEFF090E0C7E0FFEF1313543FFF3A
:1034A600EF30E00B90E0C7E0FFEF54FBFFEFF0904A
:1034B600E0C7E0FFEF131313541FFFEF30E00B904C
:1034C600E0C7E0FFEF54F7FFEFF090E0C7E0FFEF53
:1034D600C313FFEF20E02190E0C7E0FFEF13135482
:1034E6003FFFEF20E01290E0C7E0FFEF1313135405
:1034F6001FFFEF20E002C2C3D007D0D0D082D08316
:03350600D0E032E0
:0320CB0002359843
:10359800C0E0C083C082C0D075D000C006C007E5B7
:1035A800FD30E3047F0180027F00EF7051E5FD30BC
:1035B800E4047F0180027F00EF7043E5FD30E504FD
:1035C8007F0180027F00EF703590E0F9E0FFEFC4E3
:1035D80013135403FFEF30E0047F0180027F009053
:1035E800E0F9E0FEEEC41313135401FEEE30E004DC
:1035F8007E0180027E00EE4FFFEF7002C2C4D0074A
:0B360800D006D0D0D082D083D0E032BA
:0320D300023613BF
:10361300C0E0C083C082C0D075D000C006C007E53B
:10362300FD30E3047F0180027F00EF7051E5FD3040
:10363300E4047F0180027F00EF7043E5FD30E50481
:103643007F0180027F00EF703590E0F9E0FFEFC467
:1036530013135403FFEF30E0047F0180027F0090D7
:10366300E0F9E0FEEEC41313135401FEEE30E00460
:103673007E0180027E00EE4FFFEF7002C2C4D007CE
:0B368300D006D0D0D082D083D0E0323F
:0320DB0002368E3C
:10368E00C0E0C083C082C0D075D000C006C007E5C0
:10369E00FD30E3047F0180027F00EF7051E5FD30C5
:1036AE00E4047F0180027F00EF7043E5FD30E50406
:1036BE007F0180027F00EF703590E0F9E0FFEFC4EC
:1036CE0013135403FFEF30E0047F0180027F00905C
:1036DE00E0F9E0FEEEC41313135401FEEE30E004E5
:1036EE007E0180027E00EE4FFFEF7002C2C4D00753
:0B36FE00D006D0D0D082D083D0E032C4
:0320E30002393689
:10393600C0E0C0D075D000C00753FEFEE5FE30E003
:10394600047F0180027F00EF703AE5FE30E1047FDC
:103956000180027F00EF702CE5FE30E2047F0180DB
:10396600027F00EF701EE5FE30E3047F0180027FD8
:1039760000EF7010E59330E7047F0180027F00EFCF
:0B3986007002C2C5D007D0D0D0E032E4
:0320EB0002399126
:10399100C0E0C0D075D000C00753FEFCE5FE30E0AA
:1039A100047F0180027F00EF703AE5FE30E1047F81
:1039B1000180027F00EF702CE5FE30E2047F018080
:1039C100027F00EF701EE5FE30E3047F0180027F7D
:1039D10000EF7010E59330E7047F0180027F00EF74
:0B39E1007002C2C5D007D0D0D0E03289
:0320F3000239ECC3
:1039EC00C0E0C0D075D000C00753FEF8E5FE30E053
:1039FC00047F0180027F00EF703AE5FE30E1047F26
:103A0C000180027F00EF702CE5FE30E2047F018024
:103A1C00027F00EF701EE5FE30E3047F0180027F21
:103A2C0000EF7010E59330E7047F0180027F00EF18
:0B3A3C007002C2C5D007D0D0D0E0322D
:0B3DF400309802C298309902C2992258
:0320830002202612
:10202600C0E0E59B30E003539BFEE59B30E10353A4
:052036009BFDD0E0322B
:03204300023C82DA
:103C8200C0E0C083C082C0D075D000C00790E05BA6
:103C9200E0FFEF30E00D90E05BE0FFEF54FEFFEF5E
:103CA200F0C2C090E072E0F53CA3E0F53DD007D051
:083CB200D0D082D083D0E032B3
:0C3DE7000A5C0102030405060708090A33
:103A9A008F6690E08EE0FFEFC413135403FFEF200C
:103AAA00E0F090E08F7453F090E091E566F090E0DA
:103ABA0092E4F0AF6AAE69AD68AC6790E093122DFC
:103ACA001290E08E740BF090E08EE0FFEFC4135476
:0C3ADA0007FFEF30E0F190E08EE4F022F6
:103AE6008F6B90E08EE0FFEFC413135403FFEF20BB
:103AF600E0F090E08F7455F090E091E56BF090E087
:103B060092E4F090E08E7407F090E08EE0FFEFC450
:103B1600540FFFEF30E0F290E08EE4F090E093E097
:0B3B2600FCA3E0FDA3E0FEA3E0FF22F3
:1030CF008F0B8E0A8D098C087F007E007D007C009F
:1030DF00AB0BAA0AA909A808C3122CD5500DAF0B28
:1030EF00AE0AAD09AC08122CC78008AF0BAE0AAD03
:1030FF0009AC088F0F8E0E8D0D8C0C7F007E007D1E
:10310F00B47C00AB0FAA0EA90DA80CC3122CD5408E
:10311F001BC3E50F9400F50FE50E9400F50EE50DBA
:10312F0094B4F50DE50C9400F50C80CFAF0FAE0EF7
:10313F00AD0DAC0C7806122CFF780F122CEB8F17FD
:10314F008E168D158C14AF17AE16AD15AC147B2DD6
:10315F007A0079007800122C358F178E168D158C0A
:10316F00147F027E007D007C00AB17AA16A915A85C
:10317F0014122BAA8F828E83E0FEA3E0FFE4FCFDE6
:10318F008F138E128D118C107F007E007D007C00BE
:10319F00AB0BAA0AA909A808C3122CD55013AF1359
:1031AF00AE12AD11AC10122CC78F138E128D118C65
:0A31BF0010AF13AE12AD11AC1022D8
:1031C9008F4F8E4E8D4D8C4C7F007E007D007C0094
:1031D900AB4FAA4EA94DA84CC3122CD5500DAF4FD9
:1031E900AE4EAD4DAC4C122CC78008AF4FAE4EADB4
:1031F9004DAC4C8F538E528D518C507F007E007D8B
:10320900B47C00AB53AA52A951A850C3122CD54083
:103219001BC3E5539400F553E5529400F552E5516B
:1032290094B4F551E5509400F55080CFAF53AE52A8
:10323900AD51AC507806122CFF780F122CEB8F5B36
:103249008E5A8D598C58AF5BAE5AAD59AC587B2DFF
:103259007A0079007800122C358F5B8E5A8D598C43
:1032690058E55B2480F55BE55A3400F55AE5593495
:1032790000F559E5583400F5587F027E007D007C41
:1032890000AB5BAA5AA959A858122BAA8F828E8320
:10329900E0FEA3E0FFE4FCFD8F578E568D558C545C
:0932A900AF57AE56AD55AC5422EE
:103B31008F1B8E1A8D198C18AF1BAE1AAD19AC18CC
:103B41008F1F8E1E8D1D8C1C851FE9851EEA851D0C
:103B5100EB851CEC75EF00E5EC30E7047F0180029A
:103B61007F00EF60F285E91F85EA1E85EB1D85EC7C
:0A3B71001CAF1FAE1EAD1DAC1C22E0
:032023000229226D
:032013000228ACF4
:03205300022895CB
:0320630002286AE6
:03206B000228C385
:10286A00C0D0C0E0E5FD20E30D20E41120E515D03D
:10287A00E0D0D00220C3D0E0D0D00220CBD0E0D02C
:10288A00D00220D3D0E0D0D00220DBC0D0C0E0E517
:10289A00FA20E307D0E0D0D00220ABD0E0D0D002BB
:1028AA0020A3C0D0C0E0E5F920E407D0E0D0D002F0
:1028BA0020B3D0E0D0D00220BBC0D0C0E0E5932046
:1028CA00E727E5FE20E00D20E11120E215D0E0D057
:1028DA00D002208BD0E0D0D00220E3D0E0D0D002CA
:1028EA0020EBD0E0D0D00220F375D000C000C001A8
:1028FA00740033747C3353937FC2C5D2998046C81F
:10290A00C443968010E40353967FC8759380F59468
:08291A00316EF59588932163ED
:10292200C0D0C0E0309814E599C298F56CB4A55EA9
:10293200D29975D000C000C001801074FF75D0001C
:10294200C000C00178FF8600B8FF2974F73099FDF6
:10295200C299F599D0017805D0E03198D8FAE931D9
:1029620098316EC0E0316EC0E0316EF83098FDE50E
:1029720099C29822E58124FCF9800C0819E66708BF
:10298200097004E66760C4B8FEF1D001D000D0E05F
:10299200D0D0439310323099FDC299F59922C0E00C
:1029A200316EC0E0316EC0E0316EF9316EC0E0C010
:1029B2000078FFE67002C299218E8882F583216336
:1029C2008881F5F02163F5802163F5B02163E5810B
:1029D200C083C082C08EC0F0C0E0C0E0214FE58954
:1029E200C088C087C086C085C084C080214FE59062
:1029F200C08FC08EC08DC08CC08BC08A214FE5971E
:102A0200C096C095C094C093C092C091214FE59EDC
:102A1200C09DC09CC09BC09AC099C098214FE5A59B
:102A2200C0A4C0A3C0A2C0A1C0A0C09F214FE5AC5A
:102A3200C0ABC0AAC0A9C0A8C0A7C0A6214FE5B319
:042A4200C0B2C0B1AD
:102A4600C0B0C0AFC0AEC0AD214FE5BAC0B9C0B8C6
:102A5600C0B7C0B6C0B5C0B4214FE5C1C0C0C0BF85
:102A6600C0BEC0BDC0BCC0BB214FE5C8C0C7C0C644
:102A7600C0C5C0C4C0C3C0C2214FE5CFC0CEC0CD03
:102A8600C0CCC0CBC0CAC0C9214FE5D7C0D6C0D5BF
:102A9600C0D4C0D3C0D2C0D1214FE5DEC0DDC0DC7A
:102AA600C0DBC0DAC0D9C0D8214FE5E6C0E5C0E436
:102AB600C0E3C0E2C0E1C0DF214FE5EDC0ECC0EBF2
:102AC600C0EAC0E9C0E8C0E7214FE5F5C0F4C0F3AD
:102AD600C0F2C0F1C0EFC0EE214FE5FCC0FBC0FA6A
:102AE600C0F9C0F8C0F7C0F6214FE5FFC0FEC0FD33
:102AF600C0E0C0E0C0E0C0E0214FBFA7005025EF16
:102B0600640AA2ACC2AC7009740DC299F5993099E9
:102B1600FDEFC299F5993099FD500778FFE67002EE
:102B2600C29992AC2230AC0CE56C64A560F774A532
:102B3600C56CFF223098FDE599B4A505122B65807A
:102B4600E4FFC2982230AC07E56CB4A510C322C3DB
:0F2B560030980BE599B4A505122B6580E8D322C2
:0B2B650078FF76FF756CA5D2AC220053
:10351800023C45E493A3F8E493A34003F68001F248
:1035280008DFF48029E493A3F85407240CC8C333B4
:10353800C4540F4420C8834004F456800146F6DF83
:10354800E4800B0102040810204080903DE7E47EEF
:10355800019360BCA3FF543F30E509541FFEE49378
:10356800A360010ECF54C025E060A840B8E493A33F
:10357800FAE493A3F8E493A3C8C582C8CAC583CA6A
:10358800F0A3C8C582C8CAC583CADFE9DEE780BE22
:013DF30000CF
:102BAA00E88FF0A4CC8BF0A42CFCE98EF0A42CFCCA
:102BBA008AF0EDA42CFCEA8EF0A4CDA8F08BF0A448
:102BCA002DCC3825F0FDE98FF0A42CCD35F0FCEBA7
:102BDA008EF0A4FEA9F0EB8FF0A4CFC5F02ECD396C
:0F2BEA00FEE43CFCEAA42DCE35F0FDE43CFC22D9
:102BF90075F008758200EF2FFFEE33FECD33CDCC93
:102C090033CCC58233C5829BED9AEC99E582984015
:102C19000CF582EE9BFEED9AFDEC99FC0FD5F0D6F2
:102C2900E4CEFBE4CDFAE4CCF9A88222B800C1B91C
:102C39000059BA002DEC8BF084CFCECDFCE5F0CB5A
:102C4900F97818EF2FFFEE33FEED33FDEC33FCEB93
:102C590033FB10D703994004EB99FB0FD8E5E4F94E
:102C6900FA227818EF2FFFEE33FEED33FDEC33FC3B
:102C7900C933C910D7059BE99A4007EC9BFCE99A2F
:102C8900F90FD8E0E4C9FAE4CCFB2275F010EF2F74
:102C9900FFEE33FEED33FDCC33CCC833C810D70774
:102CA9009BEC9AE899400AED9BFDEC9AFCE899F8AF
:0E2CB9000FD5F0DAE4CDFBE4CCFAE4C8F92242
:0E2CC700C3E49FFFE49EFEE49DFDE49CFC221E
:102CD500EB9FF5F0EA9E42F0E99D42F0EC6480C876
:062CE50064809845F02216
:102CEB00E86010ECA2E713FCED13FDEE13FEEF13FF
:042CFB00FFD8F022EC
:102CFF00E8600FEFC333FFEE33FEED33FDEC33FC33
:032D0F00D8F122D6
:0C2D1200ECF0A3EDF0A3EEF0A3EFF02234
:102B7000C582F9316EC583227170C0E0E0A331983F
:102B8000D8FA8982D08321637170C0E0E493A331C5
:102B900098D8F980EDF9E7093198D8FA2163717076
:0A2BA000C0E0E8F080DCF6216300DD
:00000001FF
