:0320000002206E4D
:0F206E00787FE4F6D8FD75A000758161023F5EB2
:103F5E00123E52123039D2AF7555007554A07553BA
:103F6E0048755200AF55AE54AD53AC52122BAA8FBA
:103F7E00598E588D578C5620ACDE3098DBE59964FF
:0D3F8E00A56004C29880D1122B6580CC2262
:10407E0090E08D7402F090E0BFE0FFEF54F3FFEF9D
:0F408E004404FFEFF0D2A8D288C28953F9F02280
:103E5200C2AF1240E01240C875A93075B920C2A99C
:103E6200C2BDD2ACD2AF000000C290D29020AC1042
:103E720030980DE59964A56004C2988003122B6501
:103E8200E59330E4E4800280E0000000D2A9D2BDD4
:063E9200000000D2AF2287
:0A40E0007593017594FF7595FF229A
:0D208E0075B10575C90575D90575F10522F7
:0D40BB0075B10F75C90F75D90F75F10F2282
:1036180090E08BE4F090E0ECE0FFEF4408FFEFF07F
:1036280090E0ECE0FFEF4403FFEFF090E05C740FF4
:10363800F090E07AE0FFEF4404FFEFF090E07AE0EA
:10364800FFEF4401FFEFF090E0A4E0FFEF54FCFF30
:10365800EF4402FFEFF090E0A4E0FFEF54F3FFEF38
:103668004408FFEFF090E0A4E0FFEF54CFFFEF44F1
:1036780020FFEFF090E09DE0FFEF54FDFFEFF090AA
:10368800E05DE0FFEF54F7FFEFF090E05AE0FFEF66
:103698004420FFEFF090E05AE0FFEF4401FFEFF025
:0D36A80090E064E4F0A3E4F0D2B8C2C022C8
:1020F60090E0E1E0FFEF54CFFFEF4410FFEFF090E8
:10210600E0E1E0FFEF543FFFEF4440FFEFF090E0E7
:10211600E0E0FFEF54FCFFEF4401FFEFF090E0E05A
:10212600E0FFEF54F3FFEF4404FFEFF090E0E0E050
:10213600FFEF54CFFFEF4410FFEFF090E0E0E0FF39
:10214600EF543FFFEF4440FFEFF075A20175A190F9
:1021560075C20175C19075D20175D19075E2017590
:10216600E19090E000E0FFEF4402FFEFF090E00026
:10217600E0FFEF4404FFEFF090E000E0FFEF4408DB
:10218600FFEFF090E000E0FFEF4410FFEFF090E08B
:1021960000E0FFEF54FEFFEFF090E003E0FFEF54A6
:1021A600FCFFEF4402FFEFF090E019E0FFEF54FC74
:1021B600FFEF4402FFEFF090E02FE0FFEF54FCFF4B
:0A21C600EF4402FFEFF090E045E067
:1021D000FFEF54FCFFEF4402FFEFF090E003E0FF5D
:1021E000EF54F7FFEFF090E002E0FFEF543FFFEF16
:1021F0004480FFEFF090E018E0FFEF543FFFEF4422
:1022000080FFEFF090E02EE0FFEF543FFFEF4480BF
:10221000FFEFF090E044E0FFEF543FFFEF4480FF1A
:10222000EFF090E007E0FFEF54EFFFEFF090E007F2
:10223000E0FFEF54DFFFEFF090E007E0FFEF54FC2A
:10224000FFEFF090E007E0FFEF54F3FFEFF090E0D6
:102250001DE0FFEF54EFFFEFF090E01DE0FFEF54C3
:10226000DFFFEFF090E01DE0FFEF54FCFFEFF09098
:10227000E01DE0FFEF54F3FFEFF090E033E0FFEFFD
:1022800054EFFFEFF090E033E0FFEF54DFFFEFF0AB
:0E22900090E033E0FFEF54FCFFEFF090E033FE
:10229E00E0FFEF54F3FFEFF090E049E0FFEF54EF73
:1022AE00FFEFF090E049E0FFEF54DFFFEFF090E03A
:1022BE0049E0FFEF54FCFFEFF090E049E0FFEF54F0
:1022CE00F3FFEFF090E009E0FFEF543FFFEF4440E3
:1022DE00FFEFF090E009E0FFEF54CFFFEF4420FF57
:1022EE00EFF090E008E0FFEF54F3FFEFF090E0081E
:1022FE00E0FFEF54FCFFEFF090E009E0FFEF54F346
:10230E00FFEFF090E009E0FFEF54FCFFEFF090E0FC
:10231E001FE0FFEF543FFFEF4440FFEFF090E01F50
:10232E00E0FFEF54CFFFEF4420FFEFF090E01EE010
:10233E00FFEF54F3FFEFF090E01EE0FFEF54FCFFD1
:10234E00EFF090E01FE0FFEF54F3FFEFF090E01F8F
:0D235E00E0FFEF54FCFFEFF090E035E0FFF2
:10236B00EF543FFFEF4440FFEFF090E035E0FFEF1D
:10237B0054CFFFEF4420FFEFF090E034E0FFEF5439
:10238B00F3FFEFF090E034E0FFEF54FCFFEFF09041
:10239B00E035E0FFEF54F3FFEFF090E035E0FFEFB7
:1023AB0054FCFFEFF090E04BE0FFEF543FFFEF44A6
:1023BB0040FFEFF090E04BE0FFEF54CFFFEF4420F6
:1023CB00FFEFF090E04AE0FFEF54F3FFEFF090E007
:1023DB004AE0FFEF54FCFFEFF090E04BE0FFEF54CF
:1023EB00F3FFEFF090E04BE0FFEF54FCFFEFF090CA
:1023FB00E00CE0FFEF4403FFEFF090E00CE0FFEFA9
:10240B0054F3FFEF4408FFEFF090E00CE0FFEF54C4
:10241B00CFFFEFF090E022E0FFEF4403FFEFF090EF
:0D242B00E022E0FFEF54F3FFEF4408FFEF65
:10243800F090E022E0FFEF54CFFFEFF090E038E0BB
:10244800FFEF4403FFEFF090E038E0FFEF54F3FFB5
:10245800EF4408FFEFF090E038E0FFEF54CFFFEFD4
:10246800F090E04EE0FFEF4403FFEFF090E04EE025
:10247800FFEF54F3FFEF4408FFEFF090E04EE0FF6A
:10248800EF54CFFFEFF090E00DE4F0A37432F0903A
:10249800E023E4F0A37432F090E039E4F0A374325E
:1024A800F090E04FE4F0A37432F090E00FE4F0A372
:1024B8007432F090E025E4F0A37432F090E03BE44D
:1024C800F0A37432F090E051E4F0A37432F090E09D
:1024D80011E0FFEF4401FFEFF090E011E0FFEF544F
:1024E800FDFFEFF090E027E0FFEF4401FFEFF090F1
:1024F800E027E0FFEF54FDFFEFF090E03DE0FFEF55
:042508004401FFEF9C
:10250C00F090E03DE0FFEF54FDFFEFF090E053E082
:10251C00FFEF4401FFEFF090E053E0FFEF54FDFFBD
:10252C00EFF090E012E0FFEF54FCFFEFF090E012C0
:10253C00E0FFEF54F3FFEFF090E028E0FFEF54FCE6
:10254C00FFEFF090E028E0FFEF54F3FFEFF090E0A6
:10255C003EE0FFEF54FCFFEFF090E03EE0FFEF5465
:10256C00F3FFEFF090E054E0FFEF54FCFFEFF0903E
:10257C00E054E0FFEF54F3FFEFF090E015E0FFEFD5
:10258C004408FFEFF090E015E0FFEF54F8FFEF4444
:10259C0001FFEFF090E014E0FFEF4408FFEFF09044
:1025AC00E014E0FFEF54F8FFEF4401FFEFF090E090
:1025BC0014E0FFEF547FFFEFF090E014E0FFEF54D6
:0E25CC008FFFEF4410FFEFF090E02BE0FFEFE9
:1025DA004408FFEFF090E02BE0FFEF54F8FFEF44E0
:1025EA0001FFEFF090E02AE0FFEF4408FFEFF090E0
:1025FA00E02AE0FFEF54F8FFEF4401FFEFF090E02C
:10260A002AE0FFEF547FFFEFF090E02AE0FFEF545B
:10261A008FFFEF4410FFEFF090E041E0FFEF440836
:10262A00FFEFF090E041E0FFEF54F8FFEF4401FFC5
:10263A00EFF090E040E0FFEF4408FFEFF090E04059
:10264A00E0FFEF54F8FFEF4401FFEFF090E040E0C5
:10265A00FFEF547FFFEFF090E040E0FFEF548FFF71
:10266A00EF4410FFEFF090E057E0FFEF4408FFEF70
:10267A00F090E057E0FFEF54F8FFEF4401FFEFF06E
:10268A0090E056E0FFEF4408FFEFF090E056E0FFDD
:0E269A00EF54F8FFEF4401FFEFF090E056E040
:1026A800FFEF547FFFEFF090E056E0FFEF548FFF0D
:1026B800EF4410FFEFF090E017E0FFEF54FCFFEF5E
:1026C8004401FFEFF090E017E0FFEF54F3FFEF4411
:1026D80004FFEFF090E016E0FFEF54FCFFEF440139
:1026E800FFEFF090E016E0FFEF54F3FFEF4404FF34
:1026F800EFF090E016E0FFEF54CFFFEFF090E01618
:10270800E0FFEF543FFFEFF090E02DE0FFEF54FCC7
:10271800FFEF4401FFEFF090E02DE0FFEF54F3FFEF
:10272800EF4404FFEFF090E02CE0FFEF54FCFFEFE4
:102738004401FFEFF090E02CE0FFEF54F3FFEF448B
:1027480004FFEFF090E02CE0FFEF54CFFFEFF090A4
:10275800E02CE0FFEF543FFFEFF090E043E0FFEFA5
:0D27680054FCFFEF4401FFEFF090E043E070
:10277500FFEF54F3FFEF4404FFEFF090E042E0FF7A
:10278500EF54FCFFEF4401FFEFF090E042E0FFEF74
:1027950054F3FFEF4404FFEFF090E042E0FFEF5405
:1027A500CFFFEFF090E042E0FFEF543FFFEFF090F6
:1027B500E059E0FFEF54FCFFEF4401FFEFF090E03C
:1027C50059E0FFEF54F3FFEF4404FFEFF090E058BA
:1027D500E0FFEF54FCFFEF4401FFEFF090E058E01D
:1027E500FFEF54F3FFEF4404FFEFF090E058E0FFF4
:1027F500EF54CFFFEFF090E058E0FFEF543FFFEFCD
:10280500F075A20775A1D075C20775C1D075D2073D
:1028150075D1D075E20775E1D075A40175A3E8758A
:10282500C40175C3E875D40175D3E875E40175E392
:10283500E875A60175A59075C60175C59075D60193
:1028450075D59075E60175E59090E000E0FFEF44E1
:1028550001FFEFF043B60143CE0143DE0143F6012C
:05286500D2CDD2B92222
:10340C0090E0E1E0FFEF54F3FFEF4408FFEFF090A2
:10341C00E0DAE0FFEF54FCFFEF4402FFEFF090E046
:10342C00DBE0FFEF543FFFEF4480FFEFF090E0DB79
:10343C00E0FFEF54CFFFEF4420FFEFF090E0A4E06B
:10344C00FFEF54FCFFEF4401FFEFF090E0A4E0FF2E
:10345C00EF54F3FFEF4404FFEFF090E0A4E0FFEF34
:10346C0054CFFFEF4410FFEFF090E0A4E0FFEF54D7
:10347C00BFFFEFF090E0C6E0FFEF54FEFFEFF090DF
:10348C00E0C6E0FFEF54FDFFEFF090E0C6E0FFEF89
:10349C0054FBFFEFF090E0C6E0FFEF54F7FFEFF0C6
:1034AC0090E0EBE0FFEF4401FFEFF090E0EBE0FF8A
:1034BC00EF4402FFEFF090E0EBE0FFEF4404FFEF8E
:0C34CC00F090E0EBE0FFEF4408FFEFF0B1
:1034D80090E0C7E0FFEF54FEFFEFF090E0C7E0FF99
:1034E800EF54FDFFEFF090E0C7E0FFEF54FBFFEF74
:1034F800F090E0C7E0FFEF54F7FFEFF090E0EBE06B
:10350800FFEF4410FFEFF0D2BBD2AAC28BC2C32296
:10409D007586FFD2AED2BE90E0DBE0FFEF54FCFFA1
:0E40AD00EFF090E0DCE0FFEF54FEFFEFF022BA
:1030390090E0D5E4F090E0D4E4F090E0D6E4F090AC
:10304900E0D874FFF090E0D7E4F090E0D9E4F09094
:10305900E0DBE4F090E0DAE4F090E0DCE4F090E02A
:10306900DE74FFF090E0DDE4F090E0DFE4F090E062
:10307900E1E4F090E0E0E4F090E0E2E4F090E0E4F4
:1030890074FFF090E0E3E4F090E0E5E4F090E0D53F
:10309900E0FFEF54FCFFEFF090E0D6E0FFEF4401D2
:1030A900FFEFF090E0D8E0FFEF54FEFFEFF090E083
:1030B900D7E0FFEF54FEFFEFF090E0E1E0FFEF54BF
:1030C900FCFFEF4401FFEFF090E0E2E0FFEF54FE78
:1030D900FFEFF090E0E4E0FFEF4401FFEFF090E054
:1030E900E5E0FFEF54FEFFEFF090E0E3E0FFEF547F
:1030F900FEFFEFF090E0DAE0FFEF54F3FFEF440852
:10310900FFEFF090E0DCE0FFEF54DFFFEFF090E03D
:01311900DED7
:10311A00E0FFEF4420FFEFF090E0DFE0FFEF54DF45
:10312A00FFEFF090E0DDE0FFEF54DFFFEFF090E01B
:10313A00D4E0FFEF54FCFFEFF090E0D6E0FFEF445D
:10314A0010FFEFF090E0D8E0FFEF4410FFEFF090AF
:10315A00E0D9E0FFEF54EFFFEFF090E0D7E0FFEFA8
:10316A0054EFFFEFF090E0E0E0FFEF54CFFFEFF015
:10317A0090E0E2E0FFEF4440FFEFF090E0E4E0FF90
:10318A00EF54BFFFEFF090E0E5E0FFEF54BFFFEF31
:0D319A00F090E0E3E0FFEF54BFFFEFF02204
:10405B0090E0EF7405F090E0EEE4F0758910758A4E
:10406B0000758CFE758B00758D00D2A9D2ABD28CEE
:03407B00D28E22C0
:103A570090E0C9E4F090E0CCE4F0A3E4F090E0CA91
:103A6700E4F0A3E4F090E0C8E0FFEF54FDFFEFF0CF
:103A770090E0C8E0FFEF4401FFEFF090E0C8E0FFFF
:103A8700EF4408FFEFF090E08AE0FFEF54FEFFEF0E
:103A9700F090E0C8E0FFEF4420FFEFF090E0C8E0CF
:103AA700FFEF4404FFEFF090E0C8E0FFEF547FFF23
:103AB700EFF090E0C8E0FFEF54BFFFEFF0C28BD20A
:023AC700AA2231
:1040070090E0CFE4F090E0D274E0F0A374C0F090B9
:10401700E0CEE0FFEF4420FFEFF090E0CEE0FFEFCF
:0D4027004404FFEFF053FEF0D2BDC2C522ED
:103F9B0090E0F4E4F090E0F77410F0A374C0F090AC
:103FAB00E0F3E0FFEF4420FFEFF090E0F3E0FFEFF2
:103FBB004404FFEFF090E0F3E0FFEF547FFFEFF0EE
:073FCB00D2CED2BAC2C2221D
:103FD20090E0FAE4F090E0FD7410F0A374C0F09069
:103FE200E0F9E0FFEF4420FFEFF090E0F9E0FFEFAF
:103FF2004404FFEFF090E0F9E0FFEF547FFFEFF0B1
:05400200D2BCC2C42283
:103D1E0090E0B2742EF000000000000000000000E1
:103D2E000000000000000000000000000000000085
:103D3E000000000000000090E0E77402F090E0E662
:103D4E00E4F0000000000000000000000000000091
:103D5E000000000000000000000000000000000055
:033D6E0000002230
:0D40C80075985075D88075AAF375BA03225B
:0A40EA00759B90759DE675BB0322DF
:103E980090E07AE0FFEF54FBFFEFF090E07AE0FF6C
:103EA800EF54FEFFEFF090E07AE0FFEF54F7FFEFFA
:103EB800F090E07AE0FFEF54FDFFEFF090E089E04A
:103EC800FFEF54FEFFEFF090E089E0FFEF54FDFFB5
:033ED800EFF022E6
:032003000236B5ED
:1036B500C0E0C0D075D000C007E5F930E0047F0157
:1036C50080027F00EFB4010353F9FEE5F930E10410
:1036D5007F0180027F00EFB40105B2A653F9FCE536
:1036E500F930E2047F0180027F00EFB4010353F952
:1036F500F8E5F930E3047F0180027F00EFB40103B0
:1037050053F9F0E5F930E0047F0180027F00EF70A6
:103715002CE5F930E1047F0180027F00EF701EE5A2
:10372500F930E2047F0180027F00EF7010E5F93087
:10373500E3047F0180027F00EF7002C289D007D0C9
:04374500D0D0E032CE
:03200B000240345C
:10403400C0E0C083C082C0D075D000C007C28DB2BA
:104044008490E05AE0FFEF4420FFEFF0D007D0D097
:07405400D082D083D0E032DE
:03201B000220069A
:03200600C28F3254
:0320BB00022D3AB9
:102D3A00C0E0C0F0C083C082C0D075D000C000C05F
:102D4A0001C002C003C004C005C006C00790E0C8A5
:102D5A00E0FFEFC41313135401FFEF30E01190A00A
:102D6A0012E004F090E0C8E0FFEF547FFFEFF0902C
:102D7A00E0C8E0FFEFC413135403FFEF20E003029F
:102D8A002E7990E0CCE0FEA3E0FFE4FCFD90A008E1
:102D9A0012302D90E08AE0FFEF30E02790E08AE0E1
:102DAA00FFEF54FEFFEFF090A008E0FCA3E0FDA3C4
:102DBA00E0FEA3E0FF90A00412302D90A012E4F0F0
:102DCA00022E6E90A012E0FFEF703190A004E0F89E
:102DDA00A3E0F9A3E0FAA3E0FB90A008E0FCA3E0DB
:102DEA00FDA3E0FEA3E0FFC3EF9BFFEE9AFEED9981
:102DFA00FDEC98FC90A00E12302D805D90A012E0A0
:102E0A00FFE4FCFDFE781012301A90A00E12302D4D
:102E1A0090A008E0FCA3E0FDA3E0FEA3E0FF90A0E1
:102E2A000EE0F8A3E0F9A3E0FAA3E0FBEB2FFFEA38
:102E3A003EFEE93DFDE83CFC90A004E0F8A3E0F981
:102E4A00A3E0FAA3E0FBC3EF9BFFEE9AFEED99FD28
:102E5A00EC98FC90A00E12302D90E08AE0FFEF442F
:102E6A0001FFEFF090E0C8E0FFEF54BFFFEFF090F2
:102E7A00E0C8E0FFEFC41313135401FFEF20E02072
:102E8A0090E0C8E0FFEFC413135403FFEF20E010F3
:102E9A00E5F930E5047F0180027F00EF7002C28B02
:102EAA00D007D006D005D004D003D002D001D0007C
:0B2EBA00D0D0D082D083D0F0D0E03226
:03208B00023B3BDA
:103B3B00C0E0C083C082C0D075D000C00790E0CE7B
:103B4B00E0FFEF547FFFEFF053FEF0B2A6E5FE303F
:103B5B00E0047F0180027F00EF703AE5FE30E10464
:103B6B007F0180027F00EF702CE5FE30E2047F01C5
:103B7B0080027F00EF701EE5FE30E3047F018002C0
:103B8B007F00EF7010E59330E7047F0180027F0028
:103B9B00EF7002C2C5D007D0D0D082D083D0E03234
:0320AB000239E017
:1039E000C0E0C083C082C0D075D000C006C00790C0
:1039F000E0F3E0FFEF547FFFEFF090E0F3E0FFEF44
:103A000054BFFFEFF0B2A690E0F3E0FFEFC4131352
:103A10005403FFEF30E0047F0180027F0090E0F369
:103A2000E0FEEEC41313135401FEEE30E0047E01F9
:103A300080027E00EE4FFFEF7010E5FA30E3047F66
:103A40000180027F00EF7002C2C2D007D006D0D042
:073A5000D082D083D0E032E8
:0320C30002374998
:10374900C0E0C083C082C0D075D000C006C0079059
:10375900E0F9E0FFEF547FFFEFF090E0F9E0FFEFD1
:1037690054BFFFEFF0E5FD30E3047F0180027F00E5
:10377900EF7051E5FD30E4047F0180027F00EF70B6
:1037890043E5FD30E5047F0180027F00EF7035904D
:10379900E0F9E0FFEFC413135403FFEF30E0047FB7
:1037A9000180027F0090E0F9E0FEEEC41313135488
:1037B90001FEEE30E0047E0180027E00EE4FFFEF55
:1037C9007002C2C4B2A6D007D006D0D0D082D083AE
:0337D900D0E0320B
:03204B00023AC98D
:103AC900C0E0C0D075D000C007E5B530E0047F0183
:103AD90080027F00EFB4010343B601E5CD30E00475
:103AE9007F0180027F00EFB4010343CE01E5DD30A1
:103AF900E0047F0180027F00EFB4010343DE01E5AA
:103B0900B530E0047F0180027F00EF701EE5CD3003
:103B1900E0047F0180027F00EF7010E5DD30E004F2
:103B29007F0180027F00EF7002C2C1D007D0D0D0E0
:023B3900E03278
:0320A300023BAB52
:103BAB00C0E0C083C082C0D075D000C006C0074340
:103BBB00F60190E0F3E0FFEFC413135403FFEF3073
:103BCB00E0047F0180027F0090E0F3E0FEEEC4137F
:103BDB0013135401FEEE30E0047E0180027E00EEF2
:103BEB004FFFEF7010E5F530E0047F0180027F009E
:103BFB00EF7002C2C2D007D006D0D0D082D083D013
:023C0B00E032A5
:0320B300023F1DCC
:103F1D00C0E0C083C082C0D075D000C00790E0C79C
:103F2D00E0FFEF54FEFFEFF0E5F930E4047F018090
:103F3D00027F00EF7010E5F930E5047F0180027F0C
:103F4D0000EF7002C28BD007D0D0D082D083D0E0EA
:013F5D003231
:03205B000237DC6D
:1037DC00C0E0C083C082C0D075D000C00790E0C7E5
:1037EC00E0FFEFC313FFEF30E00B90E0C7E0FFEF1B
:1037FC0054FDFFEFF090E0C7E0FFEF1313543FFFD1
:10380C00EF30E00B90E0C7E0FFEF54FBFFEFF090E0
:10381C00E0C7E0FFEF131313541FFFEF30E00B90E2
:10382C00E0C7E0FFEF54F7FFEFF090E0C7E0FFEFE9
:10383C00C313FFEF20E02190E0C7E0FFEF13135418
:10384C003FFFEF20E01290E0C7E0FFEF131313549B
:10385C001FFFEF20E002C2C3D007D0D0D082D083AC
:03386C00D0E03277
:0320CB0002386F69
:10386F00C0E0C083C082C0D075D000C006C007E5DD
:10387F00FD30E3047F0180027F00EF7051E5FD30E2
:10388F00E4047F0180027F00EF7043E5FD30E50423
:10389F007F0180027F00EF703590E0F9E0FFEFC409
:1038AF0013135403FFEF30E0047F0180027F009079
:1038BF00E0F9E0FEEEC41313135401FEEE30E00402
:1038CF007E0180027E00EE4FFFEF7002C2C4D00770
:0B38DF00D006D0D0D082D083D0E032E1
:0320D3000238EAE6
:1038EA00C0E0C083C082C0D075D000C006C007E562
:1038FA00FD30E3047F0180027F00EF7051E5FD3067
:10390A00E4047F0180027F00EF7043E5FD30E504A7
:10391A007F0180027F00EF703590E0F9E0FFEFC48D
:10392A0013135403FFEF30E0047F0180027F0090FD
:10393A00E0F9E0FEEEC41313135401FEEE30E00486
:10394A007E0180027E00EE4FFFEF7002C2C4D007F4
:0B395A00D006D0D0D082D083D0E03265
:0320DB0002396562
:10396500C0E0C083C082C0D075D000C006C007E5E6
:10397500FD30E3047F0180027F00EF7051E5FD30EB
:10398500E4047F0180027F00EF7043E5FD30E5042C
:103995007F0180027F00EF703590E0F9E0FFEFC412
:1039A50013135403FFEF30E0047F0180027F009082
:1039B500E0F9E0FEEEC41313135401FEEE30E0040B
:1039C5007E0180027E00EE4FFFEF7002C2C4D00779
:0B39D500D006D0D0D082D083D0E032EA
:0320E300023C0DAF
:103C0D00C0E0C0D075D000C00753FEFEE5FE30E029
:103C1D00047F0180027F00EF703AE5FE30E1047F02
:103C2D000180027F00EF702CE5FE30E2047F018001
:103C3D00027F00EF701EE5FE30E3047F0180027FFE
:103C4D0000EF7010E59330E7047F0180027F00EFF5
:0B3C5D007002C2C5D007D0D0D0E0320A
:0320EB00023C684C
:103C6800C0E0C0D075D000C00753FEFCE5FE30E0D0
:103C7800047F0180027F00EF703AE5FE30E1047FA7
:103C88000180027F00EF702CE5FE30E2047F0180A6
:103C9800027F00EF701EE5FE30E3047F0180027FA3
:103CA80000EF7010E59330E7047F0180027F00EF9A
:0B3CB8007002C2C5D007D0D0D0E032AF
:0320F300023CC3E9
:103CC300C0E0C0D075D000C00753FEF8E5FE30E079
:103CD300047F0180027F00EF703AE5FE30E1047F4C
:103CE3000180027F00EF702CE5FE30E2047F01804B
:103CF300027F00EF701EE5FE30E3047F0180027F48
:103D030000EF7010E59330E7047F0180027F00EF3E
:0B3D13007002C2C5D007D0D0D0E03253
:0B40D500309802C298309902C2992274
:0320830002202612
:10202600C0E0E59B30E003539BFEE59B30E10353A4
:052036009BFDD0E0322B
:03204300023EDB7F
:103EDB00C0E0C083C082C0D075D000C006C00790C0
:103EEB00E05BE0FFEF30E00D90E05BE0FFEF54FEB6
:103EFB00FFEFF0C2C090E072E0FEA3E0FF90A00CD9
:103F0B00EEF0A3EFF0D007D006D0D0D082D083D084
:023F1B00E03292
:0832E8008F358E348D338C32DA
:1032F0007F007E007D007C00AB35AA34A933A83264
:10330000C3122FF0500DAF35AE34AD33AC32122FA7
:10331000E28008AF35AE34AD33AC328F398E388DA4
:10332000378C367F007E007DB47C00AB39AA38A98B
:1033300037A836C3122FF0401BC3E5399400F53986
:10334000E5389400F538E53794B4F537E536940060
:10335000F53680CFAF39AE38AD37AC36780612309F
:103360001A780F1230068F418E408D3F8C3EAF4150
:10337000AE40AD3FAC3E7B2D7A0079007800122F35
:10338000508F418E408D3F8C3E7F027E007D007CC1
:1033900000AB41AA40A93FA83E122EC58F828E8362
:1033A000E0FEA3E0FFE4FCFD8F3D8E3C8D3B8C3ABC
:1033B000AF3DAE3CAD3BAC3A781012301A8F3D8E2B
:1033C0003C8D3B8C3AAF3DAE3CAD3BAC3A781012F5
:1033D00030068F3D8E3C8D3B8C3A7F007E007D0019
:1033E0007C00AB35AA34A933A832C3122FF0501396
:1033F000AF3DAE3CAD3BAC3A122FE28F3D8E3C8DE3
:0B3400003B8C3AAF3DAE3CAD3BAC3A1C
:01340B00229E
:083518008F458E448D438C4267
:103520007F007E007D007C00AB45AA44A943A842F1
:10353000C3122FF0500DAF45AE44AD43AC42122F35
:10354000E28008AF45AE44AD43AC428F498E488D12
:10355000478C467F007E007DB47C00AB49AA48A919
:1035600047A846C3122FF0401BC3E5499400F54914
:10357000E5489400F548E54794B4F547E5469400DE
:10358000F54680CFAF49AE48AD47AC46780612301D
:103590001A780F1230068F518E508D4F8C4EAF51CE
:1035A000AE50AD4FAC4E7B2D7A0079007800122FD3
:1035B000508F518E508D4F8C4E7F027E007D007C4F
:1035C00000AB51AA50A94FA84E122EC5E42FF58288
:1035D00074013EF583E0FEA3E0FFE4FCFD8F4D8E19
:1035E0004C8D4B8C4AAF4DAE4CAD4BAC4A78101263
:1035F000301A8F4D8E4C8D4B8C4AAF4DAE4CAD4B2F
:10360000AC4A78101230068F4D8E4C8D4B8C4AAFE1
:073610004DAE4CAD4BAC4A7E
:013617002290
:083E08008F5D8E5C8D5B8C5A0E
:103E1000AF5DAE5CAD5BAC5A8F618E608D5F8C5ECA
:103E20008561E98560EA855FEB855EEC75EF00E50D
:103E3000EC30E7047F0180027F00EF60F285E961EA
:103E400085EA6085EB5F85EC5EAF61AE60AD5FAC2F
:013E50005E13
:013E5100224E
:0831A7008F0B8E0A8D098C08C4
:1031AF007F007E007D007C00AB0BAA0AA909A8084E
:1031BF00C3122FF0500DAF0BAE0AAD09AC08122F92
:1031CF00E28008AF0BAE0AAD09AC088F0F8E0E8DE3
:1031DF000D8C0CAF0FAE0EAD0DAC0C123E088F0F59
:1031EF008E0E8D0D8C0CC3740F95EFF518E50F54E3
:1031FF00FFF50FE50E54FFF50EE50D54FFF50DE548
:10320F000C547FF50CAF0FAE0EAD0DAC0C78161243
:10321F0030068F178E168D158C147F027E007D0061
:10322F007C00AB17AA16A915A814122EC5E42FF50A
:10323F008274043EF583E0FEA3E0FFE4FCFD8F13F0
:10324F008E128D118C10AF13AE12AD11AC10781011
:10325F0012301A8F138E128D118C10AF13AE12AD58
:10326F0011AC1078101230068F138E128D118C1036
:10327F00E518C394004019AF13AE12AD11AC10A9ED
:10328F0018A8011230068F138E128D118C10801713
:10329F00AF13AE12AD11AC10A918A80112301A8FCE
:1032AF00138E128D118C107F007E007D007C00AB81
:1032BF000BAA0AA909A808C3122FF05013AF13AE17
:1032CF0012AD11AC10122FE28F138E128D118C10C4
:0832DF00AF13AE12AD11AC10EB
:0132E70022C4
:082BAA008F248E238D228C2163
:102BB2007F007E007D007C00AB24AA23A922A821ED
:102BC200C3122FF0500DAF24AE23AD22AC21122F31
:102BD200E28008AF24AE23AD22AC218F288E278D50
:102BE200268C25AF28AE27AD26AC25123E088F28AD
:102BF2008E278D268C25C3741095EFF531E5312093
:102C0200E06BE52854FFF528E52754FFF527E52674
:102C120054FFF526E525547FF525AF28AE27AD26CE
:102C2200AC257817123006EF2480FFEE3400FEED5B
:102C32003400FDEC3400FC8F308E2F8D2E8C2D7FD6
:102C4200027E007D007C00AB30AA2FA92EA82D1297
:102C52002EC5E42FF58274083EF583E0FEA3E0FF63
:102C6200E4FCFD8F2C8E2B8D2A8C29805B0531AFE5
:102C720028AE27AD26AC2578181230068F308E2F5D
:102C82008D2E8C2DE530547FF530E52F5400F52F35
:102C9200E52E5400F52EE52D5400F52D7F027E0021
:102CA2007D007C00AB30AA2FA92EA82D122EC5E4E0
:102CB2002FF58274083EF583E0FEA3E0FFE4FCFDFD
:102CC2008F2C8E2B8D2A8C29AF2CAE2BAD2AAC29C2
:102CD200781012301A8F2C8E2B8D2A8C29AF2CAEA5
:102CE2002BAD2AAC29780F1230068F2C8E2B8D2A11
:102CF2008C29E531C39400401CAF2CAE2BAD2AAC1D
:102D020029E531C313F9A80112301A8F2C8E2B8DAD
:102D12002A8C29801AAF2CAE2BAD2AAC29E531C3FF
:102D220013F9A8011230068F2C8E2B8D2A8C29AF15
:072D32002CAE2BAD2AAC29E9
:012D39002277
:103D71008F1990E08EE0FFEFC413135403FFEF207F
:103D8100E0F090E08F7453F090E091E519F090E04D
:103D910092E4F0AF1DAE1CAD1BAC1A90E093123053
:103DA1002D90E08E740BF090E08EE0FFEFC4135481
:0C3DB10007FFEF30E0F190E08EE4F0221C
:103DBD008F1E90E08EE0FFEFC413135403FFEF202E
:103DCD00E0F090E08F7455F090E091E51EF090E0FA
:103DDD0092E4F090E08E7407F090E08EE0FFEFC477
:103DED00540FFFEF30E0F290E08EE4F090E093E0BE
:0B3DFD00FCA3E0FDA3E0FEA3E0FF221A
:032023000229226D
:032013000228ACF4
:03205300022895CB
:0320630002286AE6
:03206B000228C385
:10286A00C0D0C0E0E5FD20E30D20E41120E515D03D
:10287A00E0D0D00220C3D0E0D0D00220CBD0E0D02C
:10288A00D00220D3D0E0D0D00220DBC0D0C0E0E517
:10289A00FA20E307D0E0D0D00220ABD0E0D0D002BB
:1028AA0020A3C0D0C0E0E5F920E407D0E0D0D002F0
:1028BA0020B3D0E0D0D00220BBC0D0C0E0E5932046
:1028CA00E727E5FE20E00D20E11120E215D0E0D057
:1028DA00D002208BD0E0D0D00220E3D0E0D0D002CA
:1028EA0020EBD0E0D0D00220F375D000C000C001A8
:1028FA00740033747C3353937FC2C5D2998046C81F
:10290A00C443968010E40353967FC8759380F59468
:08291A00316EF59588932163ED
:10292200C0D0C0E0309814E599C298F51FB4A55EF6
:10293200D29975D000C000C001801074FF75D0001C
:10294200C000C00178FF8600B8FF2974F73099FDF6
:10295200C299F599D0017805D0E03198D8FAE931D9
:1029620098316EC0E0316EC0E0316EF83098FDE50E
:1029720099C29822E58124FCF9800C0819E66708BF
:10298200097004E66760C4B8FEF1D001D000D0E05F
:10299200D0D0439310323099FDC299F59922C0E00C
:1029A200316EC0E0316EC0E0316EF9316EC0E0C010
:1029B2000078FFE67002C299218E8882F583216336
:1029C2008881F5F02163F5802163F5B02163E5810B
:1029D200C083C082C08EC0F0C0E0C0E0214FE58954
:1029E200C088C087C086C085C084C080214FE59062
:1029F200C08FC08EC08DC08CC08BC08A214FE5971E
:102A0200C096C095C094C093C092C091214FE59EDC
:102A1200C09DC09CC09BC09AC099C098214FE5A59B
:102A2200C0A4C0A3C0A2C0A1C0A0C09F214FE5AC5A
:102A3200C0ABC0AAC0A9C0A8C0A7C0A6214FE5B319
:042A4200C0B2C0B1AD
:102A4600C0B0C0AFC0AEC0AD214FE5BAC0B9C0B8C6
:102A5600C0B7C0B6C0B5C0B4214FE5C1C0C0C0BF85
:102A6600C0BEC0BDC0BCC0BB214FE5C8C0C7C0C644
:102A7600C0C5C0C4C0C3C0C2214FE5CFC0CEC0CD03
:102A8600C0CCC0CBC0CAC0C9214FE5D7C0D6C0D5BF
:102A9600C0D4C0D3C0D2C0D1214FE5DEC0DDC0DC7A
:102AA600C0DBC0DAC0D9C0D8214FE5E6C0E5C0E436
:102AB600C0E3C0E2C0E1C0DF214FE5EDC0ECC0EBF2
:102AC600C0EAC0E9C0E8C0E7214FE5F5C0F4C0F3AD
:102AD600C0F2C0F1C0EFC0EE214FE5FCC0FBC0FA6A
:102AE600C0F9C0F8C0F7C0F6214FE5FFC0FEC0FD33
:102AF600C0E0C0E0C0E0C0E0214FBFA7005025EF16
:102B0600640AA2ACC2AC7009740DC299F5993099E9
:102B1600FDEFC299F5993099FD500778FFE67002EE
:102B2600C29992AC2230AC0CE51F64A560F774A57F
:102B3600C51FFF223098FDE599B4A505122B6580C7
:102B4600E4FFC2982230AC07E51FB4A510C322C328
:0F2B560030980BE599B4A505122B6580E8D322C2
:0B2B650078FF76FF751FA5D2AC2200A0
:102EC500E88FF0A4CC8BF0A42CFCE98EF0A42CFCAC
:102ED5008AF0EDA42CFCEA8EF0A4CDA8F08BF0A42A
:102EE5002DCC3825F0FDE98FF0A42CCD35F0FCEB89
:102EF5008EF0A4FEA9F0EB8FF0A4CFC5F02ECD394E
:0F2F0500FEE43CFCEAA42DCE35F0FDE43CFC22BA
:102F140075F008758200EF2FFFEE33FECD33CDCC74
:102F240033CCC58233C5829BED9AEC99E5829840F7
:102F34000CF582EE9BFEED9AFDEC99FC0FD5F0D6D4
:102F4400E4CEFBE4CDFAE4CCF9A88222B800C1B9FE
:102F54000059BA002DEC8BF084CFCECDFCE5F0CB3C
:102F6400F97818EF2FFFEE33FEED33FDEC33FCEB75
:102F740033FB10D703994004EB99FB0FD8E5E4F930
:102F8400FA227818EF2FFFEE33FEED33FDEC33FC1D
:102F9400C933C910D7059BE99A4007EC9BFCE99A11
:102FA400F90FD8E0E4C9FAE4CCFB2275F010EF2F56
:102FB400FFEE33FEED33FDCC33CCC833C810D70756
:102FC4009BEC9AE899400AED9BFDEC9AFCE899F891
:0E2FD4000FD5F0DAE4CDFBE4CCFAE4C8F92224
:0E2FE200C3E49FFFE49EFEE49DFDE49CFC2200
:102FF000EB9FF5F0EA9E42F0E99D42F0EC6480C858
:0630000064809845F022F7
:10300600E86010ECA2E713FCED13FDEE13FEEF13E0
:04301600FFD8F022CD
:10301A00E8600FEFC333FFEE33FEED33FDEC33FC14
:03302A00D8F122B8
:0C302D00ECF0A3EDF0A3EEF0A3EFF02216
:102B7000C582F9316EC583227170C0E0E0A331983F
:102B8000D8FA8982D08321637170C0E0E493A331C5
:102B900098D8F980EDF9E7093198D8FA2163717076
:0A2BA000C0E0E8F080DCF6216300DD
:00000001FF
