:032000000228258E
:0F282500787FE4F6D8FD75A00075812802286F32
:102EC600122E8012309F122B89122611D2AF90E05B
:102ED6005AE0FFEFC413135403FFEF20E0F0851A06
:102EE6001D851B1E90E05AE0FFEF4420FFEFF02007
:102EF600ACDC3098D9E59964A56004C29880CF12FD
:052F060023F180CA2246
:1030C20090E08D7402F090E0BFE0FFEF54F3FFEF69
:0F30D2004404FFEFF0D2A8D288C28953F9F0224C
:102E8000C2AF12314B12311975A93075B920C2A9E0
:102E9000C2BDD2ACD2AF000000C290D29020AC1024
:102EA00030980DE59964A56004C29880031223F15F
:102EB000E59330E4E4800280E0000000D2A9D2BDB6
:062EC000000000D2AF2269
:0A314B007593017594FF7595FF223E
:0D30FF0075B10575C90575D90575F1052276
:0D310C0075B10F75C90F75D90F75F10F2240
:102B890090E08BE4F090E0ECE0FFEF4408FFEFF019
:102B990090E0ECE0FFEF4403FFEFF090E05C740895
:102BA900F090E07AE0FFEF4404FFEFF090E07AE084
:102BB900FFEF4401FFEFF090E09DE0FFEF54FDFFD0
:102BC900EFF090E05DE0FFEF54F7FFEFF090E05A8F
:102BD900E0FFEF4420FFEFF090E05AE0FFEF4401FF
:102BE900FFEFF090E064E4F0A3E4F0D2B8C2C022B1
:1024360090E0E07455F090E0E1E0FFEF540FFFEF1D
:102446004450FF90E0E1EFF090E000741EF090E061
:10245600037402F090E0027480F090E0197402F0C8
:1024660090E0187480F090E02F7402F090E02E74E3
:1024760080F090E0457402F090E0447480F090E0C3
:1024860007E4F090E01DE4F090E033E4F090E049DA
:10249600E4F090E0097460F090E008E4F090E01F4A
:1024A6007460F090E01EE4F090E0357460F090E027
:1024B60034E4F090E04B7460F090E04AE4F090E091
:1024C6000BE4F090E00AE4F090E021E4F090E020E4
:1024D600E4F090E037E4F090E036E4F090E04DE48C
:1024E600F090E04CE4F090E00C740BF090E0227475
:1024F6000BF090E038740BF090E04E740BF090E027
:102506000E7432F090E00DE4F090E0247432F09016
:10251600E023E4F090E03A7432F090E039E4F09091
:10252600E0507432F090E04FE4F090E0107432F036
:0F25360090E00FE4F090E0267432F090E025E49E
:10254500F090E03C7432F090E03BE4F090E052749F
:1025550032F090E051E4F090E011E4F090E027E4EF
:10256500F090E03DE4F090E053E4F090E012E4F008
:1025750090E028E4F090E03EE4F090E054E4F09040
:10258500E0157409F090E014740CF090E02BE4F081
:1025950090E02AE4F090E041E4F090E040E4F0902F
:1025A500E057E4F090E056E4F090E0177405F09001
:1025B500E0167405F090E02DE4F090E02CE4F09046
:1025C500E043E4F090E059E4F075A1D075A20775F9
:1025D500C1D075C20775D1D075D20775E1D075E246
:1025E5000775A3E875A40375C3E875C40375D3E837
:1025F50075D40375E3E875E40390E000E0FFEF446C
:0C26050001FFEFF075B601D2CDD2B92272
:102F0B0090E0DBE0FFEF540FFFEF44A0FF90E0DB1E
:102F1B00EFF090E0DAE0FFEF54F0FFEF440AFF90A0
:102F2B00E0DAEFF090E0A574F0F090E0C674AAF050
:092F3B0090E0EB743EF0D2BB22E1
:1030E1007586FFD2AED2BE90E0DBE0FFEF54FCFF6D
:0E30F100EFF090E0DCE0FFEF54FEFFEFF02286
:1026110090E0D5E4F090E0D4E4F090E0D6E4F090DE
:10262100E0D874FFF090E0D7E4F090E0D9E4F090C6
:10263100E0DBE4F090E0DAE4F090E0DCE4F090E05C
:10264100DE74FFF090E0DDE4F090E0DFE4F090E094
:10265100E1E4F090E0E0E4F090E0E2E4F090E0E426
:1026610074FFF090E0E3E4F090E0E5E4F090E0D571
:10267100E0FFEF54FCFFEFF090E0D6E0FFEF440104
:10268100FFEFF090E0D8E0FFEF54FEFFEFF090E0B5
:10269100D7E0FFEF54FEFFEFF090E0E0E0FFEF54F2
:1026A100CFFFEFF090E0E2E0FFEF4440FFEFF0906A
:1026B100E0E4E0FFEF54BFFFEFF090E0E3E0FFEF75
:1026C10054BFFFEFF090E0E1E0FFEF54FCFFEF4477
:1026D10001FFEFF090E0E2E0FFEF54FEFFEFF0903A
:1026E100E0E4E0FFEF4401FFEFF090E0E5E0FFEF11
:0D26F10054FEFFEFF090E0E1E0FF8F1C22AF
:10309F0090E0EE7402F0A37440F0E58954F0FFEF76
:1030AF004403F589758A00758C00D2A9D2ABD28CF6
:0330BF00D28E228C
:1030730090E0C9E4F090E0CCE4F0A374C0F090E0F9
:10308300C8E0FFEF4420FFEFF090E0C8E0FFEF441B
:0C30930004FFEFF053F9E0C28BD2AA2238
:1030190090E0CFE4F090E0D274E0F0A374C0F090B7
:10302900E0CEE0FFEF4420FFEFF090E0CEE0FFEFCD
:0D3039004404FFEFF053FEF0D2BDC2C522EB
:102F7C0090E0F4E4F090E0F77410F0A374C0F090DB
:102F8C00E0F3E0FFEF4420FFEFF090E0F3E0FFEF21
:102F9C004404FFEFF090E0F3E0FFEF547FFFEFF01D
:072FAC00D2CED2BAC2C2224C
:102FB30090E0FAE4F090E0FD7410F0A374C0F09098
:102FC300E0F9E0FFEF4420FFEFF090E0F9E0FFEFDE
:102FD3004404FFEFF090E0F9E0FFEF547FFFEFF0E0
:052FE300D2BCC2C422B3
:102DDC0090E0B2742EF00000000000000000000033
:102DEC0000000000000000000000000000000000D7
:102DFC000000000000000090E0E77402F090E0E6B4
:102E0C00E4F00000000000000000000000000000E2
:102E1C0000000000000000000000000000000000A6
:032E2C0000002281
:0D31190075985075D88075AAF375BA032219
:0A315500759B90759DE675BB032283
:032003000226FEB4
:1026FE00C0E0C0D075D000C007E5F930E0047F011E
:10270E0080027F00EFB4010353F9FEE5F930E104D6
:10271E007F0180027F00EFB40105B2A653F9FCE5FC
:10272E00F930E2047F0180027F00EFB4010353F918
:10273E00F8E5F930E3047F0180027F00EFB4010376
:10274E0053F9F0E5F930E0047F0180027F00EF706D
:10275E002CE5F930E1047F0180027F00EF701EE569
:10276E00F930E2047F0180027F00EF7010E5F9304E
:10277E00E3047F0180027F00EF7002C289D007D090
:04278E00D0D0E03295
:03200B00022006AA
:05200600C28DB2A632FC
:03201B0002200E92
:03200E00C28F324C
:0320BB00022E2FC3
:102E2F00C0E0C083C082C0D075D000C00753F9E0A6
:102E3F0090E0C8E0FFEF547FFFEFF090E0C8E0FFB5
:102E4F00EF54BFFFEFF0B2A6E5F930E4047F018045
:102E5F00027F00EF7010E5F930E5047F0180027FFB
:102E6F0000EF7002C28BD007D0D0D082D083D0E0D9
:012E7F003220
:03208B00022BF92C
:102BF900C0E0C083C082C0D075D000C00790E0CECD
:102C0900E0FFEF547FFFEFF053FEF0B2A6E5FE3090
:102C1900E0047F0180027F00EF703AE5FE30E104B5
:102C29007F0180027F00EF702CE5FE30E2047F0116
:102C390080027F00EF701EE5FE30E3047F01800211
:102C49007F00EF7010E59330E7047F0180027F0079
:102C5900EF7002C2C5D007D0D0D082D083D0E03285
:0320AB00022A2ED8
:102A2E00C0E0C083C082C0D075D000C006C0079081
:102A3E00E0F3E0FFEF547FFFEFF090E0F3E0FFEF05
:102A4E0054BFFFEFF0B2A690E0F3E0FFEFC4131314
:102A5E005403FFEF30E0047F0180027F0090E0F32B
:102A6E00E0FEEEC41313135401FEEE30E0047E01BB
:102A7E0080027E00EE4FFFEF7010E5FA30E3047F28
:102A8E000180027F00EF7002C2C2D007D006D0D004
:072A9E00D082D083D0E032AA
:0320C3000227925F
:10279200C0E0C083C082C0D075D000C006C0079020
:1027A200E0F9E0FFEF547FFFEFF090E0F9E0FFEF98
:1027B20054BFFFEFF0E5FD30E3047F0180027F00AC
:1027C200EF7051E5FD30E4047F0180027F00EF707D
:1027D20043E5FD30E5047F0180027F00EF70359014
:1027E200E0F9E0FFEFC413135403FFEF30E0047F7E
:1027F2000180027F0090E0F9E0FEEEC4131313544F
:1028020001FEEE30E0047E0180027E00EE4FFFEF1B
:102812007002C2C4B2A6D007D006D0D0D082D08374
:03282200D0E032D1
:03204B00022AA5C1
:102AA500C0E0C0D075D000C007E5FA30E0047F0172
:102AB50080027F00EFB4010353FAFEE5FA30E1042A
:102AC5007F0180027F00EFB4010353FAFCE5FA3081
:102AD500E2047F0180027F00EFB4010353FAF8E5B9
:102AE500FA30E0047F0180027F00EF701EE5FA30C6
:102AF500E1047F0180027F00EF7010E5FA30E20407
:102B05007F0180027F00EF7002C2C1D007D0D0D014
:022B1500E032AC
:0320A300022C69A3
:102C6900C0E0C083C082C0D075D000C006C0075381
:102C7900FAF090E0F3E0FFEFC413135403FFEF30D1
:102C8900E0047F0180027F0090E0F3E0FEEEC413D0
:102C990013135401FEEE30E0047E0180027E00EE43
:102CA9004FFFEF7010E5FA30E3047F0180027F00E7
:102CB900EF7002C2C2D007D006D0D0D082D083D064
:022CC900E032F7
:0320B300022FE811
:102FE800C0E0C0D075D000C00753F9C0E5F930E49F
:102FF800047F0180027F00EF7010E5F930E5047F5F
:103008000180027F00EF7002C28BD007D0D0D0E0E1
:013018003285
:03205B00022B173E
:102B1700C0E0C0D075D000C007E5FD30E0047F01FC
:102B270080027F00EFB4010353FDFEE5FD30E104B1
:102B37007F0180027F00EFB4010353FDFCE5FD3008
:102B4700E2047F0180027F00EFB4010353FDF8E543
:102B5700FD30E0047F0180027F00EF701EE5FD304D
:102B6700E1047F0180027F00EF7010E5FD30E20491
:102B77007F0180027F00EF7002C2C3D007D0D0D0A0
:022B8700E0323A
:0320CB000228B434
:1028B400C0E0C083C082C0D075D000C006C007533A
:1028C400FDF0E5FD30E3047F0180027F00EF7051ED
:1028D400E5FD30E4047F0180027F00EF7043E5FDF5
:1028E40030E5047F0180027F00EF703590E0F9E06D
:1028F400FFEFC413135403FFEF30E0047F018002A1
:102904007F0090E0F9E0FEEEC41313135401FEEED1
:1029140030E0047E0180027E00EE4FFFEF7002C2C1
:0E292400C4D007D006D0D0D082D083D0E0320D
:0320D300022932AD
:10293200C0E0C083C082C0D075D000C006C00753BB
:10294200FDE0E5FD30E3047F0180027F00EF70517E
:10295200E5FD30E4047F0180027F00EF7043E5FD76
:1029620030E5047F0180027F00EF703590E0F9E0EE
:10297200FFEFC413135403FFEF30E0047F01800222
:102982007F0090E0F9E0FEEEC41313135401FEEE53
:1029920030E0047E0180027E00EE4FFFEF7002C243
:0E29A200C4D007D006D0D0D082D083D0E0328F
:0320DB000229B027
:1029B000C0E0C083C082C0D075D000C006C007533D
:1029C000FDC0E5FD30E3047F0180027F00EF705120
:1029D000E5FD30E4047F0180027F00EF7043E5FDF8
:1029E00030E5047F0180027F00EF703590E0F9E070
:1029F000FFEFC413135403FFEF30E0047F018002A4
:102A00007F0090E0F9E0FEEEC41313135401FEEED4
:102A100030E0047E0180027E00EE4FFFEF7002C2C4
:0E2A2000C4D007D006D0D0D082D083D0E03210
:0320E300022CCB01
:102CCB00C0E0C0D075D000C00753FEFEE5FE30E07B
:102CDB00047F0180027F00EF703AE5FE30E1047F54
:102CEB000180027F00EF702CE5FE30E2047F018053
:102CFB00027F00EF701EE5FE30E3047F0180027F50
:102D0B0000EF7010E59330E7047F0180027F00EF46
:0B2D1B007002C2C5D007D0D0D0E0325B
:0320EB00022D269D
:102D2600C0E0C0D075D000C00753FEFCE5FE30E021
:102D3600047F0180027F00EF703AE5FE30E1047FF8
:102D46000180027F00EF702CE5FE30E2047F0180F7
:102D5600027F00EF701EE5FE30E3047F0180027FF4
:102D660000EF7010E59330E7047F0180027F00EFEB
:0B2D76007002C2C5D007D0D0D0E03200
:0320F300022D813A
:102D8100C0E0C0D075D000C00753FEF8E5FE30E0CA
:102D9100047F0180027F00EF703AE5FE30E1047F9D
:102DA1000180027F00EF702CE5FE30E2047F01809C
:102DB100027F00EF701EE5FE30E3047F0180027F99
:102DC10000EF7010E59330E7047F0180027F00EF90
:0B2DD1007002C2C5D007D0D0D0E032A5
:0B314000309802C298309902C2992218
:0320830002206ECA
:10206E00C0E0E59B30E003539BFEE59B30E103535C
:05207E009BFDD0E032E3
:03204300022F4425
:102F4400C0E0C083C082C0D075D000C00790E05BF1
:102F5400E0FFEF30E00D90E05BE0FFEF54FEFFEFA9
:102F6400F0C2C090E072E0F51AA3E0F51BD007D0E0
:082F7400D0D082D083D0E032FE
:0C3133000A080102030405060708090A47
:102026008E218F22E52225E0FFE52133FE8F828E69
:0D20360083E0F523A3E0F524AE23AF2422C0
:103046008F158E148D138C12AF15AE14AD13AC12F2
:103056008F198E188D178C168519E98518EA85172C
:0D306600EB8516EC75EF00E58730E6FB22E8
:0D31260085E92885EA2785EB2685EC252222
:0F208E007F017E007D007C001230461231262239
:032023000221AEE9
:032013000221386F
:0320530002212146
:032063000220F662
:03206B0002214F00
:1020F600C0D0C0E0E5FD20E30D20E41120E515D0B9
:10210600E0D0D00220C3D0E0D0D00220CBD0E0D0A7
:10211600D00220D3D0E0D0D00220DBC0D0C0E0E592
:10212600FA20E307D0E0D0D00220ABD0E0D0D00236
:1021360020A3C0D0C0E0E5F920E407D0E0D0D0026B
:1021460020B3D0E0D0D00220BBC0D0C0E0E59320C1
:10215600E727E5FE20E00D20E11120E215D0E0D0D2
:10216600D002208BD0E0D0D00220E3D0E0D0D00245
:1021760020EBD0E0D0D00220F375D000C000C00123
:10218600740033747C3353937FC2C5D2998046C89A
:10219600C443968010E40353967FC8759380F594E4
:0821A60031FAF595889321EF51
:1021AE00C0D0C0E0309814E599C298F51FB4A55E72
:1021BE00D29975D000C000C001801074FF75D00098
:1021CE00C000C00178FF8600B8FF2974F73099FD72
:1021DE00C299F599D0017805D0E05124D8FAE95189
:1021EE002431FAC0E031FAC0E031FAF83098FDE55A
:1021FE0099C29822E58124FCF9800C0819E667083B
:10220E00097004E66760C4B8FEF1D001D000D0E0DA
:10221E00D0D0439310323099FDC299F59922C0E087
:10222E0031FAC0E031FAC0E031FAF931FAC0E0C05B
:10223E000078FFE67002C299411A8882F58321EF79
:10224E008881F5F021EFF58021EFF5B021EFE581E2
:10225E00C083C082C08EC0F0C0E0C0E021DBE58943
:10226E00C088C087C086C085C084C08021DBE59051
:10227E00C08FC08EC08DC08CC08BC08A21DBE5970D
:10228E00C096C095C094C093C092C09121DBE59ECC
:10229E00C09DC09CC09BC09AC099C09821DBE5A58B
:1022AE00C0A4C0A3C0A2C0A1C0A0C09F21DBE5AC4A
:1022BE00C0ABC0AAC0A9C0A8C0A7C0A621DBE5B309
:0422CE00C0B2C0B129
:1022D200C0B0C0AFC0AEC0AD21DBE5BAC0B9C0B8B6
:1022E200C0B7C0B6C0B5C0B421DBE5C1C0C0C0BF75
:1022F200C0BEC0BDC0BCC0BB21DBE5C8C0C7C0C634
:10230200C0C5C0C4C0C3C0C221DBE5CFC0CEC0CDF2
:10231200C0CCC0CBC0CAC0C921DBE5D7C0D6C0D5AE
:10232200C0D4C0D3C0D2C0D121DBE5DEC0DDC0DC69
:10233200C0DBC0DAC0D9C0D821DBE5E6C0E5C0E425
:10234200C0E3C0E2C0E1C0DF21DBE5EDC0ECC0EBE1
:10235200C0EAC0E9C0E8C0E721DBE5F5C0F4C0F39C
:10236200C0F2C0F1C0EFC0EE21DBE5FCC0FBC0FA59
:10237200C0F9C0F8C0F7C0F621DBE5FFC0FEC0FD22
:10238200C0E0C0E0C0E0C0E021DBBFA7005025EF05
:10239200640AA2ACC2AC7009740DC299F599309965
:1023A200FDEFC299F5993099FD500778FFE670026A
:1023B200C29992AC2230AC0CE51F64A560F774A5FB
:1023C200C51FFF223098FDE599B4A5051223F180BF
:1023D200E4FFC2982230AC07E51FB4A510C322C3A4
:0F23E20030980BE599B4A5051223F180E8D322BA
:0B23F10078FF76FF751FA5D2AC22001C
:10283400022EC6E493A3F8E493A34003F68001F2C6
:1028440008DFF48029E493A3F85407240CC8C333A5
:10285400C4540F4420C8834004F456800146F6DF74
:10286400E4800B0102040810204080903133E47EA0
:10287400019360BCA3FF543F30E509541FFEE49369
:10288400A360010ECF54C025E060A840B8E493A330
:10289400FAE493A3F8E493A3C8C582C8CAC583CA5B
:1028A400F0A3C8C582C8CAC583CADFE9DEE780BE13
:01313F00008F
:1023FC00C582F931FAC5832271FCC0E0E0A35124F7
:10240C00D8FA8982D08321EF71FCC0E0E493A35108
:10241C0024D8F980EDF9E7095124D8FA21EF71FCA1
:0A242C00C0E0E8F080DCF621EF00CC
:00000001FF
