:0320000002206E4D
:0F206E00787FE4F6D8FD75A00075814D023F4FD5
:103F4F001242B112337AD2AF90A00C122F5400014B
:103F5F00000090A010122F54FFF1000090A00CE071
:103F6F00FCA3E0FDA3E0FEA3E0FFC004C005C00674
:103F7F00C007753800753780753600753500D00766
:103F8F00D006D005D004122BAA90A014122F4820CF
:103F9F00ACB63098B3E59964A56004C29880A912B5
:053FAF002B6580A42237
:1044E40090E08D7402F090E0BFE0FFEF54F3FFEF33
:0F44F4004404FFEFF0D2A8D288C28953F9F02216
:1042B100C2AF12454612452E75A93075B920C2A963
:1042C100C2BDD2ACD2AF000000C290D29020AC10DF
:1042D10030980DE59964A56004C2988003122B659E
:1042E100E59330E4E4800280E0000000D2A9D2BD71
:0642F100000000D2AF2224
:0A4546007593017594FF7595FF222F
:0D208E0075B10575C90575D90575F10522F7
:0D45210075B10F75C90F75D90F75F10F2217
:1039510090E08BE4F090E0ECE0FFEF4408FFEFF043
:1039610090E0ECE0FFEF4403FFEFF090E05C740FB8
:10397100F090E07AE0FFEF4404FFEFF090E07AE0AE
:10398100FFEF4401FFEFF090E0A4E0FFEF54FCFFF4
:10399100EF4402FFEFF090E0A4E0FFEF54F3FFEFFC
:1039A1004408FFEFF090E0A4E0FFEF54CFFFEF44B5
:1039B10020FFEFF090E09DE0FFEF54FDFFEFF0906E
:1039C100E05DE0FFEF54F7FFEFF090E05AE0FFEF2A
:1039D1004420FFEFF090E05AE0FFEF4401FFEFF0E9
:0D39E10090E064E4F0A3E4F0D2B8C2C0228C
:1020F60090E0E1E0FFEF54CFFFEF4410FFEFF090E8
:10210600E0E1E0FFEF543FFFEF4440FFEFF090E0E7
:10211600E0E0FFEF54FCFFEF4401FFEFF090E0E05A
:10212600E0FFEF54F3FFEF4404FFEFF090E0E0E050
:10213600FFEF54CFFFEF4410FFEFF090E0E0E0FF39
:10214600EF543FFFEF4440FFEFF075A20175A190F9
:1021560075C20175C19075D20175D19075E2017590
:10216600E19090E000E0FFEF4402FFEFF090E00026
:10217600E0FFEF4404FFEFF090E000E0FFEF4408DB
:10218600FFEFF090E000E0FFEF4410FFEFF090E08B
:1021960000E0FFEF54FEFFEFF090E003E0FFEF54A6
:1021A600FCFFEF4402FFEFF090E019E0FFEF54FC74
:1021B600FFEF4402FFEFF090E02FE0FFEF54FCFF4B
:0A21C600EF4402FFEFF090E045E067
:1021D000FFEF54FCFFEF4402FFEFF090E003E0FF5D
:1021E000EF54F7FFEFF090E002E0FFEF543FFFEF16
:1021F0004480FFEFF090E018E0FFEF543FFFEF4422
:1022000080FFEFF090E02EE0FFEF543FFFEF4480BF
:10221000FFEFF090E044E0FFEF543FFFEF4480FF1A
:10222000EFF090E007E0FFEF54EFFFEFF090E007F2
:10223000E0FFEF54DFFFEFF090E007E0FFEF54FC2A
:10224000FFEFF090E007E0FFEF54F3FFEFF090E0D6
:102250001DE0FFEF54EFFFEFF090E01DE0FFEF54C3
:10226000DFFFEFF090E01DE0FFEF54FCFFEFF09098
:10227000E01DE0FFEF54F3FFEFF090E033E0FFEFFD
:1022800054EFFFEFF090E033E0FFEF54DFFFEFF0AB
:0E22900090E033E0FFEF54FCFFEFF090E033FE
:10229E00E0FFEF54F3FFEFF090E049E0FFEF54EF73
:1022AE00FFEFF090E049E0FFEF54DFFFEFF090E03A
:1022BE0049E0FFEF54FCFFEFF090E049E0FFEF54F0
:1022CE00F3FFEFF090E009E0FFEF543FFFEF4440E3
:1022DE00FFEFF090E009E0FFEF54CFFFEF4420FF57
:1022EE00EFF090E008E0FFEF54F3FFEFF090E0081E
:1022FE00E0FFEF54FCFFEFF090E009E0FFEF54F346
:10230E00FFEFF090E009E0FFEF54FCFFEFF090E0FC
:10231E001FE0FFEF543FFFEF4440FFEFF090E01F50
:10232E00E0FFEF54CFFFEF4420FFEFF090E01EE010
:10233E00FFEF54F3FFEFF090E01EE0FFEF54FCFFD1
:10234E00EFF090E01FE0FFEF54F3FFEFF090E01F8F
:0D235E00E0FFEF54FCFFEFF090E035E0FFF2
:10236B00EF543FFFEF4440FFEFF090E035E0FFEF1D
:10237B0054CFFFEF4420FFEFF090E034E0FFEF5439
:10238B00F3FFEFF090E034E0FFEF54FCFFEFF09041
:10239B00E035E0FFEF54F3FFEFF090E035E0FFEFB7
:1023AB0054FCFFEFF090E04BE0FFEF543FFFEF44A6
:1023BB0040FFEFF090E04BE0FFEF54CFFFEF4420F6
:1023CB00FFEFF090E04AE0FFEF54F3FFEFF090E007
:1023DB004AE0FFEF54FCFFEFF090E04BE0FFEF54CF
:1023EB00F3FFEFF090E04BE0FFEF54FCFFEFF090CA
:1023FB00E00CE0FFEF4403FFEFF090E00CE0FFEFA9
:10240B0054F3FFEF4408FFEFF090E00CE0FFEF54C4
:10241B00CFFFEFF090E022E0FFEF4403FFEFF090EF
:0D242B00E022E0FFEF54F3FFEF4408FFEF65
:10243800F090E022E0FFEF54CFFFEFF090E038E0BB
:10244800FFEF4403FFEFF090E038E0FFEF54F3FFB5
:10245800EF4408FFEFF090E038E0FFEF54CFFFEFD4
:10246800F090E04EE0FFEF4403FFEFF090E04EE025
:10247800FFEF54F3FFEF4408FFEFF090E04EE0FF6A
:10248800EF54CFFFEFF090E00DE4F0A37432F0903A
:10249800E023E4F0A37432F090E039E4F0A374325E
:1024A800F090E04FE4F0A37432F090E00FE4F0A372
:1024B8007432F090E025E4F0A37432F090E03BE44D
:1024C800F0A37432F090E051E4F0A37432F090E09D
:1024D80011E0FFEF4401FFEFF090E011E0FFEF544F
:1024E800FDFFEFF090E027E0FFEF4401FFEFF090F1
:1024F800E027E0FFEF54FDFFEFF090E03DE0FFEF55
:042508004401FFEF9C
:10250C00F090E03DE0FFEF54FDFFEFF090E053E082
:10251C00FFEF4401FFEFF090E053E0FFEF54FDFFBD
:10252C00EFF090E012E0FFEF54FCFFEFF090E012C0
:10253C00E0FFEF54F3FFEFF090E028E0FFEF54FCE6
:10254C00FFEFF090E028E0FFEF54F3FFEFF090E0A6
:10255C003EE0FFEF54FCFFEFF090E03EE0FFEF5465
:10256C00F3FFEFF090E054E0FFEF54FCFFEFF0903E
:10257C00E054E0FFEF54F3FFEFF090E015E0FFEFD5
:10258C004408FFEFF090E015E0FFEF54F8FFEF4444
:10259C0001FFEFF090E014E0FFEF4408FFEFF09044
:1025AC00E014E0FFEF54F8FFEF4401FFEFF090E090
:1025BC0014E0FFEF547FFFEFF090E014E0FFEF54D6
:0E25CC008FFFEF4410FFEFF090E02BE0FFEFE9
:1025DA004408FFEFF090E02BE0FFEF54F8FFEF44E0
:1025EA0001FFEFF090E02AE0FFEF4408FFEFF090E0
:1025FA00E02AE0FFEF54F8FFEF4401FFEFF090E02C
:10260A002AE0FFEF547FFFEFF090E02AE0FFEF545B
:10261A008FFFEF4410FFEFF090E041E0FFEF440836
:10262A00FFEFF090E041E0FFEF54F8FFEF4401FFC5
:10263A00EFF090E040E0FFEF4408FFEFF090E04059
:10264A00E0FFEF54F8FFEF4401FFEFF090E040E0C5
:10265A00FFEF547FFFEFF090E040E0FFEF548FFF71
:10266A00EF4410FFEFF090E057E0FFEF4408FFEF70
:10267A00F090E057E0FFEF54F8FFEF4401FFEFF06E
:10268A0090E056E0FFEF4408FFEFF090E056E0FFDD
:0E269A00EF54F8FFEF4401FFEFF090E056E040
:1026A800FFEF547FFFEFF090E056E0FFEF548FFF0D
:1026B800EF4410FFEFF090E017E0FFEF54FCFFEF5E
:1026C8004401FFEFF090E017E0FFEF54F3FFEF4411
:1026D80004FFEFF090E016E0FFEF54FCFFEF440139
:1026E800FFEFF090E016E0FFEF54F3FFEF4404FF34
:1026F800EFF090E016E0FFEF54CFFFEFF090E01618
:10270800E0FFEF543FFFEFF090E02DE0FFEF54FCC7
:10271800FFEF4401FFEFF090E02DE0FFEF54F3FFEF
:10272800EF4404FFEFF090E02CE0FFEF54FCFFEFE4
:102738004401FFEFF090E02CE0FFEF54F3FFEF448B
:1027480004FFEFF090E02CE0FFEF54CFFFEFF090A4
:10275800E02CE0FFEF543FFFEFF090E043E0FFEFA5
:0D27680054FCFFEF4401FFEFF090E043E070
:10277500FFEF54F3FFEF4404FFEFF090E042E0FF7A
:10278500EF54FCFFEF4401FFEFF090E042E0FFEF74
:1027950054F3FFEF4404FFEFF090E042E0FFEF5405
:1027A500CFFFEFF090E042E0FFEF543FFFEFF090F6
:1027B500E059E0FFEF54FCFFEF4401FFEFF090E03C
:1027C50059E0FFEF54F3FFEF4404FFEFF090E058BA
:1027D500E0FFEF54FCFFEF4401FFEFF090E058E01D
:1027E500FFEF54F3FFEF4404FFEFF090E058E0FFF4
:1027F500EF54CFFFEFF090E058E0FFEF543FFFEFCD
:10280500F075A20775A1D075C20775C1D075D2073D
:1028150075D1D075E20775E1D075A40175A3E8758A
:10282500C40175C3E875D40175D3E875E40175E392
:10283500E875A60175A59075C60175C59075D60193
:1028450075D59075E60175E59090E000E0FFEF44E1
:1028550001FFEFF043B60143CE0143DE0143F6012C
:05286500D2CDD2B92222
:1037450090E0E1E0FFEF54F3FFEF4408FFEFF09066
:10375500E0DAE0FFEF54FCFFEF4402FFEFF090E00A
:10376500DBE0FFEF543FFFEF4480FFEFF090E0DB3D
:10377500E0FFEF54CFFFEF4420FFEFF090E0A4E02F
:10378500FFEF54FCFFEF4401FFEFF090E0A4E0FFF2
:10379500EF54F3FFEF4404FFEFF090E0A4E0FFEFF8
:1037A50054CFFFEF4410FFEFF090E0A4E0FFEF549B
:1037B500BFFFEFF090E0C6E0FFEF54FEFFEFF090A3
:1037C500E0C6E0FFEF54FDFFEFF090E0C6E0FFEF4D
:1037D50054FBFFEFF090E0C6E0FFEF54F7FFEFF08A
:1037E50090E0EBE0FFEF4401FFEFF090E0EBE0FF4E
:1037F500EF4402FFEFF090E0EBE0FFEF4404FFEF52
:0C380500F090E0EBE0FFEF4408FFEFF074
:1038110090E0C7E0FFEF54FEFFEFF090E0C7E0FF5C
:10382100EF54FDFFEFF090E0C7E0FFEF54FBFFEF37
:10383100F090E0C7E0FFEF54F7FFEFF090E0EBE02E
:10384100FFEF4410FFEFF0D2BBD2AAC28BC2C3225A
:104503007586FFD2AED2BE90E0DBE0FFEF54FCFF36
:0E451300EFF090E0DCE0FFEF54FEFFEFF0224F
:10337A0090E0D5E4F090E0D4E4F090E0D6E4F09068
:10338A00E0D874FFF090E0D7E4F090E0D9E4F09050
:10339A00E0DBE4F090E0DAE4F090E0DCE4F090E0E6
:1033AA00DE74FFF090E0DDE4F090E0DFE4F090E01E
:1033BA00E1E4F090E0E0E4F090E0E2E4F090E0E4B0
:1033CA0074FFF090E0E3E4F090E0E5E4F090E0D5FB
:1033DA00E0FFEF54FCFFEFF090E0D6E0FFEF44018E
:1033EA00FFEFF090E0D8E0FFEF54FEFFEFF090E03F
:1033FA00D7E0FFEF54FEFFEFF090E0E1E0FFEF547B
:10340A00FCFFEF4401FFEFF090E0E2E0FFEF54FE33
:10341A00FFEFF090E0E4E0FFEF4401FFEFF090E00F
:10342A00E5E0FFEF54FEFFEFF090E0E3E0FFEF543A
:10343A00FEFFEFF090E0DAE0FFEF54F3FFEF44080D
:10344A00FFEFF090E0DCE0FFEF54DFFFEFF090E0F9
:01345A00DE93
:10345B00E0FFEF4420FFEFF090E0DFE0FFEF54DF01
:10346B00FFEFF090E0DDE0FFEF54DFFFEFF090E0D7
:10347B00D4E0FFEF54FCFFEFF090E0D6E0FFEF4419
:10348B0010FFEFF090E0D8E0FFEF4410FFEFF0906B
:10349B00E0D9E0FFEF54EFFFEFF090E0D7E0FFEF64
:1034AB0054EFFFEFF090E0E0E0FFEF54CFFFEFF0D1
:1034BB0090E0E2E0FFEF4440FFEFF090E0E4E0FF4C
:1034CB00EF54BFFFEFF090E0E5E0FFEF54BFFFEFED
:0D34DB00F090E0E3E0FFEF54BFFFEFF022C0
:1044C10090E0EF7405F090E0EEE4F0758910758AE4
:1044D10000758CFE758B00758D00D2A9D2ABD28C84
:0344E100D28E2256
:103D900090E0C9E4F090E0CCE4F0A3E4F090E0CA55
:103DA000E4F0A3E4F090E0C8E0FFEF54FDFFEFF093
:103DB00090E0C8E0FFEF4401FFEFF090E0C8E0FFC3
:103DC000EF4408FFEFF090E08AE0FFEF54FEFFEFD2
:103DD000F090E0C8E0FFEF4420FFEFF090E0C8E093
:103DE000FFEF4404FFEFF090E0C8E0FFEF547FFFE7
:103DF000EFF090E0C8E0FFEF54BFFFEFF0C28BD2CE
:023E0000AA22F4
:10446D0090E0CFE4F090E0D274E0F0A374C0F0904F
:10447D00E0CEE0FFEF4420FFEFF090E0CEE0FFEF65
:0D448D004404FFEFF053FEF0D2BDC2C52283
:1044010090E0F4E4F090E0F77410F0A374C0F09041
:10441100E0F3E0FFEF4420FFEFF090E0F3E0FFEF87
:104421004404FFEFF090E0F3E0FFEF547FFFEFF083
:07443100D2CED2BAC2C222B2
:1044380090E0FAE4F090E0FD7410F0A374C0F090FE
:10444800E0F9E0FFEF4420FFEFF090E0F9E0FFEF44
:104458004404FFEFF090E0F9E0FFEF547FFFEFF046
:05446800D2BCC2C42219
:10417D0090E0B2742EF0000000000000000000007E
:10418D000000000000000000000000000000000022
:10419D000000000000000090E0E77402F090E0E6FF
:1041AD00E4F000000000000000000000000000002E
:1041BD0000000000000000000000000000000000F2
:0341CD00000022CD
:0D452E0075985075D88075AAF375BA0322F0
:0A455000759B90759DE675BB032274
:10433B0090E07AE0FFEF54FBFFEFF090E07AE0FFC4
:10434B00EF54FEFFEFF090E07AE0FFEF54F7FFEF52
:10435B00F090E07AE0FFEF54FDFFEFF090E089E0A2
:10436B00FFEF54FEFFEFF090E089E0FFEF54FDFF0D
:03437B00EFF0223E
:032003000239EEB1
:1039EE00C0E0C0D075D000C007E5F930E0047F011B
:1039FE0080027F00EFB4010353F9FEE5F930E104D4
:103A0E007F0180027F00EFB40105B2A653F9FCE5F9
:103A1E00F930E2047F0180027F00EFB4010353F915
:103A2E00F8E5F930E3047F0180027F00EFB4010373
:103A3E0053F9F0E5F930E0047F0180027F00EF706A
:103A4E002CE5F930E1047F0180027F00EF701EE566
:103A5E00F930E2047F0180027F00EF7010E5F9304B
:103A6E00E3047F0180027F00EF7002C289D007D08D
:043A7E00D0D0E03292
:03200B0002449AF2
:10449A00C0E0C083C082C0D075D000C007C28DB250
:1044AA008490E05AE0FFEF4420FFEFF0D007D0D02D
:0744BA00D082D083D0E03274
:03201B000220069A
:03200600C28F3254
:0320BB000231EF00
:1031EF00C0E0C0F0C083C082C0D075D000C000C0A6
:1031FF0001C002C003C004C005C006C00790E0C8EC
:10320F00E0FFEFC41313135401FFEF30E01190A050
:10321F001EE004F090E0C8E0FFEF547FFFEFF09066
:10322F00E0C8E0FFEFC413135403FFEF20E00302E5
:10323F00332E90E0CCE0FEA3E0FFE4FCFD90A0086D
:10324F00122F4890E08AE0FFEF30E02790E08AE00D
:10325F00FFEF54FEFFEFF090A008E0FCA3E0FDA30A
:10326F00E0FEA3E0FF90A004122F4890A01EE4F010
:10327F0002332390A01EE0FFEF703190A004E0F81E
:10328F00A3E0F9A3E0FAA3E0FB90A008E0FCA3E021
:10329F00FDA3E0FEA3E0FFC3EF9BFFEE9AFEED99C7
:1032AF00FDEC98FC90A01A122F48805D90A01EE0B4
:1032BF00FFE4FCFDFE7810122F3590A01A122F4854
:1032CF0090A008E0FCA3E0FDA3E0FEA3E0FF90A028
:1032DF001AE0F8A3E0F9A3E0FAA3E0FBEB2FFFEA73
:1032EF003EFEE93DFDE83CFC90A004E0F8A3E0F9C8
:1032FF00A3E0FAA3E0FBC3EF9BFFEE9AFEED99FD6F
:10330F00EC98FC90A01A122F4890E08AE0FFEF444F
:10331F0001FFEFF090E0C8E0FFEF54BFFFEFF09038
:10332F00E0C8E0FFEFC41313135401FFEF20E020B8
:10333F0090E0C8E0FFEFC413135403FFEF20E01039
:10334F00E5F930E5047F0180027F00EF7002C28B48
:10335F00D007D006D005D004D003D002D001D000C2
:0B336F00D0D0D082D083D0F0D0E0326C
:03208B00023E749E
:103E7400C0E0C083C082C0D075D000C00790E0CE3F
:103E8400E0FFEF547FFFEFF053FEF0B2A6E5FE3003
:103E9400E0047F0180027F00EF703AE5FE30E10428
:103EA4007F0180027F00EF702CE5FE30E2047F0189
:103EB40080027F00EF701EE5FE30E3047F01800284
:103EC4007F00EF7010E59330E7047F0180027F00EC
:103ED400EF7002C2C5D007D0D0D082D083D0E032F8
:0320AB00023D19DA
:103D1900C0E0C083C082C0D075D000C006C0079083
:103D2900E0F3E0FFEF547FFFEFF090E0F3E0FFEF07
:103D390054BFFFEFF0B2A690E0F3E0FFEFC4131316
:103D49005403FFEF30E0047F0180027F0090E0F32D
:103D5900E0FEEEC41313135401FEEE30E0047E01BD
:103D690080027E00EE4FFFEF7010E5FA30E3047F2A
:103D79000180027F00EF7002C2C2D007D006D0D006
:073D8900D082D083D0E032AC
:0320C300023A825C
:103A8200C0E0C083C082C0D075D000C006C007901D
:103A9200E0F9E0FFEF547FFFEFF090E0F9E0FFEF95
:103AA20054BFFFEFF0E5FD30E3047F0180027F00A9
:103AB200EF7051E5FD30E4047F0180027F00EF707A
:103AC20043E5FD30E5047F0180027F00EF70359011
:103AD200E0F9E0FFEFC413135403FFEF30E0047F7B
:103AE2000180027F0090E0F9E0FEEEC4131313544C
:103AF20001FEEE30E0047E0180027E00EE4FFFEF19
:103B02007002C2C4B2A6D007D006D0D0D082D08371
:033B1200D0E032CE
:03204B00023E0250
:103E0200C0E0C0D075D000C007E5B530E0047F0146
:103E120080027F00EFB4010343B601E5CD30E00438
:103E22007F0180027F00EFB4010343CE01E5DD3064
:103E3200E0047F0180027F00EFB4010343DE01E56D
:103E4200B530E0047F0180027F00EF701EE5CD30C7
:103E5200E0047F0180027F00EF7010E5DD30E004B6
:103E62007F0180027F00EF7002C2C1D007D0D0D0A4
:023E7200E0323C
:0320A300023FB445
:103FB400C0E0C083C082C0D075D000C006C0074333
:103FC400F60190E0F3E0FFEFC413135403FFEF3066
:103FD400E0047F0180027F0090E0F3E0FEEEC41372
:103FE40013135401FEEE30E0047E0180027E00EEE5
:103FF4004FFFEF7010E5F530E0047F0180027F0091
:10400400EF7002C2C2D007D006D0D0D082D083D005
:02401400E03298
:0320B3000243C025
:1043C000C0E0C083C082C0D075D000C00790E0C7F5
:1043D000E0FFEF54FEFFEFF0E5F930E4047F0180E9
:1043E000027F00EF7010E5F930E5047F0180027F65
:1043F00000EF7002C28BD007D0D0D082D083D0E043
:014400003289
:03205B00023B1530
:103B1500C0E0C083C082C0D075D000C00790E0C7A8
:103B2500E0FFEFC313FFEF30E00B90E0C7E0FFEFDE
:103B350054FDFFEFF090E0C7E0FFEF1313543FFF94
:103B4500EF30E00B90E0C7E0FFEF54FBFFEFF090A4
:103B5500E0C7E0FFEF131313541FFFEF30E00B90A6
:103B6500E0C7E0FFEF54F7FFEFF090E0C7E0FFEFAD
:103B7500C313FFEF20E02190E0C7E0FFEF131354DC
:103B85003FFFEF20E01290E0C7E0FFEF131313545F
:103B95001FFFEF20E002C2C3D007D0D0D082D08370
:033BA500D0E0323B
:0320CB00023BA82D
:103BA800C0E0C083C082C0D075D000C006C007E5A1
:103BB800FD30E3047F0180027F00EF7051E5FD30A6
:103BC800E4047F0180027F00EF7043E5FD30E504E7
:103BD8007F0180027F00EF703590E0F9E0FFEFC4CD
:103BE80013135403FFEF30E0047F0180027F00903D
:103BF800E0F9E0FEEEC41313135401FEEE30E004C6
:103C08007E0180027E00EE4FFFEF7002C2C4D00733
:0B3C1800D006D0D0D082D083D0E032A4
:0320D300023C23A9
:103C2300C0E0C083C082C0D075D000C006C007E525
:103C3300FD30E3047F0180027F00EF7051E5FD302A
:103C4300E4047F0180027F00EF7043E5FD30E5046B
:103C53007F0180027F00EF703590E0F9E0FFEFC451
:103C630013135403FFEF30E0047F0180027F0090C1
:103C7300E0F9E0FEEEC41313135401FEEE30E0044A
:103C83007E0180027E00EE4FFFEF7002C2C4D007B8
:0B3C9300D006D0D0D082D083D0E03229
:0320DB00023C9E26
:103C9E00C0E0C083C082C0D075D000C006C007E5AA
:103CAE00FD30E3047F0180027F00EF7051E5FD30AF
:103CBE00E4047F0180027F00EF7043E5FD30E504F0
:103CCE007F0180027F00EF703590E0F9E0FFEFC4D6
:103CDE0013135403FFEF30E0047F0180027F009046
:103CEE00E0F9E0FEEEC41313135401FEEE30E004CF
:103CFE007E0180027E00EE4FFFEF7002C2C4D0073D
:0B3D0E00D006D0D0D082D083D0E032AD
:0320E300024016A2
:10401600C0E0C0D075D000C00753FEFEE5FE30E01C
:10402600047F0180027F00EF703AE5FE30E1047FF5
:104036000180027F00EF702CE5FE30E2047F0180F4
:10404600027F00EF701EE5FE30E3047F0180027FF1
:1040560000EF7010E59330E7047F0180027F00EFE8
:0B4066007002C2C5D007D0D0D0E032FD
:0320EB000240713F
:10407100C0E0C0D075D000C00753FEFCE5FE30E0C3
:10408100047F0180027F00EF703AE5FE30E1047F9A
:104091000180027F00EF702CE5FE30E2047F018099
:1040A100027F00EF701EE5FE30E3047F0180027F96
:1040B10000EF7010E59330E7047F0180027F00EF8D
:0B40C1007002C2C5D007D0D0D0E032A2
:0320F3000240CCDC
:1040CC00C0E0C0D075D000C00753FEF8E5FE30E06C
:1040DC00047F0180027F00EF703AE5FE30E1047F3F
:1040EC000180027F00EF702CE5FE30E2047F01803E
:1040FC00027F00EF701EE5FE30E3047F0180027F3B
:10410C0000EF7010E59330E7047F0180027F00EF31
:0B411C007002C2C5D007D0D0D0E03246
:0B453B00309802C298309902C2992209
:0320830002202612
:10202600C0E0E59B30E003539BFEE59B30E10353A4
:052036009BFDD0E0322B
:0320430002437ED7
:10437E00C0E0C083C082C0D075D000C006C0079018
:10438E00E05BE0FFEF30E00D90E05BE0FFEF54FE0E
:10439E00FFEFF0C2C090E072E0FEA3E0FF90A01825
:1043AE00EEF0A3EFF0D007D006D0D0D082D083D0DD
:0243BE00E032EB
:1041D0008F3990E08EE0FFEFC413135403FFEF20FC
:1041E000E0F090E08F7453F090E091E539F090E0CA
:1041F00092E4F0AF3DAE3CAD3BAC3A90E093122F71
:104200004890E08E740BF090E08EE0FFEFC4135402
:0C42100007FFEF30E0F190E08EE4F022B8
:10421C008F1D90E08EE0FFEFC413135403FFEF20CB
:10422C00E0F090E08F7455F090E091E51DF090E097
:10423C0092E4F090E08E7407F090E08EE0FFEFC413
:10424C00540FFFEF30E0F290E08EE4F090E093E05A
:0B425C00FCA3E0FDA3E0FEA3E0FF22B6
:032023000229226D
:032013000228ACF4
:03205300022895CB
:0320630002286AE6
:03206B000228C385
:10286A00C0D0C0E0E5FD20E30D20E41120E515D03D
:10287A00E0D0D00220C3D0E0D0D00220CBD0E0D02C
:10288A00D00220D3D0E0D0D00220DBC0D0C0E0E517
:10289A00FA20E307D0E0D0D00220ABD0E0D0D002BB
:1028AA0020A3C0D0C0E0E5F920E407D0E0D0D002F0
:1028BA0020B3D0E0D0D00220BBC0D0C0E0E5932046
:1028CA00E727E5FE20E00D20E11120E215D0E0D057
:1028DA00D002208BD0E0D0D00220E3D0E0D0D002CA
:1028EA0020EBD0E0D0D00220F375D000C000C001A8
:1028FA00740033747C3353937FC2C5D2998046C81F
:10290A00C443968010E40353967FC8759380F59468
:08291A00316EF59588932163ED
:10292200C0D0C0E0309814E599C298F51EB4A55EF7
:10293200D29975D000C000C001801074FF75D0001C
:10294200C000C00178FF8600B8FF2974F73099FDF6
:10295200C299F599D0017805D0E03198D8FAE931D9
:1029620098316EC0E0316EC0E0316EF83098FDE50E
:1029720099C29822E58124FCF9800C0819E66708BF
:10298200097004E66760C4B8FEF1D001D000D0E05F
:10299200D0D0439310323099FDC299F59922C0E00C
:1029A200316EC0E0316EC0E0316EF9316EC0E0C010
:1029B2000078FFE67002C299218E8882F583216336
:1029C2008881F5F02163F5802163F5B02163E5810B
:1029D200C083C082C08EC0F0C0E0C0E0214FE58954
:1029E200C088C087C086C085C084C080214FE59062
:1029F200C08FC08EC08DC08CC08BC08A214FE5971E
:102A0200C096C095C094C093C092C091214FE59EDC
:102A1200C09DC09CC09BC09AC099C098214FE5A59B
:102A2200C0A4C0A3C0A2C0A1C0A0C09F214FE5AC5A
:102A3200C0ABC0AAC0A9C0A8C0A7C0A6214FE5B319
:042A4200C0B2C0B1AD
:102A4600C0B0C0AFC0AEC0AD214FE5BAC0B9C0B8C6
:102A5600C0B7C0B6C0B5C0B4214FE5C1C0C0C0BF85
:102A6600C0BEC0BDC0BCC0BB214FE5C8C0C7C0C644
:102A7600C0C5C0C4C0C3C0C2214FE5CFC0CEC0CD03
:102A8600C0CCC0CBC0CAC0C9214FE5D7C0D6C0D5BF
:102A9600C0D4C0D3C0D2C0D1214FE5DEC0DDC0DC7A
:102AA600C0DBC0DAC0D9C0D8214FE5E6C0E5C0E436
:102AB600C0E3C0E2C0E1C0DF214FE5EDC0ECC0EBF2
:102AC600C0EAC0E9C0E8C0E7214FE5F5C0F4C0F3AD
:102AD600C0F2C0F1C0EFC0EE214FE5FCC0FBC0FA6A
:102AE600C0F9C0F8C0F7C0F6214FE5FFC0FEC0FD33
:102AF600C0E0C0E0C0E0C0E0214FBFA7005025EF16
:102B0600640AA2ACC2AC7009740DC299F5993099E9
:102B1600FDEFC299F5993099FD500778FFE67002EE
:102B2600C29992AC2230AC0CE51E64A560F774A580
:102B3600C51EFF223098FDE599B4A505122B6580C8
:102B4600E4FFC2982230AC07E51EB4A510C322C329
:0F2B560030980BE599B4A505122B6580E8D322C2
:0B2B650078FF76FF751EA5D2AC2200A1
:084267008F188E178D168C15BF
:10426F00AF18AE17AD16AC158F1C8E1B8D1A8C198F
:10427F00851CE9851BEA851AEB8519EC75EF00E5BE
:10428F00EC30E7047F0180027F00EF60F285E91CCC
:10429F0085EA1B85EB1A85EC19AF1CAE1BAD1AAC6A
:0142AF0019F5
:0142B00022EB
:10362E008F418E408D3F8C3E7F007E007D007C0062
:10363E00AB41AA40A93FA83EC3122F0B500DAF417C
:10364E00AE40AD3FAC3E122EFD8008AF41AE40AD58
:10365E003FAC3E8F0C8E0B8D0A8C097F007E007D59
:10366E00B47C00AB0CAA0BA90AA809C3122F0B40FD
:10367E000E750C00750B00750AB475090080DCAF71
:10368E000CAE0BAD0AAC097806122F35780F122F3F
:10369E00218F0C8E0B8D0A8C09AF0CAE0BAD0AACC4
:1036AE00097B2D7A00790078001242F78F0C8E0B71
:1036BE008D0A8C097F027E007D007C00AB0CAA0B6C
:1036CE00A90AA809122EAE8F828E83E0FEA3E0FF18
:1036DE00E4FCFD8F148E138D128C11AF14AE13AD4E
:1036EE0012AC117810122F358F148E138D128C117F
:1036FE00AF14AE13AD12AC11780F122F218F148EA2
:10370E00138D128C117F007E007D007C00AB41AAD0
:10371E0040A93FA83EC3122F0B5013AF14AE13ADEA
:10372E0012AC11122EFD8F148E138D128C11AF143C
:07373E00AE13AD12AC112225
:103851008F458E448D438C427F007E007D007C002D
:10386100AB45AA44A943A842C3122F0B500DAF4543
:10387100AE44AD43AC42122EFD8008AF45AE44AD1F
:1038810043AC428F0C8E0B8D0A8C097F007E007D2C
:10389100B47C00AB0CAA0BA90AA809C3122F0B40D8
:1038A1001BC3E50C9400F50CE50B9400F50BE50A40
:1038B10094B4F50AE5099400F50980CFAF0CAE0B7D
:1038C100AD0AAC097806122F35780F122F218F0C13
:1038D1008E0B8D0A8C09AF0CAE0BAD0AAC097B2D9A
:1038E1007A00790078001242F78F0C8E0B8D0A8CCA
:1038F100097F027E007D007C00AB0CAA0BA90AA8FF
:1039010009122EAEE42FF58274013EF583E0FEA389
:10391100E0FFE4FCFD8F148E138D128C11AF14AEF9
:1039210013AD12AC117810122F358F148E138D1226
:103931008C11AF14AE13AD12AC11780F122F218F71
:10394100148E138D128C11AF14AE13AD12AC112263
:1034E8008F498E488D478C467F007E007D007C008A
:1034F800AB49AA48A947A846C3122F0B500DAF499C
:10350800AE48AD47AC46122EFD8008AF49AE48AD77
:1035180047AC468F0C8E0B8D0A8C09AF0CAE0BADE9
:103528000AAC091242678F0C8E0B8D0A8C09C37482
:103538000F95EFF508E50C54FFF50CE50B54FFF576
:103548000BE50A54FFF50AE509547FF509AF0CAEFF
:103558000BAD0AAC097816122F218F0C8E0B8D0A31
:103568008C097F027E007D007C00AB0CAA0BA90AA7
:10357800A809122EAEE42FF58274043EF583E0FE0E
:10358800A3E0FFE4FCFD8F148E138D128C11AF1491
:10359800AE13AD12AC117810122F358F148E138D17
:1035A800128C11AF14AE13AD12AC117810122F217A
:1035B8008F148E138D128C11C3E50864809480409B
:1035C80019AF14AE13AD12AC11A908A801122F211E
:1035D8008F148E138D128C11801AAF14AE13AD1286
:1035E800AC11E508F404F9A801122F358F148E13D5
:1035F8008D128C117F007E007D007C00AB49AA48AB
:10360800A947A846C3122F0B5013AF14AE13AD121F
:10361800AC11122EFD8F148E138D128C11AF14AEB7
:0636280013AD12AC1122EB
:103EE4008F248E238D228C21AF24AE23AD22AC21CE
:103EF4007807122F218F108E0F8D0E8C0DAF28AEE8
:103F040027AD26AC257807122F218F0C8E0B8D0A36
:103F14008C09AF10AE0FAD0EAC0DAB0CAA0BA90AF9
:103F2400A809122EAE8F148E138D128C11AF14AEFD
:103F340013AD12AC117801122F218F148E138D1230
:0B3F44008C11AF14AE13AD12AC1122B3
:104127008F2C8E2B8D2A8C29AF2CAE2BAD2AAC2948
:104137007807122F358F108E0F8D0E8C0DAF30AE86
:104147002FAD2EAC2D7808122F218F0C8E0B8D0AD8
:104157008C09AB0CAA0BA90AA809AF10AE0FAD0EBC
:10416700AC0D1242F78F148E138D128C11AF14AE53
:0641770013AD12AC112291
:103053008F4D8E4C8D4B8C4A7F007E007D007C0013
:10306300AB4DAA4CA94BA84AC3122F0B500DAF4D21
:10307300AE4CAD4BAC4A122EFD8008AF4DAE4CADFD
:103083004BAC4A8F0C8E0B8D0A8C09AF0CAE0BAD7B
:103093000AAC091242678F0C8E0B8D0A8C09C3741C
:1030A3001095EFF508E50875F002122E8CAFF0EFDE
:1030B3007067E50C54FFF50CE50B54FFF50BE50ABF
:1030C30054FFF50AE509547FF509AF0CAE0BAD0AC1
:1030D300AC097817122F21EF2480F50CEE3400F59C
:1030E3000BED3400F50AEC3400F5097F027E007D18
:1030F300007C00AB0CAA0BA90AA809122EAEE42F80
:10310300F58274083EF583E0FEA3E0FFE4FCFD8F47
:10311300148E138D128C11805B0508AF0CAE0BADB2
:103123000AAC097818122F218F0C8E0B8D0A8C098B
:10313300E50C547FF50CE50B5400F50BE50A540040
:10314300F50AE5095400F5097F027E007D007C0045
:10315300AB0CAA0BA90AA809122EAEE42FF58274B0
:10316300083EF583E0FEA3E0FFE4FCFD8F148E131D
:103173008D128C11AF14AE13AD12AC117810122F47
:10318300358F148E138D128C11AF14AE13AD12AC98
:1031930011780F122F218F148E138D128C11C3E50A
:1031A3000864809480401DAF14AE13AD12AC11E5DA
:1031B30008A2E713F9A801122F358F148E138D126D
:1031C3008C11801FAF14AE13AD12AC11E508F404DB
:1031D300FBEBA2E713F9A801122F218F148E138D95
:0C31E300128C11AF14AE13AD12AC11220F
:102BAA008F348E338D328C317F007E007D007C0025
:102BBA00AB34AA33A932A831C3122F0B500DAF344C
:102BCA00AE33AD32AC31122EFD8008AF34AE33AD28
:102BDA0032AC318F108E0F8D0E8C0D7F007E007DF2
:102BEA00007C00AB38AA37A936A835C3122F0B5080
:102BFA000DAF38AE37AD36AC35122EFD8008AF3882
:102C0A00AE37AD36AC358F0C8E0B8D0A8C09AF10F2
:102C1A00AE0FAD0EAC0DAB0CAA0BA90AA809D312C4
:102C2A002F0B5003022CEAAF10AE0FAD0EAC0D788D
:102C3A0005122F358F108E0F8D0E8C0DAF0CAE0B2B
:102C4A00AD0AAC097804122F218F0C8E0B8D0A8CD9
:102C5A0009AB0CAA0BA90AA809AF10AE0FAD0EACAE
:102C6A000D1242F78F0C8E0B8D0A8C097F027E00A3
:102C7A007D007C00AB0CAA0BA90AA809122EAEE4AF
:102C8A002FF582740C3EF583E0FEA3E0FFE4FCFD21
:102C9A008F148E138D128C11AF14AE13AD12AC11AA
:102CAA007B2D7A0079007800122EAE8F148E138D48
:102CBA00128C11AF14AE13AD12AC11780C122F3561
:102CCA008F148E138D128C11AF14AE13AD12AC117A
:102CDA007809122F218F148E138D128C11022DB6A2
:102CEA00AF0CAE0BAD0AAC097805122F358F0C8EDE
:102CFA000B8D0A8C09AF10AE0FAD0EAC0D78041215
:102D0A002F218F108E0F8D0E8C0DAF0CAE0BAD0ACE
:102D1A00AC09AB10AA0FA90EA80D1242F78F0C8EA0
:102D2A000B8D0A8C097F027E007D007C00AB0CAA09
:102D3A000BA90AA809122EAEE42FF582740C3EF5EF
:102D4A0083E0FEA3E0FFE4FCFD8F148E138D128C4A
:102D5A0011AF14AE13AD12AC117B2D7A0079007845
:102D6A0000122EAE8F148E138D128C11AF14AE1367
:102D7A00AD12AC11780C122F358F148E138D128C64
:102D8A0011AF14AE13AD12AC117809122F218F14A2
:102D9A008E138D128C11C3E49514F514E49513F572
:102DAA0013742D9512F512E49511F5117F007E002A
:102DBA007D007C00AB34AA33A932A831C3122F0B91
:102DCA00502F7F007E007D007C00AB38AA37A936E1
:102DDA00A835D3122F0B4019C3E49514F514E495C2
:102DEA0013F513745A9512F512E49511F511022E82
:102DFA00837F007E007D007C00AB34AA33A932A811
:102E0A0031C3122F0B50307F007E007D007C00AB57
:102E1A0038AA37A936A835C3122F0B501AE514243D
:102E2A0000F514E5133400F513E512345AF512E5EA
:102E3A00113400F51180427F007E007D007C00ABDA
:102E4A0034AA33A932A831D3122F0B402C7F007E2B
:102E5A00007D007C00AB38AA37A936A835C3122FEB
:102E6A000B5016C3E49514F514E49513F51374B4D2
:102E7A009512F512E49511F511AF14AE13AD12AC1B
:022E8A00112213
:102E8C00C2D530F707B2D563F0FF05F030E70CB2CE
:102E9C00D5F4048463F0FF05F080018430D502F48E
:022EAC000422FE
:102EAE00E88FF0A4CC8BF0A42CFCE98EF0A42CFCC3
:102EBE008AF0EDA42CFCEA8EF0A4CDA8F08BF0A441
:102ECE002DCC3825F0FDE98FF0A42CCD35F0FCEBA0
:102EDE008EF0A4FEA9F0EB8FF0A4CFC5F02ECD3965
:0F2EEE00FEE43CFCEAA42DCE35F0FDE43CFC22D2
:1042F700C2D5E830E70FB2D5E4C39BFBE49AFAE4F2
:1043070099F9E498F8EC30E717B2D512432D122F3C
:10431700C1E4C39BFBE49AFAE499F9E498F88003B3
:10432700122FC130D50DE4C39FFFE49EFEE49DFD2F
:04433700E49CFC22E4
:0E2EFD00C3E49FFFE49EFEE49DFDE49CFC22E6
:102F0B00EB9FF5F0EA9E42F0E99D42F0EC6480C83D
:062F1B0064809845F022DD
:102F2100E86010ECA2E713FCED13FDEE13FEEF13C6
:042F3100FFD8F022B3
:102F3500E8600FEFC333FFEE33FEED33FDEC33FCFA
:032F4500D8F1229E
:0C2F4800ECF0A3EDF0A3EEF0A3EFF022FC
:102F5400A8828583F0D083D082122F6B122F6B123C
:102F64002F6B122F6BE473E493A3C583C5F0C58361
:102F7400C8C582C8F0A3C583C5F0C583C8C582C8C7
:012F8400222A
:102B7000C582F9316EC583227170C0E0E0A331983F
:102B8000D8FA8982D08321637170C0E0E493A331C5
:102B900098D8F980EDF9E7093198D8FA2163717076
:0A2BA000C0E0E8F080DCF6216300DD
:102F850075F008758200EF2FFFEE33FECD33CDCC03
:102F950033CCC58233C5829BED9AEC99E582984086
:102FA5000CF582EE9BFEED9AFDEC99FC0FD5F0D663
:102FB500E4CEFBE4CDFAE4CCF9A88222B800C1B98D
:102FC5000059BA002DEC8BF084CFCECDFCE5F0CBCB
:102FD500F97818EF2FFFEE33FEED33FDEC33FCEB04
:102FE50033FB10D703994004EB99FB0FD8E5E4F9BF
:102FF500FA227818EF2FFFEE33FEED33FDEC33FCAC
:10300500C933C910D7059BE99A4007EC9BFCE99A9F
:10301500F90FD8E0E4C9FAE4CCFB2275F010EF2FE4
:10302500FFEE33FEED33FDCC33CCC833C810D707E4
:103035009BEC9AE899400AED9BFDEC9AFCE899F81F
:0E3045000FD5F0DAE4CDFBE4CCFAE4C8F922B2
:00000001FF
